:020000040800F2
:1000000000000824D1300008051B0008071B000869
:10001000091B00080B1B00080D1B00080000000056
:1000200000000000000000000000000061900008D7
:100030000F1B000800000000F19000085591000817
:100040002531000825310008253100082531000838
:100050002531000825310008253100082531000828
:100060002531000825310008253100082531000818
:100070002531000825310008253100082531000808
:1000800025310008253100082531000825310008F8
:1000900025310008253100082531000825310008E8
:1000A00025310008111B0008253100082531000802
:1000B00025310008253100082531000825310008C8
:1000C00025310008253100082531000825310008B8
:1000D00025310008253100082531000825310008A8
:1000E00025310008253100080000000025310008F6
:1000F0002531000825310008253100082531000888
:100100002531000825310008253100082531000877
:100110002531000825310008253100082531000867
:100120002531000825310008253100082531000857
:10013000253100081D1B0008253100082531000865
:1001400000000000000000000000000000000000AF
:100150002531000825310008253100082531000827
:100160002531000825310008253100082531000817
:100170002531000825310008253100080000000065
:1001800025310008253100082531000825310008F7
:1001900025310008253100082531000825310008E7
:1001A000291B0008351B00082531000825310008EF
:1001B00025310008253100082531000825310008C7
:1001C00025310008253100082531000825310008B7
:1001D00025310008253100082531000825310008A7
:1001E0002531000825310008253100082531000897
:1001F0002531000825310008253100082531000887
:100200002531000825310008253100082531000876
:100210002531000825310008253100082531000866
:1002200025310008253100082531000800000000B4
:1002300025310008253100080000000025310008A4
:100240002531000825310008253100082531000836
:100250002531000825310008253100082531000826
:100260002531000825310008253100082531000816
:100270002531000825310008253100080000000064
:100280002531000825310008253100080000000054
:08029000000000002531000808
:1002A00010B5054C237833B9044B13B10448AFF3B0
:1002B00000800123237010BDF8000024000000001E
:1002C0003000040808B5034B1BB103490348AFF3E2
:1002D000008008BD00000000FC000024300004087D
:1002E00010F8012B11F8013B012A28BF9A42F7D0E0
:1002F000D01A7047034613F8012B002AFBD1181AB5
:1003000001387047000000000000000000000000FD
:1003100001F0FF01102A2BDB10F0070F08D010F8B6
:10032000013B013A8B422DD010F0070F42B3F6D1BA
:10033000F0B441EA012141EA014122F007047FF0D3
:1003400000070023F0E80256083C85EA010586EA2A
:10035000010685FA47F5A3FA87F586FA47F6A5FA66
:1003600087F68EB9EED1F0BC01F0FF0102F0070272
:1003700032B110F8013B013A83EA010313B1F8D11D
:100380000020704701387047002D06BF35460338FE
:10039000073815F0010F07D1013015F4807F02BF37
:1003A000013015F4C03F0130F0BC0138704700BF88
:1003B0007BB972B90029BEBF00204FF0004106E0B2
:1003C00008BF00281CBF6FF000414FF0FF3000F065
:1003D000D3B9ADF1080C6DE904CE002909DB002B7F
:1003E0001ADB00F04DF8DDF804E0DDE9022304B08B
:1003F0007047404261EB4101002B1BDB00F040F8ED
:10040000DDF804E0DDE9022304B0404261EB410184
:10041000524263EB43037047524263EB430300F0E5
:100420002FF8DDF804E0DDE9022304B0404261EB7F
:1004300041017047524263EB430300F021F8DDF8BD
:1004400004E0DDE9022304B0524263EB430370474A
:1004500053B94AB9002908BF00281CBF4FF0FF312B
:100460004FF0FF3000F088B9ADF1080C6DE904CE13
:1004700000F006F8DDF804E0DDE9022304B070477F
:100480002DE9F047089D8E4604468846002B4AD148
:100490008A42174662D9B2FA82F64EB1C6F12003FB
:1004A00001FA06F820FA03F3B74043EA0808B4401B
:1004B0004FEA174E1FFA87FCB8FBFEF1230C0EFB28
:1004C000118843EA084301FB0CF29A4209D9FB1850
:1004D00001F1FF3080F0EA809A4240F2E780023971
:1004E0003B449A1AA3B2B2FBFEF00EFB102243EA81
:1004F000024300FB0CFC9C4509D9FB1800F1FF32BC
:1005000080F0D6809C4540F2D3803B44023840EADC
:100510000140A3EB0C0300211DB1F3400022C5E90B
:100520000032BDE8F0878B4205D90DB1C5E9000165
:1005300000210846F5E7B3FA83F1002946D1734557
:1005400002D3824200F20581841A6EEB030201207D
:100550009046002DE5D0C5E90048E2E7002A00F00A
:100560009080B2FA82F6002E40F0A4808A1A030C22
:100570004FEA174E80B2BCB20121B2FBFEFC0EFB6B
:100580001C2243EA024304FB0CF29A4207D9FB18EF
:100590000CF1FF3802D29A4200F2E080C4469B1A66
:1005A000B3FBFEF20EFB123340EA034302FB04F4FA
:1005B0009C4207D9FB1802F1FF3002D29C4200F2A4
:1005C000CA8002461B1B42EA0C40A5E7C1F1200687
:1005D0008B4022FA06F71F430EFA01F420FA06F3C5
:1005E0002EFA06FE4FEA1749234300FA01F81FFAD4
:1005F00087FCBEFBF9F01C0C09FB10EE44EA0E442C
:1006000000FB0CFEA64502FA01F209D93C1900F1E3
:10061000FF3A80F09C80A64540F2998002383C4425
:10062000A4EB0E041FFA83FEB4FBF9F309FB134499
:100630004EEA044403FB0CFCA44508D93C1903F121
:10064000FF3E80F08280A4457FD9023B3C4443EAD0
:100650000040A4EB0C04A0FB02EC64457346E146A9
:1006600062D35FD05DB1B8EB030264EB090404FA16
:1006700006F622FA01F31E43CC40C5E900640021CE
:100680004FE7B1FBF2FC010C41EA0E4180B240EAB7
:1006900001423B4638463C46B846BE462026B1FBA2
:1006A000F7F1A2EB080241EA0C4166E7014618E7C0
:1006B00010462CE7C6F120022EFA02F3B740B140F3
:1006C00020FA02F24FEA174E0A43B3FBFEF8BCB21F
:1006D0000EFB1833110C41EA034108FB04F9B0404A
:1006E00089454FEA104380B23ED9791808F1FF3CA2
:1006F00001D289451FD8A1EB0901B1FBFEF909FB25
:1007000004F80EFB191192B242EA0142424529D285
:10071000BA1809F1FF31C4D24245C2D2A9F102018F
:100720003A44BEE7F0459DD2BEEB02036CEB070CEA
:100730000138E14696E7A7EB09094944A8F1020C04
:10074000B1FBFEF909FB04F8DBE773467FE750468F
:1007500066E70846FDE63B44023A33E7ACF1020C9B
:100760003B441CE749469CE7A1EB0901C446B1FBA9
:10077000FEF909FB04F8C4E7704700BF034B0360B0
:10078000034B0B6080231360704700BF14030024E9
:100790001401002470B50A4E0A4C338824880133B2
:1007A000A4B203F01F039C4209D03588064CADB2B9
:1007B000338004F8250004EB85004170428070BD51
:1007C000700300246E0300247203002408B503F0B4
:1007D00021FFB0FA80F0400908BD00000B4A0C4B25
:1007E00011881B8889B29BB299420CD013880949A1
:1007F0009BB251F82330036001201388013303F0CA
:100800001F03138070470020704700BF6E03002451
:100810007003002472030024024B0022B3F900008D
:100820001A80704768030024034B93F86500003872
:1008300018BF0120704700BFF4030024F8B520B1B1
:100840001A4A0368136043685360A02200211848C5
:1008500000243EF035FC174B174F1C80174B144DEE
:100860001C8002F025FD06460134B98857F8080BB4
:100870001435FFF7ABFF082C05F8140C05F8130C22
:1008800045F8106CF0D110210D48FFF79FFF04468A
:1008900020210B48FFF79AFF0A4B40EA44000A4A1E
:1008A000187000231380094A1380F8BD000000244B
:1008B000F40300246E030024F000040870030024F5
:1008C000000402586C0300246A0300246803002417
:1008D0002DE9F84F00260546464F474CB346DFF852
:1008E0003081B9885FFA86F93868FFF76FFF23789F
:1008F0006178834218BF2070227818BF65609142EA
:100900003AD06368B8F80000EB1A834234D36270BF
:100910003AB3002249460120A56084F80CB0256155
:10092000FFF738FFA368A5EB030A237B4BB9B8F8A0
:1009300002309A4505D30122494604202273FFF76D
:1009400029FFB8F80430CBB19A4517D32369B8F81A
:100950000620EB1A934211D3012249460520256156
:1009600007E049460220FFF715FF237B33B9012238
:100970000320FFF70FFF01E00029D3D1013608372C
:100980001434082EADD110211C48FFF71FFF044678
:1009900020211A48FFF71AFF40EA4400184C237838
:1009A000C5B240EA8300174BC0B21B56A3B1164A2A
:1009B00011880B441BB2032B0BDD002305210620FD
:1009C0001380124A1388013313800122FFF7E2FEDD
:1009D00002E0D91C03DB13802570BDE8F88F0023EB
:1009E000052107201380094A1388013B13804FF02B
:1009F000FF32EBE7F0000408F4030024000402587F
:100A00006C030024E00004086A0300246803002447
:100A100000000024014B1860704700BF94040024BC
:100A200000487047000404244FF47F320249034811
:100A300008B53EF0ACFB08BD2A2A040800040424D3
:100A4000014B1860704700BF9C040024BFF34F8F18
:100A5000094B0A490A4AC1F8683220339342FAD155
:100A6000BFF34F8FBFF36F8F064B1B681BB1064A56
:100A7000127802B9184770470004042400ED00E022
:100A8000000008249C040024980400240146064821
:100A9000064B012210B404681A70636B134363633E
:100AA0005DF8044B03F0DABF3008002498040024FA
:100AB0000021054810B503F0D1FF044B1B6813B1AA
:100AC000BDE81040184710BD300800249C040024E5
:100AD000014B186815F098BFA0040024034B1B7845
:100AE0000BB1FFF7B3BF15F08FBF00BF08000024A4
:100AF00013B5124C4FF488714FF4F07016F026F9CC
:100B00001221206016F01CFA0D49206815F002FF32
:100B10002468FFF785FF0123014600222046009349
:100B20004FF47F3315F008FF0648FFF789FF0020D8
:100B300002B0BDE81040FFF7A9BF00BFA004002429
:100B4000DD0A0008D10A0008704710B50C46FFF70F
:100B500063FE2082FFF768FEA07410BD73B500230A
:100B6000144D0C46144E8B742B788B6001A8FFF744
:100B700035FE80B19DF804309A1F012AF6D9012B69
:100B80000BD19DF80520072AF0D8B25C002AEDD0E1
:100B90002A60A260A37402B070BD022BE6D19DF85A
:100BA0000530072BE2D8F35C002BDFD02B60A3606D
:100BB0000023EFE7A404002430010408014B186867
:100BC000704700BFAC040024014B1868704700BF99
:100BD000A804002413B5154C27F0E4FF0121206080
:100BE00028F022F82068124928F025F8114A6B46AF
:100BF000114C1068516803C36846FFF71FFE27F0C9
:100C0000D1FF0421206028F00FF80C4920680C4C1B
:100C100028F011F827F0C6FF0221206028F004F820
:100C20000849206828F007F802B010BDB00400247D
:100C3000490B000848000408AC0400244B0B0008D2
:100C4000A80400245D0B000808B502F031FBBDE8E4
:100C50000840FFF73DBE0000F8B506F015FB3E4C1E
:100C60003E4A3F493C4801F083F83E483EF0F6F9E1
:100C70006368002B6CD03C480EF07AFA01463B4882
:100C80003EF084F9C82006F097FE39480EF019FFAF
:100C9000384B188801F038F8374B187034480EF08C
:100CA00015FFFFF7C1FE354B1A6802F01F0303F56D
:100CB0007F33BFF34F8F3249203BC1F86822203287
:100CC000002BF9DCBFF34F8FBFF36F8F4FF4FA7037
:100CD0002C4E06F071FE2C4D2BF0F4FC2B4FFFF741
:100CE00007FFFFF777FF01F047FD0446006816F0A5
:100CF0001DF8FFF763FF0146204602F0C7F902F036
:100D0000D7FA044602F0D4FA001BB0F5FA7F14D3E8
:100D100002F0CEFA4FF480510446304603F085FCD1
:100D20002B7853B139681A4A1A483EF02FF900233C
:100D3000032119482B7001F0A5F8012031F05EFD68
:100D4000FFF782FF2FF01EF8012006F035FED9E7ED
:100D5000C82006F031FE8BE7940A00241600002418
:100D60001200002438010408980A00244A010408EB
:100D70003049002410000024CC0600240C0000247C
:100D800000ED00E000180258C4040024C804002448
:100D9000CC040024580104087101040810B59CB06B
:100DA0004C22002109A83EF08BF92022002101A845
:100DB0003EF086F9022003F06DFE00230093234BE2
:100DC0009A6942F440429A619A6902F44042009260
:100DD0001F4AD16A41F00101D162D26A02F00102D8
:100DE0000092009A9A699404FCD54FF48033012153
:100DF0000520C0220824CDE909130223CDE91233CE
:100E0000CDE9163318930023CDE9140209A81B93EA
:100E1000CDE9194303F062FE08B172B6FEE73F2246
:100E200003230421CDE9012340234FF48062CDE95F
:100E300003040DEB0100CDE90533CDE9072304F0F0
:100E400097F908B172B6FEE71CB010BD0048025811
:100E5000000400582DE98048C7B010220021002569
:100E600016A801243EF02CF9C74E02F0A5FA48F26C
:100E70001F7316A8ADF85840CDE9175340F201137F
:100E8000199302F0B7FAC14B16A88DF859408DF8A6
:100E90006550CDE9176302F0ADFA022316A88DF86C
:100EA00062508DF85930BA4B8DF86540179308237E
:100EB0008DF867408DF8603002F09CFA032316A885
:100EC00019948DF859304FF04043179316238DF83D
:100ED000603002F08FFA042002F07CFAAD4B5A69C0
:100EE00012F4003211D1BFF34F8FBFF36F8FC3F8ED
:100EF0005022BFF34F8FBFF36F8F5A6942F4003215
:100F00005A61BFF34F8FBFF36F8FA24A536913F437
:100F1000803323D1C2F88430BFF34F8FD2F88030B2
:100F200043F6E074C3F3C900C3F34E335B0103EA35
:100F30000406014646EA81750139C2F86052F9D2C9
:100F4000203B13F1200FF2D1BFF34F8F536943F4CD
:100F500080335361BFF34F8FBFF36F8F02F06EF991
:100F60004FF4006AFFF71AFFA42200211DA83EF0EB
:100F7000A7F84FF0045200230F2105200227CDE9E6
:100F80001623E4231C972897CDE918134C23CDE9A9
:100F90002003282316A8CDE9243A6923CDE91A773E
:100FA000CDE92277279304F065FB044608B172B6B9
:100FB000FEE700214FF0807005F052FA054600214F
:100FC0004FF0005005F04CFA2946024672483DF0B9
:100FD000DDFF1422214616A83EF072F86F4B012166
:100FE0006F48D3F8E02001264FF4805B6D4D42F04E
:100FF00004024FF004094FF01008C3F8E020D3F8C2
:10100000E02002F004020192019AD3F8E02042F0BD
:101010002002C3F8E020D3F8E02002F02002029280
:10102000029AD3F8E02042F08002C3F8E020D3F81F
:10103000E02002F080020392039AD3F8E02042F00D
:101040000102C3F8E020D3F8E02002F0010204928C
:10105000049AD3F8E02042F00202C3F8E020D3F86B
:10106000E02002F002020592059AD3F8E02042F057
:101070004002C3F8E020D3F8E02002F040020692DC
:10108000069AD3F8E02042F01002C3F8E020D3F82B
:10109000E02002F010020792079AD3F8E02042F015
:1010A0000802C3F8E0202246D3F8E03003F008033A
:1010B0000893089B03F0B4FA22464FF488513A484B
:1010C00003F0AEFA22464FF48051384803F0A8FAF4
:1010D00016A93348CDE91666CDE9184403F0B2F9F4
:1010E0003C2316A932481894CDE9163403F0AAF926
:1010F0004FF4885316A92C48CDE91636CDE918448B
:1011000003F0A0F94FF4184316A925481894CDE927
:10111000163403F097F9942316A926481894CDE9BC
:10112000163403F08FF916A92048CDE916B6CDE99B
:10113000184403F087F921464FF0807002F0E0F880
:101140001D4B402216A92846AC60C5F824B016975E
:101150001C97C5E900344FF48073C5E905234FF4AB
:101160000053C5E9074AAB624FF0030A0723C5E9FC
:101170000398CDE917391993CDE91AA705F0D8FAE4
:10118000E0B172B6FEE700BF0000023010000103BC
:101190000000043000ED00E075010408004402582E
:1011A00000000258D4060024000802580018025813
:1011B00000040258000C025840410052AE4C4FF659
:1011C000FF72C4E9026021462846C4E9006805F0C0
:1011D000D7FA834620B1A9483DF040FF72B6FEE73A
:1011E000304602F06BF84FF6FF7221462846C4E9FC
:1011F0000078C4E9026B05F0C3FA20B1A0483DF0C5
:101200002DFF72B6FEE708234FF6FF722146C4E9B0
:1012100002302846C4E900A805F0B2FA20B1994886
:101220003DF01CFF72B6FEE722234FF6FF72214607
:101230002846A660E360C4E9009805F0A1FA20B151
:1012400091483DF00BFF72B6FEE740F26F738F4A94
:101250008F4990483DF09AFE40F26F71284605F0A4
:10126000AEFA40F26F71284605F0A9FA20B186481F
:101270003DF0F4FE72B6FEE7874C884B2360A3F185
:101280001E53A3F57A23A3F24F63C4E90360C4E9B4
:101290000130C4E90500C4E90700204603F0CEF997
:1012A000014608B172B6FEE7204603F01CFA01467B
:1012B00008B172B6FEE7204603F03BFA08B172B6F9
:1012C000FEE7774C4FF4E136764B0C252046C4E917
:1012D00000360023C4E902332361C4E90553C4E99D
:1012E0000733C4E9093305F08FFE014608B172B631
:1012F000FEE7204605F0F5FE014608B172B6FEE7AE
:10130000204605F00EFF08B172B6FEE7204605F054
:10131000CDFE08B172B6FEE7634C644BA062C4E92F
:101320000200C4E90405C4E90600C4E90800204637
:10133000C4E9003605F068FE014608B172B6FEE762
:10134000204605F0CEFE014608B172B6FEE7204603
:1013500005F0E7FE08B172B6FEE7204605F0A6FEEE
:1013600008B172B6FEE7524C524BE065C4E900305A
:101370000223C4E91300C4E90230C4E91103C4E93B
:101380001500204602F062F808B172B6FEE70121AE
:10139000204602F099F808B172B6FEE7B8220021A3
:1013A00018A805273DF08CFE4FF0005200234FF0A7
:1013B000280E022616A8CDE916234C23CDE920736A
:1013C0004FF40063CDE924E36923CDE92266279336
:1013D00004F050F9054608B172B6FEE70146342222
:1013E00009A8354C3DF06CFE344B4FF000522E21D5
:1013F00040F20E2040F2162CA560A58684F83650E7
:10140000C4E900354FF08053C4E903230323C4E942
:1014100005330F23C4E9071340F21F13C4E909037E
:1014200040F227132046C4E90BC303F035FA024605
:1014300008B172B6FEE74FF4F0714FF48065099081
:101440004FF48873ADF8542014938DF85620CDE9ED
:101450000A10CDE91057FF20194FCDE90E00CDE954
:101460001271204609A9CDE90C3603F0C9FA0646E7
:1014700040B372B6FEE700BFB4040024880104083C
:101480009F010408B6010408CD0104089A95A90536
:10149000342B530BE4010408D8080024001C005826
:1014A0009C0700240010014008070024004400406D
:1014B0002C090024001000523008002400100050B5
:1014C00000040424384616ACFFF7A4FA2946324635
:1014D000164803F0A5F8642001F0F0FE2946012229
:1014E000124803F09DF84FF4FA7001F0E7FE012274
:1014F0004FF480710D4803F093F8FA2001F0DEFEFE
:1015000001220B4D11460B4803F08AF80FCD0FC492
:1015100095E8070084E80700314616A806F024FA8B
:10152000054B186006F014FAFEE700BF00080258E9
:101530005000040800000258D00600240268034B43
:101540009A4201D101F0A8BE704700BF00000140DF
:1015500072B6FEE70A4B82B00F216FF00100D3F89C
:10156000F42042F00202C3F8F4200022D3F8F43051
:1015700003F002030193019B02B001F0DDBE00BF46
:1015800000440258026882B0084B9A420CD1084BC2
:10159000D3F8D42042F01002C3F8D420D3F8D430CA
:1015A00003F010030193019B02B07047001000523A
:1015B0000044025810B5B8B004461422002103A814
:1015C0003DF07EFDC022002108A83DF079FD226893
:1015D0001A4B9A4230D11022002308A8CDE90823E3
:1015E00004F048F808B1FFF7B3FF154C4FF4405230
:1015F00003A91448D4F8E03043F00803C4F8E030FD
:10160000D4F8E03003F008030193019B1223CDE9E5
:1016100003230023CDE905330423079302F012FFCF
:10162000D4F8F43043F08003C4F8F430D4F8F43044
:1016300003F080030293029B38B010BD001C0058D9
:1016400000440258000C02582DE9F043BDB0044696
:101650001422002107A83DF033FDC02200210CA870
:101660003DF02EFD22687A4B9A4240F0EE804FF01A
:10167000005200230CA8CDE90C238C231022CDE9C5
:1016800016230223CDE9183324231A9303F0F2FF23
:1016900008B1FFF75DFF6F4B002403250226D3F846
:1016A000E4200E274FF4806807A942F008026A4838
:1016B0004FF0C009C3F8E420D3F8E42002F0080298
:1016C0000092009AD3F8E02042F02002C3F8E02014
:1016D000D3F8E02002F020020192019AD3F8E02032
:1016E00042F00102C3F8E020D3F8E02002F001024A
:1016F0000292029AD3F8E02042F00202C3F8E020FE
:10170000D3F8E02002F002020392039AD3F8E0201B
:1017100042F04002C3F8E020D3F8E02002F040029B
:101720000492049AD3F8E02042F00402C3F8E020C7
:10173000D3F8E02002F004020592059AD3F8E020E5
:1017400042F00802C3F8E020D3F8E0300B9703F032
:1017500008030693069BCDE90786CDE9094502F00B
:1017600071FE4FF41E7307A93C480B97CDE907366D
:10177000CDE9094502F066FE092307A938480B9315
:10178000CDE90756CDE9094502F05CFE4FF47063E0
:1017900007A933480B97CDE90736CDE9094502F093
:1017A00051FE07A92F480B97CDE90796CDE90945CA
:1017B00002F048FE07A92C480B97CDE90796CDE922
:1017C000094502F03FFE4FF4007307A92648CDE912
:1017D00007360A23CDE909450B9302F033FE4FF497
:1017E000807307A91D48CDE907360D23CDE90945CA
:1017F0000B9302F027FE0C2307A918480B93CDE9A1
:101800000786CDE9094502F01DFE082307A9174800
:101810000B97CDE90736CDE9094502F013FE4020CC
:1018200002F0ACFF802002F0A9FF224605215820DB
:1018300001F082FD582001F0B1FD5920224605211A
:1018400001F07AFD592001F0A9FD3DB0BDE8F0831B
:1018500000100050004402580014025800000258C2
:10186000000402580018025800080258000C0258E0
:1018700010B51422BAB0044600210DEB02003DF071
:101880001FFCC02200210AA83DF01AFC2368344A3C
:10189000934232D1012200230AA8CDE90A2303F0A2
:1018A000E9FE08B1FFF754FE2E4B4FF440412E489D
:1018B000D3F8F02042F01002C3F8F020D3F8F02063
:1018C00002F010020192019AD3F8E02042F00202E5
:1018D000C3F8E020D3F8E03003F002030293029B48
:1018E0000223CDE90513002305A9CDE9073304231D
:1018F000099302F0A7FD3AB010BD1C4A9342FAD1F9
:10190000022200230AA8CDE90A2303F0B3FE08B19E
:10191000FFF71EFE134B05A91548D3F8E82042F443
:101920000032C3F8E820D3F8E82002F40032039232
:10193000039AD3F8E02042F00802C3F8E0206022C6
:10194000D3F8E03003F008030493049B0223CDE9AD
:1019500005230023CDE9073307230993C9E700BF17
:1019600000100140004402580004025800440040A6
:10197000000C0258F0B5B7B00021142201A83DF0C8
:101980009FFB354B1968002963D101220EA81A600C
:10199000A0223DF095FB4FF08072002306A8CDE910
:1019A000062306224523CDE9082302230422CDE99C
:1019B0000A3280220C9318930D9203F05BFE08B15B
:1019C000FFF7C6FD254B022700260325D3F8D420B8
:1019D0000C2401A9224842F48052C3F8D420D3F841
:1019E000D430059403F480530093009B4FF63F03DB
:1019F000CDE90365CDE9013702F024FD0D2301A9EE
:101A000018480594CDE90137CDE9036502F01AFDC8
:101A100048F2331301A914480594CDE90137CDE903
:101A2000036502F00FFD4FF6837301A90F4805947B
:101A3000CDE90137CDE9036502F004FD4CF20373F3
:101A400001A90B480594CDE90137CDE9036502F002
:101A5000F9FC37B0F0BD00BF9409002400440258DF
:101A600000140258000802580018025800100258CA
:101A7000000C02580F2810B504468AB002D9012084
:101A80000AB010BD01460022192001F055FC1920B2
:101A900001F084FC164B694602A81C60154B164CDD
:101AA000D3F8F02042F00102C3F8F020D3F8F03070
:101AB00003F001030193019B03F0C6FC03F0B2FCA9
:101AC0000E4B4000236040F2E733E3600C4BB0FB69
:101AD000F3F001380023606020462361A36004F026
:101AE000BDFF0028CBD1204604F082FEC8E700BF2E
:101AF00028000024004402589809002400000140F6
:101B000040420F00FEE7FEE7FEE7FEE7FEE7704714
:101B1000014804F0AFBE00BF98090024014802F05C
:101B200070B900BF200B0024014802F00CBF00BFB9
:101B300030080024FFF7F8BF01207047024B16223F
:101B40004FF0FF301A60704770BF0024014B16221F
:101B50001A60FEE770BF002470B50D4614460E46AD
:101B6000731B9C4201DC204670BDAFF3008006F879
:101B7000010BF5E770B50D4614460E46731B9C42EB
:101B800001DC204670BD16F8010BAFF30080F5E7CD
:101B90004FF0FF3070474FF4005300204B60704708
:101BA00001207047002070470A4A0346116810B5AB
:101BB00009B9094911601068084C09490344091B17
:101BC0008B4283BF074B0C224FF0FF30136088BF5E
:101BD0001A6010BDE4090024A0C200240004000023
:101BE0000000082470BF00242E4AD2F8883043F445
:101BF0007003C2F888302C4A136803F00F03062BD9
:101C000005D8136823F00F0343F007031360274B35
:101C10001A6842F001021A6000221A61244A196807
:101C20000A4021491A600A68100705D50A6822F09F
:101C30000F0242F007020A6000221E499A61DA612F
:101C40001A6299621C49D9621C4919635A639963E3
:101C5000DA6319645A64196821F4802119601A66DC
:101C6000174B1B686FF30F03B3F1005F03D2154BE3
:101C70000122C3F808210D4BD3F8D420D2040FD48D
:101C8000D3F8D42043F2D20142F48052C3F8D420D6
:101C90000D4A1160D3F8D42022F48052C3F8D42026
:101CA000704700BF00ED00E00020005200440258E1
:101CB0007FEDF6EA000202020000FF01800201014E
:101CC0000010005C0080005100400052044BDA68B4
:101CD00042F00202DA605A689204FCD5704700BFF5
:101CE000004802580020704708B504483DF04EF9FE
:101CF0000023034A1360034A137008BD1502040849
:101D0000E8090024CC06002438B5054609F00AFA93
:101D1000044618B910483DF0A1F90BE00F492A46D6
:101D200008F0D0FD014638B10D483DF02FF92046AE
:101D300009F0AEFA002038BDFF21204608F07EFEF3
:101D400008B90848E7E7084908F072FF07483DF07E
:101D500085F90120EFE700BF330204089027080847
:101D60004C0204086B020408D91E00088302040810
:101D70001FB50B6801A901936FF07F4302931368AD
:101D800002AA039303AB08F089F805B05DF804FBE1
:101D90000A8908B5B0F8643093420AD9496801232A
:101DA0000BF0C8F9014648B10548BDE808403DF0D0
:101DB000EDB80448BDE808403DF050B908BD00BF8B
:101DC000A5020408C60204082DE9F0410E461D468E
:101DD00014465AB923483DF041F9304609F058FA03
:101DE000214B1C60214B1C70002507E04BB11946AC
:101DF0001F483DF0CBF8204608F058FA2846BDE8C9
:101E0000F08112898AB1B2F5007F6168194BDFF861
:101E10007080194F15D218463DF0B9F922898554C2
:101E20002389C8F8003001233B7021463046FFF774
:101E3000AFFF3046218908F03BFE204608F036FA15
:101E4000D2E740F2FF1218463DF0A1F94FF40073BB
:101E500080F8FF51C8F80030012308483B703DF07E
:101E6000FDF8E2E7EA020408E8090024CC060024B1
:101E70000B030408CC040024C40400241E0304083B
:101E8000C804002438B5104D04460A462868C0B17D
:101E9000B0F864308B420FD9214601230BF04AF988
:101EA000014620B10948BDE838403DF06FB82868C8
:101EB000BDE838400BF08EBE0548BDE838403DF027
:101EC000CDB80448F9E700BFE8090024A5020408DA
:101ED000C60204083603040810B526489EB00C4616
:101EE0003DF0BCF8244B0122292124481C60244BDE
:101EF0001A70FFF7C7FFFA2005F05EFD214A22495C
:101F000005A8D378019393780093537812783CF026
:101F1000A9FE05A8FEF7EEF981B205A8FFF7B2FF0A
:101F2000FA2005F049FD194B194A05A81B881949E3
:101F30000293D378019393780093537812783CF00E
:101F400091FE05A8FEF7D6F981B205A8FFF79AFF22
:101F5000FA2005F031FD20460F4908F021FE204609
:101F60000E4908F035FE20460D4908F049FE0020D4
:101F70001EB010BD4F030408E809002460030408E4
:101F8000CC060024160000248A0304081000002454
:101F900012000024A8030408C91D0008E51C00085D
:101FA000E91C000838B504460D462DF0F5F9294620
:101FB00020462DF0F7F9294620462DF0E1F9294673
:101FC0002046BDE838402DF0E1B9000070B5054667
:101FD0008AB02CF003FA044628462CF0F7F905469F
:101FE000FCB1F0B10EF07EFDC0F30726C4B20E487E
:101FF000314622463CF0CAFF2846002113F0CFF8B4
:10200000054670B10134731C084A202102A80094CF
:102010002DF0AEFF284602A936F0DAFD284610F072
:1020200061FF0AB070BD00BFCF030408E7030408D6
:1020300073B5044600284CD04568002D37D128469A
:102040000EF06CFA606012F001FC234A60681146E1
:102050000FF09AFD214866682BF0DDFEC0F30723E0
:102060008DF80400C0F307402A468DF805308DF83E
:1020700006003046019912F0BFFF2A46FF21606832
:1020800012F0C9FF60680EF049FAA06012F0DEFBA2
:10209000114AA06811460FF077FD0221A0680EF0EA
:1020A000BBFC23461B220E49A0680FF095FB0D4D8B
:1020B000606814F03BFE286858B10DF0EFFD286809
:1020C000A1680DF096FEA06802B0BDE870400DF06A
:1020D00001BF02B070BD00BF64000020110C0700FA
:1020E00039220008740A002438B505462CF076F928
:1020F000044628462CF06CF96CB10A2804D120461D
:10210000BDE83840FFF794BF112804D128460FF0EE
:102110008DFB0A28F3D038BD70B515460E4631F058
:10212000C1FD00220D49044612F0EAFB25B1002250
:102130000B49204612F0E4FB02220A49204612F025
:10214000DFFB204636F074F90546314636F040FD97
:10215000284610F0C7FE204670BD00BF380A002494
:10216000200A00242C0A002410B5044613F014F8A9
:1021700038B113F04BF8411E2046BDE8104013F073
:10218000F6B910BD2DE9F0410D46044600283FD0B8
:1021900000293DD008460DF081FDE36C93BBA16A98
:1021A00011B128460DF025FEE16A11B128460DF067
:1021B00020FE216B11B128460DF01BFE616B39B377
:1021C0002846BDE8F0410DF014BE1FFA86F800273E
:1021D0004FEA8808E36C53F80830D95911B1284602
:1021E0000DF007FE0437142FF4D10136B4F8542053
:1021F000B3B29A42E9D8E36C1B68586820B10DF07D
:1022000069FECCE70026F1E718680028F7D1C6E799
:10221000BDE8F08110B5044650B1006814F086FDA9
:10222000044B196821B12046BDE81040FFF7AABF52
:1022300010BD00BF740A002438B505462CF0CEF856
:10224000044628462CF0C4F87CB10A2804D1204664
:10225000BDE83840FFF7DEBF112806D128460FF051
:10226000E5FA0A28F3D01B28F1D038BD38B504466A
:102270000D46002212F0A4FE29462046002212F04C
:10228000A6FE29462046002212F08CFE2946204652
:102290000022BDE8384012F08CBE000038B50D4673
:1022A00036F0C6F80446294636F092FC2046002255
:1022B0000249BDE8384012F023BB00BF140A0024D5
:1022C000F7B50E461D460192089F36F0B1F8044658
:1022D000314636F07DFC394620460FF023FC01994B
:1022E0002046002212F0ACFE29462046002212F0C1
:1022F000BDFE0421204603B0BDE8F04036F0E6BC48
:102300002DE9F04F0D4697B00446002800F0E88014
:10231000002900F0E5808163084613F087F8012169
:102320002846714F29F0EAF80821284611AEFFF738
:102330009DFF00220621284612F050FE28460EF08E
:10234000EDF8E06312F082FA6849E06B4FF00009A3
:102350000FF0E8FB1A21E06B0FF0FDFB0022E06BB1
:10236000114612F058FE00220621E06B12F03DFEED
:102370000021E06B29F0C2F80FCF0FC63B685C4824
:102380003360E66B2BF047FDC0F307238DF8180090
:10239000C0F3074057498DF8193034238DF81A00DF
:1023A0003046069A00930123FFF78AFF5048E66BF8
:1023B0002BF031FDC0F307238DF81C00C0F307405C
:1023C0004D498DF81D3038238DF81E003046079A90
:1023D000482600930223FFF773FF4548E76B2BF075
:1023E0001AFDC0F307238DF82000C0F307404349CE
:1023F0008DF8213002238DF822003846089A009685
:10240000FFF75EFF3A48E76B2BF005FDC0F30723AB
:102410008DF82400C0F3074039498DF82530022398
:102420008DF826003846099A0096FFF749FF304894
:10243000E66B2BF0F0FCC0F307238DF82800C0F307
:10244000074030498DF8293028238DF82A0030467E
:102450000A9A00930223FFF733FF28460EF05EF836
:10246000206412F0F3F9214A206C11460FF08CFB26
:102470000022206C114612F0CEFD00220421206CB7
:1024800012F0ACFD0121206C29F038F80C21206CF1
:1024900010F0BFFD0321206C10F0A3FDB4F8540030
:1024A000C0002DF0A5FDA065B4F8540080002DF00B
:1024B0009FFDE064B4F8540080002DF099FD206584
:1024C000B4F8540080002DF093FDA4F848906064A7
:1024D0001FFA89F30393039AB4F85430934213D844
:1024E00017B0BDE8F08F00BF6C0004086400002046
:1024F000E9F69F0004040408EE030408F10304084D
:10250000F7030408FD0304081FFA89F8A26D0121EE
:1025100000254FEAC803142022F838104FEA880B30
:10252000029302EBC80346225D809A71E66C9D809F
:102530002DF05EFD46F82800266D14202DF058FD84
:1025400046F82800206C0DF0E9FF074612F07EF9EE
:10255000102138460EF01BF87A4938460FF0E2FA9F
:102560001A2138460FF0F7FA2A460621384612F0AB
:102570003CFD2946384628F0C1FF636C02213846ED
:1025800043F828700EF048FA4FF4806138460EF098
:1025900043FA2A466C49384612F0B2F902226B49D6
:1025A000384612F0ADF923461B22694938460FF030
:1025B00013F94FEA08230593002D384614BF022370
:1025C0000123049311AB53F825A031F06BFB0646B1
:1025D00012F03CF951461A2230460FF0D5FA00228B
:1025E0000421304612F049FD02213046FFF73EFE3D
:1025F00000223046114612F00EFD002230461146F0
:1026000012F017FD02225349304612F079F94FF4C7
:10261000806130460EF000FA4F482BF0FCFBC0F30F
:1026200007238DF83000C0F307408DF831300222C7
:102630008DF8320030460C9912F0DEFC0222FF21A8
:10264000304612F0E8FC304635F0F2FE824643494F
:1026500036F0BEFA50463B490FF064FA002250466D
:10266000049912F003FD0421504636F02FFB50462A
:1026700010F038FC0021304612F091FD8246002D0A
:1026800040D137482BF0C7FBC0F307238DF82C004F
:10269000C0F307408DF82D3000228DF82E005046F3
:1026A0000B9912F0CDFC3046AB000493E36C53F869
:1026B0000B3043F82560236D53F80B3043F825A009
:1026C000059B45EA03010EF00BFA23460A22254931
:1026D00030460FF081F8236D0BB3B4F85420039902
:1026E0008A421CD953F80B30AA009E58BEB1029BF7
:1026F000A16DCA18ABB2013B032B05D8DFE803F08C
:10270000161A1C1E1848BDE708F10103174A1021CC
:102710000DA82DF02DFC0DA9304636F059FA0135E3
:10272000052D7FF449AF09F10109D1E6029BCB5A8F
:102730000F4AECE75388FBE79388F9E793790D4A52
:10274000E5E700BF64000020FC090024F009002434
:10275000E92000082C0A002430240F008701040817
:10276000E9F69F00CD1F0008EEE6DD000104040835
:10277000070404080D040408D04B2DE9F0431D782C
:102780009BB0002D40F02F820124CD481C702CF00E
:102790008BFCCC482BF03FFBC0F307238DF8640083
:1027A000C0F307408DF865308DF866001999C4486C
:1027B0002CF00AFEFF21C2482CF014FE2946C04826
:1027C000FFF7F0FB2946BE482CF03AFEBE482CF03D
:1027D0006BFCBE482BF01FFBC0F307238DF8600095
:1027E000C0F307408DF861308DF862001899B64843
:1027F0002CF0EAFDFF21B4482CF0F4FD0A21B24888
:102800002CF0CAFD0A21B0482CF0CCFD0621AE48C0
:102810002CF0B6FD0621AC482CF0B8FDAC482CF0ED
:1028200043FCAA482BF0F7FAC0F307238DF85C00AD
:10283000C0F307408DF85D308DF85E001799A4480D
:102840002CF0C2FDFF21A2482CF0CCFD0A21A048AB
:102850002CF0A2FD0A219E482CF0A4FD06219C48E4
:102860002CF08EFD06219A482CF090FD99482CF012
:102870001BFC99482BF0CFFAC0F307238DF85800C2
:10288000C0F307408DF859308DF85A0016999148D9
:102890002CF09AFDFF218F482CF0A4FD8F482BF0DF
:1028A000BAFAC0F307238DF85400C0F307408DF83F
:1028B00055308DF85600159986482CF0ADFD21460F
:1028C00084482CF0BDFD0A2182482CF05FFE0821CF
:1028D0008048FFF767FB82482CF0E6FB0A2180481E
:1028E0002CF054FE7F482BF096FAC0F307238DF8A6
:1028F0005000C0F307408DF851308DF85200149904
:1029000077482CF061FDFF2175482CF06BFD734872
:102910002BF081FAC0F307238DF84C00C0F3074079
:102920008DF84D308DF84E0013996D482CF074FDE4
:1029300021466B482CF084FD6B482BF06CFAC0F3F9
:1029400007238DF84800C0F307408DF849308DF813
:102950004A00129962482CF0F9FD0A216048FFF7FD
:1029600021FB62482CF0A0FB61482BF054FAC0F325
:1029700007238DF84400C0F307408DF845308DF8EB
:102980004600119959482CF073FD032157482CF04B
:1029900069FD022155482CF07FFD56482CF084FB40
:1029A00055482BF038FAC0F307238DF84000C0F3E8
:1029B00007408DF841308DF8420010994D482CF0B9
:1029C00003FD4B482BF027FAC0F307238DF83C009A
:1029D000C0F307408DF83D308DF83E000F99454813
:1029E0002CF01AFD214643482CF02AFD43482BF0D9
:1029F00012FAC0F307238DF83800C0F307408DF8B2
:102A000039308DF83A000E993A482CF09FFD3C4839
:102A10002CF04AFB40F2E73139482CF0B7FD36483C
:102A20002BF0F9F9C0F307238DF83400C0F3074009
:102A30008DF835308DF836000D9931482CF0C4FCF6
:102A4000FF212F482CF0CEFC24482BF0E4F9C0F3F2
:102A500007238DF83000C0F307408DF831308DF832
:102A600032000C9926482CF0D7FC214624482CF043
:102A7000E7FC0A2122482CF08FFC0A2120482CF088
:102A800091FC04211E482CF07BFC04211C482CF0F6
:102A90007DFC1A482BF0BFF9C0F307238DF82C00FA
:102AA000C0F307408DF82D308DF82E000B99144897
:102AB0002CF04CFD13482CF0F7FA25E0EC0900242B
:102AC000680A0024110C07005C0A002417100A0091
:102AD000500A0024440A002418110B00342B1C0057
:102AE000380A002422180E00EEE6DD002C0A00242D
:102AF000C7E02D00200A002430240F00E9F69F00D3
:102B0000140A0024080A0024D5482BF084F9C0F3E5
:102B100007238DF82800C0F307408DF829308DF881
:102B20002A000A99CF482CF04FFCCF482BF073F9BC
:102B3000C0F307238DF82400C0F307408DF825303B
:102B40008DF826000999C7482CF066FCC7482BF081
:102B500062F9C0F307238DF82000C0F307408DF819
:102B600021308DF822000899BE482CF0EFFCC048B7
:102B70002CF09AFA0621BE482CF008FD2946BC48E4
:102B80002CF030FCBB482CF08FFABB482BF043F9FB
:102B9000C0F307238DF81C00C0F307408DF81D30EB
:102BA0008DF81E000799B3482CF00EFCFF21B148A8
:102BB0002CF018FCB1482BF02EF9C0F307238DF848
:102BC0001800C0F307408DF819308DF81A000699E7
:102BD000A8482CF04DFC0221A6482CF043FC2146CD
:102BE000A4482CF059FC5C2101203BF061FF044615
:102BF000002800F02F8213F029FE002800F02E821A
:102C000013F034FE064613F021FE002800F029825E
:102C100013F03CFE07460020A7F154080DF07EFC9F
:102C200000229749206011F06BFE102120680DF002
:102C3000AEFC3A46314620680EF0A6FF20680DF043
:102C40006DFC206111F002FE102120690DF09FFC47
:102C50002422002120690EF058FFA7F148023146D6
:102C600020690EF091FF06212069FFF7FFFA00228C
:102C70002069114612F0CFF90021206928F03EFCAE
:102C800000220621206912F0B0F920690DF046FCFF
:102C9000814600227B4911F033FE42464846A6F1A8
:102CA0008A010EF071FF102148460DF070FC20697A
:102CB0000DF034FC05460022724911F021FE424617
:102CC00028464FF0100878210EF05EFF28461021AC
:102CD0000DF05DFC49462046A4F85480FFF710FB38
:102CE0002846012128F00AFC00220821284612F07B
:102CF00075F9284635F09CFB6349814635F068FF3D
:102D000062482BF088F8C0F307238DF804000022F6
:102D10008DF80530C0F3074348468DF80630019919
:102D200012F08EF928465A49FFF7B8FA2846594951
:102D3000FFF7B4FA58492846FFF7B0FA284635F0AD
:102D400077FB5649054635F043FF55482BF063F8AD
:102D5000C0F307238DF8080000228DF80930C0F376
:102D6000074328468DF80A30029912F069F9206865
:102D70000DF0D4FBE06011F069FD4146E0680DF014
:102D800006FC0022E06811460EF0BFFE2422314608
:102D9000E0680EF0F9FE4348E5682BF03CF8C0F31C
:102DA00007238DF80C00C0F3074000228DF80D308A
:102DB0008DF80E002846039912F01EF90022FF211B
:102DC000E06812F028F90621E068FFF74FFAE068A2
:102DD00035F02EFB0546344935F0FAFE0022334922
:102DE000284612F03CF932482BF015F8C0F30723BF
:102DF0008DF8100000228DF81130C0F307432846EB
:102E00008DF81230049912F01BF906220821284689
:102E10000EF07BFEE06835F00BFB2649A06135F033
:102E2000D7FE00222449A06911F06AFD002223493F
:102E3000A06912F014F902236FF0F9020321A069CE
:102E40000EF0EEFEE06835F0F3FA1D49606235F0F1
:102E5000BFFE00221849606A11F052FD002231E0E5
:102E600010102A00080A00244D4DFF00D3D3FF00A4
:102E7000FC090024F009002430240F00C7E02D00D5
:102E8000680A0024440A002410040408E9F69F009C
:102E900017040408200404082B040408340404085C
:102EA000B5A38A0017100A0050040408005508084A
:102EB0006AB3D7005B040408140A00242428080815
:102EC000690404086849606A12F0C9F802236FF0C7
:102ED00095020321606A0EF0A3FEE06835F0A8FABF
:102EE0006249206235F074FE00226149206A11F0C7
:102EF00007FD00225C49206A12F0B1F802236FF04E
:102F000054020321206A0EF08BFEE06835F090FA3F
:102F10005849E06135F05CFE00225549E06911F046
:102F2000EFFC00225049E06912F099F802236FF09B
:102F300005020321E0690EF073FE20680DF0EEFA41
:102F4000606111F083FC414660690DF020FBA7F140
:102F50002402002160690EF0D8FD24223146606908
:102F60000EF012FE444865692AF055FFC0F30723AE
:102F70008DF81400C0F3074000228DF815308DF84D
:102F800016002846059912F037F80022FF216069E3
:102F900012F041F806216069FFF768F9012237490C
:102FA0006069FFF7B9F800222F49A062206A12F089
:102FB00056F819225C21A06A0EF0E6FD00220621D7
:102FC000A06A0EF0A2FD00222D496069FFF7A4F867
:102FD00000222549E062206A12F041F819225C21A2
:102FE000E06A0EF0D1FD00226A21E06A0EF08DFD4C
:102FF000002224496069FFF78FF800221A492063F4
:10300000206A12F02CF819225C21206B0EF0BCFD16
:103010000022A6F1C601206B0EF077FD00221A49AE
:103020006069FFF779F800220F496063206A12F0A7
:1030300016F819225C21606B0EF0A6FD0022A6F1A5
:103040006201606B0EF061FDE068FFF78DF860696A
:10305000FFF78AF820461BB0BDE8F0834FF4F07606
:10306000D1E54FF48877D6E5242808086F040408D2
:10307000140A00247604040817100A007D040408CA
:1030800083040408880404088D04040870B50D4600
:103090000446D0B10D4E33682BB90CF0DFFD012191
:1030A00030600CF0D3FE36681DB13146284625F05D
:1030B000CFFDFDF789FD10B1314625F0C9FD314640
:1030C0002046BDE87040FFF75DB870BD740A00246B
:1030D000DFF838D0FEF7FAFDFEF786FD0C480D4903
:1030E0000D4A002302E0D458C4500433C4188C4263
:1030F000F9D30A4A0A4C002301E013600432A242C9
:10310000FBD33CF015F8FDF7A5FE7047000008243E
:1031100000000024F80000243C990808F80000246E
:10312000A0C20024FEE730B570B1CC6864B18A68F3
:1031300052B10B6943B10D6849688560C160836114
:10314000C0E90424002030BD4FF0FF30FBE773B529
:103150000023456804460193A5B9836803B19847E5
:10316000202300262360636901AA1221284698477C
:10317000002809DB019B03F01F03AB4206D1256049
:1031800001236360002609E06FF004060135202D5D
:10319000E9D123681F2B04D8002EF1D0304602B0AD
:1031A00070BD6FF00206F9E737B5002543690446A4
:1031B00001AA0121006801959847A84203DA6FF03F
:1031C000040003B030BD636901AA0121206898475B
:1031D0000028F4DB019B5B072CD5636901AA294613
:1031E000206898470028EADB019BDD040ED403F435
:1031F0000452B2F5045F01D10220E2E7980401D540
:103200000320DEE7D90513D40520DAE7636901AAB4
:103210001F21206898470028D1DB019BDA040BD5D9
:1032200003F01C03182BE7D0082BE9D0142BEBD1AB
:103230000420C6E70120C4E70620C2E710B503203A
:1032400000F068F801F0F2FE0F49104A8B69C3F3F1
:103250000323D35C03F01F03D8408B6903F00F03F3
:10326000D35C0B4A03F01F0320FA03F31360094BEE
:1032700018600F20FEF7FEFB044618B9FEF76AF946
:10328000204610BD0124FBE700440258192A040817
:103290001C00002420000024034A044B11681B7802
:1032A0000B441360704700BF780A002424000024F8
:1032B000014B1868704700BF780A002438B50446EF
:1032C000FFF7F6FF0546631C1EBF044B1B78E4188E
:1032D000FFF7EEFF431BA342FAD338BD24000024BE
:1032E000014B1868000C70470010005C034A5368DB
:1032F00023F4600303435360704700BF0004005889
:10330000034A536823EA00030B435360704700BF2E
:103310000004005807490302CA6803F4E06322F47A
:10332000E0621204120C134343F0BF6343F4003312
:10333000CB60704700ED00E0164B30B5DC68C4F39D
:103340000224C4F10703251D042B28BF0423062DE6
:103350004FF0FF358CBF033C002405FA03F300282F
:1033600005FA04F521EA030322EA050203FA04F34D
:1033700043EA02034FEA0313DBB206DB00F16040CD
:1033800000F5614080F8003330BD00F00F00024AC4
:103390001354F9E700ED00E014ED00E0002807DB2E
:1033A0000123410900F01F00024A834042F8213006
:1033B000704700BF00E100E0BFF35F8F044B5A6A23
:1033C00022F480325A620022C3F89420704700BF72
:1033D00000ED00E0064B40F00100C3F894005A6A8B
:1033E00042F480325A62BFF34F8FBFF36F8F704742
:1033F00000ED00E04378144AC2F89830D2F8A030CB
:1034000023F00103C2F8A0304368C2F89C30C37AAD
:10341000017B1B0643EA017301780B43817A43EA7F
:10342000C143417B43EA8143817B43EA4143C17B02
:1034300043EA0143417A43EA0123017A43EA410323
:10344000C2F8A030704700BF00ED00E010B50446A0
:10345000002836D090F8613003F0FF021BB980F8E5
:103460006020FEF78FF80223E069626884F861301B
:1034700023680243A069196821F4E02121F040018A
:103480000A431A60596BA26821F48371024321F048
:1034900001010A43E1685A631A6C6FF30F020A4391
:1034A0001A64596BD4E9040221F44011520542EA2E
:1034B000005200200A435A630123606684F8613099
:1034C00010BD0120FCE7000070B590F860300246A6
:1034D0000220012B32D082F861001C20012300FB66
:1034E000012082F86030836BD0E90B451B0543EA6D
:1034F0000543C56B406B234343EA4553A4F10905DB
:10350000012D96BF00F07F4043EA0063034310683B
:10351000A9B9446A012D194901EA040141EA0301EC
:10352000936A4162836103D8536B23F07F438362C4
:103530000123002082F8613082F8600070BD0B2CFE
:1035400005BF1C240E4E0F4E04FB012404BF246C47
:1035500043EA8443C469012D24EA060443EA0403D0
:10356000C3614FF01C0303FB01218B6A0361DFD8A9
:103570004B6B23F07F430362DAE700BFF0FFCC0020
:103580000F003FFF0F0033FF10B502680C688B6817
:10359000106823434C6920F07F4023438C6920F45A
:1035A0007B0023434C6A20F4FE402343CC6A20F086
:1035B0007C0023430343087943EAC063087B43EA62
:1035C000C053487B43EA8053887B43EA4053C87B1F
:1035D00043EA0053887C43EA0043087F43EA003310
:1035E000487F43EAC023C87F43EA402391F828007C
:1035F00043EA0013087CB0FA80F0400943EAC04374
:10360000487CB0FA80F0400943EA4043887FB0FA32
:1036100080F0400943EA802391F82000B0FA80F05E
:10362000400943EA0023C86B1360536823F07C53BE
:1036300023F4EF2323F4FF6323F0070343EA4063FB
:10364000486B034391F8380043EA006391F8300077
:1036500043EA804391F8310043EA404391F8320055
:10366000B0FA80F0400943EA00435360D368486CE5
:1036700023F4877323F00103034391F8400043EAE6
:103680000023886CD360136F23F0F2031B041B0C20
:1036900043EA0043086D034391F8540043EA4003B2
:1036A00091F84C00B0FA80F0400943EAC013136768
:1036B000D2F8900091F8563020F00300034391F8BF
:1036C000550043EA4003886DC2F89030D2F8003DBF
:1036D00023F072030343C86DC2F8003DD2F8303DB9
:1036E00023F07B03034391F8610043EA001391F850
:1036F000620091F8601043EAC003B1FA81F1490910
:1037000043EA8113C2F8303D10BD00000368086829
:1037100003F580531A6822F4F04222F002020243B9
:1037200010B51A600A7B58680C79D20320F4504017
:1037300042EA04328C6820F00100224302435A60BE
:103740000A6A487BD3F8004142EA00421048204010
:103750000243C3F800214A7F087D1203D3F80441D5
:1037600042EA0012086902430A4820400243C3F8B3
:103770000421D3F808010C7F8A6920F0004142EA55
:10378000C47221F47C110A43C3F8082110BD00BFA4
:1037900000C0FEFFEFEFC0FF2DE9F74F846A0192F2
:1037A00000EB84068D68B369DA68002A60DBF26A90
:1037B000002A5DD1D1F8008018F0040F2CD0DF680A
:1037C00018F0080F4A6A6FF30F0742EA070207680A
:1037D000DA60DA6842F48032DA603A6E42F48012DB
:1037E0003A6619D09A681FFA82FECA6A4EEA024205
:1037F0009A60DA6842F40032DA60DA6822F4402E25
:103800000A6B4EEA0202DA607A6E42F480127A663D
:103810003A6D42F080623A6518F0100F09D09F6847
:103820008A696FF30D073A439A60DA6842F0806262
:10383000DA6018F014081FD0DA6842F08042DA60CB
:10384000BFF35F8F671CDA68032F42F0004288BF26
:10385000E71EDA6000EB87039B69DA68002A80F2D2
:103860008880B269BFF35F8FD36823F00043D360D1
:10387000022003B0BDE8F08F27462A68DFF840E257
:103880001A609A6822F47F5C6A682CF03F0C4CEA5C
:1038900002029A60AA68002A6ED015685D609D6871
:1038A00005EA0E0C55684CEA05459D60D1F800C04C
:1038B000DD681CF0100F66D025F4F00E0D6A4EEA9C
:1038C000C545DD60DD684FEA954ECD694FEA8E4E05
:1038D0004EEA0505DD60DD6845F48025DD601CF0FD
:1038E000040F06D09D6825F4404C8D6A4CEA05050E
:1038F0009D60DD6845F00055DD60DD6825F08045A0
:10390000DD60BFF35F8FDD6845F00045DD600D6869
:10391000AD0706D5DD6825F0607CCD684CEA05056D
:10392000DD600025DFF898E1DFF89891D2F808A073
:10393000BAF1000F43D1019A002A00F0BC809A68C6
:1039400042F000429A60DA6842F08052DA6000EB9E
:103950008703C26BDA628762EFF31082012383F37D
:103960001088036C01332B44036482F31088002019
:103970007FE74FF0010880E75A609A6802EA0E027A
:103980009A602A4692E725F4FF4E4D681CF0010F1D
:103990002EF07F0E4EEA0505DD6006D0DD6825F4C9
:1039A000403E4D694EEA0505DD601CF0200F96D0C3
:1039B000DD6825F0406E0D694EEA05058EE707F1DA
:1039C000010CDA68BCF1030F22F0805288BFA7F126
:1039D000030CDA6000EB8C07BB69DA6822F0005256
:1039E000DA60DA68002A17DA08F1010200212A44B5
:1039F000B56991423FF43CAFBFF35F8FEB68013193
:103A000023F00043EB60631C032B88BFE31E00EB35
:103A10008304A5691C46ECE7FA6A002AE4D1DAF8C7
:103A200000201A609F68DAF804206FF30D0717432F
:103A3000DAF808209F602AB317685F609F6807EA7A
:103A40000E0A57684AEA07479F60D1F800B0DF685E
:103A50001BF0100F1DD007EA090ACF694AEA0707D1
:103A6000DF60DF6847F48027DF600135BFF35F8FD9
:103A7000DF6847F00047DF60DF6827F08047DF60DE
:103A8000674653E75A609A6802EA0E029A60524605
:103A9000DBE727F4FF4A4F681BF0010F2AF07F0A8B
:103AA0004AEA0707DF60E0D0DF6827F4403A4F6951
:103AB0004AEA0707D8E79A6822F0004242E700BFC7
:103AC000FFFF00C00000FCFF2DE9F7430023856ED7
:103AD0000446C76E019305F112034FF001484FF001
:103AE000414950F8236037B13369E3B901A803F0C5
:103AF000DDFE019BABB9E36EBB420FD0BFF35F8F1E
:103B0000E91C23682269182001F0030103F58053A2
:103B100000FB0122C3F82821C4E91A5703B0BDE80D
:103B2000F08333613360A36D63B1C6F80C906B1CF6
:103B3000013F032B88BFEB1E03F112021D4654F810
:103B40002260D0E7C6F80C80F1E7D0F88430102B63
:103B50004FF0010310B5044637D1202283650423BA
:103B6000C0F88420C366FFF7AFFF2268002002F58B
:103B70008053D3F8041141F00101C3F80411D3F8C4
:103B8000081141F00101C3F80811D3F8601141F4A4
:103B90008171C3F86011D2F8001D41F00101C2F833
:103BA000001D116841F002011160116841F001012E
:103BB0001160D3F8342142F4504242F0C102C3F8FC
:103BC00034214023C4F8843010BD1846FCE7D0F8F7
:103BD00084200346402A10B538D12022C0F8842022
:103BE00050F8442B02F58051D1F8344124F450446C
:103BF00024F0C104C1F83441D1F8044124F0010497
:103C0000C1F80441D1F8084124F00104C1F8084189
:103C100003F15404116821F001011160D2F8001D74
:103C200041F00101C2F8001D116821F0020111608C
:103C300050F8041FCA68A04222F08042CA60F7D13F
:103C4000002010229865C3F8842010BD0120FCE7F5
:103C500010B5044639B9D0F8883043F00103C4F8F0
:103C60008830012010BDD0F88420402AF9D14B6B58
:103C70000122C363FFF790FD20B1D4F8883043F0F0
:103C80000203ECE7BFF34F8FA26A0020531C032B03
:103C900088BFD31E2268A362063354F8231002F5AE
:103CA0008053C3F82011DDE72DE9F04F044685B0BD
:103CB0008A4649B9D0F8883043F00103C0F888300B
:103CC000012005B0BDE8F08FD0F88430402BF7D14B
:103CD000D0F85C904FF0000800F1800109F1120368
:103CE0004646C34650F823507C3050F8103CC3F190
:103CF00004030193EB68002B05DB019B9E4202D07D
:103D0000B8F1000F11D0E36E1E44E66616B12046EE
:103D1000FFF7DAFEC4F85C90B8F1000FD0D0E36F83
:103D20000020CAF80030E067CBE7EB685B0003D502
:103D30006B68A3672B686367EB689F0001D4E36F30
:103D400003B3EB68EF689A00C7F30E0748BFC4E9F6
:103D500018BB636EFF1AEB68DB0003D5EB684FF00E
:103D600001082367BBB22A69CDE9020103F0C0FD57
:103D7000236E01332366636EDDE902013B44636613
:103D8000C5F810B009F101030136032B88BFA9F172
:103D9000030303F11202994654F82250AAE72DE9D1
:103DA000F047054601274FF018094FF0000AD0E907
:103DB000106406B117B90020BDE8F08705EB840850
:103DC000013ED8F82C0028B9631C032B00D9E31E50
:103DD0001C46EEE7EB6809FB0433DB68002B0ADBCB
:103DE00003F0B4FD631CC8F82CA0032B88BFE31EAE
:103DF000C5E91063ECE723460027E9E77047704701
:103E0000704703684FF0B0422DE9F041D3F8B0702D
:103E100003F580530446D3F86051D3F83481D2F8C7
:103E2000A8606A0608D518F0400F05D048F2400295
:103E3000C3F8602103F03CFBEB070CD518F0010F31
:103E400009D0236848F20102204603F58053C3F8E5
:103E5000602103F033FB680424D518F4804F21D08F
:103E6000D4F8883015F4805F43F00803C4F8883034
:103E7000236803F58053D3F8602155D022F46F6294
:103E800022F00D02D204D20CC4F88C20D3F83421D5
:103E900022F44042C3F83421E023C4F884302046A1
:103EA00003F012FB17F4C04F13D0D4F8883020462B
:103EB00043F01003C4F888302368D3F8B830C4F84E
:103EC0009030E023C4F8843003F0FEFA0023C4F8F5
:103ED0009030F9060CD523682046D3F8C03003F0A3
:103EE0006003C4F89430FFF789FF0023C4F89430CE
:103EF000BA060CD523682046D3F8D03003F00F0360
:103F0000C4F89830FFF77BFF0023C4F898307302A1
:103F100008D54FF0B0434FF480022046C3F8A820E4
:103F2000FFF76EFFBDE8F08102F4CD42C4F88C20AB
:103F30004FF4CD42C3F86021B1E770B51E46036867
:103F40000546D3F80002C00701D5012070BDD3F8A3
:103F5000004224F0787444EA415121F4F81141EA16
:103F6000024242F00D02C3F80022FFF7A1F9044615
:103F70002A68D2F8000210F0010004D1D2F804320D
:103F80009BB23360E2E7FFF793F9001BB0F57A7F4D
:103F9000EED9DAE738B505460068D0F80042E40704
:103FA00001D5012038BDD0F800429BB224F07874CE
:103FB00044EA415121F4F81141EA02420C4922F04D
:103FC0000C02C1F8043242F00502C1F80022FFF7EA
:103FD0006FF904462B68D3F8000210F00100E1D01D
:103FE000FFF766F9001BB0F57A7FF3D9D9E700BF78
:103FF00000800240002900F0C180036800201A6898
:1040000002F00C02CA621A68C2F3001281F828207A
:104010001A6802F060024A621A6882F48072C2F37F
:10402000002281F820201A68C2F34022CA771A6859
:1040300082F48062C2F380228A771A68C2F3C022B7
:104040004A771A68C2F300320A771A6802F40052FB
:104050008A611A6802F480424A611A68C2F3004217
:104060008A741A6882F40032C2F340424A741A68B1
:1040700082F40022C2F3C0420A741A68C2F30052EA
:10408000CA731A68C2F340528A731A68C2F3805224
:104090004A731A68C2F3C0520A731A6802F0E062E7
:1040A0008A601A68C2F3C0620A711A6802F0E042BC
:1040B0000A605A68C2F30D024A635A6882F4803279
:1040C000C2F3004281F832205A68C2F3404281F8BC
:1040D00031205A68C2F3804281F830205A68C2F316
:1040E000006281F838205A68C2F34462CA63DA6811
:1040F000C2F3002281F84020DA6802F00F024A641D
:104100001A6FC2F3400281F854201A6F82F08002C5
:10411000C2F3C01281F84C201A6F02F070020A65D7
:104120001A6F120C8A64D3F8902002F0010281F811
:104130005620D3F89020C2F3400281F85520D3F8DE
:10414000002D02F072028A65D3F8302D02F02302AE
:10415000CA65D3F8302DC2F3C00281F86220D3F8CB
:10416000302DC2F3001281F86120D3F8303D83F086
:104170004003C3F3801381F860307047012070471B
:1041800008B539B1D0F88430102B03D1FFF7FCF912
:10419000002008BD0120FCE738B503680546D3F8C8
:1041A000004201F00BF9114B24F47064984205D8D9
:1041B00044F400742B68C3F8004238BD0C4B98429D
:1041C00002D244F44074F5E70A4B9842F2D90A4B04
:1041D000984202D844F48074ECE7084B984294BFAC
:1041E00044F4806444F4A064E4E700BFBF0E160208
:1041F00000879303FFE0F5057FD1F0087FB2E60E5C
:10420000F0B50446A5B0002800F0AF80D0F88430A7
:1042100023B92023C0F8843003F050FA814BD3F83F
:10422000F42042F00202C3F8F420D3F8F430207AEC
:1042300003F002030193019B002840F08680FFF702
:1042400055F8794B5B68236803F580531A6842F090
:1042500001021A60FFF72CF80646236803F5805325
:104260001D6815F0010573D120460127FFF794FF63
:1042700001F0A4F86D4B4FF48041266814958DF839
:1042800030708DF854508DF864501A951D958DF846
:104290006C508DF84C70ADF88C708DF88E501F9569
:1042A000ADF880508DF882501695ADF85C508DF8C1
:1042B0005E700D958DF83E501C958DF87870B0FBB2
:1042C000F3F04FF4C363013818934FF04053C6F82E
:1042D000DC0002200B934FF40053CDE910134FF490
:1042E00080330BA912932023CDE92103504B2046A4
:1042F0000E9340F20113ADF83C30FFF745F94FF44F
:10430000001302A920468DF80C70069308934FF411
:10431000067302950A930497ADF814508DF81C505B
:10432000ADF82450FFF7F2F906F580536069D3F831
:10433000002110F0030122F4E01242F40022C3F83D
:10434000002115D0C4F888700CE04FF4000076E727
:10435000FEF7AEFF801BB0F5FA7F7FF67EAF042339
:10436000C4F88830E023C4F88430012025B0F0BDC3
:10437000D3F8082104F114056FF34E0242EA40021B
:10438000E068C3F8082100F160070246116051603F
:104390009160D16045F8042F1832BA42F6D1A1627B
:1043A000032221690025C3F82C2101F16007C3F81D
:1043B00014010A46C3F8200104F144001560556059
:1043C0009560D560C2E9045540F8042F1832BA420E
:1043D000F4D10322A5650020C4E91755C4E91A5594
:1043E000C3F83021C3F81C114831C3F828116368A1
:1043F0009A88C6F800231B68C6F804330D4BD6F81C
:104400000C271343C6F80C37D6F8103743F0426335
:1044100043F44043C6F810371023C4F88850C4F85A
:104420008430A3E7004402580004005840420F00C3
:10443000000001016000020CD0F888007047D0F83D
:104440008C0070472DE9F74F0023DFF8C4914FF03F
:10445000B0440A6832FA03F502D103B0BDE8F08F28
:10446000012505FA03F818EA020200F0BB804E6845
:1044700003274FEA430E06F0030507FA0EFC6F1EF2
:104480006FEA0C0C012F34D8876807EA0C0ACF6852
:1044900007FA0EF747EA0A078760476827EA08081D
:1044A000C6F300179F4047EA08074760C768022D18
:1044B00007EA0C088F6807FA0EF747EA0807C76093
:1044C00019D14FEAD30803F0070A4FF00F0B00EBA6
:1044D00088084FEA8A0AD8F820700BFA0AFB27EA04
:1044E0000B0B0F6907FA0AF747EA0B07C8F82070A9
:1044F00001E0032DDAD1076805FA0EF516F4403F06
:1045000007EA0C0745EA070505606BD0D9F8F450B7
:1045100023F0030703F0030C4FF00F0E45F00205E4
:1045200007F1B0474FEA8C0CC9F8F45007F58067E3
:10453000D9F8F4500EFA0CFE05F002050195019D24
:10454000BD6825EA0E0E314DA8424DD005F58065B7
:10455000A8424BD005F58065A84249D005F5806595
:10456000A84247D005F58065A84245D005F580658D
:10457000A84243D005F58065A84241D005F5806585
:10458000A8423FD005F58065A8423DD005F580657D
:10459000A84214BF0A25092505FA0CF516F4801F58
:1045A00045EA0E05BD606FEA020725680CBF3D4075
:1045B000154316F4001F256065680CBF3D40154388
:1045C00016F4003F6560D4F884500CBF3D4015439D
:1045D000F603C4F88450D4F8805054BF3D401543CE
:1045E000C4F88050013334E70025D5E70125D3E72F
:1045F0000225D1E70325CFE70425CDE70525CBE745
:104600000625C9E70725C7E70825C5E700000258C2
:10461000004402580369194214BF0120002070476A
:104620000AB1816170470904FBE7436901EA0302AB
:1046300021EA030141EA02418161704710B5044655
:1046400000284ED090F8413003F0FF021BB980F8EB
:104650004020FCF7AFFF242384F8413023681A6818
:1046600022F001021A60626822F070621A619A6890
:1046700022F400429A60D4E90221012906D142F4D1
:1046800000429A605A6822F4006207E042F4044251
:1046900002299A60F6D15A6842F400625A600020FA
:1046A0005A6842F0007242F400425A60DA6822F41A
:1046B0000042DA60D4E904210A43A16942EA0122F6
:1046C000DA60D4E907210A431A601A6842F001024D
:1046D0001A602023606484F84130206384F842002B
:1046E00010BD0120FCE710B590F841200346202AB8
:1046F000D4B21CD190F84020012A18D0242280F88E
:1047000041200268106820F001001060106820F459
:10471000805010601068014300201160116841F062
:104720000101116083F8414083F8400010BD022070
:10473000FCE710B590F841200346202AD4B21BD1E3
:1047400090F84020012A17D0242280F841200268E6
:10475000106820F001001060106820F4706040EADA
:10476000012100201160116841F00101116083F8FE
:10477000414083F8400010BD0220FCE7094B82B0A5
:10478000D3F8F42042F00202C3F8F420D3F8F43056
:10479000054A03F002030193019B536803435360EE
:1047A00002B070470044025800040058D20100686B
:1047B00084328318F0B5C7685D684C68C7F30B474F
:1047C00005F470450E6827445D6006F1010CC5686C
:1047D000A41BC5F30B45654445EA07455D60C76802
:1047E000CD68C7F30A072F449D6805F470459D60A6
:1047F0008D68D0F80CC00135CCF30A0C6544D1F8B3
:1048000010C045EA07458F69BCF1070F9D601D691F
:1048100025F007051D61C3F810C091F8305045EA36
:10482000076591F8317045EA072591F8327045EA3D
:1048300007459D615D6925F0FF055D614D695D611D
:10484000DD6925F4E06525F00705DD61D1E907574D
:1048500045EA070588BF0127DD614D6A9D629CBF5F
:104860000C4D15F80C70DD6A7C4305F0E02507342B
:10487000DD628D6AC96A7D4344EA0544DC621C6BD3
:104880006FF30A041C631963835843F001038350D8
:10489000F0BD00BF2A26080838B5044600284ED0CF
:1048A00090F8A13003F0FF021BB980F8A020FCF7BC
:1048B000CBFE022384F8A13023689A6922F070426B
:1048C0009A619969D4E901200243E06802432069B2
:1048D00002430A439A61D4E9051242EA01429A600E
:1048E000D4E9071242EA0142DA60D4E9091242EA45
:1048F00001421A61D4E90B1242EA01425A61DA6AB2
:1049000094F8350002F07F4294F83610DA62DD6ADE
:1049100094F834202A4342EA0022002042EA01426D
:10492000DA625A6B42F006025A639A6942F0010257
:104930009A610123C4F8A40084F8A13038BD012095
:10494000FCE770477047036870B59E6B04465D6B6B
:10495000720714D5690712D55A6B22F004025A6304
:104960000422DA63D0F8A43043F00103C0F8A43085
:10497000002380F8A12080F8A030FFF7E2FFB20703
:1049800016D5AB0714D5236820465A6B22F00202D5
:104990005A630222DA63D4F8A4301343C4F8A43073
:1049A000042384F8A130002384F8A030FFF7C9FF66
:1049B000F00710D5E9070ED5236820465A6B22F080
:1049C00001025A630122DA63002384F8A12084F8EB
:1049D000A030FCF76DF8320711D52B070FD52368EF
:1049E00020465A6B22F008025A630822DA63012338
:1049F00084F8A130002384F8A030FFF7A3FF70BD36
:104A00002DE9F04190F8A03006460F469446012B60
:104A10004FF002001FD034244FF001080D4686F8F5
:104A2000A10004FB026486F8A08038340FCD0FC4C7
:104A30000FCD0FC40FCD0FC42B68304662463946E8
:104A40002360FFF7B3FE33680020C3F8248086F8A4
:104A5000A18086F8A000BDE8F081000090F8A020B9
:104A600003460220012A12D01A6883F8A100506B75
:104A700020F001005063064801640020516B41F0B2
:104A800001015163012283F8A00083F8A12070473F
:104A90000010005038B5104CE36813F0040FE368C1
:104AA00005D103F00703181A18BF012038BD23F001
:104AB00007031843E060FEF7FBFB054663689B04B1
:104AC00001D50020F2E7FEF7F3FB401BB0F57A7F3B
:104AD000F4D90120EAE700BF00480258F8B50446BF
:104AE000002874D00368D8075ED42368990700F1C2
:104AF000AD802368DA0627D59C4A1369916A03F0D2
:104B00003803082B07D0182B40F0038101F0030372
:104B1000012B40F0FE801368DB0502D5E369802B92
:104B200055D1FEF7DDFB41F20303216A98428F4B1A
:104B300000F2E8805A68202922F0F8420CBF42F0C7
:104B4000804242EA81625A602368190700F123819A
:104B500023689A0600F1448123685D071ED5844DC1
:104B60002B6843F480732B60FEF7A2FB06462B688C
:104B7000DA0540F15A81A3687C4D012B40F05C813D
:104B80002B6F43F001032B6741F28837FEF790FB50
:104B9000764E0546336F9B0740F17481616A0029A8
:104BA00040F0778100202BE0704A1369916A03F08E
:104BB0003803102B05D0182B0BD101F00303022B67
:104BC00007D113689A0390D56368002B8DD101201B
:104BD00016E06368654DB3F5803F12D12B6843F44E
:104BE00080332B60FEF764FB604E054633689B0301
:104BF0003FF57BAFFEF75CFB401B6428F6D9032032
:104C0000F8BDA3B92B6823F480332B602B6823F401
:104C100080232B60FEF74CFB06462B689F037FF535
:104C200064AFFEF745FB801B6428F6D9E7E7B3F5D0
:104C3000A02F2B6803D143F480232B60CEE723F40D
:104C400080332B602B6823F48023CAE74749E2684E
:104C50000B69886A13F0380303D0182B2AD1800718
:104C600028D10B685B0701D5002AB0D03F4D2B68D7
:104C700023F0190313432B60FEF71AFB06462B683B
:104C80005F0711D5FEF72CFB41F20303226998421E
:104C90006B6822D823F47C33402A0CBF43F40033E2
:104CA00043EA02336B6024E7FEF702FB801B022815
:104CB000E5D9A4E72D4D2B68A2B123F019031343C6
:104CC0002B60FEF7F5FA06462B685807DAD4FEF794
:104CD000EFFA801B0228F7D991E723F0FE4343EA5D
:104CE0000263DFE723F001032B60FEF7E1FA0646DB
:104CF0002B6859077FF5FDAEFEF7DAFA801B022814
:104D0000F6D97CE7DA6822F07C5242EA0162DA6086
:104D10001AE7E369154D6BB32B6843F080032B60F2
:104D2000FEF7C6FA06462B68DF0511D5FEF7D8FA5E
:104D300041F20303226A984210D86B68202A23F0BC
:104D4000F8430CBF43F0804343EA82636B60FBE6A9
:104D5000FEF7AEFA801B0228E5D950E7EB6823F096
:104D60007C5343EA0263EB60EEE600BF0044025866
:104D7000004802582B6823F080032B60FEF798FA56
:104D800006462B68D8057FF5DFAEFEF791FA801B4B
:104D90000228F6D933E76369A34D83B16B6F43F003
:104DA00001036B67FEF784FA06466B6F9B073FF5BE
:104DB000CFAEFEF77DFA801B0228F6D91FE76B6F96
:104DC00023F001036B67FEF773FA06466B6F9F07CC
:104DD0007FF5BEAEFEF76CFA801B0228F6D90EE70F
:104DE000A369914D83B12B6843F480532B60FEF788
:104DF0005FFA06462B6898043FF5AEAEFEF758FA08
:104E0000801B0228F6D9FAE62B6823F480532B6026
:104E1000FEF74EFA06462B6899047FF59DAEFEF725
:104E200047FA801B0228F6D9E9E6FEF741FA801B13
:104E300064287FF69CAEE2E6B3B92B6F41F2883767
:104E400023F001032B672B6F23F004032B67FEF77E
:104E50002FFA06462B6F98077FF5A0AEFEF728FACB
:104E6000801BB842F6D9CAE6052B2B6F03D143F05D
:104E700004032B6784E623F001032B672B6F23F0D9
:104E8000040380E6FEF714FA401BB8427FF682AEB8
:104E9000B5E6654D2B6903F03803182B78D02B68E5
:104EA000022923F080732B6065D1FEF701FA0646D4
:104EB0002B68990159D4AB6AA26A23F47C7323F05E
:104EC00003031343E26A43EA0213AB62636BA26B10
:104ED000013B013A5B0212049BB202F4FE0213434F
:104EE000226B013AC2F308021343E26B013A120645
:104EF00002F0FE4213432B63EB6A23F00103EB62E3
:104F00006B6BA26C6FF3CF0343EAC2036B63EB6A74
:104F1000226C23F00C031343EB62EB6A626C23F008
:104F200002031343EB62EB6A43F48033EB62EB6AF8
:104F300043F40033EB62EB6A43F48023EB62EB6AE9
:104F400043F00103EB622B6843F080732B60FEF7A4
:104F5000AFF9354D04462B689A013FF523AEFEF7B5
:104F6000A7F9001B0228F6D949E6FEF7A1F9801B34
:104F700002289DD943E6FEF79BF904462B689B0166
:104F80007FF510AEFEF794F9001B0228F6D936E63D
:104F90000129AA6A2B6B3FF41AAE02F00301A06A42
:104FA00081427FF414AEC2F30512E16A8A427FF4B3
:104FB0000EAE226BC3F30801013A91427FF407AEB3
:104FC000626BC3F34621013A91427FF400AEA26BBB
:104FD000C3F30641013A91427FF4F9ADE26BC3F3AA
:104FE0000663013A93427FF4F2AD6B6BA26CC3F39C
:104FF000CC039A423FF4D6AD0B4DEB6A23F001038C
:10500000EB62FEF755F90646FEF752F9B042FBD0C7
:105010006B6BA26C6FF3CF0343EAC2036B63EB6A63
:1050200043F00103EB62BDE500440258494B1A69A5
:1050300002F03802102A30B500F08880182A0CD00F
:10504000002A40F085801A68434812F0200F03D0F0
:105050001B68C3F3C103D84030BD996A9D6ADC6AFE
:1050600015F47C7FC5F305105A6BF5D0C2F3CC0262
:1050700004F0010401F0030107EE900A6243B7EE69
:10508000006A0129B8EEE77A06EE902AFAEEE96A9C
:105090004ED002293ED000294AD11A68920627D55F
:1050A00019682D4AC1F3C1011B6BCA40C3F3080341
:1050B00007EE902AF8EEE75AC5EE877A07EE103A27
:1050C000B8EEC77A37EE267A37EE067A67EE877A39
:1050D000204B1B6BC3F34623013307EE103AF8EE67
:1050E000C76A87EEA67AFCEEC77A17EE900AB3E796
:1050F0001B6BC3F3080307EE903AF8EEE77A77EEFE
:10510000A67A77EE867A9FED156AC6EE076A67EE95
:10511000A67ADDE71B6BC3F3080307EE903AF8EEBF
:10512000E77A77EEA67A77EE867A9FED0D6AECE75E
:105130001B6BC3F3080307EE903AF8EEE77A77EEBD
:10514000A67A77EE867A9FED076ADEE7064883E760
:10515000064881E7004402580090D0030024744CB4
:1051600020BCBE4B0024744A40787D0100093D00FC
:105170002DE9F0410D46044610B90120BDE8F0814B
:10518000884A136803F00F038B42C0F093802368B2
:105190005F0700F19B801E070BD583496069CA69D0
:1051A00002F07002904204D9CA6922F070020243F0
:1051B000CA61D8060BD57C49A069CA6902F4E062CD
:1051C000904204D9CA6922F4E0620243CA61990696
:1051D0000BD57549E0690A6A02F07002904204D961
:1051E0000A6A22F0700202430A629A070BD56E49DE
:1051F000E0688A6902F00F02904204D98A6922F0BD
:105200000F0202438A61DF076ED423689E0700F114
:10521000A18064490A6802F00F02AA4200F2A88045
:10522000580700F1B18019070BD55F496069CA6959
:1052300002F07002904204D2CA6922F07002024366
:10524000CA61DA060BD55849A069CA6902F4E0625E
:10525000904204D2CA6922F4E0620243CA619B060A
:105260000BD5514AE169136A03F07003994204D2E5
:10527000136A23F070030B431362FFF7D7FE4A490A
:105280004A4A8B69C3F30323D35C03F01F03D8405E
:105290008B6903F00F03D35C454A03F01F0320FA28
:1052A00003F31360434B1860434BBDE8F0411868AB
:1052B000FCF7E0BB136823F00F030B431360136884
:1052C00003F00F038B427FF458AF60E73649206943
:1052D0008A6902F0700290427FF65DAF8A6922F01F
:1052E000700202438A6156E72F4BA1689A6922F443
:1052F00070620A439A6161681A6802291DD112F42A
:10530000003F3FF43AAF1A6941F28838264F22F045
:1053100007020A431A61FDF7CBFF06463B69626844
:1053200003F03803B3EBC20F3FF46FAFFDF7C0FFDC
:10533000801B4045F2D9032020E7032902D112F057
:10534000007FDEE7012902D112F4807FD9E712F055
:10535000040FD6E71449E0688A6902F00F02904210
:10536000BFF457AF8A6922F00F0202438A6150E707
:105370000A6822F00F022A430A600A6802F00F024C
:10538000AA427FF4FAAE4BE7074920698A6902F026
:1053900070029042BFF447AF8A6922F07002024364
:1053A0008A6140E70020005200440258192A04088C
:1053B0001C000024200000242800002408B5FFF76A
:1053C00035FE0B4A0B4993699269C3F3032302F03C
:1053D0000F02CB5C03F01F0320FA03F3885C064A3C
:1053E00000F01F0023FA00F01060044A136008BDAB
:1053F00000440258192A04081C000024200000243C
:1054000008B5FFF7DBFF054B054ADB69C3F3021361
:10541000D35C03F01F03D84008BD00BF004402580E
:10542000192A040808B5FFF7C9FF054B054ADB69CF
:10543000C3F30223D35C03F01F03D84008BD00BFB1
:1054400000440258192A04083F230360114B1A69CB
:1054500002F0070242609A6902F4706282609A69FF
:1054600002F00F02C2609A6902F070020261DA690A
:1054700002F070024261DA6902F4E06282611B6A42
:1054800003F07003C361044B1B6803F00F030B6050
:10549000704700BF0044025800200052F8B5394C54
:1054A00006460D46A36A03F00303032B67D0236867
:1054B00023F080632360FDF7FBFE074623681A0193
:1054C00049D4A36A326823F47C3343EA0233A362EB
:1054D000B368F268013B013A5B0212049BB202F42A
:1054E000FE0213437268013AC2F3080213433269A1
:1054F000013A120602F0FE421343A363E36A7269A3
:1055000023F0C0031343E362E36AB26923F020038C
:105510001343E362E36A23F01003E362E36BF2698F
:105520006FF3CF0343EAC203E363E36A43F010037C
:10553000E362E36AB5B943F40023E362114C2368E4
:1055400043F080632360FDF7B3FE054623681B012B
:105550000FD5002005E0FDF7ABFEC01B0228ADD93A
:105560000320F8BD012D0CBF43F4801343F4001356
:10557000E3E7FDF79DFE401B0228E7D9F0E7012095
:10558000EFE700BF00440258F8B5394C06460D4617
:10559000A36A03F00303032B67D0236823F080532F
:1055A0002360FDF785FE074623689A0049D4A36A65
:1055B000326823F07C7343EA0253A362B368F26853
:1055C000013B013A5B0212049BB202F4FE02134358
:1055D0007268013AC2F3080213433269013A1206B3
:1055E00002F0FE4213432364E36A726923F44063CA
:1055F0001343E362E36AB26923F400731343E36283
:10560000E36A23F48073E362636CF2696FF3CF03A0
:1056100043EAC2036364E36A43F48073E362E36AC8
:10562000B5B943F48003E362114C236843F080531F
:105630002360FDF73DFE054623689B000FD5002043
:1056400005E0FDF735FEC01B0228ADD90320F8BDEB
:10565000012D0CBF43F4000343F08073E3E7FDF733
:1056600027FE401B0228E7D9F0E70120EFE700BF43
:10567000004402582DE9F8430368054618011ED579
:10568000AB6EB3F5001F2BD00FD8D3B1B3F5801F8D
:105690001DD001262B68D90551D5AB6D042B4DD8F3
:1056A000DFE803F0243F46292900B3F5401FF0D17D
:1056B000854AA96E136D23F440130B43136500262E
:1056C000E8E7814AD36A43F40033D362F0E702216A
:1056D00005F10800FFF7E2FE06460028DAD1E7E709
:1056E000022105F12800FFF74FFFF5E7764AD36A5C
:1056F00043F40033D36234461CBB734AA96D136D67
:1057000023F007030B4313652B689A0528D5EB6D2F
:10571000802B43D017D8A3B3402B38D00126344672
:105720001EE0002105F10800FFF7B8FE0446E3E79C
:10573000002105F12800FFF727FFF7E7012634468F
:10574000E2E72646E0E7C02B02D0B3F5807FE5D143
:1057500054BB5D4AE96D136D23F4E0730B4313658D
:105760002B685B0531D5D5F8A830B3F5800F49D04B
:105770001CD8002B39D0B3F5001F3CD0012634468D
:1057800023E0514AD36A43F40033D362E0E70021B7
:1057900005F10800FFF782FE0446D9E7002105F174
:1057A0002800FFF7F1FEF7E72646D9E7B3F5C00F6B
:1057B00002D0B3F5000FE1D154BB434AD5F8A8108D
:1057C000936D23F460030B4393652B681F0530D55D
:1057D000D5F8AC30B3F1007F45D01BD8B3B3B3F1EB
:1057E000807F39D00126344623E0374AD36A43F418
:1057F0000033D362E0E7002105F10800FFF74EFE19
:105800000446D9E7002105F12800FFF7BDFEF7E7C0
:105810002646DAE7B3F1407F02D0B3F1806FE1D1E1
:105820003CBB294AD5F8AC10936D23F0E0630B43E1
:1058300093652B68980128D5EB6C202B3BD01AD8A8
:10584000DBB1102B31D0012634461EE01E4AD36A4C
:1058500043F40033D362E3E7002105F10800FFF7CA
:105860001DFE0446DCE7002105F12800FFF78CFE51
:10587000F7E72646DDE7302BE5D11CBB124AE96C81
:10588000D36C23F030030B43D3642B68D9042CD59D
:105890002B6EB3F5005F74D018D8002B64D0B3F52D
:1058A000805F67D0012634461FE0074AD36A43F47D
:1058B0000033D362E1E7022105F10800FFF7EEFDB6
:1058C0000446DAE72646E0E700440258B3F5405FB5
:1058D00002D0B3F5804FE5D1002C58D19D4A296EF6
:1058E000136D23F4E0430B4313652B689A040BD527
:1058F0006B6EB3F5003F64D04BD8002B51D0B3F59D
:10590000803F57D0012634462B685B040CD5D5F870
:10591000B030B3F1005F75D05BD8002B61D0B3F12C
:10592000805F68D0012634462B681F0411D52B6F89
:10593000B3F1805F6ED0B3F1005F71D0002B76D1F0
:10594000002C77D1834A296F136D23F040530B430A
:1059500013652B68D8017DD5AB6C032B00F2BF809B
:10596000DFE803F06F6AB66F7A4AD36A43F4003314
:10597000D362B1E7002105F10800FFF78FFD04466F
:10598000AAE7002105F12800FFF7FEFDF7E726460C
:10599000ABE723F48032B2F5802F02D0B3F5403F5D
:1059A000B0D1A4B96B4A696E136D23F4E0230B43A5
:1059B0001365A9E7012105F10800FFF76FFD044613
:1059C000EFE7012105F12800FFF7DEFDF7E72646A6
:1059D0009AE723F08052B2F1804F02D0B3F1405FDA
:1059E000A0D1ACB95B4AD5F8B010936D23F0E04379
:1059F0000B43936598E7012105F10800FFF74EFD81
:105A00000446EEE7012105F12800FFF7BDFDF7E7A9
:105A1000264689E74F4AD36A43F40033D3628FE7BF
:105A2000012105F10800FFF739FD044688E701264A
:105A300034468EE726468CE7464AD36A43F4003361
:105A4000D362002C4ED1434AA96CD36C23F00303DC
:105A50000B43D3642B6859024ED53F4F3B6843F448
:105A600080733B60FDF724FC80463B68DA053BD53C
:105A7000002C75D1374BD5F8B4001A6F424012F4A0
:105A8000407F0BD01A6F196F22F4407241F48031BD
:105A90001967196F21F4803119671A67B0F5807F93
:105AA00042D0D5F8B4302B4903F44072B2F5407FB0
:105AB0004BD10869294A20F47C5002EA13120243B0
:105AC0000A61C3F30B03234A116F0B43136713E0FF
:105AD000022105F10800FFF7E1FC0446B1E70126C9
