:020000040800F2
:100000000000082461370008091B00080B1B0008CA
:100010000D1B00080F1B0008111B0008000000004A
:10002000000000000000000000000000F196000841
:10003000131B00080000000081970008E5970008E6
:10004000B5370008B5370008B5370008B5370008E0
:10005000B5370008B5370008B5370008B5370008D0
:10006000B5370008B5370008B5370008B5370008C0
:10007000B5370008B5370008B5370008B5370008B0
:10008000B5370008B5370008B5370008B5370008A0
:10009000B5370008B5370008B5370008B537000890
:1000A000B5370008151B0008B5370008B53700083C
:1000B000B5370008B5370008B5370008B537000870
:1000C000B5370008B5370008B5370008B537000860
:1000D000B5370008B5370008B5370008B537000850
:1000E000B5370008B537000800000000B537000834
:1000F000B5370008B5370008B5370008B537000830
:10010000B5370008B5370008B5370008B53700081F
:10011000B5370008B5370008B5370008B53700080F
:10012000B5370008B5370008B5370008B5370008FF
:10013000B5370008211B0008B5370008B53700089F
:1001400000000000000000000000000000000000AF
:10015000B5370008B5370008B5370008B5370008CF
:10016000B5370008B5370008B5370008B5370008BF
:10017000B5370008B5370008B537000800000000A3
:10018000B5370008B5370008B5370008B53700089F
:10019000B5370008B5370008B5370008B53700088F
:1001A0002D1B0008391B0008B5370008B5370008BB
:1001B000B5370008B5370008B5370008B53700086F
:1001C000B5370008B5370008B5370008B53700085F
:1001D000B5370008B5370008B5370008B53700084F
:1001E000B5370008B5370008B5370008B53700083F
:1001F000B5370008B5370008B5370008B53700082F
:10020000B5370008B5370008B5370008B53700081E
:10021000B5370008B5370008B5370008B53700080E
:10022000B5370008B5370008B537000800000000F2
:10023000B5370008B537000800000000B5370008E2
:10024000B5370008B5370008B5370008B5370008DE
:10025000B5370008B5370008B5370008B5370008CE
:10026000B5370008B5370008B5370008B5370008BE
:10027000B5370008B5370008B537000800000000A2
:10028000B5370008B5370008B53700080000000092
:0802900000000000B537000872
:1002A00010B5054C237833B9044B13B10448AFF3B0
:1002B00000800123237010BDF8000024000000001E
:1002C0008807040808B5034B1BB103490348AFF383
:1002D000008008BD00000000FC000024880704081E
:1002E00010F8012B11F8013B012A28BF9A42F7D0E0
:1002F000D01A7047034613F8012B002AFBD1181AB5
:1003000001387047000000000000000000000000FD
:1003100001F0FF01102A2BDB10F0070F08D010F8B6
:10032000013B013A8B422DD010F0070F42B3F6D1BA
:10033000F0B441EA012141EA014122F007047FF0D3
:1003400000070023F0E80256083C85EA010586EA2A
:10035000010685FA47F5A3FA87F586FA47F6A5FA66
:1003600087F68EB9EED1F0BC01F0FF0102F0070272
:1003700032B110F8013B013A83EA010313B1F8D11D
:100380000020704701387047002D06BF35460338FE
:10039000073815F0010F07D1013015F4807F02BF37
:1003A000013015F4C03F0130F0BC0138704700BF88
:1003B0007BB972B90029BEBF00204FF0004106E0B2
:1003C00008BF00281CBF6FF000414FF0FF3000F065
:1003D000D3B9ADF1080C6DE904CE002909DB002B7F
:1003E0001ADB00F04DF8DDF804E0DDE9022304B08B
:1003F0007047404261EB4101002B1BDB00F040F8ED
:10040000DDF804E0DDE9022304B0404261EB410184
:10041000524263EB43037047524263EB430300F0E5
:100420002FF8DDF804E0DDE9022304B0404261EB7F
:1004300041017047524263EB430300F021F8DDF8BD
:1004400004E0DDE9022304B0524263EB430370474A
:1004500053B94AB9002908BF00281CBF4FF0FF312B
:100460004FF0FF3000F088B9ADF1080C6DE904CE13
:1004700000F006F8DDF804E0DDE9022304B070477F
:100480002DE9F047089D8E4604468846002B4AD148
:100490008A42174662D9B2FA82F64EB1C6F12003FB
:1004A00001FA06F820FA03F3B74043EA0808B4401B
:1004B0004FEA174E1FFA87FCB8FBFEF1230C0EFB28
:1004C000118843EA084301FB0CF29A4209D9FB1850
:1004D00001F1FF3080F0EA809A4240F2E780023971
:1004E0003B449A1AA3B2B2FBFEF00EFB102243EA81
:1004F000024300FB0CFC9C4509D9FB1800F1FF32BC
:1005000080F0D6809C4540F2D3803B44023840EADC
:100510000140A3EB0C0300211DB1F3400022C5E90B
:100520000032BDE8F0878B4205D90DB1C5E9000165
:1005300000210846F5E7B3FA83F1002946D1734557
:1005400002D3824200F20581841A6EEB030201207D
:100550009046002DE5D0C5E90048E2E7002A00F00A
:100560009080B2FA82F6002E40F0A4808A1A030C22
:100570004FEA174E80B2BCB20121B2FBFEFC0EFB6B
:100580001C2243EA024304FB0CF29A4207D9FB18EF
:100590000CF1FF3802D29A4200F2E080C4469B1A66
:1005A000B3FBFEF20EFB123340EA034302FB04F4FA
:1005B0009C4207D9FB1802F1FF3002D29C4200F2A4
:1005C000CA8002461B1B42EA0C40A5E7C1F1200687
:1005D0008B4022FA06F71F430EFA01F420FA06F3C5
:1005E0002EFA06FE4FEA1749234300FA01F81FFAD4
:1005F00087FCBEFBF9F01C0C09FB10EE44EA0E442C
:1006000000FB0CFEA64502FA01F209D93C1900F1E3
:10061000FF3A80F09C80A64540F2998002383C4425
:10062000A4EB0E041FFA83FEB4FBF9F309FB134499
:100630004EEA044403FB0CFCA44508D93C1903F121
:10064000FF3E80F08280A4457FD9023B3C4443EAD0
:100650000040A4EB0C04A0FB02EC64457346E146A9
:1006600062D35FD05DB1B8EB030264EB090404FA16
:1006700006F622FA01F31E43CC40C5E900640021CE
:100680004FE7B1FBF2FC010C41EA0E4180B240EAB7
:1006900001423B4638463C46B846BE462026B1FBA2
:1006A000F7F1A2EB080241EA0C4166E7014618E7C0
:1006B00010462CE7C6F120022EFA02F3B740B140F3
:1006C00020FA02F24FEA174E0A43B3FBFEF8BCB21F
:1006D0000EFB1833110C41EA034108FB04F9B0404A
:1006E00089454FEA104380B23ED9791808F1FF3CA2
:1006F00001D289451FD8A1EB0901B1FBFEF909FB25
:1007000004F80EFB191192B242EA0142424529D285
:10071000BA1809F1FF31C4D24245C2D2A9F102018F
:100720003A44BEE7F0459DD2BEEB02036CEB070CEA
:100730000138E14696E7A7EB09094944A8F1020C04
:10074000B1FBFEF909FB04F8DBE773467FE750468F
:1007500066E70846FDE63B44023A33E7ACF1020C9B
:100760003B441CE749469CE7A1EB0901C446B1FBA9
:10077000FEF909FB04F8C4E7704700BF034B0360B0
:10078000034B0B6080231360704700BF14030024E9
:100790001401002470B50A4E0A4C338824880133B2
:1007A000A4B203F01F039C4209D03588064CADB2B9
:1007B000338004F8250004EB85004170428070BD51
:1007C000700300246E0300247203002408B504F0B3
:1007D00069FAB0FA80F0400908BD00000B4A0C4BE2
:1007E00011881B8889B29BB299420CD013880949A1
:1007F0009BB251F82330036001201388013303F0CA
:100800001F03138070470020704700BF6E03002451
:100810007003002472030024024B0022B3F900008D
:100820001A80704768030024034B93F86500003872
:1008300018BF0120704700BFF4030024F8B520B1B1
:100840001A4A0368136043685360A02200211848C5
:1008500000243EF0E1FF174B174F1C80174B144D3F
:100860001C8003F06DF806460134B98857F8080B70
:100870001435FFF7ABFF082C05F8140C05F8130C22
:1008800045F8106CF0D110210D48FFF79FFF04468A
:1008900020210B48FFF79AFF0A4B40EA44000A4A1E
:1008A000187000231380094A1380F8BD000000244B
:1008B000F40300246E030024480804087003002495
:1008C000000402586C0300246A0300246803002417
:1008D0002DE9F84F00260546464F474CB346DFF852
:1008E0003081B9885FFA86F93868FFF76FFF23789F
:1008F0006178834218BF2070227818BF65609142EA
:100900003AD06368B8F80000EB1A834234D36270BF
:100910003AB3002249460120A56084F80CB0256155
:10092000FFF738FFA368A5EB030A237B4BB9B8F8A0
:1009300002309A4505D30122494604202273FFF76D
:1009400029FFB8F80430CBB19A4517D32369B8F81A
:100950000620EB1A934211D3012249460520256156
:1009600007E049460220FFF715FF237B33B9012238
:100970000320FFF70FFF01E00029D3D1013608372C
:100980001434082EADD110211C48FFF71FFF044678
:1009900020211A48FFF71AFF40EA4400184C237838
:1009A000C5B240EA8300174BC0B21B56A3B1164A2A
:1009B00011880B441BB2032B0BDD002305210620FD
:1009C0001380124A1388013313800122FFF7E2FEDD
:1009D00002E0D91C03DB13802570BDE8F88F0023EB
:1009E000052107201380094A1388013B13804FF02B
:1009F000FF32EBE748080408F4030024000402581F
:100A00006C030024380804086A03002468030024E7
:100A100000000024014B1860704700BF94040024BC
:100A200000487047000404244FF47F320249034811
:100A300008B53EF058FF08BD7C31040800040424CA
:100A4000014B1860704700BF9C040024BFF34F8F18
:100A5000094B0A490A4AC1F8683220339342FAD155
:100A6000BFF34F8FBFF36F8F064B1B681BB1064A56
:100A7000127802B9184770470004042400ED00E022
:100A8000000008249C040024980400240146064821
:100A9000064B012210B404681A70636B134363633E
:100AA0005DF8044B04F022BB3008002498040024B5
:100AB0000021054810B504F019FB044B1B6813B165
:100AC000BDE81040184710BD300800249C040024E5
:100AD000014B186816F03CBBA0040024034B1B78A4
:100AE0000BB1FFF7B3BF16F033BB00BF0800002403
:100AF00013B5124C4FF488714FF4F07016F0CAFC25
:100B00001221206016F0C0FD0D49206816F0A6FAEB
:100B10002468FFF785FF0123014600222046009349
:100B20004FF47F3316F0ACFA0648FFF789FF002038
:100B300002B0BDE81040FFF7A9BF00BFA004002429
:100B4000DD0A0008D10A0008704710B50C46FFF70F
:100B500063FE2082FFF768FEA07410BD73B500230A
:100B6000154D0C46154E8B742B888B6001A8FFF732
:100B700035FE88B19DF804309A1F012AF6D9012B61
:100B80000CD19DF80520072AF0D836F81220002A4B
:100B9000ECD02A60A260A37402B070BD022BE5D134
:100BA0009DF80530072BE1D836F81330002BDDD047
:100BB0002B60A3600023EEE7A40400248808040847
:100BC000014B1868704700BFAC040024014B186843
:100BD000704700BFA804002413B5154C28F08CFB07
:100BE0000121206028F0CAFB2068124928F0CDFBC3
:100BF000114A6B46114C1068516803C36846FFF7F1
:100C00001DFE28F079FB0421206028F0B7FB0C4979
:100C100020680C4C28F0B9FB28F06EFB0221206004
:100C200028F0ACFB0849206828F0AFFB02B010BDEB
:100C3000B0040024490B0008A0070408AC040024F9
:100C40004B0B0008A80400245D0B000808B502F057
:100C500077FEBDE80840FFF73BBE0000F8B506F0A0
:100C60005BFE3E4C3E4A3F493C4801F083F83E481B
:100C70003EF0A0FD6368002B6CD03C480EF0C0FD38
:100C800001463B483EF02EFDC82007F0DDF939480B
:100C90000FF05FFA384B188801F038F8374B1870AE
:100CA00034480FF05BFAFFF7BFFE354B1A6802F0CD
:100CB0001F0303F57F33BFF34F8F3249203BC1F849
:100CC00068222032002BF9DCBFF34F8FBFF36F8F08
:100CD0004FF47A702C4E07F0B7F92C4D2CF09CF89D
:100CE0002B4FFFF705FFFFF777FF02F081F804466F
:100CF000006816F0BFFBFFF763FF0146204602F0D5
:100D00000DFD02F01DFE044602F01AFE001BB0F5B8
:100D1000FA7F14D302F014FE4FF48051044630469B
:100D200003F0CBFF2B7853B139681A4A1A483EF0CA
:100D3000D9FC0023032119482B7001F0A5F80120EC
:100D400032F008F9FFF782FF2FF0C6FB012007F011
:100D50007BF9D9E7C82007F077F98BE7940A0024DC
:100D6000160000241200002498080408980A0024A1
:100D7000AA0804083049002410000024CC060024EE
:100D80000C00002400ED00E000180258C404002408
:100D9000C8040024CC040024B8080408D1080408BE
:100DA00010B59CB04C22002109A83EF035FD202250
:100DB000002101A83EF030FD022004F0B3F9002329
:100DC0000093234B9A6942F440429A619A6902F473
:100DD000404200921F4AD16A41F00101D162D26AB9
:100DE00002F001020092009A9A699404FCD54FF433
:100DF000803301210520C0220824CDE909130223F4
:100E0000CDE91233CDE9163318930023CDE914024E
:100E100009A81B93CDE9194304F0A8F908B172B6EB
:100E2000FEE73F2203230421CDE9012340234FF4B1
:100E30008062CDE903040DEB0100CDE90533CDE976
:100E4000072304F0DDFC08B172B6FEE71CB010BD4C
:100E500000480258000400582DE98048C7B010220D
:100E60000021002516A801243EF0D6FCC74E02F052
:100E7000EBFD48F21F7316A8ADF85840CDE91753A3
:100E800040F20113199302F0FDFDC14B16A88DF835
:100E900059408DF86550CDE9176302F0F3FD022348
:100EA00016A88DF862508DF85930BA4B8DF8654010
:100EB000179308238DF867408DF8603002F0E2FD4B
:100EC000032316A819948DF859304FF04043179317
:100ED00016238DF8603002F0D5FD042002F0C2FD2B
:100EE000AD4B5A6912F4003211D1BFF34F8FBFF3EB
:100EF0006F8FC3F85022BFF34F8FBFF36F8F5A69C4
:100F000042F400325A61BFF34F8FBFF36F8FA24A92
:100F1000536913F4803323D1C2F88430BFF34F8F69
:100F2000D2F8803043F6E074C3F3C900C3F34E3304
:100F30005B0103EA0406014646EA81750139C2F8FD
:100F40006052F9D2203B13F1200FF2D1BFF34F8F43
:100F5000536943F480335361BFF34F8FBFF36F8FF7
:100F600002F0B4FC4FF4006AFFF71AFFA42200213C
:100F70001DA83EF051FC4FF0045200230F21052024
:100F80000227CDE91623E4231C972897CDE91813EF
:100F90004C23CDE92003282316A8CDE9243A692360
:100FA000CDE91A77CDE92277279304F0ABFE04460A
:100FB00008B172B6FEE700214FF0807005F098FD91
:100FC000054600214FF0005005F092FD29460246EB
:100FD00072483EF087FB1422214616A83EF01CFC06
:100FE0006F4B01216F48D3F8E02001264FF4805B5E
:100FF0006D4D42F004024FF004094FF01008C3F8A1
:10100000E020D3F8E02002F004020192019AD3F824
:10101000E02042F02002C3F8E020D3F8E02002F004
:1010200020020292029AD3F8E02042F08002C3F834
:10103000E020D3F8E02002F080020392039AD3F874
:10104000E02042F00102C3F8E020D3F8E02002F0F3
:1010500001020492049AD3F8E02042F00202C3F89D
:10106000E020D3F8E02002F002020592059AD3F8BE
:10107000E02042F04002C3F8E020D3F8E02002F084
:1010800040020692069AD3F8E02042F01002C3F81C
:10109000E020D3F8E02002F010020792079AD3F87C
:1010A000E02042F00802C3F8E0202246D3F8E03006
:1010B00003F008030893089B03F0FAFD22464FF45F
:1010C00088513A4803F0F4FD22464FF480513848E5
:1010D00003F0EEFD16A93348CDE91666CDE91844B4
:1010E00003F0F8FC3C2316A932481894CDE91634D5
:1010F00003F0F0FC4FF4885316A92C48CDE91636BE
:10110000CDE9184403F0E6FC4FF4184316A925482E
:101110001894CDE9163403F0DDFC942316A9264873
:101120001894CDE9163403F0D5FC16A92048CDE972
:1011300016B6CDE9184403F0CDFC21464FF080707F
:1011400002F026FC1D4B402216A92846AC60C5F8CB
:1011500024B016971C97C5E900344FF48073C5E995
:1011600005234FF40053C5E9074AAB624FF0030A69
:101170000723C5E90398CDE917391993CDE91AA7D3
:1011800005F01EFEE0B172B6FEE700BF00000230BF
:10119000100001030000043000ED00E0D508040851
:1011A0000044025800000258D406002400080258E7
:1011B0000018025800040258000C02584041005226
:1011C000AE4C4FF6FF72C4E9026021462846C4E9DE
:1011D000006805F01DFE834620B1A9483EF0EAFAFA
:1011E00072B6FEE7304602F0B1FB4FF6FF722146C1
:1011F0002846C4E90078C4E9026B05F009FE20B175
:10120000A0483EF0D7FA72B6FEE708234FF6FF7209
:101210002146C4E902302846C4E900A805F0F8FDDB
:1012200020B199483EF0C6FA72B6FEE722234FF687
:10123000FF7221462846A660E360C4E9009805F0E5
:10124000E7FD20B191483EF0B5FA72B6FEE740F2F4
:101250006F738F4A8F4990483EF044FA40F26F71A5
:10126000284605F0F4FD40F26F71284605F0EFFDC9
:1012700020B186483EF09EFA72B6FEE7874C884B56
:101280002360A3F11E53A3F57A23A3F24F63C4E9AD
:101290000360C4E90130C4E90500C4E90700204641
:1012A00003F014FD014608B172B6FEE7204603F0D4
:1012B00062FD014608B172B6FEE7204603F081FDEB
:1012C00008B172B6FEE7774C4FF4E136764B0C2549
:1012D0002046C4E900360023C4E902332361C4E98F
:1012E0000553C4E90733C4E9093306F0D5F90146CB
:1012F00008B172B6FEE7204606F03BFA014608B197
:1013000072B6FEE7204606F054FA08B172B6FEE760
:10131000204606F013FA08B172B6FEE7634C644B40
:10132000A062C4E90200C4E90405C4E90600C4E9F6
:1013300008002046C4E9003606F0AEF9014608B1BF
:1013400072B6FEE7204606F014FA014608B172B6FE
:10135000FEE7204606F02DFA08B172B6FEE72046F9
:1013600006F0ECF908B172B6FEE7524C524BE0655C
:10137000C4E900300223C4E91300C4E90230C4E91F
:101380001103C4E91500204602F0A8FB08B172B6AB
:10139000FEE70121204602F0DFFB08B172B6FEE74E
:1013A000B822002118A805273EF036FA4FF0005267
:1013B00000234FF0280E022616A8CDE916234C2351
:1013C000CDE920734FF40063CDE924E36923CDE92F
:1013D0002266279304F096FC054608B172B6FEE734
:1013E0000146342209A8354C3EF016FA344B4FF032
:1013F00000522E2140F20E2040F2162CA560A58648
:1014000084F83650C4E900354FF08053C4E9032313
:101410000323C4E905330F23C4E9071340F21F1364
:10142000C4E9090340F227132046C4E90BC303F0C3
:101430007BFD024608B172B6FEE74FF4F0714FF43F
:10144000806509904FF48873ADF8542014938DF89B
:101450005620CDE90A10CDE91057FF20194FCDE9EC
:101460000E00CDE91271204609A9CDE90C3603F032
:101470000FFE064640B372B6FEE700BFB404002478
:10148000E8080408FF080408160904082D090408E0
:101490009A95A905342B530B44090408D808002455
:1014A000001C00589C07002400100140080700247D
:1014B000004400402C090024001000523008002491
:1014C0000010005000040424384616ACFFF7A2FABE
:1014D00029463246164803F0EBFB642002F036FA48
:1014E00029460122124803F0E3FB4FF4FA7002F0A0
:1014F0002DFA01224FF480710D4803F0D9FBFA2038
:1015000002F024FA01220B4D11460B4803F0D0FBE8
:101510000FCD0FC495E8070084E80700314616A8F0
:1015200006F06AFD054B186006F05AFDFEE700BFA5
:1015300000080258A807040800000258D00600243A
:101540000268034B9A4201D102F0EEB9704700BF26
:101550000000014072B6FEE70A4B82B00F216FF027
:101560000100D3F8F42042F00202C3F8F420002274
:10157000D3F8F43003F002030193019B02B002F0B0
:1015800023BA00BF00440258026882B0084B9A4256
:101590000CD1084BD3F8D42042F01002C3F8D42069
:1015A000D3F8D43003F010030193019B02B07047CD
:1015B000001000520044025810B5B8B0044614227E
:1015C000002103A83EF028F9C022002108A83EF01F
:1015D00023F922681A4B9A4230D11022002308A81E
:1015E000CDE9082304F08EFB08B1FFF7B3FF154CDB
:1015F0004FF4405203A91448D4F8E03043F00803F4
:10160000C4F8E030D4F8E03003F008030193019B04
:101610001223CDE903230023CDE9053304230793E7
:1016200003F058FAD4F8F43043F08003C4F8F430EF
:10163000D4F8F43003F080030293029B38B010BD5D
:10164000001C005800440258000C02582DE9F043D9
:10165000BDB004461422002107A83EF0DDF8C022E8
:1016600000210CA83EF0D8F822687A4B9A4240F04C
:10167000EE804FF0005200230CA8CDE90C238C2300
:101680001022CDE916230223CDE9183324231A931F
:1016900004F038FB08B1FFF75DFF6F4B0024032512
:1016A0000226D3F8E4200E274FF4806807A942F001
:1016B00008026A484FF0C009C3F8E420D3F8E420D8
:1016C00002F008020092009AD3F8E02042F02002D3
:1016D000C3F8E020D3F8E02002F020020192019A42
:1016E000D3F8E02042F00102C3F8E020D3F8E02074
:1016F00002F001020292029AD3F8E02042F00202C4
:10170000C3F8E020D3F8E02002F002020392039A2B
:10171000D3F8E02042F04002C3F8E020D3F8E02004
:1017200002F040020492049AD3F8E02042F004024E
:10173000C3F8E020D3F8E02002F004020592059AF5
:10174000D3F8E02042F00802C3F8E020D3F8E030FC
:101750000B9703F008030693069BCDE90786CDE9B6
:10176000094503F0B7F94FF41E7307A93C480B97DE
:10177000CDE90736CDE9094503F0ACF9092307A9FE
:1017800038480B93CDE90756CDE9094503F0A2F996
:101790004FF4706307A933480B97CDE90736CDE9BD
:1017A000094503F097F907A92F480B97CDE907964C
:1017B000CDE9094503F08EF907A92C480B97CDE92F
:1017C0000796CDE9094503F085F94FF4007307A9A1
:1017D0002648CDE907360A23CDE909450B9303F0E6
:1017E00079F94FF4807307A91D48CDE907360D2319
:1017F000CDE909450B9303F06DF90C2307A91848AF
:101800000B93CDE90786CDE9094503F063F9082379
:1018100007A917480B97CDE90736CDE9094503F02D
:1018200059F9402003F0F2FA802003F0EFFA224643
:101830000521582002F0C8F8582002F0F7F8592086
:101840002246052102F0C0F8592002F0EFF83DB021
:10185000BDE8F08300100050004402580014025804
:1018600000000258000402580018025800080258EC
:10187000000C025810B51422BAB0044600210DEB3A
:1018800002003DF0C9FFC02200210AA83DF0C4FFBC
:101890002368344A934232D1012200230AA8CDE9B9
:1018A0000A2304F02FFA08B1FFF754FE2E4B4FF431
:1018B00040412E48D3F8F02042F01002C3F8F02047
:1018C000D3F8F02002F010020192019AD3F8E02040
:1018D00042F00202C3F8E020D3F8E03003F0020344
:1018E0000293029B0223CDE90513002305A9CDE94C
:1018F00007330423099303F0EDF83AB010BD1C4AF6
:101900009342FAD1022200230AA8CDE90A2304F067
:10191000F9F908B1FFF71EFE134B05A91548D3F8D6
:10192000E82042F40032C3F8E820D3F8E82002F4BB
:1019300000320392039AD3F8E02042F00802C3F881
:10194000E0206022D3F8E03003F008030493049B06
:101950000223CDE905230023CDE9073307230993AB
:10196000C9E700BF001001400044025800040258BB
:1019700000440040000C0258F0B5B7B0002114221A
:1019800001A83DF049FF354B1968002963D10122B8
:101990000EA81A60A0223DF03FFF4FF08072002396
:1019A00006A8CDE9062306224523CDE90823022314
:1019B0000422CDE90A3280220C9318930D9204F090
:1019C000A1F908B1FFF7C6FD254B02270026032524
:1019D000D3F8D4200C2401A9224842F48052C3F841
:1019E000D420D3F8D430059403F480530093009BA3
:1019F0004FF63F03CDE90365CDE9013703F06AF8FF
:101A00000D2301A918480594CDE90137CDE90365F7
:101A100003F060F848F2331301A914480594CDE9A6
:101A20000137CDE9036503F055F84FF6837301A93B
:101A30000F480594CDE90137CDE9036503F04AF875
:101A40004CF2037301A90B480594CDE90137CDE9A8
:101A5000036503F03FF837B0F0BD00BF94090024E0
:101A60000044025800140258000802580018025896
:101A700000100258000C02580F2810B504468AB016
:101A800002D901200AB010BD01460022192001F040
:101A90009BFF192001F0CAFF164B694602A81C6083
:101AA000154B164CD3F8F02042F00102C3F8F02099
:101AB000D3F8F03003F001030193019B04F00CF81C
:101AC00003F0F8FF0E4B4000236040F2E733E36081
:101AD0000C4BB0FBF3F0013800236060204623611B
:101AE000A36005F003FB0028CBD1204605F0C8F920
:101AF000C8E700BF280000240044025898090024C9
:101B00000000014040420F00FEE7FEE7FEE7FEE76F
:101B1000FEE77047014805F0F5B900BF98090024B9
:101B2000014802F0B6BC00BF200B0024014803F0BE
:101B300052BA00BF30080024FFF7F8BF01207047F9
:101B4000024B16224FF0FF301A60704770BF00241E
:101B5000014B16221A60FEE770BF002470B50D46D7
:101B600014460E46731B9C4201DC204670BDAFF349
:101B7000008006F8010BF5E770B50D4614460E46D9
:101B8000731B9C4201DC204670BD16F8010BAFF3BD
:101B90000080F5E74FF0FF3070474FF4005300200E
:101BA0004B60704701207047002070470A4A034687
:101BB000116810B509B9094911601068084C094944
:101BC0000344091B8B4283BF074B0C224FF0FF30AD
:101BD000136088BF1A6010BDE4090024A0C200246D
:101BE000000400000000082470BF00242E4AD2F830
:101BF000883043F47003C2F888302C4A136803F02D
:101C00000F03062B05D8136823F00F0343F00703D7
:101C10001360274B1A6842F001021A6000221A6111
:101C2000244A19680A4021491A600A68100705D534
:101C30000A6822F00F0242F007020A6000221E49E1
:101C40009A61DA611A6299621C49D9621C49196366
:101C50005A639963DA6319645A64196821F480211C
:101C600019601A66174B1B686FF30F03B3F1005F1F
:101C700003D2154B0122C3F808210D4BD3F8D42011
:101C8000D2040FD4D3F8D42043F2D20142F48052CC
:101C9000C3F8D4200D4A1160D3F8D42022F4805226
:101CA000C3F8D420704700BF00ED00E000200052D0
:101CB000004402587FEDF6EA000202020000FF0134
:101CC000800201010010005C0080005100400052C1
:101CD000044BDA6842F00202DA605A689204FCD5DA
:101CE000704700BF004802580020704708B50448FC
:101CF0003DF0F8FC0023034A1360034A137008BD4B
:101D000075090408E8090024CC06002438B5054606
:101D100009F050FD044618B910483DF04BFD0BE0AA
:101D20000F492A4609F016F9014638B10D483DF031
:101D3000D9FC204609F0F4FD002038BDFF212046E3
:101D400009F0C4F908B90848E7E7084909F0B8FA02
:101D500007483DF02FFD0120EFE700BF930904087D
:101D6000F02E0808AC090408CB090408DD1E0008A1
:101D7000E30904081FB50B6801A901936FF07F43C5
:101D80000293136802AA039303AB08F0CFFB05B0DC
:101D90005DF804FB0A8908B5B0F8643093420AD9AB
:101DA000496801230BF00EFD014648B10548BDE826
:101DB00008403DF097BC0448BDE808403DF0FABC3F
:101DC00008BD00BF050A0408260A04082DE9F041F1
:101DD0000E461D4614465AB923483DF0EBFC3046EA
:101DE00009F09EFD214B1C60214B1C70002507E073
:101DF0004BB119461F483DF075FC204608F09EFD8A
:101E00002846BDE8F08112898AB1B2F5007F616889
:101E1000194BDFF87080194F15D218463DF063FD5D
:101E2000228985542389C8F8003001233B7021465C
:101E30003046FFF7AFFF3046218909F081F920468F
:101E400008F07CFDD2E740F2FF1218463DF04BFD52
:101E50004FF4007380F8FF51C8F8003001230848A0
:101E60003B703DF0A7FCE2E74A0A0408E8090024B9
:101E7000CC0600246B0A0408CC040024C40400240B
:101E80007E0A0408C804002438B5104D04460A46EA
:101E90002868C0B1B0F864308B420FD921460123C5
:101EA0000BF090FC014620B10948BDE838403DF0F8
:101EB00019BC2868BDE838400CF0D4B90548BDE825
:101EC00038403DF077BC0448F9E700BFE80900243A
:101ED000050A0408260A0408960A040810B52648CC
:101EE0009EB00C463DF066FC244B0122292124487B
:101EF0001C60244B1A70FFF7C7FFFA2006F0A4F805
:101F0000214A224905A8D378019393780093537806
:101F100012783DF053FA05A8FEF7ECF981B205A856
:101F2000FFF7B2FFFA2006F08FF8194B194A05A8FF
:101F30001B8819490293D3780193937800935378BF
:101F400012783DF03BFA05A8FEF7D4F981B205A856
:101F5000FFF79AFFFA2006F077F820460F4909F0BC
:101F600067F920460E4909F07BF920460D4909F032
:101F70008FF900201EB010BDAF0A0408E809002444
:101F8000C00A0408CC06002416000024EA0A04084B
:101F90001000002412000024080B0408CD1D0008C6
:101FA000E91C0008ED1C000830B5044687B0002885
:101FB00058D0B0F85C30B0F85050AB4298BF002514
:101FC000D0F890305BB16B1C1021274A68469BB259
:101FD0002EF07AFB6946D4F8900037F0A5F9D4F8D2
:101FE000803063B1236E1821204A684633F83530BB
:101FF0002EF06AFB6946D4F8800037F095F9D4F8E2
:1020000084306BB1236E1821184A684603EBC50370
:102010005B882EF059FB6946D4F8840037F084F9C8
:10202000D4F888306BB1236E1821104A684603EB50
:10203000C5039B882EF048FB6946D4F8880037F02A
:1020400073F9D4F88C306BB1236E0821084A6846C6
:1020500003EBC5039B792EF037FB6946D4F88C005F
:1020600037F062F907B030BD2F0B0408370B0408B6
:102070003A0B040838B504460D462DF037FD2946C5
:1020800020462DF039FD294620462DF023FD294616
:102090002046BDE838402DF023BD000070B5154640
:1020A0000E4632F0ABF900220D49044612F0B0FFA3
:1020B00025B100220B49204612F0AAFF02220A494C
:1020C000204612F0A5FF204636F05EFD054631465B
:1020D00037F02AF9284611F08DFA204670BD00BF6E
:1020E000380A0024200A00242C0A002438B50546AA
:1020F0002CF01EFD044628462CF014FD0346B4B116
:10210000A06EA0B10A2B09D10EF0B5FA80F0010142
:10211000A06EC9B2BDE838400EF046BA112B06D108
:1021200028460FF00BFF0A2801D1A06EECE738BD5E
:1021300070B5044690B3C06E08B12EF0C5F9FEF735
:102140003FFD0646FEF742FD616E054641B116B100
:10215000304627F027F91DB1616E284627F022F995
:10216000A06E18B10EF0DCF80023A36600256068AD
:10217000656618B113F0C8FCC4E901550023E3609B
:10218000C4F890302367C4F880306367C4F88430A3
:10219000A367C4F88830E367C4F88C3070BD08B515
:1021A0002CF0C6FC18B1BDE80840FFF7C1BF08BD60
:1021B00038B505462CF0BCFC044628462CF0B2FC91
:1021C0000A2804D12046BDE83840FFF7B1BF38BD2A
:1021D00010B5044613F084FB38B113F0BBFB411E6D
:1021E0002046BDE8104013F066BD10BD70B50D4629
:1021F000044688B381B308460EF0DCF8E36C4BBBB1
:10220000216B11B128460EF080F9616B11B128469F
:102210000EF07BF9A16B11B128460EF076F9E16B57
:10222000D1B12846BDE870400EF06FB9B2B253F894
:10223000221011B128460EF068F90136B4F85C108E
:10224000B2B2E36C9142F1D818680028D8D00EF0F1
:10225000CDF9D5E70026F1E770BD38B504460D4647
:10226000002213F035FA29462046002213F037FAEF
:1022700029462046002213F01DFA29462046002256
:10228000BDE8384013F01DBA38B50D4636F07CFC79
:102290000446294637F048F8204600220249BDE8A6
:1022A000384012F0B5BE00BF140A0024F7B50E4640
:1022B0001D460192089F36F067FC0446314637F010
:1022C00033F8394620460FF0B5FF01992046002229
:1022D00013F05BFA29462046002213F06CFA042121
:1022E000204603B0BDE8F04037F09CB8F0B5054695
:1022F00085B00846164632F081F80446012105EB08
:10230000860529F0C9FC204620210FF0ACFF0022F1
:102310002046062113F056FA20460021FFF79DFFC4
:1023200000223321204613F005FA25482CF01DF930
:10233000C0F307238DF80C00C0F307408DF80D3073
:1023400000228DF80E002046039913F0E4F90222D2
:102350002046114613F012FA1A482CF006F9C0F381
:1023600007238DF8080002228DF80930C0F30743D7
:1023700020468DF80A30029913F0EAF9204636F02B
:1023800003FC1149074636F0CFFF10482CF0EDF85A
:10239000C0F307238DF8040000228DF80530C0F348
:1023A000074338468DF80630019913F0EEF93846A8
:1023B00011F020F920462C67C5F8807005B0F0BDFB
:1023C000342B1C00C7E02D00702E0408EEE6DD0063
:1023D0002DE9F04F04468BB0002800F028824568B4
:1023E000002D40F0248215F09DF9A9460EF022FC44
:1023F000606012F0B3FD4FF488724FF4F0716068C2
:102400000FF04AFF2A46294660680FF006FF2A4669
:102410007F21606813F08EF966682CF0FBF8C0F33A
:1024200007238DF80C00C0F307408DF80D302A46C5
:102430008DF80E003046039913F06DF902216068A3
:102440000EF076FE23460A22D64960680FF04CFD56
:1024500060680EF0EFFBA06012F080FDB5224FF433
:10246000A071A0680FF018FFA06811F0C3F82A4609
:10247000FF21A06813F05EF9CB48A6682CF075F830
:10248000C0F307238DF81000C0F307402A468DF8EB
:1024900011308DF812003046049913F03CF92A46A9
:1024A0000A21A06813F08EF92A460221A06813F0D1
:1024B00065F9BE48A6682CF058F8C0F307238DF8DC
:1024C0001400C0F307402A468DF815308DF8160029
:1024D0003046059913F03CF90C21A068FFF7BDFECA
:1024E0002A460821A06813F001F90121A06829F00B
:1024F000AFFBA06836F048FBAD49C4F8900036F059
:1025000013FFAA48D4F890602CF02FF8C0F30723EB
:102510008DF81800C0F307402A468DF819308DF861
:102520001A003046069913F030F92A46A149D4F82A
:10253000900013F039F9A0680EF07CFB064612F00B
:102540000DFD9D493046DFF884820FF073FE1221A5
:1025500030460FF088FE2946304629F079FB2A469E
:102560000821304613F0C9F80223904D05211A4680
:10257000304629F079FB304609F1010936F004FBB9
:1025800058F8041B074636F0CFFE28462BF0EDFF27
:10259000C0F307238DF81C0000228DF81D30C0F316
:1025A000074338468DF81E30079913F0EEF80121E5
:1025B000384629F071FB00220221384613F0FBF85F
:1025C000B9F1040FD7D1A0680EF034FB054612F024
:1025D000C5FC79492846DFF8F8B10FF02BFE2846F4
:1025E000012129F059FB2846002129F031FB022363
:1025F000284605211A4629F037FB284600220821E3
:1026000013F07BF8294600222046FFF76FFE29468B
:10261000804601222046FFF769FE294682460222B3
:102620002046FFF763FE2946814603222046FFF736
:102630005DFE234600226149019040460FF054FCA4
:10264000234600225D4950460FF04EFC23460022EF
:102650005A4948460FF048FC234600225749019842
:102660000FF042FCA06831F0C9FE22225249054613
:10267000E0600FF011FE52482BF077FFC0F3072304
:102680008DF82000C0F307408DF8213000228DF82E
:1026900022002846089913F03EF80022FF21284620
:1026A00013F048F800220621284613F08BF8002288
:1026B0000121284613F062F83C482BF056FFC0F386
:1026C00007238DF82400C0F307408DF82530002241
:1026D0008DF826002846099913F03AF80A22234675
:1026E000384928460FF000FC284636F04DFA0646D9
:1026F000354936F019FE304610F07CFFDBF800302B
:1027000063660DF0F3FD0121A0660DF02BFF0021A3
:10271000A06E0DF049FFFEF753FA0746FEF756FA92
:1027200006461FB1A16E384626F03CFE1EB1A16ED2
:10273000304626F037FE4146A06E0DF0E6FE5146CB
:10274000A06E0DF0E2FE4946A06E0DF0DEFE01998E
:10275000A06E0DF0DAFE2946A06E0DF0D6FE4046C2
:102760000DF044FF2046FFF71FFC1FB1A16E384655
:1027700026F018FE1EB1A16E304626F013FEDBF8DF
:10278000003063660DF0B2FD0121A0660DF0EAFE97
:102790000021A06E0DF008FFE7B1A16E384626F0CB
:1027A00001FE17E0B121000818110B00C7E02D0051
:1027B000460B0408AC91080864000020ED200008D6
:1027C000342B1C009F2100083D0B04087C2D0808B9
:1027D000740A00241EB1A16E304626F0E3FD414686
:1027E000A06E0DF092FE5146A06E0DF08EFE494691
:1027F000A06E0DF08AFE0199A06E0DF086FE2946AE
:10280000A06E0DF082FE40460DF0F0FEE06E58B96D
:102810002246322107482DF01FFEE06620460BB00D
:10282000BDE8F04FFFF7C0BB2DF002FFF6E70BB09D
:10283000BDE8F08FF92C0008F8B505462CF078F9C2
:10284000044628462CF06CF9064628462CF06AF916
:1028500014B3A0F10A02092A1ED840F28123D34002
:10286000DB0719D5B4F85C1000239AB2914207D95E
:10287000E76C57F823700133B742F6D1A4F8502023
:10288000112802D128460FF059FB0A2804D120460E
:10289000BDE8F840FFF79CBDF8BD000030B585B03D
:1028A00000B3836DF3B1B0F85C408C421AD9042AAE
:1028B00018D853F8213053F822409CB1006E013AE9
:1028C00000EBC103032A03D8DFE802F00E1214164E
:1028D0004B1C0B4A102168462DF0F6FE6946204637
:1028E00036F022FD05B030BD30F83130054AF1E751
:1028F0005B88FBE79B88F9E79B79034AEAE700BF1F
:10290000430B0408490B04083A0B04082DE9F04F67
:102910000D4691B00446002800F0E580002900F043
:10292000E2800164084613F025F9012128466F4F23
:1029300029F08EF9082128460BAEFFF78EFC002205
:102940000621284612F0D2FE28460EF073F9606484
:1029500012F004FB6649606C0FF06CFC1421606C93
:102960000FF081FC0022606C114612F0E3FE0022A1
:102970000621606C12F0C1FE0021606C29F068F93C
:102980000FCF0FC63B685B483360666C2BF0EDFDE4
:10299000C0F307238DF81400C0F3074056498DF8A3
:1029A000153034238DF816003046059A0093012324
:1029B000FFF77CFC4F48666C2BF0D7FDC0F3072374
:1029C0008DF81800C0F307404C498DF819303823B2
:1029D0008DF81A003046069A482600930223FFF726
:1029E00065FC4448676C2BF0C0FDC0F307238DF8ED
:1029F0001C00C0F3074042498DF81D3002238DF8BA
:102A00001E003846079A0096FFF750FC3948676C5D
:102A10002BF0ABFDC0F307238DF82000C0F3074077
:102A200038498DF8213002238DF822003846089A63
:102A300000270096FFF73AFC2E48666C2BF095FDB8
:102A4000C0F307238DF82400C0F307402E498DF80A
:102A5000253028238DF826003046099A009302235A
:102A6000FFF724FC28460EF0E5F8A06412F076FA91
:102A70001F4AA06C11460FF00FFC0022A06C1146FB
:102A800012F058FE00220421A06C12F02FFE01214A
:102A9000A06C29F0DDF80C21A06C10F042FE03219F
:102AA000A06C10F026FEB4F85C00C0002DF04CFEC7
:102AB0002066B4F85C0080002DF046FE6065B4F836
:102AC0005C0080002DF040FEA065B4F85C00800042
:102AD0002DF03AFEA4F85070E0641FFA87F9B4F8BC
:102AE0005C304B4512D811B0BDE8F08FC407040824
:102AF00064000020E9F69F00460B04084F0B040811
:102B0000520B0408580B04085E0B0408226E1FFACF
:102B100087F80121002602EBC803142022F83810A0
:102B200046225E804FEA880A9A71656D9E802DF07C
:102B30000BFE45F82800A56D14202DF005FE45F884
:102B40002800A06C0EF076F8054612F007FA102166
:102B500028460EF0A8F8604928460FF06BFB1821B4
:102B600028460FF080FB32460621284612F0C5FDAC
:102B700032460221284612F0C7FD32460621284679
:102B800012F0A6FD32460621284612F0A8FD314675
:102B9000284629F05DF832462346504928460FF072
:102BA000A3F9E36C0221284643F828500EF0C0FA3E
:102BB00028464FF480610EF0BBFA494B186810B1FB
:102BC00029460DF0A2FC23460022444928460FF076
:102BD0008BF94FF0000B00224249284612F018FAF8
:102BE00002224149284612F013FABBF1000F1FFAE6
:102BF0008BF32846039314BF0223012302930BABEC
:102C000053F82B8031F0FAFB064612F0A7F9414643
:102C10001A2230460FF040FB00220421304612F009
:102C2000D1FD02213046FFF718FB00223046114645
:102C300012F080FD00223046114612F098FD02216C
:102C400030460EF030F8304635F09EFF804627497A
:102C500036F06AFB404620490FF0ECFA002240466D
:102C6000029912F0A8FD0421404636F0DBFB4046F5
:102C700010F0C0FC0021304612F035FE8046BBF15A
:102C8000000F27D11A482BF070FCC0F307228DF8F3
:102C90002800C0F307408DF8292000228DF82A0073
:102CA00040460A9912F071FD626D4946204652F87D
:102CB0000A2042F82B60A26D52F80A2042F82B80BD
:102CC0000BF1010B039AFFF7E9FDBBF1050F8CD166
:102CD000013702E70748D6E76400002039280008DA
:102CE000740A0024FC090024F0090024E708040801
:102CF000E9F69F00EEE6DD0070B52DF0B7FC044666
:102D0000E0B14368D3B1806EC0B10DF0B4FCA8B19E
:102D1000FDF782FD002811D0A06ECCBF01264FF038
:102D2000FF3658B10DF025FC04F16C02002352F877
:102D3000041F884233D00133042BF8D170BD53886F
:102D40000A2101FB063342F210718B42A8BF0B46E9
:102D500023EAE37353803EE093880A2101FB0633A4
:102D600042F210718B42A8BF0B4623EAE3739380B3
:102D700031E0012E937908D1462B0CD0522B08BF9D
:102D8000422318BF4623937125E0462B05D0422BE2
:102D900008BF5223F5E75223F5E74223F3E7B4F8DF
:102DA0005050B4F85C20AA42C8D9216E022B01EB26
:102DB000C502D1D0032BDCD0012BC0D031F8353087
:102DC0003344B3F57A7FA8BF4FF47A73012BB8BFB1
:102DD000012321F8353000262046FFF7E5F8B2B28E
:102DE000013629462046FFF759FD052EF7D1A5E704
:102DF000D04B2DE9F0431D789BB0002D40F03B8275
:102E00000124CD481C702CF0F9FCCC482BF0ADFB14
:102E1000C0F307238DF86400C0F307408DF86530D8
:102E20008DF866001999C4482CF078FEFF21C2483D
:102E30002CF082FE2946C048FFF71CF92946BE48FF
:102E40002CF0A8FEBE482CF0D9FCBE482BF08DFB20
:102E5000C0F307238DF86000C0F307408DF86130A0
:102E60008DF862001899B6482CF058FEFF21B4483E
:102E70002CF062FE0A21B2482CF038FE0A21B0483C
:102E80002CF03AFE0621AE482CF024FE0621AC4878
:102E90002CF026FEAC482CF0B1FCAA482BF065FBC8
:102EA000C0F307238DF85C00C0F307408DF85D3058
:102EB0008DF85E001799A4482CF030FEFF21A2483F
:102EC0002CF03AFE0A21A0482CF010FE0A219E4860
:102ED0002CF012FE06219C482CF0FCFD06219A489D
:102EE0002CF0FEFD99482CF089FC99482BF03DFB15
:102EF000C0F307238DF85800C0F307408DF8593010
:102F00008DF85A00169991482CF008FEFF218F4841
:102F10002CF012FE8F482BF028FBC0F307238DF80E
:102F20005400C0F307408DF855308DF856001599C0
:102F300086482CF01BFE214684482CF02BFE0A21EB
:102F400082482CF0CDFE08218048FFF793F8824894
:102F50002CF054FC0A2180482CF0C2FE7F482BF054
:102F600004FBC0F307238DF85000C0F307408DF831
:102F700051308DF85200149977482CF0CFFDFF2185
:102F800075482CF0D9FD73482BF0EFFAC0F30723F6
:102F90008DF84C00C0F307408DF84D308DF84E0091
:102FA00013996D482CF0E2FD21466B482CF0F2FDA0
:102FB0006B482BF0DAFAC0F307238DF84800C0F312
:102FC00007408DF849308DF84A00129962482CF07C
:102FD00067FE0A216048FFF74DF862482CF00EFCAE
:102FE00061482BF0C2FAC0F307238DF84400C0F308
:102FF00007408DF845308DF84600119959482CF05E
:10300000E1FD032157482CF0D7FD022155482CF053
:10301000EDFD56482CF0F2FB55482BF0A6FAC0F314
:1030200007238DF84000C0F307408DF841308DF83C
:10303000420010994D482CF071FD4B482BF095FA49
:10304000C0F307238DF83C00C0F307408DF83D30F6
:103050008DF83E000F9945482CF088FD21464348E5
:103060002CF098FD43482BF080FAC0F307238DF82D
:103070003800C0F307408DF839308DF83A000E99CA
:103080003A482CF00DFE3C482CF0B8FB40F2E731FA
:1030900039482CF025FE36482BF067FAC0F3072399
:1030A0008DF83400C0F307408DF835308DF83600C8
:1030B0000D9931482CF032FDFF212F482CF03CFDBA
:1030C00024482BF052FAC0F307238DF83000C0F3E8
:1030D00007408DF831308DF832000C9926482CF0DD
:1030E00045FD214624482CF055FD0A2122482CF0AC
:1030F000FDFC0A2120482CF0FFFC04211E482CF086
:10310000E9FC04211C482CF0EBFC1A482BF02DFAAA
:10311000C0F307238DF82C00C0F307408DF82D3045
:103120008DF82E000B9914482CF0BAFD13482CF0A2
:1031300065FB25E0EC090024680A0024110C070057
:103140005C0A002417100A00500A0024440A0024D4
:1031500018110B00342B1C00380A002422180E0012
:10316000EEE6DD002C0A0024C7E02D00200A002432
:1031700030240F00E9F69F00140A0024080A0024F6
:10318000D6482BF0F2F9C0F307238DF82800C0F3DE
:1031900007408DF829308DF82A000A99D0482CF084
:1031A000BDFCD0482BF0E1F9C0F307238DF82400D3
:1031B000C0F307408DF825308DF826000999C848DE
:1031C0002CF0D4FCC8482BF0D0F9C0F307238DF8BD
:1031D0002000C0F307408DF821308DF822000899B7
:1031E000BF482CF05DFDC1482CF008FB0A21BF4808
:1031F0002CF076FD2946BD482CF09EFCBC482CF0F6
:10320000FDFABC482BF0B1F9C0F307238DF81C0080
:10321000C0F307408DF81D308DF81E000799B448A3
:103220002CF07CFCFF21B2482CF086FCB2482BF03D
:103230009CF9C0F307238DF81800C0F307408DF800
:1032400019308DF81A000699A9482CF0BBFC2146CC
:10325000A7482CF0B1FC2946A5482CF0C7FC0A2150
:10326000A3482CF03DFD2146A1482CF03FFC21460F
:103270009F482CF041FC942101203BF0C5FF0446FF
:10328000002800F02D8213F085FE002800F02C822B
:1032900013F090FE064613F07DFE002800F0278212
:1032A00013F098FE07460020A7F154080DF0C2FC69
:1032B00000229249206011F0ABFE102120680DF031
:1032C000F2FC3A46314620680EF0E6FF20680DF029
:1032D000B1FCA06111F042FE1021A0690DF0E3FCE9
:1032E00024220021A0690EF098FFA7F14802314680
:1032F000A0690EF0D1FF0621A069FEF7AEFF002203
:10330000A069114612F016FA0021A06928F0A0FC6D
:1033100000220621A06912F0F0F9A0690DF08AFCE4
:1033200081460022764911F073FE42464846A6F1D6
:103330008A010EF0B1FF102148460DF0B4FCA069DF
:103340000DF078FC054600226D4911F061FE424601
:1033500028464FF0100878210EF09EFF28461021D5
:103360000DF0A1FC49462046A4F85C80FFF7CEFA98
:103370002846012128F06CFC00220821284612F082
:10338000B5F9284635F000FC5E49814635F0CCFFA2
:103390005D482BF0EAF8C0F307238DF80400002203
:1033A0008DF80530C0F3074348468DF80630019983
:1033B00012F0EBF928465549FEF766FF28465449B6
:1033C000FEF762FF53492846FEF75EFF284635F0B8
:1033D000DBFB5149054635F0A7FF50482BF0C5F8F7
:1033E000C0F307238DF8080000228DF80930C0F3E0
:1033F000074328468DF80A30029912F0C6F9206872
:103400000DF018FC606111F0A9FD414660690DF0F6
:103410004AFC0022606911460EF0FFFE242231466C
:1034200060690EF039FF3E4865692BF09EF8C0F3E5
:1034300007238DF80C00C0F3074000228DF80D30F3
:103440008DF80E002846039912F065F90022FF213D
:10345000606912F06FF906216069FEF7FEFE60698F
:1034600035F092FB05462F4935F05EFF00222E49CC
:10347000284612F099F92D482BF077F8C0F307236E
:103480008DF8100000228DF81130C0F30743284654
:103490008DF81230049912F078F906220821284696
:1034A0000EF0BBFE606935F06FFB2149206235F0FC
:1034B0003BFF00221F49206A11F0AAFD00221E498D
:1034C000206A12F071F902236FF0F9020321206AD9
:1034D0000EF02EFF606935F057FB2FE010102A0028
:1034E000080A00244D4DFF00D3D3FF00FC0900243F
:1034F000F009002430240F00C7E02D00680A0024E2
:10350000440A0024620B0408E9F69F00690B0408D2
:10351000720B04087D0B0408860B0408B5A38A000F
:1035200017100A00A20B0408605C08086AB3D700F1
:10353000AD0B0408140A0024842F08086D49E062CA
:1035400035F0F2FE00226C49E06A11F061FD0022C4
:103550006A49E06A12F028F902236FF0950203210C
:10356000E06A0EF0E5FE606935F00EFB6449A0628A
:1035700035F0DAFE00226049A06A11F049FD002210
:103580005E49A06A12F010F902236FF05402032181
:10359000A06A0EF0CDFE606935F0F6FA5949606216
:1035A00035F0C2FE00225449606A11F031FD00225C
:1035B0005249606A12F0F8F802236FF00502032105
:1035C000606A0EF0B5FE20680DF034FBE06111F08A
:1035D000C5FC4146E0690DF066FBA7F1240200211D
:1035E000E0690EF01AFE24223146E0690EF054FE26
:1035F0004548E5692AF0B9FFC0F307238DF81400A8
:10360000C0F3074000228DF815308DF816002846CB
:10361000059912F080F80022FF21E06912F08AF883
:103620000621E069FEF719FE01223849E069FEF73C
:1036300035FD002231492063A06A12F0B5F8192245
:103640005C21206B0EF028FE00220621206B0EF07C
:10365000E4FD00222E49E069FEF720FD0022274903
:103660006063A06A12F0A0F819225C21606B0EF072
:1036700013FE00226A21606B0EF0CFFD0022254967
:10368000E069FEF70BFD00221C49A063A06A12F05E
:103690008BF819225C21A06B0EF0FEFD0022A6F132
:1036A000C601A06B0EF0B9FD00221B49E069FEF7D0
:1036B000F5FC00221149E063A06A12F075F81922A6
:1036C0005C21E06B0EF0E8FD0022A6F16201E06BE8
:1036D0000EF0A3FD6069FEF77BFDE069FEF778FD63
:1036E00020461BB0BDE8F0834FF4F076D3E54FF4ED
:1036F0008877D8E5BB0B0408140A0024842F080837
:10370000C10B0408C80B040817100A00CF0B0408EB
:10371000D50B0408DA0B0408DF0B040870B50D465E
:103720000446D0B10D4E33682BB90CF0DFFD0121FA
:1037300030600CF017FF36681DB13146284625F081
:1037400031FEFDF743FA10B1314625F02BFE31462C
:103750002046BDE87040FEF749BD70BD740A0024E4
:10376000DFF838D0FEF7B4FAFEF740FA0C480D49FE
:103770000D4A002302E0D458C4500433C4188C42CC
:10378000F9D30A4A0A4C002301E013600432A24232
:10379000FBD33CF079F8FDF75FFB7047000008248D
:1037A00000000024F8000024BCDE0808F800002413
:1037B000A0C20024FEE730B570B1CC6864B18A685D
:1037C00052B10B6943B10D6849688560C16083617E
:1037D000C0E90424002030BD4FF0FF30FBE773B593
:1037E0000023456804460193A5B9836803B198474F
:1037F000202300262360636901AA122128469847E6
:10380000002809DB019B03F01F03AB4206D12560B2
:1038100001236360002609E06FF004060135202DC6
:10382000E9D123681F2B04D8002EF1D0304602B016
:1038300070BD6FF00206F9E737B50025436904460D
:1038400001AA0121006801959847A84203DA6FF0A8
:10385000040003B030BD636901AA012120689847C4
:103860000028F4DB019B5B072CD5636901AA29467C
:10387000206898470028EADB019BDD040ED403F49E
:103880000452B2F5045F01D10220E2E7980401D5A9
:103890000320DEE7D90513D40520DAE7636901AA1E
:1038A0001F21206898470028D1DB019BDA040BD543
:1038B00003F01C03182BE7D0082BE9D0142BEBD115
:1038C0000420C6E70120C4E70620C2E710B50320A4
:1038D00000F068F801F0F2FE0F49104A8B69C3F35B
:1038E0000323D35C03F01F03D8408B6903F00F035D
:1038F000D35C0B4A03F01F0320FA03F31360094B58
:1039000018600F20FEF7B8F8044618B9FDF724FE3A
:10391000204610BD0124FBE7004402586B31040827
:103920001C00002420000024034A044B11681B786B
:103930000B441360704700BF780A00242400002461
:10394000014B1868704700BF780A002438B5044658
:10395000FFF7F6FF0546631C1EBF044B1B78E418F7
:10396000FFF7EEFF431BA342FAD338BD2400002427
:10397000014B1868000C70470010005C034A536844
:1039800023F4600303435360704700BF00040058F2
:10399000034A536823EA00030B435360704700BF98
:1039A0000004005807490302CA6803F4E06322F4E4
:1039B000E0621204120C134343F0BF6343F400337C
:1039C000CB60704700ED00E0164B30B5DC68C4F307
:1039D0000224C4F10703251D042B28BF0423062D50
:1039E0004FF0FF358CBF033C002405FA03F3002899
:1039F00005FA04F521EA030322EA050203FA04F3B7
:103A000043EA02034FEA0313DBB206DB00F1604036
:103A100000F5614080F8003330BD00F00F00024A2D
:103A20001354F9E700ED00E014ED00E0002807DB97
:103A30000123410900F01F00024A834042F821306F
:103A4000704700BF00E100E0BFF35F8F044B5A6A8C
:103A500022F480325A620022C3F89420704700BFDB
:103A600000ED00E0064B40F00100C3F894005A6AF4
:103A700042F480325A62BFF34F8FBFF36F8F7047AB
:103A800000ED00E04378144AC2F89830D2F8A03034
:103A900023F00103C2F8A0304368C2F89C30C37A17
:103AA000017B1B0643EA017301780B43817A43EAE9
:103AB000C143417B43EA8143817B43EA4143C17B6C
:103AC00043EA0143417A43EA0123017A43EA41038D
:103AD000C2F8A030704700BF00ED00E010B504460A
:103AE000002836D090F8613003F0FF021BB980F84F
:103AF0006020FDF749FD0223E069626884F86130C7
:103B000023680243A069196821F4E02121F04001F3
:103B10000A431A60596BA26821F48371024321F0B1
:103B200001010A43E1685A631A6C6FF30F020A43FA
:103B30001A64596BD4E9040221F44011520542EA97
:103B4000005200200A435A630123606684F8613002
:103B500010BD0120FCE7000070B590F8603002460F
:103B60000220012B32D082F861001C20012300FBCF
:103B7000012082F86030836BD0E90B451B0543EAD6
:103B80000543C56B406B234343EA4553A4F1090544
:103B9000012D96BF00F07F4043EA006303431068A5
:103BA000A9B9446A012D194901EA040141EA030156
:103BB000936A4162836103D8536B23F07F4383622E
:103BC0000123002082F8613082F8600070BD0B2C68
:103BD00005BF1C240E4E0F4E04FB012404BF246CB1
:103BE00043EA8443C469012D24EA060443EA04033A
:103BF000C3614FF01C0303FB01218B6A0361DFD813
:103C00004B6B23F07F430362DAE700BFF0FFCC0089
:103C10000F003FFF0F0033FF10B502680C688B6880
:103C2000106823434C6920F07F4023438C6920F4C3
:103C30007B0023434C6A20F4FE402343CC6A20F0EF
:103C40007C0023430343087943EAC063087B43EACB
:103C5000C053487B43EA8053887B43EA4053C87B88
:103C600043EA0053887C43EA0043087F43EA003379
:103C7000487F43EAC023C87F43EA402391F82800E5
:103C800043EA0013087CB0FA80F0400943EAC043DD
:103C9000487CB0FA80F0400943EA4043887FB0FA9C
:103CA00080F0400943EA802391F82000B0FA80F0C8
:103CB000400943EA0023C86B1360536823F07C5328
:103CC00023F4EF2323F4FF6323F0070343EA406365
:103CD000486B034391F8380043EA006391F83000E1
:103CE00043EA804391F8310043EA404391F83200BF
:103CF000B0FA80F0400943EA00435360D368486C4F
:103D000023F4877323F00103034391F8400043EA4F
:103D10000023886CD360136F23F0F2031B041B0C89
:103D200043EA0043086D034391F8540043EA40031B
:103D300091F84C00B0FA80F0400943EAC0131367D1
:103D4000D2F8900091F8563020F00300034391F828
:103D5000550043EA4003886DC2F89030D2F8003D28
:103D600023F072030343C86DC2F8003DD2F8303D22
:103D700023F07B03034391F8610043EA001391F8B9
:103D8000620091F8601043EAC003B1FA81F1490979
:103D900043EA8113C2F8303D10BD00000368086893
:103DA00003F580531A6822F4F04222F00202024323
:103DB00010B51A600A7B58680C79D20320F4504081
:103DC00042EA04328C6820F00100224302435A6028
:103DD0000A6A487BD3F8004142EA0042104820407A
:103DE0000243C3F800214A7F087D1203D3F804413F
:103DF00042EA0012086902430A4820400243C3F81D
:103E00000421D3F808010C7F8A6920F0004142EABE
:103E1000C47221F47C110A43C3F8082110BD00BF0D
:103E200000C0FEFFEFEFC0FF2DE9F74F846A01925B
:103E300000EB84068D68B369DA68002A60DBF26AF9
:103E4000002A5DD1D1F8008018F0040F2CD0DF6873
:103E500018F0080F4A6A6FF30F0742EA0702076873
:103E6000DA60DA6842F48032DA603A6E42F4801244
:103E70003A6619D09A681FFA82FECA6A4EEA02426E
:103E80009A60DA6842F40032DA60DA6822F4402E8E
:103E90000A6B4EEA0202DA607A6E42F480127A66A7
:103EA0003A6D42F080623A6518F0100F09D09F68B1
:103EB0008A696FF30D073A439A60DA6842F08062CC
:103EC000DA6018F014081FD0DA6842F08042DA6035
:103ED000BFF35F8F671CDA68032F42F0004288BF90
:103EE000E71EDA6000EB87039B69DA68002A80F23C
:103EF0008880B269BFF35F8FD36823F00043D3603B
:103F0000022003B0BDE8F08F27462A68DFF840E2C0
:103F10001A609A6822F47F5C6A682CF03F0C4CEAC5
:103F200002029A60AA68002A6ED015685D609D68DA
:103F300005EA0E0C55684CEA05459D60D1F800C0B5
:103F4000DD681CF0100F66D025F4F00E0D6A4EEA05
:103F5000C545DD60DD684FEA954ECD694FEA8E4E6E
:103F60004EEA0505DD60DD6845F48025DD601CF066
:103F7000040F06D09D6825F4404C8D6A4CEA050577
:103F80009D60DD6845F00055DD60DD6825F0804509
:103F9000DD60BFF35F8FDD6845F00045DD600D68D3
:103FA000AD0706D5DD6825F0607CCD684CEA0505D7
:103FB000DD600025DFF898E1DFF89891D2F808A0DD
:103FC000BAF1000F43D1019A002A00F0BC809A6830
:103FD00042F000429A60DA6842F08052DA6000EB08
:103FE0008703C26BDA628762EFF31082012383F3E7
:103FF0001088036C01332B44036482F31088002083
:104000007FE74FF0010880E75A609A6802EA0E02E3
:104010009A602A4692E725F4FF4E4D681CF0010F86
:104020002EF07F0E4EEA0505DD6006D0DD6825F432
:10403000403E4D694EEA0505DD601CF0200F96D02C
:10404000DD6825F0406E0D694EEA05058EE707F143
:10405000010CDA68BCF1030F22F0805288BFA7F18F
:10406000030CDA6000EB8C07BB69DA6822F00052BF
:10407000DA60DA68002A17DA08F1010200212A441E
:10408000B56991423FF43CAFBFF35F8FEB680131FC
:1040900023F00043EB60631C032B88BFE31E00EB9F
:1040A0008304A5691C46ECE7FA6A002AE4D1DAF831
:1040B00000201A609F68DAF804206FF30D07174399
:1040C000DAF808209F602AB317685F609F6807EAE4
:1040D0000E0A57684AEA07479F60D1F800B0DF68C8
:1040E0001BF0100F1DD007EA090ACF694AEA07073B
:1040F000DF60DF6847F48027DF600135BFF35F8F43
:10410000DF6847F00047DF60DF6827F08047DF6047
:10411000674653E75A609A6802EA0E029A6052466E
:10412000DBE727F4FF4A4F681BF0010F2AF07F0AF4
:104130004AEA0707DF60E0D0DF6827F4403A4F69BA
:104140004AEA0707D8E79A6822F0004242E700BF30
:10415000FFFF00C00000FCFF2DE9F7430023856E40
:104160000446C76E019305F112034FF001484FF06A
:10417000414950F8236037B13369E3B901A803F02E
:10418000DDFE019BABB9E36EBB420FD0BFF35F8F87
:10419000E91C23682269182001F0030103F580530C
:1041A00000FB0122C3F82821C4E91A5703B0BDE877
:1041B000F08333613360A36D63B1C6F80C906B1C60
:1041C000013F032B88BFEB1E03F112021D4654F87A
:1041D0002260D0E7C6F80C80F1E7D0F88430102BCD
:1041E0004FF0010310B5044637D120228365042324
:1041F000C0F88420C366FFF7AFFF2268002002F5F5
:104200008053D3F8041141F00101C3F80411D3F82D
:10421000081141F00101C3F80811D3F8601141F40D
:104220008171C3F86011D2F8001D41F00101C2F89C
:10423000001D116841F002011160116841F0010197
:104240001160D3F8342142F4504242F0C102C3F865
:1042500034214023C4F8843010BD1846FCE7D0F860
:1042600084200346402A10B538D12022C0F884208B
:1042700050F8442B02F58051D1F8344124F45044D5
:1042800024F0C104C1F83441D1F8044124F0010400
:10429000C1F80441D1F8084124F00104C1F80841F3
:1042A00003F15404116821F001011160D2F8001DDE
:1042B00041F00101C2F8001D116821F002011160F6
:1042C00050F8041FCA68A04222F08042CA60F7D1A9
:1042D000002010229865C3F8842010BD0120FCE75F
:1042E00010B5044639B9D0F8883043F00103C4F85A
:1042F0008830012010BDD0F88420402AF9D14B6BC2
:104300000122C363FFF790FD20B1D4F8883043F059
:104310000203ECE7BFF34F8FA26A0020531C032B6C
:1043200088BFD31E2268A362063354F8231002F517
:104330008053C3F82011DDE72DE9F04F044685B026
:104340008A4649B9D0F8883043F00103C0F8883074
:10435000012005B0BDE8F08FD0F88430402BF7D1B4
:10436000D0F85C904FF0000800F1800109F11203D1
:104370004646C34650F823507C3050F8103CC3F1F9
:1043800004030193EB68002B05DB019B9E4202D0E6
:10439000B8F1000F11D0E36E1E44E66616B1204658
:1043A000FFF7DAFEC4F85C90B8F1000FD0D0E36FED
:1043B0000020CAF80030E067CBE7EB685B0003D56C
:1043C0006B68A3672B686367EB689F0001D4E36F9A
:1043D00003B3EB68EF689A00C7F30E0748BFC4E960
:1043E00018BB636EFF1AEB68DB0003D5EB684FF078
:1043F00001082367BBB22A69CDE9020103F0C0FDC1
:10440000236E01332366636EDDE902013B4463667C
:10441000C5F810B009F101030136032B88BFA9F1DB
:10442000030303F11202994654F82250AAE72DE93A
:10443000F047054601274FF018094FF0000AD0E970
:10444000106406B117B90020BDE8F08705EB8408B9
:10445000013ED8F82C0028B9631C032B00D9E31EB9
:104460001C46EEE7EB6809FB0433DB68002B0ADB34
:1044700003F0B4FD631CC8F82CA0032B88BFE31E17
:10448000C5E91063ECE723460027E9E7704770476A
:10449000704703684FF0B0422DE9F041D3F8B07097
:1044A00003F580530446D3F86051D3F83481D2F831
:1044B000A8606A0608D518F0400F05D048F24002FF
:1044C000C3F8602103F03CFBEB070CD518F0010F9B
:1044D00009D0236848F20102204603F58053C3F84F
:1044E000602103F033FB680424D518F4804F21D0F9
:1044F000D4F8883015F4805F43F00803C4F888309E
:10450000236803F58053D3F8602155D022F46F62FD
:1045100022F00D02D204D20CC4F88C20D3F834213E
:1045200022F44042C3F83421E023C4F8843020460A
:1045300003F012FB17F4C04F13D0D4F88830204694
:1045400043F01003C4F888302368D3F8B830C4F8B7
:104550009030E023C4F8843003F0FEFA0023C4F85E
:104560009030F9060CD523682046D3F8C03003F00C
:104570006003C4F89430FFF789FF0023C4F8943037
:10458000BA060CD523682046D3F8D03003F00F03C9
:10459000C4F89830FFF77BFF0023C4F8983073020B
:1045A00008D54FF0B0434FF480022046C3F8A8204E
:1045B000FFF76EFFBDE8F08102F4CD42C4F88C2015
:1045C0004FF4CD42C3F86021B1E770B51E460368D1
:1045D0000546D3F80002C00701D5012070BDD3F80D
:1045E000004224F0787444EA415121F4F81141EA80
:1045F000024242F00D02C3F80022FFF7A1F904467F
:104600002A68D2F8000210F0010004D1D2F8043276
:104610009BB23360E2E7FFF793F9001BB0F57A7FB6
:10462000EED9DAE738B505460068D0F80042E4076D
:1046300001D5012038BDD0F800429BB224F0787437
:1046400044EA415121F4F81141EA02420C4922F0B6
:104650000C02C1F8043242F00502C1F80022FFF753
:104660006FF904462B68D3F8000210F00100E1D086
:10467000FFF766F9001BB0F57A7FF3D9D9E700BFE1
:1046800000800240002900F0C180036800201A6801
:1046900002F00C02CA621A68C2F3001281F82820E4
:1046A0001A6802F060024A621A6882F48072C2F3E9
:1046B000002281F820201A68C2F34022CA771A68C3
:1046C00082F48062C2F380228A771A68C2F3C02221
:1046D0004A771A68C2F300320A771A6802F4005265
:1046E0008A611A6802F480424A611A68C2F3004281
:1046F0008A741A6882F40032C2F340424A741A681B
:1047000082F40022C2F3C0420A741A68C2F3005253
:10471000CA731A68C2F340528A731A68C2F380528D
:104720004A731A68C2F3C0520A731A6802F0E06250
:104730008A601A68C2F3C0620A711A6802F0E04225
:104740000A605A68C2F30D024A635A6882F48032E2
:10475000C2F3004281F832205A68C2F3404281F825
:1047600031205A68C2F3804281F830205A68C2F37F
:10477000006281F838205A68C2F34462CA63DA687A
:10478000C2F3002281F84020DA6802F00F024A6486
:104790001A6FC2F3400281F854201A6F82F080022F
:1047A000C2F3C01281F84C201A6F02F070020A6541
:1047B0001A6F120C8A64D3F8902002F0010281F87B
:1047C0005620D3F89020C2F3400281F85520D3F848
:1047D000002D02F072028A65D3F8302D02F0230218
:1047E000CA65D3F8302DC2F3C00281F86220D3F835
:1047F000302DC2F3001281F86120D3F8303D83F0F0
:104800004003C3F3801381F8603070470120704784
:1048100008B539B1D0F88430102B03D1FFF7FCF97B
:10482000002008BD0120FCE738B503680546D3F831
:10483000004201F00BF9114B24F47064984205D842
:1048400044F400742B68C3F8004238BD0C4B984206
:1048500002D244F44074F5E70A4B9842F2D90A4B6D
:10486000984202D844F48074ECE7084B984294BF15
:1048700044F4806444F4A064E4E700BFBF0E160271
:1048800000879303FFE0F5057FD1F0087FB2E60EC5
:10489000F0B50446A5B0002800F0AF80D0F8843011
:1048A00023B92023C0F8843003F050FA814BD3F8A9
:1048B000F42042F00202C3F8F420D3F8F430207A56
:1048C00003F002030193019B002840F08680FFF76C
:1048D00055F8794B5B68236803F580531A6842F0FA
:1048E00001021A60FFF72CF80646236803F580538F
:1048F0001D6815F0010573D120460127FFF794FFCD
:1049000001F0A4F86D4B4FF48041266814958DF8A2
:1049100030708DF854508DF864501A951D958DF8AF
:104920006C508DF84C70ADF88C708DF88E501F95D2
:10493000ADF880508DF882501695ADF85C508DF82A
:104940005E700D958DF83E501C958DF87870B0FB1B
:10495000F3F04FF4C363013818934FF04053C6F897
:10496000DC0002200B934FF40053CDE910134FF4F9
:1049700080330BA912932023CDE92103504B20460D
:104980000E9340F20113ADF83C30FFF745F94FF4B8
:10499000001302A920468DF80C70069308934FF47B
:1049A000067302950A930497ADF814508DF81C50C5
:1049B000ADF82450FFF7F2F906F580536069D3F89B
:1049C000002110F0030122F4E01242F40022C3F8A7
:1049D000002115D0C4F888700CE04FF4000076E791
:1049E000FEF7AEFF801BB0F5FA7F7FF67EAF0423A3
:1049F000C4F88830E023C4F88430012025B0F0BD2D
:104A0000D3F8082104F114056FF34E0242EA400284
:104A1000E068C3F8082100F16007024611605160A8
:104A20009160D16045F8042F1832BA42F6D1A162E4
:104A3000032221690025C3F82C2101F16007C3F886
:104A400014010A46C3F8200104F1440015605560C2
:104A50009560D560C2E9045540F8042F1832BA4277
:104A6000F4D10322A5650020C4E91755C4E91A55FD
:104A7000C3F83021C3F81C114831C3F8281163680A
:104A80009A88C6F800231B68C6F804330D4BD6F885
:104A90000C271343C6F80C37D6F8103743F042639F
:104AA00043F44043C6F810371023C4F88850C4F8C4
:104AB0008430A3E7004402580004005840420F002D
:104AC000000001016000020CD0F888007047D0F8A7
:104AD0008C0070472DE9F74F0023DFF8C4914FF0A9
:104AE000B0440A6832FA03F502D103B0BDE8F08F92
:104AF000012505FA03F818EA020200F0BB804E68AF
:104B000003274FEA430E06F0030507FA0EFC6F1E5B
:104B10006FEA0C0C012F34D8876807EA0C0ACF68BB
:104B200007FA0EF747EA0A078760476827EA080886
:104B3000C6F300179F4047EA08074760C768022D81
:104B400007EA0C088F6807FA0EF747EA0807C760FC
:104B500019D14FEAD30803F0070A4FF00F0B00EB0F
:104B600088084FEA8A0AD8F820700BFA0AFB27EA6D
:104B70000B0B0F6907FA0AF747EA0B07C8F8207012
:104B800001E0032DDAD1076805FA0EF516F4403F6F
:104B900007EA0C0745EA070505606BD0D9F8F45021
:104BA00023F0030703F0030C4FF00F0E45F002054E
:104BB00007F1B0474FEA8C0CC9F8F45007F580674D
:104BC000D9F8F4500EFA0CFE05F002050195019D8E
:104BD000BD6825EA0E0E314DA8424DD005F5806521
:104BE000A8424BD005F58065A84249D005F58065FF
:104BF000A84247D005F58065A84245D005F58065F7
:104C0000A84243D005F58065A84241D005F58065EE
:104C1000A8423FD005F58065A8423DD005F58065E6
:104C2000A84214BF0A25092505FA0CF516F4801FC1
:104C300045EA0E05BD606FEA020725680CBF3D40DE
:104C4000154316F4001F256065680CBF3D401543F1
:104C500016F4003F6560D4F884500CBF3D40154306
:104C6000F603C4F88450D4F8805054BF3D40154337
:104C7000C4F88050013334E70025D5E70125D3E798
:104C80000225D1E70325CFE70425CDE70525CBE7AE
:104C90000625C9E70725C7E70825C5E7000002582C
:104CA000004402580369194214BF012000207047D4
:104CB0000AB1816170470904FBE7436901EA030215
:104CC00021EA030141EA02418161704710B50446BF
:104CD00000284ED090F8413003F0FF021BB980F855
:104CE0004020FCF769FC242384F8413023681A68CB
:104CF00022F001021A60626822F070621A619A68FA
:104D000022F400429A60D4E90221012906D142F43A
:104D100000429A605A6822F4006207E042F40442BA
:104D200002299A60F6D15A6842F400625A60002063
:104D30005A6842F0007242F400425A60DA6822F483
:104D40000042DA60D4E904210A43A16942EA01225F
:104D5000DA60D4E907210A431A601A6842F00102B6
:104D60001A602023606484F84130206384F8420094
:104D700010BD0120FCE710B590F841200346202A21
:104D8000D4B21CD190F84020012A18D0242280F8F7
:104D900041200268106820F001001060106820F4C3
:104DA000805010601068014300201160116841F0CC
:104DB0000101116083F8414083F8400010BD0220DA
:104DC000FCE710B590F841200346202AD4B21BD14D
:104DD00090F84020012A17D0242280F84120026850
:104DE000106820F001001060106820F4706040EA44
:104DF000012100201160116841F00101116083F868
:104E0000414083F8400010BD0220FCE7094B82B00E
:104E1000D3F8F42042F00202C3F8F420D3F8F430BF
:104E2000054A03F002030193019B53680343536057
:104E300002B070470044025800040058D2010068D4
:104E400084328318F0B5C7685D684C68C7F30B47B8
:104E500005F470450E6827445D6006F1010CC568D5
:104E6000A41BC5F30B45654445EA07455D60C7686B
:104E7000CD68C7F30A072F449D6805F470459D600F
:104E80008D68D0F80CC00135CCF30A0C6544D1F81C
:104E900010C045EA07458F69BCF1070F9D601D6989
:104EA00025F007051D61C3F810C091F8305045EAA0
:104EB000076591F8317045EA072591F8327045EAA7
:104EC00007459D615D6925F0FF055D614D695D6187
:104ED000DD6925F4E06525F00705DD61D1E90757B7
:104EE00045EA070588BF0127DD614D6A9D629CBFC9
:104EF0000C4D15F80C70DD6A7C4305F0E025073495
:104F0000DD628D6AC96A7D4344EA0544DC621C6B3C
:104F10006FF30A041C631963835843F00103835041
:104F2000F0BD00BF8C2D080838B5044600284ED0CF
:104F300090F8A13003F0FF021BB980F8A020FCF725
:104F400085FB022384F8A13023689A6922F070421D
:104F50009A619969D4E901200243E068024320691B
:104F600002430A439A61D4E9051242EA01429A6077
:104F7000D4E9071242EA0142DA60D4E9091242EAAE
:104F800001421A61D4E90B1242EA01425A61DA6A1B
:104F900094F8350002F07F4294F83610DA62DD6A48
:104FA00094F834202A4342EA0022002042EA0142D7
:104FB000DA625A6B42F006025A639A6942F00102C1
:104FC0009A610123C4F8A40084F8A13038BD0120FF
:104FD000FCE770477047036870B59E6B04465D6BD5
:104FE000720714D5690712D55A6B22F004025A636E
:104FF0000422DA63D0F8A43043F00103C0F8A430EF
:10500000002380F8A12080F8A030FFF7E2FFB2076C
:1050100016D5AB0714D5236820465A6B22F002023E
:105020005A630222DA63D4F8A4301343C4F8A430DC
:10503000042384F8A130002384F8A030FFF7C9FFCF
:10504000F00710D5E9070ED5236820465A6B22F0E9
:1050500001025A630122DA63002384F8A12084F854
:10506000A030FBF725FD320711D52B070FD523689C
:1050700020465A6B22F008025A630822DA630123A1
:1050800084F8A130002384F8A030FFF7A3FF70BD9F
:105090002DE9F04190F8A03006460F469446012BCA
:1050A0004FF002001FD034244FF001080D4686F85F
:1050B000A10004FB026486F8A08038340FCD0FC431
:1050C0000FCD0FC40FCD0FC42B6830466246394652
:1050D0002360FFF7B3FE33680020C3F8248086F80E
:1050E000A18086F8A000BDE8F081000090F8A02023
:1050F00003460220012A12D01A6883F8A100506BDF
:1051000020F001005063064801640020516B41F01B
:1051100001015163012283F8A00083F8A1207047A8
:105120000010005038B5104CE36813F0040FE3682A
:1051300005D103F00703181A18BF012038BD23F06A
:1051400007031843E060FEF7FBFB054663689B041A
:1051500001D50020F2E7FEF7F3FB401BB0F57A7FA4
:10516000F4D90120EAE700BF00480258F8B5044628
:10517000002874D00368D8075ED42368990700F12B
:10518000AD802368DA0627D59C4A1369916A03F03B
:105190003803082B07D0182B40F0038101F00303DC
:1051A000012B40F0FE801368DB0502D5E369802BFC
:1051B00055D1FEF7DDFB41F20303216A98428F4B84
:1051C00000F2E8805A68202922F0F8420CBF42F031
:1051D000804242EA81625A602368190700F1238104
:1051E00023689A0600F1448123685D071ED5844D2B
:1051F0002B6843F480732B60FEF7A2FB06462B68F6
:10520000DA0540F15A81A3687C4D012B40F05C81A6
:105210002B6F43F001032B6741F28837FEF790FBB9
:10522000764E0546336F9B0740F17481616A002911
:1052300040F0778100202BE0704A1369916A03F0F7
:105240003803102B05D0182B0BD101F00303022BD0
:1052500007D113689A0390D56368002B8DD1012084
:1052600016E06368654DB3F5803F12D12B6843F4B7
:1052700080332B60FEF764FB604E054633689B036A
:105280003FF57BAFFEF75CFB401B6428F6D903209B
:10529000F8BDA3B92B6823F480332B602B6823F46B
:1052A00080232B60FEF74CFB06462B689F037FF59F
:1052B00064AFFEF745FB801B6428F6D9E7E7B3F53A
:1052C000A02F2B6803D143F480232B60CEE723F477
:1052D00080332B602B6823F48023CAE74749E268B8
:1052E0000B69886A13F0380303D0182B2AD1800782
:1052F00028D10B685B0701D5002AB0D03F4D2B6841
:1053000023F0190313432B60FEF71AFB06462B68A4
:105310005F0711D5FEF72CFB41F203032269984287
:105320006B6822D823F47C33402A0CBF43F400334B
:1053300043EA02336B6024E7FEF702FB801B02287E
:10534000E5D9A4E72D4D2B68A2B123F0190313432F
:105350002B60FEF7F5FA06462B685807DAD4FEF7FD
:10536000EFFA801B0228F7D991E723F0FE4343EAC6
:105370000263DFE723F001032B60FEF7E1FA064644
:105380002B6859077FF5FDAEFEF7DAFA801B02287D
:10539000F6D97CE7DA6822F07C5242EA0162DA60F0
:1053A0001AE7E369154D6BB32B6843F080032B605C
:1053B000FEF7C6FA06462B68DF0511D5FEF7D8FAC8
:1053C00041F20303226A984210D86B68202A23F026
:1053D000F8430CBF43F0804343EA82636B60FBE613
:1053E000FEF7AEFA801B0228E5D950E7EB6823F000
:1053F0007C5343EA0263EB60EEE600BF00440258D0
:10540000004802582B6823F080032B60FEF798FABF
:1054100006462B68D8057FF5DFAEFEF791FA801BB4
:105420000228F6D933E76369A34D83B16B6F43F06C
:1054300001036B67FEF784FA06466B6F9B073FF527
:10544000CFAEFEF77DFA801B0228F6D91FE76B6FFF
:1054500023F001036B67FEF773FA06466B6F9F0735
:105460007FF5BEAEFEF76CFA801B0228F6D90EE778
:10547000A369914D83B12B6843F480532B60FEF7F1
:105480005FFA06462B6898043FF5AEAEFEF758FA71
:10549000801B0228F6D9FAE62B6823F480532B6090
:1054A000FEF74EFA06462B6899047FF59DAEFEF78F
:1054B00047FA801B0228F6D9E9E6FEF741FA801B7D
:1054C00064287FF69CAEE2E6B3B92B6F41F28837D1
:1054D00023F001032B672B6F23F004032B67FEF7E8
:1054E0002FFA06462B6F98077FF5A0AEFEF728FA35
:1054F000801BB842F6D9CAE6052B2B6F03D143F0C7
:1055000004032B6784E623F001032B672B6F23F042
:10551000040380E6FEF714FA401BB8427FF682AE21
:10552000B5E6654D2B6903F03803182B78D02B684E
:10553000022923F080732B6065D1FEF701FA06463D
:105540002B68990159D4AB6AA26A23F47C7323F0C7
:1055500003031343E26A43EA0213AB62636BA26B79
:10556000013B013A5B0212049BB202F4FE021343B8
:10557000226B013AC2F308021343E26B013A1206AE
:1055800002F0FE4213432B63EB6A23F00103EB624C
:105590006B6BA26C6FF3CF0343EAC2036B63EB6ADE
:1055A000226C23F00C031343EB62EB6A626C23F072
:1055B00002031343EB62EB6A43F48033EB62EB6A62
:1055C00043F40033EB62EB6A43F48023EB62EB6A53
:1055D00043F00103EB622B6843F080732B60FEF70E
:1055E000AFF9354D04462B689A013FF523AEFEF71F
:1055F000A7F9001B0228F6D949E6FEF7A1F9801B9E
:1056000002289DD943E6FEF79BF904462B689B01CF
:105610007FF510AEFEF794F9001B0228F6D936E6A6
:105620000129AA6A2B6B3FF41AAE02F00301A06AAB
:1056300081427FF414AEC2F30512E16A8A427FF41C
:105640000EAE226BC3F30801013A91427FF407AE1C
:10565000626BC3F34621013A91427FF400AEA26B24
:10566000C3F30641013A91427FF4F9ADE26BC3F313
:105670000663013A93427FF4F2AD6B6BA26CC3F305
:10568000CC039A423FF4D6AD0B4DEB6A23F00103F5
:10569000EB62FEF755F90646FEF752F9B042FBD031
:1056A0006B6BA26C6FF3CF0343EAC2036B63EB6ACD
:1056B00043F00103EB62BDE500440258494B1A690F
:1056C00002F03802102A30B500F08880182A0CD079
:1056D000002A40F085801A68434812F0200F03D05A
:1056E0001B68C3F3C103D84030BD996A9D6ADC6A68
:1056F00015F47C7FC5F305105A6BF5D0C2F3CC02CC
:1057000004F0010401F0030107EE900A6243B7EED2
:10571000006A0129B8EEE77A06EE902AFAEEE96A05
:105720004ED002293ED000294AD11A68920627D5C8
:1057300019682D4AC1F3C1011B6BCA40C3F30803AA
:1057400007EE902AF8EEE75AC5EE877A07EE103A90
:10575000B8EEC77A37EE267A37EE067A67EE877AA2
:10576000204B1B6BC3F34623013307EE103AF8EED0
:10577000C76A87EEA67AFCEEC77A17EE900AB3E7FF
:105780001B6BC3F3080307EE903AF8EEE77A77EE67
:10579000A67A77EE867A9FED156AC6EE076A67EEFF
:1057A000A67ADDE71B6BC3F3080307EE903AF8EE29
:1057B000E77A77EEA67A77EE867A9FED0D6AECE7C8
:1057C0001B6BC3F3080307EE903AF8EEE77A77EE27
:1057D000A67A77EE867A9FED076ADEE7064883E7CA
:1057E000064881E7004402580090D0030024744C1E
:1057F00020BCBE4B0024744A40787D0100093D0066
:105800002DE9F0410D46044610B90120BDE8F081B4
:10581000884A136803F00F038B42C0F0938023681B
:105820005F0700F19B801E070BD583496069CA6939
:1058300002F07002904204D9CA6922F07002024359
:10584000CA61D8060BD57C49A069CA6902F4E06236
:10585000904204D9CA6922F4E0620243CA619906FF
:105860000BD57549E0690A6A02F07002904204D9CA
:105870000A6A22F0700202430A629A070BD56E4947
:10588000E0688A6902F00F02904204D98A6922F026
:105890000F0202438A61DF076ED423689E0700F17E
:1058A000A18064490A6802F00F02AA4200F2A880AF
:1058B000580700F1B18019070BD55F496069CA69C3
:1058C00002F07002904204D2CA6922F070020243D0
:1058D000CA61DA060BD55849A069CA6902F4E062C8
:1058E000904204D2CA6922F4E0620243CA619B0674
:1058F0000BD5514AE169136A03F07003994204D24F
:10590000136A23F070030B431362FFF7D7FE4A4973
:105910004A4A8B69C3F30323D35C03F01F03D840C7
:105920008B6903F00F03D35C454A03F01F0320FA91
:1059300003F31360434B1860434BBDE8F041186814
:10594000FCF79AB8136823F00F030B431360136836
:1059500003F00F038B427FF458AF60E736492069AC
:105960008A6902F0700290427FF65DAF8A6922F088
:10597000700202438A6156E72F4BA1689A6922F4AC
:1059800070620A439A6161681A6802291DD112F493
:10599000003F3FF43AAF1A6941F28838264F22F0AF
:1059A00007020A431A61FDF7CBFF06463B696268AE
:1059B00003F03803B3EBC20F3FF46FAFFDF7C0FF46
:1059C000801B4045F2D9032020E7032902D112F0C1
:1059D000007FDEE7012902D112F4807FD9E712F0BF
:1059E000040FD6E71449E0688A6902F00F0290427A
:1059F000BFF457AF8A6922F00F0202438A6150E771
:105A00000A6822F00F022A430A600A6802F00F02B5
:105A1000AA427FF4FAAE4BE7074920698A6902F08F
:105A200070029042BFF447AF8A6922F070020243CD
:105A30008A6140E700200052004402586B3104089C
:105A40001C000024200000242800002408B5FFF7D3
:105A500035FE0B4A0B4993699269C3F3032302F0A5
:105A60000F02CB5C03F01F0320FA03F3885C064AA5
:105A700000F01F0023FA00F01060044A136008BD14
:105A8000004402586B3104081C000024200000244C
:105A900008B5FFF7DBFF054B054ADB69C3F30213CB
:105AA000D35C03F01F03D84008BD00BF0044025878
:105AB0006B31040808B5FFF7C9FF054B054ADB69E0
:105AC000C3F30223D35C03F01F03D84008BD00BF1B
:105AD000004402586B3104083F230360114B1A69DC
