:020000040800F2
:1000000000000220B5470008E52A0008E72A00089A
:10001000E92A0008EB2A0008ED2A00080000000089
:1000200000000000000000000000000001A800081F
:10003000EF2A00080000000091A80008F5A80008B9
:10004000094800080948000809480008094800084C
:10005000094800080948000809480008094800083C
:10006000094800080948000809480008094800082C
:10007000094800080948000809480008094800081C
:10008000094800080948000809480008094800080C
:1000900009480008094800080948000809480008FC
:1000A00009480008F12A0008094800080948000822
:1000B00009480008094800080948000809480008DC
:1000C00009480008094800080948000809480008CC
:1000D00009480008094800080948000809480008BC
:1000E0000948000809480008000000000948000805
:1000F000094800080948000809480008094800089C
:10010000094800080948000809480008094800088B
:10011000094800080948000809480008094800087B
:10012000094800080948000809480008094800086B
:1001300009480008FD2A0008094800080948000885
:1001400000000000000000000000000000000000AF
:10015000094800080948000809480008094800083B
:10016000094800080948000809480008094800082B
:100170000948000809480008094800080000000074
:10018000094800080948000809480008094800080B
:1001900009480008094800080948000809480008FB
:1001A000092B0008152B0008094800080948000819
:1001B00009480008094800080948000809480008DB
:1001C00009480008094800080948000809480008CB
:1001D00009480008094800080948000809480008BB
:1001E00009480008094800080948000809480008AB
:1001F000094800080948000809480008094800089B
:10020000094800080948000809480008094800088A
:10021000094800080948000809480008094800087A
:1002200009480008094800080948000800000000C3
:1002300009480008094800080000000009480008B3
:10024000094800080948000809480008094800084A
:10025000094800080948000809480008094800083A
:10026000094800080948000809480008094800082A
:100270000948000809480008094800080000000073
:100280000948000809480008094800080000000063
:0802900000000000094800080D
:1004000020524556563236303132325231000000D9
:1004100000000000000000000000000000000000DC
:100420000000000053544D3332483734332D5452BA
:100430004900000000000000000000000000000073
:080440000000000000000008AC
:1008000010B5054C237833B9044B13B10448AFF34A
:1008100000800123237010BD74010020000000003F
:10082000881A040808B5034B1BB103490348AFF30A
:10083000008008BD0000000078010020881A04082C
:1008400010F8012B11F8013B012A28BF9A42F7D07A
:10085000D01A7047034613F8012B002AFBD1181A4F
:100860000138704700000000000000000000000098
:1008700001F0FF01102A2BDB10F0070F08D010F851
:10088000013B013A8B422DD010F0070F42B3F6D155
:10089000F0B441EA012141EA014122F007047FF06E
:1008A00000070023F0E80256083C85EA010586EAC5
:1008B000010685FA47F5A3FA87F586FA47F6A5FA01
:1008C00087F68EB9EED1F0BC01F0FF0102F007020D
:1008D00032B110F8013B013A83EA010313B1F8D1B8
:1008E0000020704701387047002D06BF3546033899
:1008F000073815F0010F07D1013015F4807F02BFD2
:10090000013015F4C03F0130F0BC0138704700BF22
:100910007BB972B90029BEBF00204FF0004106E04C
:1009200008BF00281CBF6FF000414FF0FF3000F0FF
:10093000D3B9ADF1080C6DE904CE002909DB002B19
:100940001ADB00F04DF8DDF804E0DDE9022304B025
:100950007047404261EB4101002B1BDB00F040F887
:10096000DDF804E0DDE9022304B0404261EB41011F
:10097000524263EB43037047524263EB430300F080
:100980002FF8DDF804E0DDE9022304B0404261EB1A
:1009900041017047524263EB430300F021F8DDF858
:1009A00004E0DDE9022304B0524263EB43037047E5
:1009B00053B94AB9002908BF00281CBF4FF0FF31C6
:1009C0004FF0FF3000F088B9ADF1080C6DE904CEAE
:1009D00000F006F8DDF804E0DDE9022304B070471A
:1009E0002DE9F047089D8E4604468846002B4AD1E3
:1009F0008A42174662D9B2FA82F64EB1C6F1200396
:100A000001FA06F820FA03F3B74043EA0808B440B5
:100A10004FEA174E1FFA87FCB8FBFEF1230C0EFBC2
:100A2000118843EA084301FB0CF29A4209D9FB18EA
:100A300001F1FF3080F0EA809A4240F2E78002390B
:100A40003B449A1AA3B2B2FBFEF00EFB102243EA1B
:100A5000024300FB0CFC9C4509D9FB1800F1FF3256
:100A600080F0D6809C4540F2D3803B44023840EA77
:100A70000140A3EB0C0300211DB1F3400022C5E9A6
:100A80000032BDE8F0878B4205D90DB1C5E9000100
:100A900000210846F5E7B3FA83F1002946D17345F2
:100AA00002D3824200F20581841A6EEB0302012018
:100AB0009046002DE5D0C5E90048E2E7002A00F0A5
:100AC0009080B2FA82F6002E40F0A4808A1A030CBD
:100AD0004FEA174E80B2BCB20121B2FBFEFC0EFB06
:100AE0001C2243EA024304FB0CF29A4207D9FB188A
:100AF0000CF1FF3802D29A4200F2E080C4469B1A01
:100B0000B3FBFEF20EFB123340EA034302FB04F494
:100B10009C4207D9FB1802F1FF3002D29C4200F23E
:100B2000CA8002461B1B42EA0C40A5E7C1F1200621
:100B30008B4022FA06F71F430EFA01F420FA06F35F
:100B40002EFA06FE4FEA1749234300FA01F81FFA6E
:100B500087FCBEFBF9F01C0C09FB10EE44EA0E44C6
:100B600000FB0CFEA64502FA01F209D93C1900F17E
:100B7000FF3A80F09C80A64540F2998002383C44C0
:100B8000A4EB0E041FFA83FEB4FBF9F309FB134434
:100B90004EEA044403FB0CFCA44508D93C1903F1BC
:100BA000FF3E80F08280A4457FD9023B3C4443EA6B
:100BB0000040A4EB0C04A0FB02EC64457346E14644
:100BC00062D35FD05DB1B8EB030264EB090404FAB1
:100BD00006F622FA01F31E43CC40C5E90064002169
:100BE0004FE7B1FBF2FC010C41EA0E4180B240EA52
:100BF00001423B4638463C46B846BE462026B1FB3D
:100C0000F7F1A2EB080241EA0C4166E7014618E75A
:100C100010462CE7C6F120022EFA02F3B740B1408D
:100C200020FA02F24FEA174E0A43B3FBFEF8BCB2B9
:100C30000EFB1833110C41EA034108FB04F9B040E4
:100C400089454FEA104380B23ED9791808F1FF3C3C
:100C500001D289451FD8A1EB0901B1FBFEF909FBBF
:100C600004F80EFB191192B242EA0142424529D220
:100C7000BA1809F1FF31C4D24245C2D2A9F102012A
:100C80003A44BEE7F0459DD2BEEB02036CEB070C85
:100C90000138E14696E7A7EB09094944A8F1020C9F
:100CA000B1FBFEF909FB04F8DBE773467FE750462A
:100CB00066E70846FDE63B44023A33E7ACF1020C36
:100CC0003B441CE749469CE7A1EB0901C446B1FB44
:100CD000FEF909FB04F8C4E7704700BF1FB54FF4E5
:100CE0007A7304460091A121CDE901230246022333
:100CF000064805F09DF930B12146054804B0BDE82D
:100D0000104000F037BC04B010BD00BF5C090020EB
:100D1000381B040830B5072387B04FF47A720546B4
:100D20000C46A121CDE9013204AB02460D480093E7
:100D3000022305F07DF928B129460B4800F01AFC82
:100D400007B030BD9DF81030A371BDF811305BBA0B
:100D50002380BDF813305BBA6380BDF815305BBAF1
:100D6000A380EDE75C090020381B040830B589B08A
:100D700018224FF4F0601D4C01A91D4DFFF7AEFF86
:100D80009DF80C101B4B40F28A3004F21F4419707E
:100D90009DF80D3063729DF80E30A3729DF80F30F0
:100DA0002B70059BC4F80130069BC4F8053000F099
:100DB000AFFA617A4FF4627000F0AAFAA17A40F2B9
:100DC000893000F0A5FA29784FF464754FF461700A
:100DD00000F09EFA2846013514F8011FADB200F06C
:100DE00097FAB5F5667FF5D109B030BDB40A002099
:100DF000180A0020190A0020F0B5C401164DA3B04E
:100E0000A4B22F4604F18006B6B220460834394613
:100E10000837A4B2FFF77EFFB442F6D10024204683
:100E2000043429460835A4B200F0C0FA402CF6D1AB
:100E30000A4801AD002400F093FB094800F090FB44
:100E40002046043429460835A4B200F0C6FA402CE6
:100E5000F6D123B0F0BD00BFE00E0020521B040805
:100E6000601B04082DE9F8438424C701DFF8908053
:100E700006464443BFB2012504EB080907F5FC7799
:100E800007EBC5000135494609F10809ADB280B24A
:100E9000FFF740FF112DF3D13146174800F074FBE6
:100EA000A044B3019BB203F5817403F5A173A4B20E
:100EB0009DB2B8F80210204600F02AFA601EB8F879
:100EC000001008F1080880B200F022FA601C38F81F
:100ED000041C80B200F01CFAA01E043418F8021C96
:100EE00080B2A4B200F014FAAC42E2D13146034819
:100EF000BDE8F84300F048BB6D1B0408811B0408E3
:100F0000B40A002010B50024A0B20134FFF7AAFFF4
:100F1000082CF9D110BD000001220421014804F081
:100F2000F1BE00BF0018025801224FF48061014851
:100F300004F0E8BE0018025830B587B0002401253F
:100F40007C2301A918480594CDE90135CDE9034476
:100F500004F0EAFD4FF4604301A91448CDE90135DE
:100F6000CDE9034404F0E0FD4FF4707301A910488B
:100F7000CDE90135CDE9034404F0D6FD4FF45043EB
:100F800001A90C48CDE90135CDE9034404F0CCFDBD
:100F90004FF4006301A90848CDE90135CDE90344C8
:100FA00004F0C2FD07B030BD00100258000802581E
:100FB0000014025800040258000C025810B586B004
:100FC00010220021002402A83FF04AFE7C2301A940
:100FD0001648019304F0A8FD4FF4604301A914489A
:100FE000CDE90134CDE9034404F09EFD4FF4707364
:100FF00001A91048CDE90134CDE9034404F094FD82
:101000004FF4504301A90C48CDE90134CDE9034424
:1010100004F08AFD4FF4006301A90848CDE90134CA
:10102000CDE9034404F080FD06B010BD0010025865
:10103000000802580014025800040258000C02581C
:1010400010F001024FF0040110B5044618BF012250
:10105000454804F057FE14F002024FF008014248E0
:1010600018BF012204F04EFE14F004024FF01001EC
:101070003D4818BF012204F045FE14F008024FF06D
:101080002001394818BF012204F03CFE14F0100280
:101090004FF04001344818BF012204F033FE14F031
:1010A00020024FF40051314818BF012204F02AFEFB
:1010B00014F040024FF480412C4818BF012204F084
:1010C00021FE14F080024FF40041284818BF01228D
:1010D00004F018FE14F480724FF04001244818BF49
:1010E000012204F00FFE14F400724FF0800120483A
:1010F00018BF012204F006FE14F480624FF48071E0
:101100001B4818BF012204F0FDFD14F400624FF4E7
:101110000071174818BF012204F0F4FD14F4805246
:101120004FF48051134818BF012204F0EBFD14F472
:1011300000524FF480410F4818BF012204F0E2FD35
:1011400014F480424FF400410A4818BF012204F011
:10115000D9FD23044FF4006107484CBF012200224F
:10116000BDE8104004F0CEBD00100258000802583F
:101170000014025800040258000C025810B5042153
:10118000464804F0B9FD431E082144485C425C41D6
:1011900004F0B2FD01284FF01001404808BF44F0B0
:1011A000020404F0A9FD01284FF020013B4808BFCC
:1011B00044F0040404F0A0FD01284FF0400137483A
:1011C00008BF44F0080404F097FD01284FF40051D3
:1011D000334808BF44F0100404F08EFD01284FF49A
:1011E00080412F4808BF44F0200404F085FD012809
:1011F0004FF400412A4808BF44F0400404F07CFD4D
:1012000001284FF04001274808BF44F0800404F053
:1012100073FD01284FF08001224808BF44F4807418
:1012200004F06AFD01284FF480711E4808BF44F4A1
:10123000007404F061FD01284FF40071194808BFE3
:1012400044F4806404F058FD01284FF4805116489E
:1012500008BF44F4006404F04FFD01284FF48041BE
:10126000114808BF44F4805404F046FD01284FF4AF
:1012700000410D4808BF44F4005404F03DFD01282E
:101280004FF40061094808BF44F4804404F034FD81
:10129000012808BF44F40044204610BD0010025845
:1012A000000802580014025800040258000C0258AA
:1012B000012801D1FFF730BE00220421014804F0CB
:1012C00021BD00BF00180258012802464FF0080156
:1012D000024818BF002204F015BD00BF00180258D4
:1012E000012802464FF40071024818BF002204F0A2
:1012F00009BD00BF00180258012801D1FFF714BE34
:1013000000224FF48061014804F0FCBC0018025830
:1013100038B505460C46FFF70FFE012208210E489E
:1013200004F0F0FC0020FFF7DBFF0020FFF7E4FFF4
:101330002846FFF785FEFFF7EFFD0020FFF7B8FF17
:10134000FFF7F2FD2046FFF77BFEFFF7E5FD0020EB
:10135000BDE83840FFF7ACBF0018025810B504468E
:10136000FFF7EAFD0020FFF7AFFF01224FF4007105
:101370000D4804F0C7FC0020FFF7BEFF2046FFF732
:101380005FFEFFF7C9FD0020FFF792FFFFF716FE93
:10139000FFF7CAFDFFF7C0FDFFF7F0FE044600208F
:1013A000FFF786FF204610BD0018025838B50446E6
:1013B0000D468979FFF7ACFF601C298880B2FFF7E2
:1013C000A7FFA01C698880B2FFF7A2FFE01CA988D4
:1013D00080B2BDE83840FFF79BBF38B50D460446E4
:1013E000FFF7BCFFA871601C80B2FFF7B7FF288031
:1013F000A01C80B2FFF7B2FF6880E01C80B2FFF74C
:10140000ADFFA88038BD000007B547F23053012278
:101410000DF107018DF80700024807F00CF903B041
:101420005DF804FB8C07002010B5441E14F8010F72
:1014300000B910BDFFF7E8FFF8E7092802D83030FF
:10144000C0B27047A0F10A03052B01D83730F7E787
:101450003020704710B50C46FFF7E6FF200BFFF772
:10146000ECFFFFF7D1FFC4F30320FFF7E6FFFFF720
:10147000CBFFC4F30310FFF7E0FFFFF7C5FF04F055
:101480000F00FFF7DAFFBDE81040FFF7BDBF38B52A
:101490000C46FFF7C9FF42F20F739C421FD8B4F508
:1014A0007A7F59D24FF47A72B4FBF2F302FB134302
:1014B0009BB2632B52D86422B4FBF2F302FB1343BA
:1014C0009BB2092B35D80A22B4FBF2F302FB13437B
:1014D000D8B23030BDE83840C0B2FFF795BF42F215
:1014E00010700125B4FBF0F03030C0B2FFF78CFF74
:1014F00042F21073B4FBF3F003FB10404FF47A7325
:1015000080B2B0FBF3F03030C0B2FFF77DFF002DAA
:10151000C8D04FF47A73B4FBF3F003FB104064239C
:1015200080B2B0FBF3F03030C0B2FFF76DFF002D9A
:10153000C1D064230A25B4FBF3F003FB104080B252
:10154000B0FBF5F03030C0B2FFF75EFFB4FBF5F34F
:1015500005FB1340C0B2BCE70025C9E70025D8E76A
:1015600008B5FFF761FF0248BDE80840FFF75CBF20
:10157000E31C040808B5FFF76DFF0248BDE808400A
:10158000FFF752BFE31C040808B5FFF780FF0248CD
:10159000BDE80840FFF748BFE31C0408704700009F
:1015A000034B0360034B0B6080231360704700BF45
:1015B000900300209001002038B5094C094D2168A6
:1015C00009483FF0C1F8296808483FF0BDF8291BD9
:1015D00007483FF0B9F80A20BDE838403FF0C6B8E8
:1015E0000000000864F408088F1B0408A81B040806
:1015F000C11B040870B50A4E0A4C33882488013395
:10160000A4B203F01F039C4209D03588064CADB24A
:10161000338004F8250004EB85004170428070BDE2
:10162000EC030020EA030020EE03002008B504F0DC
:1016300063FBB0FA80F0400908BD00000B4A0C4B78
:1016400011881B8889B29BB299420CD01388094932
:101650009BB251F82330036001201388013303F05B
:101660001F03138070470020704700BFEA0300206B
:10167000EC030020EE030020072808D81422054BB5
:1016800002FB00335878003818BF01207047002053
:10169000704700BF70040020EFF3108272B6044B55
:1016A00000211888198000B202B962B6704700BFE5
:1016B000E8030020034B93F86500003818BF0120B1
:1016C000704700BF70040020F8B520B11A4A0368C3
:1016D000136043685360A0220021184800243FF0A3
:1016E000BFFA174B174F1C80174B144D1C8003F08B
:1016F00051F906460134B98857F8080B1435FFF73D
:1017000095FF082C05F8140C05F8130C45F8106C1F
:10171000F0D110210D48FFF789FF044620210B4826
:10172000FFF784FF0A4B40EA44000A4A187000237E
:101730001380094A1380F8BD800000207004002047
:10174000EA03002030450408EC030020000402589E
:10175000E6030020E4030020E80300202DE9F84F11
:1017600000260546474F484CB346DFF83481B98818
:101770005FFA86F93868FFF759FF2378617883426A
:1017800018BF2070227818BF656091423AD0636814
:10179000B8F80000EB1A834234D362703AB30022E7
:1017A00049460120A56084F80CB02561FFF722FFAF
:1017B000A368A5EB030A237B4BB9B8F802309A451E
:1017C00005D30122494604202273FFF713FFB8F81E
:1017D0000430CBB19A4517D32369B8F80620EB1A29
:1017E000934211D3012249460520256107E049466D
:1017F0000220FFF7FFFE237B33B901220320FFF70E
:10180000F9FE01E00029D3D1013608371434082E3F
:10181000ADD110211D48FFF709FF044620211B48C8
:10182000FFF704FF40EA4400194C2378C5B240EAB0
:101830008300184BC0B21B56ABB1174A11880B443A
:101840001BB2032B0CDD0023052106201380134A55
:10185000138801331BB213800122FFF7CBFE02E095
:10186000D91C03DB13802570BDE8F88F0023052108
:1018700007201380094A1388013B1BB213804FF0E5
:10188000FF32EAE7304504087004002000040258E3
:10189000E60300201F450408E4030020E8030020BD
:1018A0008000002000487047000404244FF47F3279
:1018B0000249034808B53FF080FA08BDB045040866
:1018C00000040424014B1860704700BF1405002079
:1018D000BFF34F8F094B0A490A4AC1F868322033D7
:1018E0009342FAD1BFF34F8FBFF36F8F064B1B6844
:1018F0001BB1064A127802B9184770470004042445
:1019000000ED00E000000824140500201005002070
:1019100001460648064B012210B404681A70636B36
:10192000134363635DF8044B04F01CBEB40800204D
:10193000100500200021054810B504F013FE044BEB
:101940001B6813B1BDE81040184710BDB408002053
:1019500014050020014B186816F082BC1805002001
:10196000034B1B780BB1FFF7B3BF16F079BC00BF78
:101970008800002013B5124C4FF488714FF4F070BA
:1019800016F010FE1221206016F006FF0D492068A7
:1019900016F0ECFB2468FFF785FF012301460022C7
:1019A000204600934FF47F3316F0F2FB0648FFF712
:1019B00089FF002002B0BDE81040FFF7A9BF00BFBB
:1019C000180500206119000855190008704710B566
:1019D0000C46FFF761FE2082FFF76CFEA07410BD7D
:1019E00038B500200C46124DFFF746FE98B901208D
:1019F000FFF742FEA0B90220FFF73EFE90B9032098
:101A0000FFF73AFE80B90420FFF736FE70B92A8846
:101A1000E260A07438BD00231A4601202B80F7E74E
:101A20000123F9E70223F7E70323F5E70423F3E7AC
:101A30001C05002073B50023154D0C46154E8B7404
:101A40002B888B6001A8FFF7F9FD90B19DF8043059
:101A50009A1F012AF6D9012B0DD19DF80520072ADE
:101A6000F0D8B25C002AEDD00B492A600A60A2606F
:101A7000A37402B070BD022BE4D19DF80530072B92
:101A8000E0D8F35C002BDDD02B60A3600023EFE7F0
:101A9000240500207045040820050020014B18682B
:101AA000704700BF30050020014B1868704700BF29
:101AB0002C05002013B51D4C28F0A6FC0121206048
:101AC00028F0E4FC20681A4928F0E7FC194A6B4624
:101AD000194C1068516803C36846FFF7F5FD28F0FC
:101AE00093FC0421206028F0D1FC14492068144C98
:101AF00028F0D3FC28F088FC0221206028F0C6FCE6
:101B000010492068104C28F0C8FC28F07DFC032107
:101B1000206028F0BBFC20680C4928F0BEFC0C4972
:101B2000206828F0D0FC02B010BD00BF34050020B2
:101B3000CD190008A01A040830050020CF190008AC
:101B40002C050020351A000828050020E11900089E
:101B50007845040808B502F01DFFBDE80840FFF70E
:101B6000FDBD0000F8B506F057FF3E4CFFF724FD21
:101B70003D4A3E493B4801F0EBF83D483EF054FEFB
:101B80006368002B69D03B480EF0C2FE01463A481C
:101B90003EF0DAFDC82007F0D9FA38480FF061FBB3
:101BA000374B188801F0A0F8364B187033480FF007
:101BB0005DFBFFF77BFE344B1A6802F01F0303F551
:101BC0007F33BFF34F8F3149203BC1F86822203269
:101BD000002BF9DCBFF34F8FBFF36F8F4FF4FA7018
:101BE0002B4E07F0B3FA2B4D2CF0A6F92A4FFFF736
:101BF000C1FEFFF75FFF02F01BF90446006816F014
:101C0000C1FCFFF74BFF0146204602F0B1FD02F098
:101C1000C1FE044602F0BEFE001BB0F5FA7F14D3ED
:101C200002F0B8FE4FF480510446304604F06FF8DD
:101C30002B7853B13968194A19483EF085FD0023C5
:101C4000032118482B7001F00DF9012032F012FA2F
:101C5000FFF780FF2FF0D0FCDCE7C82007F076FA12
:101C60008EE700BF64100020900000208C00002050
:101C7000DE1B040868100020F01B0408004F002041
:101C80008A000020500700209400002000ED00E0B2
:101C900000180258480500204C050020500500207F
:101CA000FE1B0408171C040810B59CB04C22002130
:101CB00009A83EF0D5FF2022002101A83EF0D0FF68
:101CC000022004F06BFC00230093234B9A6942F43A
:101CD00040429A619A6902F4404200921F4AD16AD6
:101CE00041F00101D162D26A02F001020092009A31
:101CF0009A699404FCD54FF4803301210520C02259
:101D00000824CDE909130223CDE91233CDE91633B6
:101D100018930023CDE9140209A81B93CDE91943B8
:101D200004F060FC08B172B6FEE73F2203230421F1
:101D3000CDE9012340234FF48062CDE903040DEB8C
:101D40000100CDE90533CDE9072304F095FF08B183
:101D500072B6FEE71CB010BD0048025800040058DF
:101D60002DE9804897B010220021002409A8012500
:101D70003EF076FFDFF89CA302F090FE48F21F735E
:101D800009A8ADF82450CDE90A4340F201130C93A1
:101D900002F0A2FED04B09A88DF825508DF83140F5
:101DA000CDE90AA302F098FE022309A88DF82E407F
:101DB0008DF82530C94B8DF831500A9308238DF8E2
:101DC00033508DF82C3002F087FE032309A88DF8DC
:101DD00031408DF825304FF040438DF833400A9361
:101DE00016238DF82C3002F077FE042002F064FEFA
:101DF000BB4B5A6912F4003211D1BFF34F8FBFF3BE
:101E00006F8FC3F85022BFF34F8FBFF36F8F5A69A4
:101E100042F400325A61BFF34F8FBFF36F8FB04A65
:101E2000536913F4803323D1C2F88430BFF34F8F4A
:101E3000D2F8803043F6E074C3F3C900C3F34E33E5
:101E40005B0103EA0406014646EA81750139C2F8DE
:101E50006052F9D2203B13F1200FF2D1BFF34F8F24
:101E6000536943F480335361BFF34F8FBFF36F8FD8
:101E700002F056FD0024FFF717FF1422002109A8E5
:101E80003EF0EEFE974B7C219748D3F8E0200126E8
:101E90004FF40069954D42F010024FF0020B4FF0E5
:101EA00004081027C3F8E020D3F8E02002F0100265
:101EB0000192019AD3F8E02042F00402C3F8E02036
:101EC000D3F8E02002F004020292029AD3F8E02054
:101ED00042F02002C3F8E020D3F8E02002F0200214
:101EE0000392039AD3F8E02042F08002C3F8E02086
:101EF000D3F8E02002F080020492049AD3F8E020A4
:101F000042F00102C3F8E020D3F8E02002F0010221
:101F10000592059AD3F8E02042F00202C3F8E020CF
:101F2000D3F8E02002F002020692069AD3F8E020ED
:101F300042F04002C3F8E020D3F8E02002F0400273
:101F40000792079AD3F8E02042F00802C3F8E02095
:101F50000022D3F8E03003F008030893089B03F055
:101F6000D1FE00224FF47141614803F0CBFE002204
:101F70004FF470715F4803F0C5FE002201215E48F6
:101F800003F0C0FE00224FF450415C4803F0BAFE5B
:101F900000224FF400615A4803F0B4FE002241F2DF
:101FA0000C61584803F0AEFE7C2309A94E48CDE9E8
:101FB0000936CDE90B4403F0B7FD4FF4714309A98D
:101FC0004B48CDE90936CDE90B4403F0ADFD4FF4A4
:101FD000707309A94748CDE90936CDE90B4403F0F0
:101FE000A3FD09A94448CDE90966CDE90B4403F0F6
:101FF0009BFD3C2309A941480B94CDE9093403F02A
:1020000093FD4FF4504309A93C48CDE90936CDE989
:102010000B4403F089FD09A93948CDE90996CDE9BA
:102020000B4403F081FD41F20C6309A93548CDE969
:102030000936CDE90B4403F077FD4FF4184309A9A5
:102040002D480B94CDE9093403F06EFD942309A9C2
:102050002B480B94CDE9093403F066FD21464FF07F
:10206000807002F0BFFC284B4FF0400E09A92846B3
:10207000AC60CDF83CB0C5E900344FF48073C5E9DD
:102080000749C5E905E34FF480594FF40053C5E90A
:10209000099307234FF00309C5E90387CDE909B385
:1020A000CDE90B83CDE90D9B05F0B4FE08B172B606
:1020B000FEE7164C4FF6FF72C4E90260214628463F
:1020C000C4E9006705F0CEFE824628B310483EF012
:1020D000ABFB72B6FEE700BF100001030000043046
:1020E00000ED00E00044025800100258580700209C
:1020F0000008025800140258000002580004025858
:10210000000C0258001802584041005238050020C7
:102110001B1C040800000230304602F041FC4FF660
:10212000FF7221462846C4E900B7C4E9026A05F0F7
:1021300099FE20B196483EF077FB72B6FEE7082381
:102140004FF6FF722146C4E902302846C4E90097E1
:1021500005F088FE20B18F483EF066FB72B6FEE7C0
:1021600022234FF6FF7221462846A660E360C4E9A9
:10217000008705F077FE20B187483EF055FB72B628
:10218000FEE700F0B5F907464FEA5008404600F078
:10219000B3F982234246394603FB00F464237F48A7
:1021A000B4FBF3F423463EF0CFFA2146284605F06F
:1021B00078FE2146284605F074FE20B176483EF0B0
:1021C00033FB72B6FEE7764C764B2360A3F11E53C9
:1021D000A3F57A23A3F24F63C4E90360C4E9013095
:1021E000C4E90500C4E90700204603F0CCFE01461F
:1021F00008B172B6FEE7204603F0F8FF014608B1C9
:1022000072B6FEE7204604F017F8034608B172B62E
:10221000FEE765484FF4E132DFF8A8C10361C0E989
:1022200000C20C22C0E90233C0E90523C0E907332C
:10223000C0E9093306F0AFFA08B172B6FEE7002133
:10224000594806F016FB014608B172B6FEE756483B
:1022500006F02FFB08B172B6FEE7534806F0EEFA1F
:1022600008B172B6FEE7514C4FF4E133504F206194
:10227000C4E900730C23C4E90200C4E90530C4E9D1
:102280000700C4E90900204606F085FA014608B1B6
:1022900072B6FEE7204606F0ECFA014608B172B6C7
:1022A000FEE7204606F005FB08B172B6FEE72046C1
:1022B00006F0C4FA08B172B6FEE73E4C3E4BE0654C
:1022C000C4E900300223C4E91300C4E90230C4E9C0
:1022D0001103C4E91500204602F02AFC08B172B6C9
:1022E000FEE72046012102F061FC044608B172B607
:1022F000FEE70146342209A840F20E253EF0B0FC6C
:102300002E482F4B4FF000522E2140F216268460AB
:10231000848680F83640C0E900344FF08053C0E92D
:1023200003230323C0E905330F23C0E9071340F259
:102330001F13C0E9095340F22713C0E90B6304F0EF
:102340002FF808B172B6FEE7FF204FF48064002238
:102350004FF4F0714FF4887302250B921493ADF88B
:1023600054208DF85620CDE90E000520CDE910400F
:102370004FF04040CDE90921CDE9120109A90F48EC
:10238000CDE90C3504F0C0F80646E8B172B6FEE7B8
:10239000321C0408491C0408601C0408771C04084B
:1023A0005C090020001C0058200800208C07002039
:1023B00000440040B009002000100052B408002082
:1023C000001000500010014002462146304803F042
:1023D00099FC642002F0E4FA214601222C4803F023
:1023E00091FC4FF4FA7002F0DBFA01224FF4807195
:1023F000274803F087FCFA2002F0D2FA0122254890
:1024000009AC114603F07EFC00F060F84FF47A70DE
:1024100002F0C6FA204B2A463146186833461F4D53
:1024200080683EF009FA1E483EF0FEF91D48FEF7AE
:10243000FBFF642002F0B4FAFEF798FC1A4B187800
:1024400000F04CF8FEF75EFD4FF6FF714FF4607040
:10245000FEF75EFF4FF6FF714FF46070FEF758FF16
:102460004FF46070FEF77AFF01461048FEF7F2FF66
:102470000FCD0FC495E8070084E80700314609A88E
:1024800006F03CFE0A4B186006F02CFEFEE700BF8B
:10249000000802580000025824010020A81A04086D
:1024A0009F1C0408BE1C0408190A0020E61C04082E
:1024B000540700200268034B9A4201D102F05EBA31
:1024C000704700BF0000014072B6FEE7982200216D
:1024D00001483EF0C5BB00BF1C0A002008B5FEF74E
:1024E0008BFC0248BDE80840FFF73AB8021D04081B
:1024F00000487047342B530B02460D4B0D4800210A
:1025000010B543F60954E2FB040183424FF0040383
:102510008B4106D204A3D3E90023FEF749FA14380D
:1025200010BD0120FCE700BF00CA9A3B000000007C
:10253000FF91B2E30065CD1D0A4B82B00F216FF011
:102540000100D3F8F42042F00202C3F8F420002284
:10255000D3F8F43003F002030193019B02B002F0C0
:102560005DBA00BF00440258026882B0084B9A422C
:102570000CD1084BD3F8D42042F01002C3F8D42079
:10258000D3F8D43003F010030193019B02B07047DD
:10259000001000520044025810B5B8B0044614228E
:1025A000002103A83EF05CFBC022002108A83EF0F9
:1025B00057FB22681A4B9A4230D11022002308A8F8
:1025C000CDE9082304F0DAFD08B1FFF77DFF154CD3
:1025D0004FF4405203A91448D4F8E03043F0080304
:1025E000C4F8E030D4F8E03003F008030193019B15
:1025F0001223CDE903230023CDE9053304230793F8
:1026000003F092FAD4F8F43043F08003C4F8F430C5
:10261000D4F8F43003F080030293029B38B010BD6D
:10262000001C005800440258000C02582DE9F043E9
:10263000BDB004461422002107A83EF011FBC022C1
:1026400000210CA83EF00CFB22687A4B9A4240F025
:10265000EE804FF0005200230CA8CDE90C238C2310
:102660001022CDE916230223CDE9183324231A932F
:1026700004F084FD08B1FFF727FF6F4B002403250A
:102680000226D3F8E4200E274FF4806807A942F011
:1026900008026A484FF0C009C3F8E420D3F8E420E8
:1026A00002F008020092009AD3F8E02042F02002E3
:1026B000C3F8E020D3F8E02002F020020192019A52
:1026C000D3F8E02042F00102C3F8E020D3F8E02084
:1026D00002F001020292029AD3F8E02042F00202D4
:1026E000C3F8E020D3F8E02002F002020392039A3C
:1026F000D3F8E02042F04002C3F8E020D3F8E02015
:1027000002F040020492049AD3F8E02042F004025E
:10271000C3F8E020D3F8E02002F004020592059A05
:10272000D3F8E02042F00802C3F8E020D3F8E0300C
:102730000B9703F008030693069BCDE90786CDE9C6
:10274000094503F0F1F94FF41E7307A93C480B97B4
:10275000CDE90736CDE9094503F0E6F9092307A9D4
:1027600038480B93CDE90756CDE9094503F0DCF96C
:102770004FF4706307A933480B97CDE90736CDE9CD
:10278000094503F0D1F907A92F480B97CDE9079622
:10279000CDE9094503F0C8F907A92C480B97CDE905
:1027A0000796CDE9094503F0BFF94FF4007307A977
:1027B0002648CDE907360A23CDE909450B9303F0F6
:1027C000B3F94FF4807307A91D48CDE907360D23EF
:1027D000CDE909450B9303F0A7F90C2307A9184885
:1027E0000B93CDE90786CDE9094503F09DF9082350
:1027F00007A917480B97CDE90736CDE9094503F03E
:1028000093F9402003F03EFD802003F03BFD22467B
:102810000521582002F002F9582002F031F9592020
:102820002246052102F0FAF8592002F029F93DB0BC
:10283000BDE8F08300100050004402580014025814
:1028400000000258000402580018025800080258FC
:10285000000C025810B51422BAB0044600210DEB4A
:1028600002003EF0FDF9C02200210AA83EF0F8F96E
:102870002368334A934231D1012200230AA8CDE9CB
:102880000A2304F07BFC08B1FFF71EFE2D4BC0218C
:102890002D48D3F8F02042F01002C3F8F020D3F80E
:1028A000F02002F010020192019AD3F8E02042F0E9
:1028B0000202C3F8E020D3F8E03003F002030293F1
:1028C000029B0223CDE90513002305A9CDE90733B7
:1028D0000723099303F028F93AB010BD1B4A93422D
:1028E000FAD1022200230AA8CDE90A2304F046FC0B
:1028F00008B1FFF7E9FD134B05A91548D3F8E82007
:1029000042F40032C3F8E820D3F8E82002F40032A1
:102910000392039AD3F8E02042F00802C3F8E020C3
:102920006022D3F8E03003F008030493049B0223F1
:10293000CDE905230023CDE9073307230993C9E730
:1029400000100140004402580004025800440040B6
:10295000000C0258F0B5B7B00021142201A83EF0D7
:102960007FF9354B1968002963D101220EA81A603E
:10297000A0223EF075F94FF08072002306A8CDE941
:10298000062306224523CDE9082302230422CDE9AC
:102990000A3280220C9318930D9204F0EFFB08B1D9
:1029A000FFF792FD254B022700260325D3F8D420FC
:1029B0000C2401A9224842F48052C3F8D420D3F851
:1029C000D430059403F480530093009B4FF63F03EB
:1029D000CDE90365CDE9013703F0A6F80D2301A980
:1029E00018480594CDE90137CDE9036503F09CF85B
:1029F00048F2331301A914480594CDE90137CDE914
:102A0000036503F091F84FF6837301A90F4805940D
:102A1000CDE90137CDE9036503F086F84CF2037385
:102A200001A90B480594CDE90137CDE9036503F011
:102A30007BF837B0F0BD00BF640F0020004402589F
:102A400000140258000802580018025800100258DA
:102A5000000C02580F2810B504468AB002D9012094
:102A60000AB010BD01460022192001F0D7FF19203D
:102A700002F006F8164B694602A81C60154B164C6E
:102A8000D3F8F02042F00102C3F8F020D3F8F03080
:102A900003F001030193019B04F05AFA04F046FA93
:102AA0000E4B4000236040F2E733E3600C4BB0FB79
:102AB000F3F001380023606020462361A36005F035
:102AC0003FFB0028CBD1204605F004FAC8E700BF41
:102AD000A400002000440258680F002000000140BC
:102AE00040420F00FEE7FEE7FEE7FEE7FEE7704725
:102AF000014805F031BA00BF680F0020014802F01C
:102B0000F2BC00BFF0100020014803F0A0BC00BFE1
:102B1000B4080020FFF7F8BF01207047024B1622CF
:102B20004FF0FF301A60704740C50020014B16225D
:102B30001A60FEE740C5002070B50D4614460E46EB
:102B4000731B9C4201DC204670BDAFF3008006F889
:102B5000010BF5E770B50D4614460E46731B9C42FB
:102B600001DC204670BD16F8010BAFF30080F5E7DD
:102B70004FF0FF3070474FF4005300204B60704718
:102B800001207047002070470A4A0346116810B5BB
:102B900009B9094911601068084C09490344091B27
:102BA0008B4283BF074B0C224FF0FF30136088BF6E
:102BB0001A6010BDB40F002070C80020000400008F
:102BC0000000022040C500202E4AD2F8883043F48D
:102BD0007003C2F888302C4A136803F00F03062BE9
:102BE00005D8136823F00F0343F007031360274B46
:102BF0001A6842F001021A6000221A61244A196818
:102C00000A4021491A600A68100705D50A6822F0AF
:102C10000F0242F007020A6000221E499A61DA613F
:102C20001A6299621C49D9621C4919635A639963F3
:102C3000DA6319645A64196821F4802119601A66EC
:102C4000174B1B686FF30F03B3F1005F03D2154BF3
:102C50000122C3F808210D4BD3F8D420D2040FD49D
:102C6000D3F8D42043F2D20142F48052C3F8D420E6
:102C70000D4A1160D3F8D42022F48052C3F8D42036
:102C8000704700BF00ED00E00020005200440258F1
:102C90007FEDF6EA000202020000FF01800201015E
:102CA0000010005C0080005100400052044BDA68C4
:102CB00042F00202DA605A689204FCD5704700BF05
:102CC000004802580020704708B504483DF03CFD1C
:102CD0000023034A1360034A137008BD241D04082F
:102CE000B80F00205007002038B5054609F0EAFD6E
:102CF000044618B910483DF097FD0BE00F492A46ED
:102D000009F0B0F9014638B10D483DF01DFD2046EF
:102D100009F08EFE002038BDFF21204609F05EFA42
:102D200008B90848E7E7084909F052FB07483DF0B1
:102D30007BFD0120EFE700BF421D04082443080883
:102D40005B1D04087A1D0408B92E0008921D0408B2
:102D50001FB50B6801A901936FF07F4302931368BD
:102D600002AA039303AB08F069FC05B05DF804FB0D
:102D70000A8908B5B0F8643093420AD9496801233A
:102D80000BF0A8FD014648B10548BDE808403DF0FC
:102D9000DBBC0448BDE808403DF046BD08BD00BFAF
:102DA000B41D0408D51D04082DE9F0410E461D464A
:102DB00014465AB923483DF037FD304609F038FE35
:102DC000214B1C60214B1C70002507E04BB11946BC
:102DD0001F483DF0B9FC204608F038FE2846BDE803
:102DE000F08112898AB1B2F5007F6168194BDFF872
:102DF0007080194F15D218463DF0DFFF22898554A7
:102E00002389C8F8003001233B7021463046FFF784
:102E1000AFFF3046218909F01BFA204608F016FE64
:102E2000D2E740F2FF1218463DF0C7FF4FF400739F
:102E300080F8FF51C8F80030012308483B703DF08E
:102E4000F3FCE2E7F91D0408B80F0020500700204A
:102E50001A1E040850050020480500202D1E0408F5
:102E60004C05002038B5104D04460A462868C0B10C
:102E7000B0F864308B420FD9214601230BF02AFDB4
:102E8000014620B10948BDE838403DF05DBC2868E6
:102E9000BDE838400CF06EBA0548BDE838403DF05A
:102EA000C3BC0448F9E700BFB80F0020B41D0408F4
:102EB000D51D0408451E040810B526489EB00C46D2
:102EC0003DF0B2FC244B0122292124481C60244BF4
:102ED0001A70FFF7C7FFFA2006F038F9214A224995
:102EE00005A8D378019393780093537812783DF036
:102EF00057FD05A8FDF7AEFC81B205A8FFF7B2FFAC
:102F0000FA2006F023F9194B194A05A81B8819491C
:102F10000293D378019393780093537812783DF01D
:102F20003FFD05A8FDF796FC81B205A8FFF79AFFC3
:102F3000FA2006F00BF920460F4909F001FA204665
:102F40000E4909F015FA20460D4909F029FA00202A
:102F50001EB010BD5E1E0408B80F00206F1E0408CE
:102F60005007002090000020991E04088A000020CD
:102F70008C000020B71E0408A92D0008C52C0008ED
:102F8000C92C000830B5044687B0002856D0B0F8E8
:102F90005C30B0F85050AB4298BF0025D0F88C3070
:102FA0005BB16B1C1021264A68469BB22EF01CFCBC
:102FB0006946D4F88C0037F047FAE36F5BB1214BD8
:102FC0001821214A684633F835302EF00DFC694649
:102FD000E06F37F039FAD4F880306BB1194B182113
:102FE000194A684603EBC5035B882EF0FDFB694672
:102FF000D4F8800037F028FAD4F884306BB1114B44
:103000001821114A684603EBC5039B882EF0ECFBA0
:103010006946D4F8840037F017FAD4F888306BB1D9
:10302000084B0821094A684603EBC5039B792EF03B
:10303000DBFB6946D4F8880037F006FA07B030BDEC
:10304000DE1E040800000020E61E0408E91E040835
:1030500070B5044688B3806E08B12EF0C5FAFEF74D
:103060001DFD0646FEF720FD216E054641B116B155
:10307000304627F01FFA1DB1216E284627F01AFAB4
:10308000606E18B10EF0D4F9002363660025606805
:10309000256618B113F0C0FDC4E901550023E360B3
:1030A000C4F88C30E366E3672367C4F88030636755
:1030B000C4F88430A367C4F8883070BD10B52EF012
:1030C00065FB144903460A683AB10024052A0C60DE
:1030D00004D15B6863B1FFF7BBFF10BD062AF8D0CF
:1030E000022A0ED15B683BB1BDE81040FFF7B0BFCC
:1030F00009483DF029FBF0E70748BDE810403DF0E6
:1031000023BB012AEED0042AECD0032AEAD0072AF6
:10311000E8D0E2E720050020EC1E040838B504469C
:103120000D462DF073FD294620462DF075FD2946EC
:1031300020462DF05FFD29462046BDE838402DF0A1
:103140005FBD38B505462CF083FD044628462CF0BB
:1031500079FD0A2804D12046BDE83840FFF778BF42
:1031600038BD000070B515460E4632F0D7F9002282
:103170000D49044612F0D4FF25B100220B49204628
:1031800012F0CEFF02220A49204612F0C9FF204663
:1031900036F08AFD0546314637F056F9284611F0DB
:1031A000B1FA204670BD00BF08100020F00F0020CB
:1031B000FC0F002038B505462CF04AFD0446284691
:1031C0002CF040FD0346B4B1606EA0B10A2B09D1CA
:1031D0000EF0D9FA80F00101606EC9B2BDE8384046
:1031E0000EF06ABA112B06D128460FF02FFF0A28DD
:1031F00001D1606EECE738BD38B505462CF028FDEE
:10320000044668B128462CF01DFD0A2808D1B4F800
:103210005000FEF7C3F92046BDE83840FFF718BF5D
:1032200038BD10B5044613F0E3FB38B113F01AFCB7
:10323000411E2046BDE8104013F0C5BD10BD70B55D
:103240000D46044688B381B308460EF03BF9E36CA3
:103250004BBB216B11B128460EF0DFF9616B11B148
:1032600028460EF0DAF9A16B11B128460EF0D5F917
:10327000E16BD1B12846BDE870400EF0CEB9B2B2D4
:1032800053F8221011B128460EF0C7F90136B4F8F0
:103290005C10B2B2E36C9142F1D818680028D8D023
:1032A0000EF02CFAD5E70026F1E770BD38B50446DC
:1032B0000D46002213F094FA29462046002213F00E
:1032C00096FA29462046002213F07CFA2946204629
:1032D0000022BDE8384013F07CBA000038B50D4636
:1032E00036F0E2FC0446294637F0AEF820460022CC
:1032F0000249BDE8384012F013BF00BFE40F0020C0
:10330000F7B50E461D460192089F36F0CDFC0446E7
:10331000314637F099F83946204610F013F80199F4
:103320002046002213F0B9FA29462046002213F065
:10333000CAFA0421204603B0BDE8F04037F002B9D4
:10334000F0B5054685B00846164632F0E7F8044663
:10335000012105EB860529F02FFD2046202110F0E4
:103360000AF800222046062113F0B4FA2046002174
:10337000FFF79CFF00223321204613F063FA254813
:103380002CF083F9C0F307238DF80C00C0F307403D
:103390008DF80D3000228DF80E002046039913F0B1
:1033A00042FA02222046114613F070FA1A482CF015
:1033B0006CF9C0F307238DF8080002228DF809305C
:1033C000C0F3074320468DF80A30029913F048FAFB
:1033D000204636F069FC1149074637F035F81048A9
:1033E0002CF053F9C0F307238DF8040000228DF868
:1033F0000530C0F3074338468DF80630019913F0C5
:103400004CFA384611F07EF92046EC66EF6705B0BD
:10341000F0BD00BF342B1C00C7E02D00244204087F
:10342000EEE6DD002DE9F04F04468BB0002800F0F9
:1034300028824568002D40F0248215F0FBF9A9464A
:103440000EF080FC606012F011FE4FF488724FF4B1
:10345000F07160680FF0A8FF2A46294660680FF0F7
:1034600064FF2A467F21606813F0ECF966682CF04F
:1034700061F9C0F307238DF80C00C0F307408DF805
:103480000D302A468DF80E003046039913F0CBF923
:10349000022160680EF0D4FE23460A22D6496068F5
:1034A0000FF0AAFD60680EF04DFCA06012F0DEFD8A
:1034B000B5224FF4A071A0680FF076FFA06811F05C
:1034C00021F92A46FF21A06813F0BCF9CB48A66871
:1034D0002CF0DBF8C0F307238DF81000C0F3074091
:1034E0002A468DF811308DF812003046049913F0F9
:1034F0009AF92A460A21A06813F0ECF92A4602211B
:10350000A06813F0C3F9BE48A6682CF0BEF8C0F35B
:1035100007238DF81400C0F307402A468DF81530B4
:103520008DF816003046059913F09AF90C21A06821
:10353000FFF7BCFE2A460821A06813F05FF90121BD
:10354000A06829F015FCA06836F0AEFBAD49C4F8C0
:103550008C0036F079FFAA48D4F88C602CF095F8EE
:10356000C0F307238DF81800C0F307402A468DF8F2
:1035700019308DF81A003046069913F08EF92A4654
:10358000A149D4F88C0013F097F9A0680EF0DAFB8B
:10359000064612F06BFD9D493046DFF884820FF03D
:1035A000D1FE122130460FF0E6FE2946304629F0C2
:1035B000DFFB2A460821304613F027F90223904DFD
:1035C00005211A46304629F0DFFB304609F1010992
:1035D00036F06AFB58F8041B074636F035FF2846DC
:1035E0002CF053F8C0F307238DF81C0000228DF84F
:1035F0001D30C0F3074338468DF81E30079913F08D
:103600004CF90121384629F0D7FB00220221384627
:1036100013F059F9B9F1040FD7D1A0680EF092FB5D
:10362000054612F023FD79492846DFF8F8B10FF07E
:1036300089FE2846012129F0BFFB2846002129F0F8
:1036400097FB0223284605211A4629F09DFB2846B0
:103650000022082113F0D9F8294600222046FFF75E
:103660006FFE2946804601222046FFF769FE294663
:10367000824602222046FFF763FE29468146032246
:103680002046FFF75DFE2346002261490190404637
:103690000FF0B2FC234600225D4950460FF0ACFC0F
:1036A000234600225A4948460FF0A6FC2346002232
:1036B000574901980FF0A0FCA06831F02FFF22229B
:1036C00052490546E0600FF06FFE52482BF0DDFFD7
:1036D000C0F307238DF82000C0F307408DF8213098
:1036E00000228DF822002846089913F09CF8002249
:1036F000FF21284613F0A6F800220621284613F0E1
:10370000E9F800220121284613F0C0F83C482BF0CC
:10371000BCFFC0F307238DF82400C0F307408DF8E9
:10372000253000228DF826002846099913F098F8D4
:103730000A222346384928460FF05EFC284636F018
:10374000B3FA0646354936F07FFE304610F0DAFF10
:10375000DBF8003023660DF051FE012160660DF0AC
:1037600089FF0021606E0DF0A7FFFEF797F907466D
:10377000FEF79AF906461FB1616E384626F09AFEAA
:103780001EB1616E304626F095FE4146606E0DF02A
:1037900044FF5146606E0DF040FF4946606E0DF0EB
:1037A0003CFF0199606E0DF038FF2946606E0DF008
:1037B00034FF40460DF0A2FF2046FFF7E3FB1FB1A8
:1037C000616E384626F076FE1EB1616E304626F0F8
:1037D00071FEDBF8003023660DF010FE01216066FB
:1037E0000DF048FF0021606E0DF066FFE7B1616EDD
:1037F000384626F05FFE17E04331000818110B0031
:10380000C7E02D00FA1E0408E0A5080864000020A7
:10381000B5310008342B1C00F9310008F11E0408F2
:10382000B0410808441000201EB1616E304626F0F9
:1038300041FE4146606E0DF0F0FE5146606E0DF0A7
:10384000ECFE4946606E0DF0E8FE0199606E0DF0E9
:10385000E4FE2946606E0DF0E0FE40460DF04EFF9E
:10386000A06E58B92246012107482DF085FEA066BA
:1038700020460BB0BDE8F04FFFF784BB2DF068FF8A
:10388000F6E70BB0BDE8F08F1D3D0008F8B5054622
:103890002CF0DEF9044628462CF0D2F906462846DC
:1038A0002CF0D0F924B3A0F10A02092A20D840F262
:1038B0008123D340DB071BD5B4F85C1000239AB2F8
:1038C000914207D9E76C57F823700133B742F6D11C
:1038D000A4F85020112809D128460FF0B7FB0A2878
:1038E00006D12046BDE8F840FFF79CBD0A28F3D07A
:1038F000F8BD000010B586B0E8B1836DDBB1B0F85B
:103900005C00884217D9042A15D853F8213053F89F
:10391000224084B1013A032A03D8DFE802F00E13F3
:10392000181D4B1C0F4A182168462DF05DFF694693
:10393000204636F089FD06B010BD0B4B33F8313010
:103940000A4AF0E7084B03EBC1035B88F8E7064B34
:1039500003EBC1039B88F3E7034B054A03EBC10369
:103960009B79E0E7F71E040800000020FD1E040814
:10397000E91E04082DE9F04F0D4691B004460028D9
:1039800000F0DF80002900F0DC800164084613F0BD
:1039900079F901212846D44F29F0EAF9082128466F
:1039A0000BAEFFF783FC00220621284612F026FF0B
:1039B00028460EF0C7F9606412F058FBCB49606CE2
:1039C0000FF0C0FC1421606C0FF0D5FC0022606C7D
:1039D000114612F037FF00220621606C12F015FF2D
:1039E0000021606C29F0C4F90FCF0FC63B68C048B6
:1039F0003360666C2BF049FEC0F307238DF814008A
:103A0000C0F30740BB498DF8153034238DF81600FC
:103A10003046059A00930123FFF772FCB448666CA8
:103A20002BF033FEC0F307238DF81800C0F30740D6
:103A3000B1498DF8193038238DF81A003046069AAE
:103A4000482600930223FFF75BFCA948676C2BF024
:103A50001CFEC0F307238DF81C00C0F30740A749E4
:103A60008DF81D3002238DF81E003846079A009607
:103A7000FFF746FC9E48676C2BF007FEC0F3072358
:103A80008DF82000C0F307409D498DF821300223B6
:103A90008DF822003846089A00270096FFF730FC80
:103AA0009348666C2BF0F1FDC0F307238DF82400DA
:103AB000C0F3074093498DF8253028238DF8260060
:103AC0003046099A00930223FFF71AFC28460EF0AD
:103AD00039F9A06412F0CAFA844AA06C11460FF0BA
:103AE00063FC0022A06C114612F0ACFE00220421FF
:103AF000A06C12F083FE0121A06C29F039F90C2191
:103B0000A06C10F096FE0321A06C10F07AFEB4F8C1
:103B10005C0080002DF0A8FE6065B4F85C008000B9
:103B20002DF0A2FEA065B4F85C0080002DF09CFE94
:103B3000A4F85070E0641FFA87F9B4F85C304B4584
:103B400002D811B0BDE8F08FBEB2656D14204FF001
:103B5000000B2DF089FE45F82600A56D14202DF0F0
:103B600083FE45F826004FEA860AA06C0EF0EAF8BC
:103B7000054612F07BFA102128460EF01CF95B492D
:103B800028460FF0DFFB182128460FF0F4FB002237
:103B90000621284612F039FE00220221284612F0A2
:103BA0003BFE00220621284612F01AFE00220621C2
:103BB000284612F01CFE0021284629F0D9F8E36CB3
:103BC0004FF48061284643F826500EF039FB4FF43D
:103BD000804128460EF034FB234600224A492846FD
:103BE0000FF00AFA00224949284612F099FA0222F7
:103BF0004749284612F094FABBF1000F1FFA8BF3E5
:103C00002846039314BF0223012302930BAB53F8FE
:103C10002B8031F083FC064612F028FA41461A2226
:103C200030460FF0C1FB00220421304612F052FE54
:103C300002213046FFF73AFB00223046114612F0CF
:103C400001FE00223046114612F019FE02213046D4
:103C50000EF0B1F8304636F027F880462D4936F0A0
:103C6000F3FB404621490FF06DFB002240460299CC
:103C700012F029FE0421404636F064FC404610F064
:103C800041FD0021304612F0B6FE8046BBF1000F28
:103C900027D117482BF0F9FCC0F307228DF8280034
:103CA000C0F307408DF8292000228DF82A004046F5
:103CB0000A9912F0F2FD626D4946204652F80A2038
:103CC00042F82B60A26D52F80A2042F82B800BF1CB
:103CD000010B039AFFF70EFEBBF1050F8CD10137E4
:103CE00029E70D48D6E700BFC41A04086400002085
:103CF000E9F69F00FA1E0408031F0408061F0408C3
:103D00000C1F0408121F04088D380008CC0F002077
:103D1000C00F0020E51C0408EEE6DD0070B52DF0B4
:103D200035FD0446E0B14368D3B1406EC0B10DF03B
:103D30002AFDA8B1FDF7B0FC002811D0606ECCBF01
:103D400001264FF0FF3658B10DF09BFC04F16803DB
:103D5000002253F8041F884240D00132042AF8D1CF
:103D600070BD03EBC502E90052883244561C07D0EF
:103D700042F20F708242A8BF02460B445A8047E0CD
:103D80000022FAE703EBC502E90092883244501C96
:103D900007D042F20F708242A8BF02460B449A80BD
:103DA00036E00022FAE703EBC502012E4FEAC50117
:103DB000927909D1462A0DD0522A08BF422218BF53
:103DC00046220B449A7123E0462A05D0422A08BFB6
:103DD0005222F4E75222F4E74222F2E7B4F85050BC
:103DE000B4F85C30AB42BBD9022A104BCAD0032ACC
:103DF000D9D0012AB5D033F8352042F20F713244C0
:103E00008A42A8BF0A46012AB8BF012223F83520FA
:103E100000262046FFF7B6F8B2B201362946204602
:103E2000FFF768FD052EF7D19AE700BF00000020DC
:103E3000D04B2DE9F0431D789BB0002D40F03B8224
:103E40000124CD481C702CF069FDCC482BF01DFCE2
:103E5000C0F307238DF86400C0F307408DF8653088
:103E60008DF866001999C4482CF0E8FEFF21C2487D
:103E70002CF0F2FE2946C048FFF750F92946BE480B
:103E80002CF018FFBE482CF049FDBE482BF0FDFB7E
:103E9000C0F307238DF86000C0F307408DF8613050
:103EA0008DF862001899B6482CF0C8FEFF21B4487E
:103EB0002CF0D2FE0A21B2482CF0A8FE0A21B0480C
:103EC0002CF0AAFE0621AE482CF094FE0621AC4848
:103ED0002CF096FEAC482CF021FDAA482BF0D5FB27
:103EE000C0F307238DF85C00C0F307408DF85D3008
:103EF0008DF85E001799A4482CF0A0FEFF21A2487F
:103F00002CF0AAFE0A21A0482CF080FE0A219E482F
:103F10002CF082FE06219C482CF06CFE06219A486B
:103F20002CF06EFE99482CF0F9FC99482BF0ADFB73
:103F3000C0F307238DF85800C0F307408DF85930BF
:103F40008DF85A00169991482CF078FEFF218F4881
:103F50002CF082FE8F482BF098FBC0F307238DF8DE
:103F60005400C0F307408DF855308DF85600159970
:103F700086482CF08BFE214684482CF09BFE0A21BB
:103F800082482CF03DFF08218048FFF7C7F882489F
:103F90002CF0C4FC0A2180482CF032FF7F482BF023
:103FA00074FBC0F307238DF85000C0F307408DF871
:103FB00051308DF85200149977482CF03FFEFF21C4
:103FC00075482CF049FE73482BF05FFBC0F30723C4
:103FD0008DF84C00C0F307408DF84D308DF84E0041
:103FE00013996D482CF052FE21466B482CF062FE6E
:103FF0006B482BF04AFBC0F307238DF84800C0F351
:1040000007408DF849308DF84A00129962482CF02B
:10401000D7FE0A216048FFF781F862482CF07EFC49
:1040200061482BF032FBC0F307238DF84400C0F346
:1040300007408DF845308DF84600119959482CF00D
:1040400051FE032157482CF047FE022155482CF021
:104050005DFE56482CF062FC55482BF016FBC0F371
:1040600007238DF84000C0F307408DF841308DF8EC
:10407000420010994D482CF0E1FD4B482BF005FB18
:10408000C0F307238DF83C00C0F307408DF83D30A6
:104090008DF83E000F9945482CF0F8FD2146434825
:1040A0002CF008FE43482BF0F0FAC0F307238DF8FC
:1040B0003800C0F307408DF839308DF83A000E997A
:1040C0003A482CF07DFE3C482CF028FC40F2E731C9
:1040D00039482CF095FE36482BF0D7FAC0F3072369
:1040E0008DF83400C0F307408DF835308DF8360078
:1040F0000D9931482CF0A2FDFF212F482CF0ACFD8A
:1041000024482BF0C2FAC0F307238DF83000C0F327
:1041100007408DF831308DF832000C9926482CF08C
:10412000B5FD214624482CF0C5FD0A2122482CF07B
:104130006DFD0A2120482CF06FFD04211E482CF053
:1041400059FD04211C482CF05BFD1A482BF09DFA08
:10415000C0F307238DF82C00C0F307408DF82D30F5
:104160008DF82E000B9914482CF02AFE13482CF0E1
:10417000D5FB25E0BC0F002038100020110C0700F3
:104180002C10002017100A0020100020141000200E
:1041900018110B00342B1C000810002022180E00F0
:1041A000EEE6DD00FC0F0020C7E02D00F00F002040
:1041B00030240F00E9F69F00E40F0020D80F002004
:1041C000D6482BF062FAC0F307238DF82800C0F31D
:1041D00007408DF829308DF82A000A99D0482CF034
:1041E0002DFDD0482BF051FAC0F307238DF82400A1
:1041F000C0F307408DF825308DF826000999C8488E
:104200002CF044FDC8482BF040FAC0F307238DF88A
:104210002000C0F307408DF821308DF82200089966
:10422000BF482CF0CDFDC1482CF078FB0A21BF48D7
:104230002CF0E6FD2946BD482CF00EFDBC482CF0C4
:104240006DFBBC482BF021FAC0F307238DF81C004E
:10425000C0F307408DF81D308DF81E000799B44853
:104260002CF0ECFCFF21B2482CF0F6FCB2482BF00D
:104270000CFAC0F307238DF81800C0F307408DF83F
:1042800019308DF81A000699A9482CF02BFD21460B
:10429000A7482CF021FD2946A5482CF037FD0A211E
:1042A000A3482CF0ADFD2146A1482CF0AFFC2146DF
:1042B0009F482CF0B1FC942101203CF035F80446D5
:1042C000002800F0348213F0EDFE002800F0338265
:1042D00013F0F8FE064613F0E5FE002800F02E82EB
:1042E00013F000FF07460020A7F154080DF02AFD47
:1042F00000229249206011F013FF102120680DF078
:104300005AFD3A46314620680FF04EF820680DF00D
:1043100019FDA06111F0AAFE1021A0690DF04BFD5E
:1043200024220021A0690FF000F8A7F148023146CD
:10433000A0690FF039F80621A069FEF7B7FF002247
:10434000A069114612F07EFA0021A06928F010FD44
:1043500000220621A06912F058FAA0690DF0F2FCC3
:1043600081460022764911F0DBFE42464846A6F11E
:104370008A010FF019F8102148460DF01CFDA069C4
:104380000DF0E0FC054600226D4911F0C9FE4246E1
:1043900028464FF0100878210FF006F82846102123
:1043A0000DF009FD49462046A4F85C80FFF7E2FACB
:1043B0002846012128F0DCFC00220821284612F0C2
:1043C0001DFA284635F070FC5E49814636F03CF80F
:1043D0005D482BF05AF9C0F307238DF80400002242
:1043E0008DF80530C0F3074348468DF80630019933
:1043F00012F053FA28465549FEF770FF28465449F3
:10440000FEF76CFF53492846FEF768FF284635F053
:104410004BFC5149054636F017F850482BF035F95A
:10442000C0F307238DF8080000228DF80930C0F38F
:10443000074328468DF80A30029912F02EFA2068B8
:104440000DF080FC606111F011FE414660690DF0D5
:10445000B2FC0022606911460EF067FF242231464B
:1044600060690EF0A1FF3E4865692BF00EF9C0F3BC
:1044700007238DF80C00C0F3074000228DF80D30A3
:104480008DF80E002846039912F0CDF90022FF2185
:10449000606912F0D7F906216069FEF707FF6069CD
:1044A00035F002FC05462F4935F0CEFF00222E499B
:1044B000284612F001FA2D482BF0E7F8C0F3072345
:1044C0008DF8100000228DF81130C0F30743284604
:1044D0008DF81230049912F0E0F9062208212846DE
:1044E0000EF023FF606935F0DFFB2149206235F0D3
:1044F000ABFF00221F49206A11F012FE00221E4964
:10450000206A12F0D9F902236FF0F9020321206A20
:104510000EF096FF606935F0C7FB2FE010102A00FF
:10452000D80F00204D4DFF00D3D3FF00CC0F00204B
:10453000C00F002030240F00C7E02D0038100020ED
:1045400014100020161F0408E9F69F001D1F040820
:10455000261F0408311F04083A1F0408B5A38A0067
:1045600017100A00561F0408947008086AB3D70091
:10457000611F0408E40F0020B84308087149E06295
:1045800035F062FF00227049E06A11F0C9FD002297
:104590006E49E06A12F090F902236FF09502032150
:1045A000E06A0EF04DFF606935F07EFB6849A0625D
:1045B00035F04AFF00226449A06A11F0B1FD0022E3
:1045C0006249A06A12F078F902236FF054020321C5
:1045D000A06A0EF035FF606935F066FB5D496062E8
:1045E00035F032FF00225849606A11F099FD00222F
:1045F0005649606A12F060F902236FF00502032148
:10460000606A0EF01DFF20680DF09CFBE06111F068
:104610002DFD4146E0690DF0CEFBA7F124020021FB
:10462000E0690EF082FE24223146E0690EF0BCFE05
:104630004948E5692BF029F8C0F307238DF81400E9
:10464000C0F3074000228DF815308DF8160028467B
:10465000059912F0E8F80022FF21E06912F0F2F863
:104660000621E069FEF722FE01223C49E069FEF7DF
:1046700079FD002235492063A06A12F01DF9192244
:104680005C21206B0EF090FE00220621206B0EF0C4
:104690004CFE00223249E069FEF764FD00222B49FE
:1046A0006063A06A12F008F919225C21606B0EF0B9
:1046B0007BFE00226A21606B0EF037FE0022294942
:1046C000E069FEF74FFD00222049A063A06A12F0C6
:1046D000F3F819225C21A06B0EF066FE0022A6F111
:1046E000C601A06B0EF021FE00221F49E069FEF713
:1046F00039FD00221549E063A06A12F0DDF81922A5
:104700005C21E06B0EF050FE0022A6F16201E06B2E
:104710000EF00BFE6069FEF784FDE069FEF781FD97
:104720002246012111482CF027FFC4F890002046B2
:104730001BB0BDE8F0834FF4F076CCE54FF48877FA
:10474000D1E500BF6F1F0408E40F0020B84308083C
:10475000751F04087C1F040817100A00831F040833
:10476000891F04088E1F0408931F0408BD30000829
:1047700070B50D460446D0B10D4E33682BB90CF020
:104780003DFE012130600CF075FF36681DB13146E9
:10479000284625F08FFEFDF787F910B1314625F048
:1047A00089FE31462046BDE87040FEF748BD70BD29
:1047B00044100020DFF838D0FEF778FAFEF704FA4C
:1047C0000C480D490D4A002302E0D458C45004336C
:1047D000C4188C42F9D30A4A0A4C002301E0136042
:1047E0000432A242FBD33CF0B9FAFDF7B9FA7047A4
:1047F000000002200000002074010020F0F20808F0
:104800007401002070C80020FEE730B570B1CC689C
:1048100064B18A6852B10B6943B10D68496885601B
:10482000C1608361C0E90424002030BD4FF0FF3037
:10483000FBE773B50023456804460193A5B9836877
:1048400003B19847202300262360636901AA12213F
:1048500028469847002809DB019B03F01F03AB4261
:1048600006D1256001236360002609E06FF004068D
:104870000135202DE9D123681F2B04D8002EF1D05B
:10488000304602B070BD6FF00206F9E737B500257B
:104890004369044601AA0121006801959847A8428E
:1048A00003DA6FF0040003B030BD636901AA01218F
:1048B000206898470028F4DB019B5B072CD56369CF
:1048C00001AA2946206898470028EADB019BDD04FD
:1048D0000ED403F40452B2F5045F01D10220E2E7E2
:1048E000980401D50320DEE7D90513D40520DAE7C3
:1048F000636901AA1F21206898470028D1DB019B2A
:10490000DA040BD503F01C03182BE7D0082BE9D0F1
:10491000142BEBD10420C6E70120C4E70620C2E730
:1049200010B5032000F068F802F004F90F49104AAE
:104930008B69C3F30323D35C03F01F03D8408B6957
:1049400003F00F03D35C0B4A03F01F0320FA03F3B9
:104950001360094B18600F20FEF77CF8044618B965
:10496000FDF7EAFD204610BD0124FBE70044025894
:10497000A0450408980000209C000020034A044B36
:1049800011681B780B441360704700BF481000206B
:10499000A0000020014B1868704700BF481000209D
:1049A00038B50446FFF7F6FF0546631C1EBF044BEF
:1049B0001B78E418FFF7EEFF431BA342FAD338BD80
:1049C000A0000020014B1868000C70470010005C2C
:1049D000034A536823F4600303435360704700BFE6
:1049E00000040058034A536823EA00030B43536052
:1049F000704700BF0004005807490302CA6803F467
:104A0000E06322F4E0621204120C134343F0BF632C
:104A100043F40033CB60704700ED00E0164B30B537
:104A2000DC68C4F30224C4F10703251D042B28BF4E
:104A30000423062D4FF0FF358CBF033C002405FAFC
:104A400003F3002805FA04F521EA030322EA05022C
:104A500003FA04F343EA02034FEA0313DBB206DB73
:104A600000F1604000F5614080F8003330BD00F097
:104A70000F00024A1354F9E700ED00E014ED00E0E6
:104A8000002807DB0123410900F01F00024A834090
:104A900042F82130704700BF00E100E0BFF35F8FB4
:104AA000044B5A6A22F480325A620022C3F89420DE
:104AB000704700BF00ED00E0064B40F00100C3F876
:104AC00094005A6A42F480325A62BFF34F8FBFF3A8
:104AD0006F8F704700ED00E04378144AC2F89830B9
:104AE000D2F8A03023F00103C2F8A0304368C2F826
:104AF0009C30C37A017B1B0643EA017301780B43A8
:104B0000817A43EAC143417B43EA8143817B43EAA3
:104B10004143C17B43EA0143417A43EA0123017ADD
:104B200043EA4103C2F8A030704700BF00ED00E047
:104B300010B50446002836D090F8613003F0FF022B
:104B40001BB980F86020FDF70FFD0223E069626861
:104B500084F8613023680243A069196821F4E021D8
:104B600021F040010A431A60596BA26821F4837155
:104B7000024321F001010A43E1685A631A6C6FF3A2
:104B80000F020A431A64596BD4E9040221F440115C
:104B9000520542EA005200200A435A63012360662C
:104BA00084F8613010BD0120FCE7000070B590F87A
:104BB000603002460220012B32D082F861001C20B6
:104BC000012300FB012082F86030836BD0E90B45A4
:104BD0001B0543EA0543C56B406B234343EA45533A
:104BE000A4F10905012D96BF00F07F4043EA006360
:104BF00003431068A9B9446A012D194901EA040167
:104C000041EA0301936A4162836103D8536B23F045
:104C10007F4383620123002082F8613082F86000C4
:104C200070BD0B2C05BF1C240E4E0F4E04FB01243F
:104C300004BF246C43EA8443C469012D24EA0604BA
:104C400043EA0403C3614FF01C0303FB01218B6A99
:104C50000361DFD84B6B23F07F430362DAE700BFC9
:104C6000F0FFCC000F003FFF0F0033FF10B50268CC
:104C70000C688B68106823434C6920F07F40234305
:104C80008C6920F47B0023434C6A20F4FE402343CC
:104C9000CC6A20F07C0023430343087943EAC063D5
:104CA000087B43EAC053487B43EA8053887B43EA4E
:104CB0004053C87B43EA0053887C43EA0043087FA3
:104CC00043EA0033487F43EAC023C87F43EA4023D6
:104CD00091F8280043EA0013087CB0FA80F04009FC
:104CE00043EAC043487CB0FA80F0400943EA4043BD
:104CF000887FB0FA80F0400943EA802391F82000D1
:104D0000B0FA80F0400943EA0023C86B136053688F
:104D100023F07C5323F4EF2323F4FF6323F00703F2
:104D200043EA4063486B034391F8380043EA006369
:104D300091F8300043EA804391F8310043EA404360
:104D400091F83200B0FA80F0400943EA0043536022
:104D5000D368486C23F4877323F00103034391F86D
:104D6000400043EA0023886CD360136F23F0F20302
:104D70001B041B0C43EA0043086D034391F85400E5
:104D800043EA400391F84C00B0FA80F0400943EA4E
:104D9000C0131367D2F8900091F8563020F003004A
:104DA000034391F8550043EA4003886DC2F8903000
:104DB000D2F8003D23F072030343C86DC2F8003DF2
:104DC000D2F8303D23F07B03034391F8610043EABE
:104DD000001391F8620091F8601043EAC003B1FA41
:104DE00081F1490943EA8113C2F8303D10BD00004A
:104DF0000368086803F580531A6822F4F04222F031
:104E00000202024310B51A600A7B58680C79D2037B
:104E100020F4504042EA04328C6820F00100224322
:104E200002435A600A6A487BD3F8004142EA0042D2
:104E3000104820400243C3F800214A7F087D120336
:104E4000D3F8044142EA0012086902430A482040AC
:104E50000243C3F80421D3F808010C7F8A6920F0CB
:104E6000004142EAC47221F47C110A43C3F80821CC
:104E700010BD00BF00C0FEFFEFEFC0FF2DE9F74FF0
:104E8000846A019200EB84068D68B369DA68002AAF
:104E900060DBF26A002A5DD1D1F8008018F0040FBF
:104EA0002CD0DF6818F0080F4A6A6FF30F0742EA48
:104EB00007020768DA60DA6842F48032DA603A6E34
:104EC00042F480123A6619D09A681FFA82FECA6AC2
:104ED0004EEA02429A60DA6842F40032DA60DA6836
:104EE00022F4402E0A6B4EEA0202DA607A6E42F435
:104EF00080127A663A6D42F080623A6518F0100FBF
:104F000009D09F688A696FF30D073A439A60DA689F
:104F100042F08062DA6018F014081FD0DA6842F0BC
:104F20008042DA60BFF35F8F671CDA68032F42F0BC
:104F3000004288BFE71EDA6000EB87039B69DA68EE
:104F4000002A80F28880B269BFF35F8FD36823F0B4
:104F50000043D360022003B0BDE8F08F27462A68E3
:104F6000DFF840E21A609A6822F47F5C6A682CF0ED
:104F70003F0C4CEA02029A60AA68002A6ED01568BB
:104F80005D609D6805EA0E0C55684CEA05459D601C
:104F9000D1F800C0DD681CF0100F66D025F4F00ECB
:104FA0000D6A4EEAC545DD60DD684FEA954ECD6974
:104FB0004FEA8E4E4EEA0505DD60DD6845F480253A
:104FC000DD601CF0040F06D09D6825F4404C8D6A0E
:104FD0004CEA05059D60DD6845F00055DD60DD6843
:104FE00025F08045DD60BFF35F8FDD6845F000454B
:104FF000DD600D68AD0706D5DD6825F0607CCD6805
:105000004CEA0505DD600025DFF898E1DFF89891AE
:10501000D2F808A0BAF1000F43D1019A002A00F09B
:10502000BC809A6842F000429A60DA6842F080528E
:10503000DA6000EB8703C26BDA628762EFF31082FB
:10504000012383F31088036C01332B44036482F340
:10505000108800207FE74FF0010880E75A609A68C7
:1050600002EA0E029A602A4692E725F4FF4E4D6846
:105070001CF0010F2EF07F0E4EEA0505DD6006D014
:10508000DD6825F4403E4D694EEA0505DD601CF003
:10509000200F96D0DD6825F0406E0D694EEA0505BB
:1050A0008EE707F1010CDA68BCF1030F22F08052A1
:1050B00088BFA7F1030CDA6000EB8C07BB69DA68E4
:1050C00022F00052DA60DA68002A17DA08F10102E9
:1050D00000212A44B56991423FF43CAFBFF35F8F92
:1050E000EB68013123F00043EB60631C032B88BFA6
:1050F000E31E00EB8304A5691C46ECE7FA6A002A6C
:10510000E4D1DAF800201A609F68DAF804206FF31F
:105110000D071743DAF808209F602AB317685F600D
:105120009F6807EA0E0A57684AEA07479F60D1F866
:1051300000B0DF681BF0100F1DD007EA090ACF6925
:105140004AEA0707DF60DF6847F48027DF60013540
:10515000BFF35F8FDF6847F00047DF60DF6827F04D
:105160008047DF60674653E75A609A6802EA0E029A
:105170009A605246DBE727F4FF4A4F681BF0010FA5
:105180002AF07F0A4AEA0707DF60E0D0DF6827F4E9
:10519000403A4F694AEA0707D8E79A6822F0004286
:1051A00042E700BFFFFF00C00000FCFF2DE9F7430E
:1051B0000023856E0446C76E019305F112034FF07C
:1051C00001484FF0414950F8236037B13369E3B9E2
:1051D00001A803F035FF019BABB9E36EBB420FD0D2
:1051E000BFF35F8FE91C23682269182001F00301D7
:1051F00003F5805300FB0122C3F82821C4E91A57A4
:1052000003B0BDE8F08333613360A36D63B1C6F8CA
:105210000C906B1C013F032B88BFEB1E03F11202A5
:105220001D4654F82260D0E7C6F80C80F1E7D0F8AC
:105230008430102B4FF0010310B5044637D12022E3
:1052400083650423C0F88420C366FFF7AFFF22689C
:10525000002002F58053D3F8041141F00101C3F896
:105260000411D3F8081141F00101C3F80811D3F873
:10527000601141F48171C3F86011D2F8001D41F052
:105280000101C2F8001D116841F0020111601168AE
:1052900041F001011160D3F8342142F4504242F050
:1052A000C102C3F834214023C4F8843010BD18462D
:1052B000FCE7D0F884200346402A10B538D12022DC
:1052C000C0F8842050F8442B02F58051D1F83441C5
:1052D00024F4504424F0C104C1F83441D1F804410D
:1052E00024F00104C1F80441D1F8084124F001047C
:1052F000C1F8084103F15404116821F00101116063
:10530000D2F8001D41F00101C2F8001D116821F022
:105310000201116050F8041FCA68A04222F08042C6
:10532000CA60F7D1002010229865C3F8842010BD10
:105330000120FCE710B5044639B9D0F8883043F0B5
:105340000103C4F88830012010BDD0F88420402A21
:10535000F9D14B6B0122C363FFF790FD20B1D4F864
:10536000883043F00203ECE7BFF34F8FA26A0020BE
:10537000531C032B88BFD31E2268A362063354F844
:10538000231002F58053C3F82011DDE72DE9F04F1B
:10539000044685B08A4649B9D0F8883043F0010305
:1053A000C0F88830012005B0BDE8F08FD0F8843017
:1053B000402BF7D1D0F85C904FF0000800F180014D
:1053C00009F112034646C34650F823507C3050F88A
:1053D000103CC3F104030193EB68002B05DB019B38
:1053E0009E4202D0B8F1000F11D0E36E1E44E66673
:1053F00016B12046FFF7DAFEC4F85C90B8F1000F52
:10540000D0D0E36F0020CAF80030E067CBE7EB684C
:105410005B0003D56B68A3672B686367EB689F002D
:1054200001D4E36F03B3EB68EF689A00C7F30E078C
:1054300048BFC4E918BB636EFF1AEB68DB0003D5F5
:10544000EB684FF001082367BBB22A69CDE902017E
:1054500003F018FE236E01332366636EDDE902015B
:105460003B446366C5F810B009F101030136032B14
:1054700088BFA9F1030303F11202994654F82250A0
:10548000AAE72DE9F047054601274FF018094FF02C
:10549000000AD0E9106406B117B90020BDE8F08712
:1054A00005EB8408013ED8F82C0028B9631C032BB7
:1054B00000D9E31E1C46EEE7EB6809FB0433DB680A
:1054C000002B0ADB03F00CFE631CC8F82CA0032B96
:1054D00088BFE31EC5E91063ECE723460027E9E730
:1054E00070477047704703684FF0B0422DE9F041B4
:1054F000D3F8B07003F580530446D3F86051D3F865
:105500003481D2F8A8606A0608D518F0400F05D09B
:1055100048F24002C3F8602103F092FBEB070CD580
:1055200018F0010F09D0236848F20102204603F564
:105530008053C3F8602103F089FB680424D518F474
:10554000804F21D0D4F8883015F4805F43F00803F1
:10555000C4F88830236803F58053D3F8602155D010
:1055600022F46F6222F00D02D204D20CC4F88C2017
:10557000D3F8342122F44042C3F83421E023C4F8A4
:105580008430204603F068FB17F4C04F13D0D4F8E2
:105590008830204643F01003C4F888302368D3F8DD
:1055A000B830C4F89030E023C4F8843003F054FBE2
:1055B0000023C4F89030F9060CD523682046D3F8B0
:1055C000C03003F06003C4F89430FFF789FF002374
:1055D000C4F89430BA060CD523682046D3F8D030EE
:1055E00003F00F03C4F89830FFF77BFF0023C4F8E3
:1055F0009830730208D54FF0B0434FF48002204634
:10560000C3F8A820FFF76EFFBDE8F08102F4CD4299
:10561000C4F88C204FF4CD42C3F86021B1E770B5D7
:105620001E4603680546D3F80002C00701D50120D5
:1056300070BDD3F8004224F0787444EA415121F45B
:10564000F81141EA024242F00D02C3F80022FFF7CE
:10565000A1F904462A68D2F8000210F0010004D132
:10566000D2F804329BB23360E2E7FFF793F9001BF4
:10567000B0F57A7FEED9DAE738B505460068D0F89C
:105680000042E40701D5012038BDD0F800429BB2AA
:1056900024F0787444EA415121F4F81141EA0242BD
:1056A0000C4922F00C02C1F8043242F00502C1F8A4
:1056B0000022FFF76FF904462B68D3F8000210F0C0
:1056C0000100E1D0FFF766F9001BB0F57A7FF3D94E
:1056D000D9E700BF00800240002900F0C1800368C4
:1056E00000201A6802F00C02CA621A68C2F30012A3
:1056F00081F828201A6802F060024A621A6882F46F
:105700008072C2F3002281F820201A68C2F340227E
:10571000CA771A6882F48062C2F380228A771A6894
:10572000C2F3C0224A771A68C2F300320A771A68B5
:1057300002F400528A611A6802F480424A611A68CF
:10574000C2F300428A741A6882F40032C2F3404203
:105750004A741A6882F40022C2F3C0420A741A68BA
:10576000C2F30052CA731A68C2F340528A731A68AD
:10577000C2F380524A731A68C2F3C0520A731A689D
:1057800002F0E0628A601A68C2F3C0620A711A68A5
:1057900002F0E0420A605A68C2F30D024A635A6896
:1057A00082F48032C2F3004281F832205A68C2F398
:1057B000404281F831205A68C2F3804281F830209B
:1057C0005A68C2F3006281F838205A68C2F3446212
:1057D000CA63DA68C2F3002281F84020DA6802F076
:1057E0000F024A641A6FC2F3400281F854201A6F04
:1057F00082F08002C2F3C01281F84C201A6F02F0CE
:1058000070020A651A6F120C8A64D3F8902002F0B5
:10581000010281F85620D3F89020C2F3400281F8AB
:105820005520D3F8002D02F072028A65D3F8302D8E
:1058300002F02302CA65D3F8302DC2F3C00281F80A
:105840006220D3F8302DC2F3001281F86120D3F822
:10585000303D83F04003C3F3801381F8603070471C
:105860000120704708B539B1D0F88430102B03D12E
:10587000FFF7FCF9002008BD0120FCE738B50368FC
:105880000546D3F8004201F01DFB114B24F470646F
:10589000984205D844F400742B68C3F8004238BD20
:1058A0000C4B984202D244F44074F5E70A4B9842FC
:1058B000F2D90A4B984202D844F48074ECE7084BC2
:1058C000984294BF44F4806444F4A064E4E700BFC9
:1058D000BF0E160200879303FFE0F5057FD1F008A5
:1058E0007FB2E60EF0B50446A5B0002800F0AF8008
:1058F000D0F8843023B92023C0F8843003F0A6FA0E
:10590000814BD3F8F42042F00202C3F8F420D3F81C
:10591000F430207A03F002030193019B002840F049
:105920008680FFF755F8794B5B68236803F5805351
:105930001A6842F001021A60FFF72CF80646236845
:1059400003F580531D6815F0010573D1204601272A
:10595000FFF794FF01F0B6FA6D4B4FF480412668D3
:1059600014958DF830708DF854508DF864501A9558
:105970001D958DF86C508DF84C70ADF88C708DF8CD
:105980008E501F95ADF880508DF882501695ADF869
:105990005C508DF85E700D958DF83E501C958DF81D
:1059A0007870B0FBF3F04FF4C363013818934FF0F5
:1059B0004053C6F8DC0002200B934FF40053CDE9AE
:1059C00010134FF480330BA912932023CDE9210348
:1059D000504B20460E9340F20113ADF83C30FFF7D8
:1059E00045F94FF4001302A920468DF80C70069378
:1059F00008934FF4067302950A930497ADF8145078
:105A00008DF81C50ADF82450FFF7F2F906F58053DD
:105A10006069D3F8002110F0030122F4E01242F48F
:105A20000022C3F8002115D0C4F888700CE04FF4B0
:105A3000000076E7FEF7AEFF801BB0F5FA7F7FF639
:105A40007EAF0423C4F88830E023C4F884300120FA
:105A500025B0F0BDD3F8082104F114056FF34E0210
:105A600042EA4002E068C3F8082100F160070246FC
:105A7000116051609160D16045F8042F1832BA422C
:105A8000F6D1A162032221690025C3F82C2101F17E
:105A90006007C3F814010A46C3F8200104F144006A
:105AA000156055609560D560C2E9045540F8042F33
:105AB0001832BA42F4D10322A5650020C4E9175573
:105AC000C4E91A55C3F83021C3F81C114831C3F892
:105AD000281163689A88C6F800231B68C6F8043347
:105AE0000D4BD6F80C271343C6F80C37D6F81037F1
:105AF00043F0426343F44043C6F810371023C4F820
:105B00008850C4F88430A3E70044025800040058C9
:105B100040420F00000001016000020CD0F8880034
:105B20007047D0F88C0070472DE9F74F0023DFF85D
:105B3000C4914FF0B0440A6832FA03F502D103B0C1
:105B4000BDE8F08F012505FA03F818EA020200F01B
:105B5000BB804E6803274FEA430E06F0030507FAA1
:105B60000EFC6F1E6FEA0C0C012F34D8876807EA11
:105B70000C0ACF6807FA0EF747EA0A0787604768FA
:105B800027EA0808C6F300179F4047EA080747605E
:105B9000C768022D07EA0C088F6807FA0EF747EA74
:105BA0000807C76019D14FEAD30803F0070A4FF07E
:105BB0000F0B00EB88084FEA8A0AD8F820700BFA1E
:105BC0000AFB27EA0B0B0F6907FA0AF747EA0B07EC
:105BD000C8F8207001E0032DDAD1076805FA0EF548
:105BE00016F4403F07EA0C0745EA070505606BD04D
:105BF000D9F8F45023F0030703F0030C4FF00F0E15
:105C000045F0020507F1B0474FEA8C0CC9F8F45093
:105C100007F58067D9F8F4500EFA0CFE05F002057E
:105C20000195019DBD6825EA0E0E314DA8424DD06B
:105C300005F58065A8424BD005F58065A84249D09E
:105C400005F58065A84247D005F58065A84245D096
:105C500005F58065A84243D005F58065A84241D08E
:105C600005F58065A8423FD005F58065A8423DD086
:105C700005F58065A84214BF0A25092505FA0CF52B
:105C800016F4801F45EA0E05BD606FEA020725681D
:105C90000CBF3D40154316F4001F256065680CBF1E
:105CA0003D40154316F4003F6560D4F884500CBFA6
:105CB0003D401543F603C4F88450D4F8805054BFD7
:105CC0003D401543C4F88050013334E70025D5E743
:105CD0000125D3E70225D1E70325CFE70425CDE74A
:105CE0000525CBE70625C9E70725C7E70825C5E74A
:105CF00000000258004402580369194214BF0120F1
:105D0000002070470AB1816170470904FBE74369CD
:105D100001EA030221EA030141EA0241816170477D
:105D200003689A69910701D500229A629A69D2079D
:105D300003D49A6942F001029A61704730B5039D1D
:105D4000C1F3090104682B43606843EA0243054A32
:105D50000B4342EA555223F0004320EA020003437A
:105D6000636030BDFF63FF0303682DE9F0419C6968
:105D700005460F46164614F010046FD0002410227A
:105D8000A046DA612B689A69900661D4B8F1000FD9
:105D900035D044F0040401202E68B369D90505D537
:105DA0004FF4807244F001040120F2615A0505D5D8
:105DB0004FF4806244F008040120F2619B054FD546
:105DC0004FF4007344F00204F3612846FFF7A8FF84
:105DD0007368012023F0FF7323F48B3323F4FF73E4
:105DE00023F0010373606B6C23436B64202385F8FD
:105DF0004130002385F8423085F8403032E07A1C8B
:105E0000C1D0FEF7C7FD801BB84201D8002FB9D121
:105E10002B68596895F842209869D2B200040AD5D7
:105E2000490408D4202A06D05A6842F480425A60B5
:105E3000FEF7B0FD06462B689B699B06A2D4FEF7D1
:105E4000A9FD801B1928F6D920244FF0010899E7F5
:105E5000B8F1000F9DD12022DA619AE720469BE736
:105E60000028B2D1BDE8F08170B504460D46164653
:105E700023689B699B0701D500201FE03246294615
:105E80002046FFF771FFC0B96A1CF1D0FEF782FD12
:105E9000801BA84201D8002DEAD123689B6913F02A
:105EA0000203E5D1626C84F8403042F02002626463
:105EB000202284F8412084F84230012070BD2DE971
:105EC000F041DDF8188004460F4616461D4623684B
:105ED0009B6937EA03030CBF01230023B34201D0BF
:105EE000002025E0424629462046FFF73DFFF0B955
:105EF0006B1CECD0FEF74EFDA0EB0800A84201D8C9
:105F0000002DE4D123689B6937EA03030CBF01230A
:105F10000023B342DBD1636C43F02003636420238E
:105F200084F84130002384F8423084F84030012066
:105F3000BDE8F08170B504460D46164623689B699E
:105F40009B0601D500201DE0324629462046FFF77A
:105F50000BFFB0B9FEF71EFD801BA84201D8002D33
:105F6000ECD123689B6913F02003E7D1626C84F8BD
:105F7000403042F020026264202284F8412084F8FC
:105F80004230012070BD10B5044600284ED090F874
:105F9000413003F0FF021BB980F84020FCF7FCFA07
:105FA000242384F8413023681A6822F001021A6021
:105FB000626822F070621A619A6822F400429A6064
:105FC000D4E90221012906D142F400429A605A68BC
:105FD00022F4006207E042F4044202299A60F6D1FA
:105FE0005A6842F400625A6000205A6842F0007217
