:020000040800F2
:100000000000022061770008A5620008A7620008CE
:10001000A9620008AB620008AD62000800000000A1
:1000200000000000000000000000000091FB00083C
:10003000AF6200080000000021FC000885FC0008F9
:10004000B5770008B5770008B5770008B5770008E0
:10005000B5770008B5770008B5770008B5770008D0
:10006000B5770008B5770008B5770008B5770008C0
:10007000B5770008B5770008B5770008B5770008B0
:10008000B5770008B5770008B5770008B5770008A0
:10009000B5770008B5770008B5770008B577000890
:1000A000B5770008B1620008B5770008B577000899
:1000B000B5770008B5770008B5770008B577000870
:1000C000B5770008B5770008B5770008B577000860
:1000D000B5770008B5770008D9620008B577000841
:1000E000B5770008B577000800000000B577000874
:1000F000B5770008B5770008B5770008B577000830
:10010000B5770008B5770008B5770008B57700081F
:10011000B5770008B5770008B5770008B57700080F
:10012000B5770008B5770008B5770008B5770008FF
:10013000B5770008BD620008B5770008B5770008FC
:1001400000000000000000000000000000000000AF
:10015000B5770008B5770008B5770008B5770008CF
:10016000B5770008B5770008B5770008B5770008BF
:10017000B5770008B5770008B577000800000000E3
:10018000B5770008B5770008B5770008B57700089F
:10019000B5770008B5770008B5770008B57700088F
:1001A000C9620008D5620008B5770008B577000875
:1001B000B5770008B5770008B5770008B57700086F
:1001C000B5770008B5770008B5770008B57700085F
:1001D000B5770008B5770008B5770008B57700084F
:1001E000B5770008B5770008B5770008B57700083F
:1001F000B5770008B5770008B5770008B57700082F
:10020000B5770008B5770008B5770008B57700081E
:10021000B5770008B5770008B5770008B57700080E
:10022000B5770008B5770008B57700080000000032
:10023000B5770008B577000800000000B577000822
:10024000B5770008B5770008B5770008B5770008DE
:10025000B5770008B5770008B5770008B5770008CE
:10026000B5770008B5770008B5770008B5770008BE
:10027000B5770008B5770008B577000800000000E2
:10028000B5770008B5770008B577000800000000D2
:0802900000000000B577000832
:1004000020524556563236303132325231000000D9
:1004100000000000000000000000000000000000DC
:100420000000000053544D3332483734332D5452BA
:100430004900000000000000000000000000000073
:080440000000000000000008AC
:1008000010B5054C237833B9044B13B10448AFF34A
:1008100000800123237010BD200100200000000093
:100820003C70040808B5034B1BB103490348AFF300
:10083000008008BD00000000240100203C70040876
:1008400010F8012B11F8013B012A28BF9A42F7D07A
:10085000D01A7047034613F8012B002AFBD1181A4F
:100860000138704700000000000000000000000098
:1008700001F0FF01102A2BDB10F0070F08D010F851
:10088000013B013A8B422DD010F0070F42B3F6D155
:10089000F0B441EA012141EA014122F007047FF06E
:1008A00000070023F0E80256083C85EA010586EAC5
:1008B000010685FA47F5A3FA87F586FA47F6A5FA01
:1008C00087F68EB9EED1F0BC01F0FF0102F007020D
:1008D00032B110F8013B013A83EA010313B1F8D1B8
:1008E0000020704701387047002D06BF3546033899
:1008F000073815F0010F07D1013015F4807F02BFD2
:10090000013015F4C03F0130F0BC0138704700BF22
:100910007BB972B90029BEBF00204FF0004106E04C
:1009200008BF00281CBF6FF000414FF0FF3000F0FF
:10093000D3B9ADF1080C6DE904CE002909DB002B19
:100940001ADB00F04DF8DDF804E0DDE9022304B025
:100950007047404261EB4101002B1BDB00F040F887
:10096000DDF804E0DDE9022304B0404261EB41011F
:10097000524263EB43037047524263EB430300F080
:100980002FF8DDF804E0DDE9022304B0404261EB1A
:1009900041017047524263EB430300F021F8DDF858
:1009A00004E0DDE9022304B0524263EB43037047E5
:1009B00053B94AB9002908BF00281CBF4FF0FF31C6
:1009C0004FF0FF3000F088B9ADF1080C6DE904CEAE
:1009D00000F006F8DDF804E0DDE9022304B070471A
:1009E0002DE9F047089D8E4604468846002B4AD1E3
:1009F0008A42174662D9B2FA82F64EB1C6F1200396
:100A000001FA06F820FA03F3B74043EA0808B440B5
:100A10004FEA174E1FFA87FCB8FBFEF1230C0EFBC2
:100A2000118843EA084301FB0CF29A4209D9FB18EA
:100A300001F1FF3080F0EA809A4240F2E78002390B
:100A40003B449A1AA3B2B2FBFEF00EFB102243EA1B
:100A5000024300FB0CFC9C4509D9FB1800F1FF3256
:100A600080F0D6809C4540F2D3803B44023840EA77
:100A70000140A3EB0C0300211DB1F3400022C5E9A6
:100A80000032BDE8F0878B4205D90DB1C5E9000100
:100A900000210846F5E7B3FA83F1002946D17345F2
:100AA00002D3824200F20581841A6EEB0302012018
:100AB0009046002DE5D0C5E90048E2E7002A00F0A5
:100AC0009080B2FA82F6002E40F0A4808A1A030CBD
:100AD0004FEA174E80B2BCB20121B2FBFEFC0EFB06
:100AE0001C2243EA024304FB0CF29A4207D9FB188A
:100AF0000CF1FF3802D29A4200F2E080C4469B1A01
:100B0000B3FBFEF20EFB123340EA034302FB04F494
:100B10009C4207D9FB1802F1FF3002D29C4200F23E
:100B2000CA8002461B1B42EA0C40A5E7C1F1200621
:100B30008B4022FA06F71F430EFA01F420FA06F35F
:100B40002EFA06FE4FEA1749234300FA01F81FFA6E
:100B500087FCBEFBF9F01C0C09FB10EE44EA0E44C6
:100B600000FB0CFEA64502FA01F209D93C1900F17E
:100B7000FF3A80F09C80A64540F2998002383C44C0
:100B8000A4EB0E041FFA83FEB4FBF9F309FB134434
:100B90004EEA044403FB0CFCA44508D93C1903F1BC
:100BA000FF3E80F08280A4457FD9023B3C4443EA6B
:100BB0000040A4EB0C04A0FB02EC64457346E14644
:100BC00062D35FD05DB1B8EB030264EB090404FAB1
:100BD00006F622FA01F31E43CC40C5E90064002169
:100BE0004FE7B1FBF2FC010C41EA0E4180B240EA52
:100BF00001423B4638463C46B846BE462026B1FB3D
:100C0000F7F1A2EB080241EA0C4166E7014618E75A
:100C100010462CE7C6F120022EFA02F3B740B1408D
:100C200020FA02F24FEA174E0A43B3FBFEF8BCB2B9
:100C30000EFB1833110C41EA034108FB04F9B040E4
:100C400089454FEA104380B23ED9791808F1FF3C3C
:100C500001D289451FD8A1EB0901B1FBFEF909FBBF
:100C600004F80EFB191192B242EA0142424529D220
:100C7000BA1809F1FF31C4D24245C2D2A9F102012A
:100C80003A44BEE7F0459DD2BEEB02036CEB070C85
:100C90000138E14696E7A7EB09094944A8F1020C9F
:100CA000B1FBFEF909FB04F8DBE773467FE750462A
:100CB00066E70846FDE63B44023A33E7ACF1020C36
:100CC0003B441CE749469CE7A1EB0901C446B1FB44
:100CD000FEF909FB04F8C4E7704700BF1FB54FF4E5
:100CE0007A7304460091A021CDE901230246022334
:100CF000064808F0B7FD18B12146054800F072FD1E
:100D0000142004B0BDE8104006F020BE0C0A0020FC
:100D1000EC7004081FB54FF47A7304460091A121CA
:100D2000CDE9012302460223064808F07FFE30B1D8
:100D30002146054804B0BDE8104000F053BD04B0A2
:100D400010BD00BF0C0A00200771040830B507234E
:100D500087B04FF47A7205460C46A121CDE90132E5
:100D600004AB02460D480093022308F05FFE28B151
:100D700029460B4800F036FD07B030BD9DF8103015
:100D8000A371BDF811305BBA2380BDF813305BBA94
:100D90006380BDF815305BBAA380EDE70C0A002034
:100DA0000771040870B5204E88B0204C18223378A3
:100DB00001A91F4D4FF4F0608DF80C3004F21F4470
:100DC000637A8DF80D30A37A8DF80E302B788DF87C
:100DD0000F30D4F801300593D4F805300693FFF7AF
:100DE0007DFF317840F28A3000F0A0FB617A4FF449
:100DF000627000F09BFBA17A40F2893000F096FB14
:100E000029784FF464754FF4617000F08FFB284629
:100E1000013514F8011FADB200F088FBB5F5667F0F
:100E2000F5D108B070BD00BFC90A0020640B0020D6
:100E3000C80A00202DE9F04188B018224FF4F06074
:100E40003C4C01A93C4EFFF765FF9DF80D309DF825
:100E50000C1040F28A3084F8283404F21F489DF8C0
:100E60000E304FF46475354F84F829349DF80F30F7
:100E700039703370059BC4F82034069BC4F82434C1
:100E800000F054FB94F828144FF4627000F04EFB0D
:100E900094F8291440F2893000F048FB31784FF47F
:100EA000617000F043FB2846013518F8011FADB210
:100EB00000F03CFBB5F5667FF5D13978204800F0AD
:100EC0009BFC94F828141F4800F096FC94F8291411
:100ED0001D4800F091FC31781C4800F08DFC94F81E
:100EE00020141B4800F0E1FB94F82114194800F08D
:100EF000DCFB94F82214174800F0D7FB94F8231475
:100F0000144800F0D2FB94F82414124800F0CDFBF2
:100F100094F825140F4800F0C8FB94F826140D48E7
:100F200000F0C3FB94F827140A4800F065FC08B0F1
:100F3000BDE8F081640B0020C80A0020C90A002027
:100F40002171040833710408417104084D710408CB
:100F50005C710408667104082DE9F043C401304E49
:100F6000A3B00127A4B23546DFF8CC90DFF8CC80DF
:100F700029462046FFF7EAFE4846B9B2013700F09D
:100F8000BDFB69884046083400F0B8FB298840461C
:100F9000A4B200F0B3FBA9884046083500F0AEFBD0
:100FA00015F8021C404600F027FC112FE0D1002468
:100FB0002046043431460836A4B200F005FB402C2C
:100FC000F6D101AC1748002500F002FC2646164871
:100FD00000F0FEFB2846043531460836ADB200F07D
:100FE0000AFB402DF6D10025DFF854800F4F104E3C
:100FF0002188404600F082FB61883846013500F0C8
:101000007DFBA1883046083400F078FB14F8021C00
:10101000084800F0FBFB102DEAD123B0BDE8F083B7
:10102000900F0020757104088371040899710408F9
:10103000A2710408AE71040869710408667104089D
:10104000907104082DE9F84F8423304DC6010746FE
:1010500003FB00554FF00108B6B2DFF8BCA02C46E8
:10106000DFF8B89006F5FC761FFA88FB214608F1F8
:101070000108083406EBCB0080B2FFF767FE594643
:10108000504600F03BFB34F8061C484600F036FBA7
:1010900034F8081C484600F031FB34F8041C48467C
:1010A00000F02CFB14F8021C484600F0A5FBB8F138
:1010B000110FD9D13946164800F0A8FBBB019BB2ED
:1010C00003F5817403F5A173A4B29EB2698820462A
:1010D00000F02CFA601E2988083580B200F026FA4C
:1010E000601C35F8041C80B200F020FAA01E043405
:1010F00015F8021C80B2A4B200F018FAB442E5D18F
:1011000039460448BDE8F84F00F080BB640B00206E
:10111000B9710408CD7104086E7104086671040881
:1011200010B50024A0B20134FFF78CFF082CF9D1D0
:1011300010BD000001220421014808F045B900BF9C
:101140000018025801224FF48061014808F03CB9B0
:101150000018025830B587B0002401257C2301A96E
:1011600018480594CDE90135CDE9034407F084FF23
:101170004FF4604301A91448CDE90135CDE903449A
:1011800007F07AFF4FF4707301A91048CDE90135DB
:10119000CDE9034407F070FF4FF4504301A90C4818
:1011A000CDE90135CDE9034407F066FF4FF4006354
:1011B00001A90848CDE90135CDE9034407F05CFFFA
:1011C00007B030BD00100258000802580014025841
:1011D00000040258000C025810B586B010220021FD
:1011E000002402A844F0A0FF7C2301A91648019323
:1011F00007F042FF4FF4604301A91448CDE90134E0
:10120000CDE9034407F038FF4FF4707301A910488B
:10121000CDE90134CDE9034407F02EFF4FF45043EC
:1012200001A90C48CDE90134CDE9034407F024FFBE
:101230004FF4006301A90848CDE90134CDE9034426
:1012400007F01AFF06B010BD00100258000802583F
:101250000014025800040258000C025810F0010259
:101260004FF0040110B5044618BF0122454808F0AC
:10127000ABF814F002024FF00801424818BF0122F7
:1012800008F0A2F814F004024FF010013D4818BF16
:10129000012208F099F814F008024FF020013948B3
:1012A00018BF012208F090F814F010024FF040012E
:1012B000344818BF012208F087F814F020024FF4D8
:1012C0000051314818BF012208F07EF814F04002A6
:1012D0004FF480412C4818BF012208F075F814F033
:1012E00080024FF40041284818BF012208F06CF832
:1012F00014F480724FF04001244818BF012208F016
:1013000063F814F400724FF08001204818BF0122E6
:1013100008F05AF814F480624FF480711B4818BF2B
:10132000012208F051F814F400624FF400711748DC
:1013300018BF012208F048F814F480524FF480518D
:10134000134818BF012208F03FF814F400524FF47C
:1013500080410F4818BF012208F036F814F480428B
:101360004FF400410A4818BF012208F02DF8230469
:101370004FF4006107484CBF01220022BDE8104035
:1013800008F022B800100258000802580014025851
:1013900000040258000C025810B50421464808F019
:1013A00001F8431E082144485C425C4107F0FAFF03
:1013B00001284FF01001404808BF44F0020407F034
:1013C000F1FF01284FF020013B4808BF44F004041E
:1013D00007F0E8FF01284FF04001374808BF44F00C
:1013E000080407F0DFFF01284FF40051334808BF1D
:1013F00044F0100407F0D6FF01284FF480412F4835
:1014000008BF44F0200407F0CDFF01284FF400414D
:101410002A4808BF44F0400407F0C4FF01284FF0F9
:101420004001274808BF44F0800407F0BBFF0128B3
:101430004FF08001224808BF44F4807407F0B2FFE7
:1014400001284FF480711E4808BF44F4007407F06F
:10145000A9FF01284FF40071194808BF44F48064C3
:1014600007F0A0FF01284FF48051164808BF44F44C
:10147000006407F097FF01284FF48041114808BF2E
:1014800044F4805407F08EFF01284FF400410D48CA
:1014900008BF44F4005407F085FF01284FF40061B1
:1014A000094808BF44F4804407F07CFF012808BFC6
:1014B00044F40044204610BD0010025800080258B1
:1014C0000014025800040258000C0258012801D1EF
:1014D000FFF730BE00220421014807F075BF00BFAE
:1014E00000180258012802464FF00801024818BFB0
:1014F000002207F069BF00BF001802580128024609
:101500004FF40071024818BF002207F05DBF00BF12
:1015100000180258012801D1FFF714BE00224FF431
:101520008061014807F050BF0018025838B50546E1
:101530000C46FFF70FFE012208210E4807F044FF7A
:101540000020FFF7DBFF0020FFF7E4FF2846FFF74E
:1015500085FEFFF7EFFD0020FFF7B8FFFFF7F2FD74
:101560002046FFF77BFEFFF7E5FD0020BDE8384091
:10157000FFF7ACBF0018025810B50446FFF7EAFDAC
:101580000020FFF7AFFF01224FF400710D4807F074
:101590001BFF0020FFF7BEFF2046FFF75FFEFFF7AF
:1015A000C9FD0020FFF792FFFFF716FEFFF7CAFD07
:1015B000FFF7C0FDFFF7F0FE04460020FFF786FFAF
:1015C000204610BD0018025838B504460D468979EA
:1015D000FFF7ACFF601C298880B2FFF7A7FFA01CB3
:1015E000698880B2FFF7A2FFE01CA98880B2BDE83D
:1015F0003840FFF79BBF38B50D460446FFF7BCFFE8
:10160000A871601C80B2FFF7B7FF2880A01C80B2D1
:10161000FFF7B2FF6880E01C80B2FFF7ADFFA88043
:1016200038BD000007B547F2305301220DF1070124
:101630008DF8070002480BF003FF03B05DF804FBD0
:101640003C08002010B5441E14F8010F00B910BD6D
:10165000FFF7E8FFF8E7092802D83030C0B270473A
:10166000A0F10A03052B01D83730F7E73020704787
:1016700010B50C46FFF7E6FF200BFFF7ECFFFFF776
:10168000D1FFC4F30320FFF7E6FFFFF7CBFFC4F35E
:101690000310FFF7E0FFFFF7C5FF04F00F00FFF7AF
:1016A000DAFFBDE81040FFF7BDBF38B50C46FFF7C5
:1016B000C9FF632C08D8092C0DD804F13000BDE80F
:1016C0003840C0B2FFF7AEBF6420B4FBF0F030305A
:1016D000C0B2FFF7A7FF64230A25B4FBF3F003FBB6
:1016E0001040C0B2B0FBF5F03030C0B2FFF79AFF47
:1016F000B4FBF5F305FB1343DCB2DEE738B50C466B
:10170000FFF7A0FF42F20F739C421FD8B4F57A7F17
:1017100059D24FF47A72B4FBF2F302FB13439BB23B
:10172000632B52D86422B4FBF2F302FB13439BB247
:10173000092B35D80A22B4FBF2F302FB1343D8B2CB
:101740003030BDE83840C0B2FFF76CBF42F21070D5
:101750000125B4FBF0F03030C0B2FFF763FF42F276
:101760001073B4FBF3F003FB10404FF47A7380B2B4
:10177000B0FBF3F03030C0B2FFF754FF002DC8D0FB
:101780004FF47A73B4FBF3F003FB1040642380B290
:10179000B0FBF3F03030C0B2FFF744FF002DC1D0F2
:1017A00064230A25B4FBF3F003FB104080B2B0FBC6
:1017B000F5F03030C0B2FFF735FFB4FBF5F305FBB1
:1017C0001340C0B2BCE70025C9E70025D8E70000F8
:1017D00008B5FFF737FF0248BDE80840FFF732BF02
:1017E0000373040808B5FFF743FF0248BDE808404B
:1017F000FFF728BF0373040808B5FFF756FF024838
:10180000BDE80840FFF71EBF0373040808B5FFF7E3
:1018100075FF0248BDE80840FFF714BF03730408D2
:1018200038B5054633F082FC044638B1284633F01B
:1018300075FC012115F0D0FC84F89C0038BD38B54A
:10184000054633F073FC0446284633F069FC034632
:10185000B4B1E06EA0B10A2B09D115F062F980F0A5
:101860000101E06EC9B2BDE8384015F0F3B8112BA4
:1018700006D1284616F0BCFD0A2801D1E06EECE73F
:1018800038BD38B504460D4600221AF07BF92946CA
:10189000204600221AF07DF92946204600221AF03F
:1018A00063F9294620460022BDE838401AF063B9A2
:1018B00073B50E461D4601923DF09AFC0446314632
:1018C0003EF066F80699204616F00EFF0199204674
:1018D00000221AF0D8F90022294620461AF0F0F921
:1018E000204604213EF0D2F8204602B070BD00210F
:1018F0001AF0B7BAF8B51D460F46164639F080F80B
:10190000044619F085FD29461A22204616F01EFFCE
:101910000022204604211AF0DAF920460221FFF7BE
:10192000B0FF0022204611461AF05EF90022204640
:1019300011461AF076F90221204615F00AFC2046DD
:101940003DF056FC054639463EF022F82846084947
:1019500016F0CAFE0022314628461AF0B1F90421D9
:1019600028463EF093F8284618F09EF82046F8BD29
:10197000640000202DE9F04F0D4691B00446002888
:1019800000F0E880002900F0E580816408461AF044
:10199000AFFB01212846B94F30F018FC082128463A
:1019A0000BAEFFF76EFF0022062128461AF0F8F86A
:1019B000284615F095FBE06419F02AFDB049E06C6B
:1019C0000DF12C0916F090FE1421E06C16F0A5FE26
:1019D0000022E06C11461AF007F900220621E06CA3
:1019E0001AF0E5F80021E06C30F0F0FB0FCF0FC6E5
:1019F0003B68A4483360E66C33F0B5F8C0F30723C6
:101A00008DF81400C0F307409F498DF8153034233A
:101A10008DF816003046059A00930123FFF748FF22
:101A20009848E66C33F09FF8C0F307238DF8180050
:101A3000C0F3074095498DF8193038238DF81A0006
:101A40003046069A482600930223FFF731FF8D485F
:101A5000E76C33F088F8C0F307238DF81C00C0F35F
:101A600007408B498DF81D3002238DF81E00384643
:101A7000079A0096FFF71CFF8248E76C33F073F873
:101A8000C0F307238DF82000C0F3074081498DF88B
:101A9000213002238DF822003846089A002700964C
:101AA000FFF706FF7748E66C33F05DF8C0F30723D5
:101AB0008DF82400C0F3074077498DF8253028239E
:101AC0008DF826003046099A00930223FFF7F0FEB6
:101AD000284615F005FB206519F09AFC6849206D31
:101AE00016F002FE0021206D16F017FE0121206D78
:101AF00030F090FB0022206D11461AF075F800229C
:101B00000421206D1AF04CF80121206D30F05EFBAD
:101B10000C21206D18F05FF80321206D18F043F8B8
:101B2000B4F86400800035F011F9E065B4F86400A1
:101B3000800035F00BF92066B4F86400800035F0C1
:101B400005F9A4F8587060651FFA87FAB4F8643094
:101B5000534502D811B0BDE8F08FBEB2E56D142038
:101B600035F0F4F845F82600256E142035F0EEF82F
:101B700045F826004FEA860B206D15F0B1FA0546B0
:101B800019F046FC1021284615F0E3FA3C49284696
:101B900016F0AAFD1C21284616F0BFFD00220621E2
:101BA00028461AF004F80022022128461AF006F806
:101BB00000220221284619F0E5FF002202212846D2
:101BC00019F0E7FF0021284630F000FB636D4FF469
:101BD0008061284643F82650002615F0FFFC4FF49C
:101BE0008041284615F0FAFC234600222B4928465E
:101BF00016F0D4FB00222A49284619F063FC022281
:101C00002849284619F05EFC002EB3B22649284622
:101C100014BF02220122039359F82630FFF76AFE0F
:101C20000290FFF764FE804636BB164832F09BFFF9
:101C3000C0F307238DF82800C0F307408DF8293042
:101C400000228DF82A0040460A991AF01CF8E36D2C
:101C5000029A514653F80B30204643F82620236E53
:101C6000039A53F80B3043F82680013604F002FF44
:101C7000052EC9D1013767E70C48D7E7547004082F
:101C800064000020E9F69F0062760408DB71040816
:101C9000DE710408E4710408EA710408952600085E
:101CA000B4100020A810002005730408EEE6DD0043
:101CB000F8B5054608461F4638F0A2FE0446154E04
:101CC00019F0A6FB00222046134919F0FBFB314610
:101CD0002046022219F0F6FB20223146204619F058
:101CE000F1FB2046012130F095FA2021204616F024
:101CF00014FD20463DF07CFA064608493DF048FEBA
:101D0000304617F0D1FE204605EB87035C67C3F829
:101D10008460F8BD8C100020981000206F9C04088F
:101D2000F8B50446002841D0006F08B134F0CAFE6F
:101D300001F098FE064601F09BFE054616B13046BE
:101D40002DF02CFE15B128462DF028FEA76E0FB9F8
:101D5000174B1F681EB1394630462DF0E1FD1DB10D
:101D6000394628462DF0DCFDE06E18B114F028FD50
:101D70000023E36600256068A56610B11AF082F9B9
:101D800065606567C4F88450A567C4F88850E56746
:101D9000C4F88C50C4F88050C4F89050C4E902557F
:101DA000C4E92555BDE8F840FEF7FCBFF8BD00BF0B
:101DB0003011002038B5054633F0B8F904462846FE
:101DC00033F0AEF90A2804D12046BDE83840FFF7C9
:101DD000A7BF38BDF8B50C460546E0B1B0F8643091
:101DE0008B4218D9194B1A78032A84BF00221A7023
:101DF0001B788BB904F0DEFD68B100EBC40330F84A
:101E00003420B5F8647059889C889E7900239DB26F
:101E10000830AF420FD8F8BD012BFCD104F0D6FD3D
:101E20000028F8D095F8F830072BF4D803EB4313CB
:101E300000EB8300E1E7013320F8082C20F8061CB2
:101E400020F8044C00F8026CE1E700BFC80A00204B
:101E50002DE9F0410446B0B1036EA3B1C36D93B157
:101E6000B0F864707FB100261FFA86F80025AAB288
:101E700001354146204604F0FDFD052DF7D1013620
:101E8000B3B29F42F0D8BDE8F081000010B5C0B1F8
:101E900080EAE074A4EBE07405F052FD0C4A13688C
:101EA0008BB1C31AC82B10D9B3F5FA7F94BF642342
:101EB00001235C43106041F28830A042A8BF204655
:101EC00010BD0124E8E70123F3E74FF47A73F0E74C
:101ED0003C01002010B5044668B1C06E58B114F042
:101EE0009EFD70340346002054F8042F9A4204D01B
:101EF00001300428F8D14FF0FF3010BD30B1012877
:101F000006D002280CBF4220522070475220704752
:101F100046207047F0B5044689B0002861D03D4F97
:101F2000B0F86430B0F85850AB4298BF00253B7809
:101F3000032B84BF00233B703B78002B53D104F06C
:101F400039FD00EBC506D4F8943073B16B1C3A78B8
:101F50009BB2002A54D1304A182102A834F0B6FEB0
:101F600002A9D4F894003DF013FDD4F8843053B1A5
:101F700018217388294A02A834F0A8FE02A9D4F8CF
:101F800084003DF005FDD4F8883053B11821338822
:101F9000224A02A834F09AFE02A9D4F888003DF043
:101FA000F7FCD4F88C3053B11821B3881B4A02A82F
:101FB00034F08CFE02A9D4F88C003DF0E9FCD4F892
:101FC000903073B10821B079FFF798FF144A0346A7
:101FD0000DEB010034F07AFE02A9D4F890003DF038
:101FE000D7FC09B0F0BD012BFBD104F0EFFC94F855
:101FF000F830EA0003EB431302EB8303C618A2E7B1
:1020000094F8F8201821009302A8531C054A34F0D4
:102010005DFEA5E7C80A0020F271040819740408DF
:10202000FA710408EE7104082DE9F04704468CB0FB
:10203000002800F014834568002D40F010831BF049
:102040002FFEDFF8DCA315F04BF8606019F0E0F923
:102050004FF488724FF4F071606816F077FB2A46EF
:102060002946606816F033FB2A46CC21606819F0D7
:10207000BBFD666832F0CCFDC0F307238DF8040089
:10208000C0F307408DF805302A468DF8060030462B
:10209000019919F09AFD0221606815F09FFA234614
:1020A0000A22DD49606816F079F9DFF8889304F0B8
:1020B0004FFB606815F014F8A06019F0A9F9B5227B
:1020C0004FF4A071A06816F041FBA06817F0ECFC7B
:1020D0002A46FF21A06819F087FDD048A66832F093
:1020E00042FDC0F307238DF80800C0F307402A46DD
:1020F0008DF809308DF80A003046029919F065FD17
:102100002A460A21A06819F0E2FD2A460221A068A9
:1021100019F08EFDC248A66832F025FDC0F30723F2
:102120008DF80C00C0F307402A468DF80D308DF86D
:102130000E003046039919F065FD0C21A068FFF7E9
:10214000A0FB2A460821A06819F02AFD0121A068F9
:1021500030F03CF84FF48041A06814F0FAFFA0681A
:1021600014F0BEFF064619F053F9AE49304616F09A
:10217000BBFA30466FF0404116F0CFFA30460121ED
:1021800030F024F830462A46294619F02DFD2A461B
:102190000621304619F004FD304614F0A1FF074631
:1021A00019F036F99F49384616F09EFA38466FF016
:1021B000404116F0B2FA3846294630F007F80223BB
:1021C000384605211A4630F00DF82A462946384689
:1021D00019F00AFD38463DF00BF89349C4F8940015
:1021E0003DF0D6FB8E48D4F8948032F0BCFCC0F3AE
:1021F00007238DF81000C0F307402A468DF81130F0
:102200008DF812004046049919F03DFD2A46874991
:10221000D4F8940019F046FD38463BF09FF9844904
:10222000C4F898003BF0A6F92A462946D4F898004D
:1022300019F0DAFC2A462946D4F8980019F0F8FC7F
:102240002946D4F89800FFF71CFB2A460621D4F84B
:10225000980019F0ACFC2A467649D4F8980019F099
:1022600021FD7548D4F8987032F07DFCC0F3072347
:102270008DF81400C0F307402A468DF815308DF80C
:1022800016003846059919F0FEFC6548D4F8987098
:1022900032F069FCC0F307238DF81800C0F3074043
:1022A0004FF400328DF819308DF81A00384606992F
:1022B00019F0A8FC4FF400320221D4F8980019F06C
:1022C000B7FC4FF400320421D4F8980019F0FFFC59
:1022D0005348D4F8987032F046FCC0F307238DF8C9
:1022E0001C00C0F30740554A8DF81D308DF81E00C4
:1022F0003846079919F069FC504AFF21D4F8980034
:1023000019F072FC0222D4F898001146DFF83481EB
:1023100019F095FC02220321D4F8980019F0ACFCC6
:102320003F48D4F8987032F01EFCC0F307238DF8B4
:102330002000C0F3074002228DF821308DF82200E2
:102340003846089919F082FC0222FF21D4F898003F
:1023500019F08BFC6FF07F40D4F8987032F003FCDA
:10236000C0F307238DF82400C0F3074002228DF844
:1023700025308DF826003846099919F084FC4FF075
:1023800002120321D4F8980019F052FC02223321E2
:10239000D4F8980019F028FC2148D4F8987032F04D
:1023A000E2FBC0F307238DF82800C0F307400222A8
:1023B0008DF829308DF82A0038460A9919F005FC65
:1023C0000121D4F8980014F0A4FE234623221C49CE
:1023D000D4F8980084F89C5015F0E0FF304614F0D3
:1023E0007FFE064619F014F80E49304616F07CF9C7
:1023F0006FF04041304616F090F9294630462FF0F4
:10240000E5FE2A462946304619F0EEFB2A46082109
:10241000304619F0CCFB17E0B51D000818110B0071
:10242000C7E02D0064000020627604081C00090843
:10243000FD710408D0CA0808F0EFCF0001000200C7
:10244000211800086C9F0408304601353CF0D0FE8E
:1024500058F8041B07463DF09BFA504632F083FBC8
:10246000C0F307238DF82C00C0F307408DF82D3002
:1024700000228DF82E0038460B9919F004FC00223A
:102480004946384619F00EFC012138462FF0C2FEAD
:1024900000220221384619F013FC042DD4D1A06883
:1024A00014F01EFE064618F0B3FF6E49304616F0D3
:1024B0001BF9304601212FF0ADFE304600212FF0F0
:1024C00085FE00223046114619F08EFB3046002270
:1024D000082119F06CFB31460023634A2046FFF7C0
:1024E000E7FB314681460123604A2046FFF7E0FBC7
:1024F0003146804602235E4A2046FFF7D9FB31462B
:10250000074603235B4A2046FFF7D2FB23460646D5
:1025100000225949484615F041FF234600225649FA
:10252000404615F03BFF234600225349384615F03C
:1025300035FF234600225049304615F02FFFA06892
:1025400038F05EFAE06018F063FF00224B49E06863
:1025500018F0B8FF02224A49E06818F0B3FF2022C1
:102560004749E06818F0AEFF3E49E06816F0BCF855
:102570002421E06816F0D1F829460022A06819F05D
:1025800001FB29460022A06819F003FB0022092163
:10259000E06819F0E2FA0A2223463A49E06815F0A9
:1025A000FDFEE0683CF024FE054637493DF0F0F9B9
:1025B000284617F079FAA06817F0A2F8334B1B6889
:1025C000A36614F0E3F80121E06614F021FA00217B
:1025D000E06E14F03FFA01F045FA824601F048FA45
:1025E0000546BAF1000F03D0E16E50462DF098F980
:1025F0001DB1E16E28462DF093F9D4F89810E06EE5
:1026000014F0D9F94946E06E14F0D5F94146E06E70
:1026100014F0D1F93946E06E14F0CDF93146E06E90
:1026200014F0C9F9E168E06E14F0C5F9D4F8980027
:1026300014F032FA206F58B922461421144834F0AD
:1026400009FA206720460CB0BDE8F047FFF762BCEE
:1026500034F0ECFA0521206F34F0F0FAF2E70CB018
:10266000BDE8F08764000020DB710408DE71040817
:10267000E4710408EA7104083F180008981000206B
:102680008C10002005270008067204083011002075
:1026900075270008F8B5054632F048FD044628467F
:1026A00032F03CFD0646284632F03AFDECB1A0F18E
:1026B0000A02092A19D840F28123D340DB0714D536
:1026C000B4F8641000239AB2914207D9676D57F8A5
:1026D00023700133B742F6D1A4F85820112805D150
:1026E000284615F085FE0A2807D0F8BD0A28FCD137
:1026F000284615F07DFE0028F5D12046BDE8F840BB
:10270000FFF792BC38B5054632F010FD044608B319
:10271000284632F005FD0A281CD194F89C50B4F8E4
:1027200058106DB12046FFF755FB2046FFF790FB90
:102730002046FFF7EFFB2046BDE83840FFF7F0BA30
:10274000AAB20135B4F85810204604F093F9052DCB
:10275000F6D1F0E738BD522807D0462807D0A0F1BF
:102760004203584258414000704700207047012002
:10277000704700002DE9F04134F07AFA0446002851
:1027800058D04368002B55D0C06E002852D014F0AA
:10279000C8F900284ED000F073FF00284AD0CCBF03
:1027A00001264FF0FF36FFF771FB07462046FFF783
:1027B00091FBB0F100083DDBB4F85850B4F8643038
:1027C000AB4237D9354B1A78032A84BF00221A70DE
:1027D0001B7853B904F0EEF800EBC502B8F1030F13
:1027E0001CD8DFE808F00F293541012B22D104F075
:1027F000EDF894F8F830E90003EB431301EB8303A1
:10280000C218EBE7538807FB063042F20F73984279
:10281000A8BF18460128B8BF0120508000262046D6
:10282000FFF778FBB2B201362946204604F022F9C0
:10283000052EF7D1BDE8F081138807FB063042F280
:102840000F739842A8BF184620EAE0701080E5E7B1
:10285000938807FB063042F20F739842A8BF1846D0
:1028600020EAE0709080D9E79079FFF747FB012ECE
:102870000AD146280ED0522808BF422018BF462051
:10288000FFF769FF9071C9E7462805D0422808BFC5
:102890005220F3E75220F3E74220F1E7C80A002074
:1028A00070B586B00D4638F0ABF80446504915F0C7
:1028B0001BFF1C2120464F4E15F02FFF4E4832F0D3
:1028C00052F9C0F307238DF80400C0F307408DF8D8
:1028D000053000228DF806002046019919F075F99F
:1028E00020460022FF2119F07FF920460022062110
:1028F00019F0EDF900220121204619F099F930462E
:1029000032F031F9C0F307238DF80800C0F3074017
:102910008DF8093000228DF80A002046029919F03E
:1029200071F920460022042119F02CF920460022DA
:10293000042119F02EF920460022042119F014F97F
:1029400020460022042119F016F9022220461146E1
:1029500019F075F9304632F006F9C0F307238DF807
:102960000C00C0F307408DF80D3002228DF80E00E8
:102970002046039919F06AF902222046114619F0FF
:102980007BF91E4832F0EFF8C0F307238DF81000F2
:10299000C0F307408DF8113002228DF81200204656
:1029A000049919F012F920463CF022FC064629460B
:1029B0003CF0EEFF00221249304619F073F911483D
:1029C00032F0D1F8C0F307238DF8140000228DF8FF
:1029D0001530C0F3074330468DF81630059919F0CD
:1029E00052F9304617F060F8204606B070BD00BFBF
:1029F00064000020C7E02D00342B1C004438240064
:102A0000D0CA0808F0EFCF00034B0360034B0B6004
:102A100080231360704700BF400300204001002066
:102A200038B5094C094D2168094843F0DBFA29689B
:102A3000084843F0D7FA291B074843F0D3FA0A2085
:102A4000BDE8384043F0E0BA000000084C4E0908E9
:102A5000447204085D720408767204087FB5044667
:102A600032F064FB054640B3204632F059FB0A2899
:102A700023D1204632F052FB064614F015FEF0B981
:102A8000012485F88441D5F8800120B1B04202D0FC
:102A9000012114F03EFB0121304614F02FFBAB6AFC
:102AA000C5F880614BB1102123460E4A684643F0B9
:102AB00061F86946A86A3CF06BFF04B070BD01285C
:102AC00001D10224DDE7022801D10424D9E703283B
:102AD00001D10624D5E7042801D10824D1E7002438
:102AE000D1E700BF9372040838B504460D460022B2
:102AF00019F048F829462046002219F04AF82946DC
:102B00002046002219F030F8294620460022BDE870
:102B1000384019F030B80000F8B5044660B300F052
:102B2000A1FF074600F0A4FFD4F8DC6005460EB90B
:102B3000124B1E681FB1314638462CF0F1FE1DB114
:102B4000314628462CF0ECFED4F8D80020B113F022
:102B500037FE0023C4F8D8300025D4F8CC00C4F8E0
:102B6000DC5018B119F08EFAC4F8CC50C4E93455D1
:102B7000BDE8F840FEF716B9F8BD00BF30110020DF
:102B800038B5054632F0D2FA044658B1284632F03C
:102B9000C5FAD4F8CC30834204D12046BDE8384091
:102BA000FFF7BABF38BD38B5054632F0BFFA044664
:102BB00048B1284632F0B4FA0A2804D12046BDE8CC
:102BC0003840FFF7A9BF38BD37B50D4670B10021B9
:102BD00019F047F9044648B108212B46044A6846D3
:102BE00034F074F8694620463CF0D2FE03B030BDA4
:102BF000197404082DE9FF41074632F097FA04469C
:102C0000A8B1384632F08CFA8046384632F086FA5F
:102C10000546D4E95D63864201D0834207D1B8F10D
:102C2000130F07D1751B18BF012584F87C5104B020
:102C3000BDE8F081B8F10A0F1AD1751BD4F8D8009D
:102C400018BF012584F87C510028F0D013F069FFEB
:102C500080F00101D4F8D800C9B213F0FBFE00F0F7
:102C600001FF0028E3D004B0BDE8F0412CF096BE8F
:102C7000B8F1110FDBD1384615F0BAFB09380B2833
:102C8000D5D801A353F820F0732D0008512D00086A
:102C9000B92C00082F2C00082F2C00082F2C00081E
:102CA0002F2C00082F2C00082F2C00082F2C000898
:102CB000732D0008B92C00084FF0FF33AE420CBF53
:102CC00094F87D2194F87E21012A66D0022A52D1FF
:102CD0000133052B08BF0023354AAE42D35C5ED1D9
:102CE00094F87E2184F87D319A4201D284F87E31B5
:102CF00094F87D11D4F87401FFF766FF94F87E1103
:102D0000D4F87801FFF760FF2A4A94F87D3182F801
:102D1000283494F87E1182F82914226B42B11021D4
:102D2000254A684633F0D2FF6946206B3CF030FEFE
:102D3000636B002B3FF47BAF94F87E3110211F4A68
:102D4000684633F0C3FF6946606B3CF021FE6EE7D6
:102D5000D4F8D80000283FF46AAF13F0E2FE80F008
:102D60000101D4F8D800C9B204B0BDE8F04113F0B5
:102D700071BE0123A2E7042A01D10233A9E7062A82
:102D800001D10333A5E7A2F108014A424A4192006A
:102D900013445A1C9DD104239EE70022F8E794F8BF
:102DA0007D2184F87E319A4288BF84F87D319FE787
:102DB0008C9F0408640B00209C720408A572040810
:102DC0002DE9F04F04468BB0002800F00384D0F8C2
:102DD000CCA0BAF1000F40F0FD831AF061FF14F0AF
:102DE0007FF9C4F8CC0018F013FB4FF488724FF44D
:102DF000F071D4F8CC0015F0A9FC52465146D4F835
:102E0000CC0015F064FC5246CC21D4F8CC0018F06C
:102E1000EBFED4F8CC5031F0FBFEC0F307238DF865
:102E20000800C0F307408DF8093052468DF80A00BB
:102E30002846029918F0C9FE0221D4F8CC0014F0FB
:102E4000CDFB23460A22AE49D4F8CC0015F0A6FAF1
:102E500003F07EFC1021D4F8CC0014F07AF9D4F8F9
:102E6000CC0014F03DF9C4F8D00018F0D1FAB52226
:102E70004FF4A071D4F8D00015F068FCD4F8D0005D
:102E800016F012FE5246FF21D4F8D00018F0ACFE26
:102E90009C48D4F8D05031F066FEC0F307238DF87B
:102EA0000C00C0F3074052468DF80D308DF80E002F
:102EB0002846039918F089FE52460A21D4F8D0001A
:102EC00018F005FF52460221D4F8D00018F0B0FEE9
:102ED0008D48D4F8D05031F046FEC0F307238DF86A
:102EE0001000C0F3074052468DF811308DF81200E3
:102EF0002846049918F086FE0C21D4F8D000FFF77C
:102F0000F3FD52460821D4F8D00018F049FE012103
:102F1000D4F8D0002FF05AF94FF48041D4F8D00003
:102F200014F017F91021D4F8D00014F012F9D4F8E5
:102F3000D0003CF05DF9754905463CF029FD31F0C3
:102F400059FEC0F307238DF8140052468DF8153052
:102F5000C0F3074328468DF81630059918F093FE04
:102F600052466B49284618F09DFED4F8D00014F064
:102F7000B7F8834618F04CFA6649584615F0B4FB8A
:102F8000012158462FF046F952465146584618F04E
:102F90002BFE0121584615F018FC012158462FF050
:102FA00015F953465246514658462FF01BF95246E2
:102FB0000A21584618F0F4FD51465846FFF794FD93
:102FC0001021584614F0C5F8584614F089F8814687
:102FD00018F01EFA4F49484615F086FB4846222154
:102FE00015F09BFB52464846514618F0FDFD4846F9
:102FF000012115F0EAFB484651462FF0E7F802237D
:10300000484651461A462FF0EDF8524648460621EA
:1030100018F0CDFD484651462FF0D8F83E494846B5
:10302000FFF73EFC3D4905464846FFF739FC3C4961
:1030300006464846FFF734FC3A4907464846FFF73C
:103040002FFC394980464846FFF72AFC5246814604
:103050003649284618F036FA02223549284618F033
:1030600031FA20223249284618F02CFA52462F49CC
:10307000304618F027FA02222D49304618F022FA7D
:1030800020222B49304618F01DFA5246274938466F
:1030900018F018FA02222649384618F013FA2022AE
:1030A0002349384618F00EFA52462049404618F097
:1030B00009FA02221E49404618F004FA20221C494F
:1030C000404618F0FFF952461849484618F0FAF9F8
:1030D00002221749484618F0F5F9202214494846BB
:1030E00018F0F0F994F884315A1E072A22D90123E6
:1030F00084F884310121284614F000F81CE000BF58
:10310000812B000818110B00C7E02D00AC720408D9
:103110001C00090864000020B5760408CA9B040856
:1031200092980408B27204089C7604089810002053
:103130008C100020012BDDD094F88431022B03D1B8
:103140000121304613F0DAFF94F88431042B03D1C7
:103150000121384613F0D2FF94F88431062B03D1B5
:103160000121404613F0CAFF94F88431082B03D1A3
:103170000121484613F0C2FF1E222E21284615F0D9
:10318000E5FA1E222E21304615F0E0FA1E222E21ED
:10319000384615F0DBFA1E222E21404615F0D6FAED
:1031A0001E222E21484615F0D1FA0021284614F09F
:1031B00079FA0121304614F075FA0221384614F0EC
:1031C00071FA0321404614F06DFA0421484614F0C8
:1031D00069FA23460A22D249284615F0DFF8234629
:1031E0000A22CF49304615F0D9F823460A22CC49A5
:1031F000384615F0D3F823460A22C949404615F04F
:10320000CDF823460A22C649484615F0C7F8584665
:1032100013F066FF824618F0FBF8C249504615F0DD
:1032200063FA5046222115F078FA002250461146E2
:1032300018F0DAFC5046012115F0C7FA504600217B
:103240002EF0C4FF0223052150461A462EF0CAFF75
:10325000504613F045FF834618F0DAF8012158462E
:1032600015F0B3FA584600212EF0B0FF022358465D
:1032700000211A462EF0B6FF00220621584618F00B
:1032800096FC58463BF0B4FFA74901903CF080FB08
:1032900031F0B0FCC0F307238DF81800C0F30740ED
:1032A0008DF8193000228DF81A000699019818F04F
:1032B000EAFC5846DFF8A0B29C49FFF7F1FAC4F8DF
:1032C00074019BF828144B1E072B88BF012184F83A
:1032D0007D11FFF779FC1E223C21D4F8740115F012
:1032E00035FA00229249D4F8740118F0EBF8022262
:1032F0009049D4F8740118F0E5F820228D49D4F8EB
:10330000740118F0DFF8234600228B49D4F87401C9
:1033100015F044F8504613F0E3FE824618F078F8B2
:103320000121504615F051FA504600212EF04EFF73
:103330000223504601211A462EF054FF0022062196
:10334000504618F034FC50463BF052FF7B49019048
:103350003CF01EFB31F04EFCC0F307238DF81C003F
:10336000C0F307408DF81D3000228DF81E0007992C
:10337000019818F088FC724950464FF0000AFFF798
:103380008FFAC4F878019BF829144B1E072B88BFCD
:10339000082184F87E11FFF717FC1E223C21D4F887
:1033A000780115F0D3F900226149D4F8780118F0BA
:1033B00089F802225F49D4F8780118F083F82022B6
:1033C0005C49D4F8780118F07DF8234600225A4968
:1033D000D4F8780114F0E2FF94F87D11D4F8740168
:1033E00084F87CA1FFF7F0FB94F87E11D4F8780103
:1033F000FFF7EAFBD4F8D00037F002FB222249495C
:10340000C4F8D40015F0A2F94E48D4F8D4B031F085
:10341000AAFBC0F307238DF82000C0F307405246F3
:103420008DF821308DF822005846089918F0CDFB10
:103430005246FF21D4F8D40018F0D6FB524606219C
:10344000D4F8D40018F043FC52460121D4F8D4003B
:1034500018F0EEFB3C48D4F8D4B031F084FBC0F354
:1034600007238DF82400C0F3074052468DF825301D
:103470008DF826005846099918F0C4FB23460A2205
:103480003249D4F8D40014F089FFD4F8D4003BF0CA
:10349000AFFE83462E493CF07BFA584616F004FBFB
:1034A00052462349D4F8D40018F00CF802222149DE
:1034B000D4F8D40018F006F820221E49D4F8D4001D
:1034C00018F000F8234B1B68C4F8DC3013F05EF9E9
:1034D0000121C4F8D80013F09BFA5146D4F8D80063
:1034E00013F0B8FAD4F8D80013F0AEF900F0BAFA35
:1034F000834600F0BDFA8246BBF1000F67D0D4F8D6
:10350000D81058462CF00CFABAF1000F58D0D4F865
:10351000D81050462CF004FABBF1000F50D11DE03A
:103520005D2A000864000020B4720408B57604081F
:10353000981000208C100020F52B0008BA720408A7
:103540009C760408342B1C00C7E02D00A72B000834
:103550000672040830110020640B002050462CF045
:103560001DFA2946D4F8D80013F025FA3146D4F8CC
:10357000D80013F020FA3946D4F8D80013F01BFA1B
:103580004146D4F8D80013F016FA4946D4F8D800CA
:1035900013F011FAD4F87411D4F8D80013F00BFA20
:1035A000D4F87811D4F8D80013F005FAD4E935101E
:1035B00013F001FA28460BB0BDE8F04F13F06CBAD7
:1035C00058462CF0EBF9BAF1000FC7D1C9E7002833
:1035D0009DD1C6E70BB0BDE8F08F00BF70B50A4EB5
:1035E0000A4C338824880133A4B203F01F039C42A1
:1035F00009D03588064CADB2338004F8250004EBC1
:1036000085004170428070BD9C0300209A03002019
:103610009E03002008B505F0C5FEB0FA80F0400911
:1036200008BD00000B4A0C4B11881B8889B29BB265
:1036300099420CD0138809499BB251F8233003609A
:1036400001201388013303F01F031380704700200B
:10365000704700BF9A0300209C0300209E030020B7
:10366000072808D81422054B02FB0033587800388D
:1036700018BF012070470020704700BF20040020C1
:10368000EFF3108272B6044B00211888198000B243
:1036900002B962B6704700BF98030020034B93F84D
:1036A0006500003818BF0120704700BF20040020CB
:1036B000F8B520B11A4A0368136043685360A0222A
:1036C00000211848002442F02FFD174B174F1C8093
:1036D000174B144D1C8004F033F906460134B988A9
:1036E00057F8080B1435FFF795FF082C05F8140C54
:1036F00005F8130C45F8106CF0D110210D48FFF7B8
:1037000089FF044620210B48FFF784FF0A4B40EA5B
:1037100044000A4A187000231380094A1380F8BD38
:1037200000000020200400209A030020A49F040829
:103730009C030020000402589603002094030020FC
:10374000980300202DE9F84F00260546474F484CC6
:10375000B346DFF83481B9885FFA86F93868FFF735
:1037600059FF23786178834218BF2070227818BFF0
:10377000656091423AD06368B8F80000EB1A834262
:1037800034D362703AB3002249460120A56084F820
:103790000CB02561FFF722FFA368A5EB030A237B8A
:1037A0004BB9B8F802309A4505D3012249460420A6
:1037B0002273FFF713FFB8F80430CBB19A4517D343
:1037C0002369B8F80620EB1A934211D30122494627
:1037D0000520256107E049460220FFF7FFFE237B15
:1037E00033B901220320FFF7F9FE01E00029D3D10C
:1037F000013608371434082EADD110211D48FFF7CB
:1038000009FF044620211B48FFF704FF40EA44005B
:10381000194C2378C5B240EA8300184BC0B21B563E
:10382000ABB1174A11880B441BB2032B0CDD0023EC
:10383000052106201380134A138801331BB213801D
:103840000122FFF7CBFE02E0D91C03DB13802570B9
:10385000BDE8F88F0023052107201380094A13884B
:10386000013B1BB213804FF0FF32EAE7A49F04082C
:10387000200400200004025896030020919F0408B1
:1038800094030020980300200000002000487047A7
:10389000000404244FF47F320249034808B542F083
:1038A000CDFC08BDFC9F040800040424014B1860F3
:1038B000704700BFC4040020BFF34F8F094B0A4973
:1038C0000A4AC1F8683220339342FAD1BFF34F8FCE
:1038D000BFF36F8F064B1B681BB1064A127802B903
:1038E000184770470004042400ED00E0000008249D
:1038F000C4040020C004002001460648064B0122F3
:1039000010B404681A70636B134363635DF8044B6F
:1039100006F056BC64090020C004002000210548C0
:1039200010B506F04DFC044B1B6813B1BDE8104008
:10393000184710BD64090020C4040020014B18681A
:1039400019F0C4BEC8040020034B1B780BB1FFF76D
:10395000B3BF19F0BBBE00BF0800002013B5124C66
:103960004FF488714FF4F0701AF052F81221206071
:103970001AF048F90D49206819F02EFE2468FFF767
:1039800085FF012301460022204600934FF47F3338
:1039900019F034FE0648FFF789FF002002B0BDE8A9
:1039A0001040FFF7A9BF00BFC80400204939000834
:1039B0003D390008704710B50C46FFF761FE2082C4
:1039C000FFF76CFEA07410BD10B500200C46FFF789
:1039D00047FE70B90120FFF743FE50B90220FFF700
:1039E0003FFE30B90320FFF73BFE10B90420FFF77C
:1039F00037FE0023E360A37410BD000073B50023FD
:103A0000154D0C46154E8B742B888B6001A8FFF763
:103A100009FE90B19DF804309A1F012AF6D9012BB6
:103A20000DD19DF80520072AF0D8B25C002AEDD010
:103A30000B492A600A60A260A37402B070BD022B19
:103A4000E4D19DF80530072BE0D8F35C002BDDD0E6
:103A50002B60A3600023EFE7D0040020E49F04085C
:103A6000CC040020014B1868704700BFDC04002024
:103A7000014B1868704700BFD804002013B51B4CD9
:103A80002BF0F8FE012120602BF036FF206818494A
:103A90002BF039FF174A6B46174C1068516803C367
:103AA0006846FFF705FE2BF0E5FE042120602BF0B1
:103AB00023FF12492068124C2BF025FF2BF0DAFE71
:103AC000022120602BF018FF0E4920680E4C2BF0CD
:103AD0001AFF2BF0CFFE032120602BF00DFF0B49C6
:103AE00020682BF010FF02B010BD00BFE0040020E2
:103AF000B539000868700408DC040020B7390008F4
:103B0000D8040020FD390008D4040020C939000879
:103B100008B503F015FFBDE80840FFF713BE00002D
:103B2000F8B50AF041F94F4CFEF77AFF4E4A4F497B
:103B30004C4802F0F3FC4E4842F0C4FA6368002B94
:103B400000F08B804B4812F0ABF801464A4842F037
:103B500049FAC8200AF0C2FC484812F04AFD484B16
:103B6000484C188802F0A6FC474B1870434812F0E6
:103B700045FD4FF47F320021206842F0D5FA2268DB
:103B800002F01F0303F57F33BFF34F8F3F49203B04
:103B9000C1F868222032002BF9DCBFF34F8FBFF34E
:103BA0006F8FFFF777FE226802F01F0303F57F3364
:103BB000BFF34F8F3549203BC1F868222032002BDC
:103BC000F9DCBFF34F8FBFF36F8F01223048314EC6
:103BD0001146314F05F0F8FB4FF4FA600AF07EFC15
:103BE0002E4D2FF017FCFFF7B9FEFFF747FF02F04D
:103BF000B5FF0446006819F0FBFEFFF733FF0146EE
:103C0000204603F05BFC03F09BFE044603F098FEA5
:103C1000001BB0F5FA7F18D303F092FE4FF48051E9
:103C20000446304605F0EAFB3846FDF70BFD2B78DD
:103C30005BB11B4B1B4A19681B4842F0D3F90023A8
:103C400003211A482B7002F0F3FC022035F084FCAB
:103C5000FFF75EFF32F03EFFD8E7C8200AF03EFCD7
:103C60006CE700BF50110020160000201200002059
:103C7000BE72040854110020D0720408EC4F0020DA
:103C8000100000201C0000200008002000ED00E0D3
:103C90000000025800180258DE720408F4040020E4
:103CA000F8040020FC040020067304081F730408B5
:103CB00030B59DB04C22002109A842F035FA2022EF
:103CC000002101A842F030FA022006F0A1FA0023F8
:103CD0000093224BDA6A22F00102DA62DB6A204AA0
:103CE00003F001030093936923F4404343F48043BA
:103CF0009361936903F440430093009B9369990493
:103D0000FCD5184A0125402409A8936A23F003032F
:103D100043F0020393624FF480330322CDE9092379
:103D20000023CDE90C54129306F0A0FA08B172B644
:103D3000FEE73F232946CDE901304FF48063CDE90A
:103D40000300CDE9050401A8CDE9073406F0A6FE7D
:103D500008B172B6FEE71DB030BD00BF00040058C8
:103D600000480258004402582DE9F04F97B0002156
:103D70001022002409A8012542F0D6F903F0A0FE84
:103D800048F21F7309A8ADF82450CDE90A4340F268
:103D900001130C9303F0B2FECE4A09A8CE4B8DF866
:103DA00031408DF82550CDE90A2303F0A7FE022308
:103DB00009A88DF82E408DF82530C84B8DF831506C
:103DC0000A9308238DF833508DF82C3003F096FEBB
:103DD000032309A88DF831408DF825304FF040437A
:103DE0008DF8334004240A9316238DF82C3003F009
:103DF00085FE4FF08041BA4B09A88DF82540CDE9EA
:103E00000A13B84B0C9303F079FE204603F066FECC
:103E1000B54B5A6912F4003211D1BFF34F8FBFF383
:103E20006F8FC3F85022BFF34F8FBFF36F8F5A6964
:103E300042F400325A61BFF34F8FBFF36F8FAA4A2B
:103E4000536913F4803323D1C2F88430BFF34F8F0A
:103E5000D2F8803043F6E074C3F3C900C3F34E33A5
:103E60005B0103EA0406014646EA81750139C2F89E
:103E70006052F9D2203B13F1200FF2D1BFF34F8FE4
:103E8000536943F480335361BFF34F8FBFF36F8F98
:103E900003F01CFD0024FFF70BFF1422002109A8EA
:103EA00042F042F9914B7C219148D3F8E020012661
:103EB0004FF400698F4D42F010024FF0400A4FF46A
:103EC000805B4FF00408C3F8E0201027D3F8E0200F
:103ED00002F010020192019AD3F8E02042F00402AD
:103EE000C3F8E020D3F8E02002F004020292029A24
:103EF000D3F8E02042F02002C3F8E020D3F8E0201D
:103F000002F020020392039AD3F8E02042F08002EC
:103F1000C3F8E020D3F8E02002F080020492049A73
:103F2000D3F8E02042F00102C3F8E020D3F8E0200B
:103F300002F001020592059AD3F8E02042F0020255
:103F4000C3F8E020D3F8E02002F002020692069ABD
:103F5000D3F8E02042F04002C3F8E020D3F8E0209C
:103F600002F040020792079AD3F8E02042F00802DC
:103F7000C3F8E0200022D3F8E03003F008030893F0
:103F8000089B05F021FA00224FF471415A4805F0D0
:103F90001BFA00224FF47071584805F015FA002200
:103FA0000121574805F010FA00224FF450415548BE
:103FB00005F00AFA00224FF40061534805F004FAB4
:103FC000002241F20C61514805F0FEF97C2309A959
:103FD0004748CDE90936CDE90B4405F04DF84FF4DB
:103FE000714309A94448CDE90936CDE90B4405F0F0
:103FF00043F84FF4707309A94048CDE90936CDE97B
:104000000B4405F039F809A93D48CDE90966CDE929
:104010000B4405F031F83C2309A93A480B94CDE94B
:10402000093405F029F84FF4504309A93548CDE982
:104030000936CDE90B4405F01FF809A93248CDE94E
:104040000996CDE90B4405F017F841F20C6309A974
:104050002E48CDE90936CDE90B4405F00DF84FF4B3
:10406000184309A926480B94CDE9093405F004F852
:10407000942309A924480B94CDE9093404F0FCFFEA
:1040800021464FF0807003F08FFC214B09A9284690
:10409000AC60C5E900344FF48073C5E905A34FF463
:1040A0000053C5E90749C5E909B34FF003094FF0CB
:1040B000020B0723CDF83CB0C5E90387CDE909B36E
:1040C000CDE90B83CDE90D9B07F0D8FF10B372B695
:1040D000FEE700BF000002301000010300000430C2
:1040E0001C0000030101000100ED00E00044025843
:1040F0000010025808080020000802580014025856
:104100000000025800040258000C0258001802581F
:1041100040410052A44C4FF6FF72C4E902602146B0
:104120002846C4E9006707F0D1FF824620B19F48C6
:1041300041F0C8FF72B6FEE7304603F007FC4FF6C9
:10414000FF7221462846C4E900B7C4E9026A07F0B5
:10415000BDFF20B1964841F0B5FF72B6FEE70823D7
:104160004FF6FF722146C4E902302846C4E90097A1
:1041700007F0ACFF20B18F4841F0A4FF72B6FEE714
:1041800022234FF6FF7221462846A660E360C4E969
:10419000008707F09BFF20B1874841F093FF72B67C
:1041A000FEE701F02FF907464FEA5008404601F0BC
:1041B0002FF982234246394603FB00F464237F48EB
:1041C000B4FBF3F4234641F00DFF2146284607F0E7
:1041D0009CFF2146284607F098FF20B1764841F021
:1041E00071FF72B6FEE7764CDFF8FCE1754B20629A
:1041F000C4E90206C4E90400C4E906002046C4E993
:1042000000E305F081FA014608B172B6FEE72046E8
:1042100005F0F4FC014608B172B6FEE7204605F051
:1042200035FD034608B172B6FEE767484FF4E13248
:10423000DFF8B8C10361C0E900C20C22C0E9023353
:10424000C0E90523C0E90733C0E9093309F0A8F93B
:1042500008B172B6FEE700215B4809F041FB014658
:1042600008B172B6FEE7584809F094FB08B172B67F
:10427000FEE7554809F0EEFA08B172B6FEE7534C76
:104280004FF4E133524F2061C4E900730C23C4E9B9
:104290000200C4E90530C4E90700C4E9090020466A
:1042A00009F07EF9014608B172B6FEE7204609F032
:1042B00017FB014608B172B6FEE7204609F06AFB1B
:1042C00008B172B6FEE7204609F0C4FA08B172B62A
:1042D000FEE7404C404BE065C4E900300223C4E9EE
:1042E0001300C4E90230C4E91103C4E915002046F3
:1042F00003F02CFE08B172B6FEE72046012103F060
:10430000A9FE044608B172B6FEE70146342209A8A8
:1043100040F20E2541F008FF3048314B4FF000527B
:104320002E2140F216268460848680F83640C0E94B
:1043300000344FF08053C0E903230323C0E9053361
:104340000F23C0E9071340F21F13C0E9095340F2DD
:104350002713C0E90B6305F077FD08B172B6FEE7DD
:10436000FF204FF4806500224FF4F0714FF4887302
:1043700002260B921493ADF854208DF85620CDE907
:104380000E000520CDE910501648CDE90921CDE9F0
:10439000120109A91148CDE90C3605F079FE044651
:1043A00030B372B6FEE700BFE404002023730408B4
:1043B0003A73040851730408687304087F7304088F
:1043C0000C0A0020BB7C7000D00800203C080020B4
:1043D00000440040600A00200010005264090020E0
:1043E0000010005000040424001C0058001001407C
:1043F00002460621262003F00BFB262003F04CFB8F
:1044000022462946344804F0DFFF642003F09EFA78
:1044100001222946304804F0D7FF4FF4FA7003F028
:1044200095FA01224FF480712B4804F0CDFFFA2059
:1044300003F08CFA22460121284804F0C5FF00F061
:10444000CFFF4FF47A7003F081FA254B32462146B4
:1044500018682346806841F0D9FA01222149224890
:1044600009F0B0F910B12148FDF7ECF8204809AC8B
:1044700041F028FE1F48FDF7E5F8642003F066FAD6
:104480001D4DFCF7D7FC1D4B187800F0B1FFFCF771
:1044900047FE4FF6FF714FF46070FDF747F84FF697
:1044A000FF714FF46070FDF741F84FF46070FDF755
:1044B00063F801461248FDF7DBF80FCD0FC495E80D
:1044C000070084E80700002109A809F0DFFF0D4B71
:1044D000186009F0CFFFFEE70008025800000258FC
:1044E000D0000020FC0600203C080020A773040830
:1044F000C4730408DE72040870700408C90A00203E
:10450000E3730408040800200268094B9A420ED1A4
:1045100008490B889BB25A1CDBB292B20A8006494A
:10452000064A0878D0540122054809F04BB9704773
:1045300000440040FE060020FC060020000700208A
:104540003C08002002680B4B9A4210B504460FD17C
:1045500008F060FC0146084841F044FD23680E2243
:10456000064907481A620122BDE8104009F02AB93D
:1045700010BD00BF00440040F6730408FC06002094
:104580003C0800200268034B9A4201D103F0CCB9E9
:10459000704700BF0000014072B6FEE7704738B5B3
:1045A00004460D46002217F0EDFA29462046002267
:1045B00017F0EFFA29462046002217F0D5FA2946CF
:1045C00020460022BDE8384017F0D5BAF8B50446B9
:1045D00060B3FFF747FA0746FFF74AFAD4F8F060EE
:1045E00005460EB9124B1E681FB1314638462BF0F6
:1045F00097F91DB1314628462BF092F9D4F8EC001A
:1046000020B112F0DDF80023C4F8EC300025D4F816
:10461000E000C4F8F05018B117F034FDC4F8E050D1
:10462000C4E93955BDE8F840FCF7BCBBF8BD00BF94
:104630003011002038B5054630F078FD044658B1F9
:10464000284630F06BFDD4F8E030834204D1204698
:10465000BDE83840FFF7BABF38BD08B530F066FD99
:1046600018B1BDE80840FFF7B1BF08BD30B585B04F
:10467000054630F05BFD044600283CD0284630F06B
:104680004FFD0A2837D1284630F048FD13F00CF8CA
:1046900098B91A4B18700023626A42B11021184A67
:1046A000684641F067FA6946606A3BF071F9204656
:1046B00005B0BDE83040FFF789BF012803D10F4B9B
:1046C00018700123E8E7022803D10C4B187002236D
:1046D000E2E7032803D1204602F012FFDBE70428BB
:1046E00003D1204602F00CFFEBE70528D3D120468A
:1046F00002F006FFEBE705B030BD00BFC90A00209D
:10470000147404082DE9F04F044689B0002800F025
:104710000783D0F8E050002D40F0028319F0C0FA72
:1047200012F0DEFCC4F8E00016F072FE4FF488725E
:104730004FF4F071D4F8E00014F008F82A46294646
:10474000D4F8E00013F0C3FF2A46CC21D4F8E000EF
:1047500017F04AFAD4F8E06030F05AFAC0F30723B1
:104760008DF80800C0F307408DF809302A468DF80F
:104770000A003046029917F028FA0221D4F8E00026
:1047800012F02CFF23460A22E849D4F8E00013F087
:1047900005FE01F0DDFF1021D4F8E00012F0D9FC95
:1047A000D4F8E00012F09CFCC4F8E40016F030FEEF
:1047B000B5224FF4A071D4F8E40013F0C7FFD4F889
:1047C000E40015F071F92A46FF21D4F8E40017F04F
:1047D0000BFAD748D4F8E46030F0C5F9C0F30723EA
:1047E0008DF80C00C0F307402A468DF80D308DF887
:1047F0000E003046039917F0E8F92A460A21D4F84A
:10480000E40017F064FA2A460221D4F8E40017F015
:104810000FFAC848D4F8E46030F0A5F9C0F30723D4
:104820008DF81000C0F307402A468DF811308DF83E
:1048300012003046049917F0E5F90C21D4F8E40091
:10484000FFF7ADFE2A460821D4F8E40017F0A8F9D6
:104850000121D4F8E4002DF0B9FC4FF48041D4F8E4
:10486000E40012F076FC1021D4F8E40012F071FCA0
:10487000D4F8E4003AF0BCFCAF4906463BF088F8B7
:1048800030F0B8F9C0F307238DF814002A468DF8EC
:104890001530C0F3074330468DF81630059917F0F0
:1048A000F2F9D4F8E40012F01BFC804616F0B0FDDB
:1048B000A249404613F018FF40466FF0404113F004
:1048C0002CFF404601212DF081FC2A460A2140465A
:1048D00017F066F9404612F003FC064616F098FD04
:1048E0009649304613F000FF30466FF0404113F018
:1048F00014FF294630462DF069FC02232946304634
:104900001A462DF06FFC2A460C21304617F04FF95D
:1049100030463AF06DFC8A4907463BF039F830F0F2
:1049200069F9C0F307238DF818002A468DF819306D
:10493000C0F3074338468DF81A30069917F0A3F9EB
:104940005A21384613F0D0FE304612F0C9FB074614
:1049500016F05EFD6FF04041384613F0DEFE29464A
:1049600038462DF033FC2A463846082117F01FF947
:10497000384601212DF04EFC72493846FDF790FF74
:10498000714906463846FDF78BFF7049019038465D
:10499000FDF786FF30210746304613F0A5FE302193
:1049A000019813F0A1FE3021384613F09DFE2A46EF
:1049B0006749304616F086FD02226649304616F0F9
:1049C00081FD20226349304616F07CFD2A4660496D
:1049D000019816F077FD02225E49019816F072FDEB
:1049E00020225C49019816F06DFD2A465849384648
:1049F00016F068FD02225749384616F063FD202262
:104A00005449384616F05EFD2946304612F04AFEFB
:104A10000121019812F046FE0221384612F042FEB2
:104A200023460A224C49304613F0B8FC23460A229A
:104A30004949019813F0B2FC23460A2246493846F8
:104A400013F0ACFC404612F04BFB804616F0E0FC45
:104A50003A49404613F048FE40466FF0404113F09B
:104A60005CFE294640462DF0B1FB02232946404614
:104A70001A462DF0B7FB2A460C21404617F097F84E
:104A800040463AF0B5FB354981463AF081FF30F0B7
:104A9000B1F8C0F307238DF81C00C0F307408DF870
:104AA0001D302A468DF81E004846079917F0EBF88E
:104AB0005A21484613F018FE404612F011FB824678
:104AC00016F0A6FC6FF04041504613F026FE294632
:104AD00050462DF07BFB2A465046082117F067F818
:104AE000504601212DF096FB16495046FDF7D8FEA1
:104AF000154980465046FDF7D3FE1449814650467D
:104B0000FDF7CEFE30218246404613F0EDFD302108
:104B1000484613F0E9FD3021504613F0E5FD2A46E2
:104B20000B49404616F0CEFC022219E0354600083B
:104B300018110B00C7E02D001C740408640000204D
:104B400023740408BC760408B5760408CA9B0408DC
:104B5000981000208C1000206D4600082D74040869
:104B60007149404616F0AEFC20226F49404616F0CF
:104B7000A9FC2A466D49484616F0A4FC02226A495F
:104B8000484616F09FFC20226749484616F09AFCDA
:104B90002A466649504616F095FC02226249504664
:104BA00016F090FC20226049504616F08BFC032141
:104BB000404612F077FD0421484612F073FD0521AE
:104BC000504612F06FFD23460A225949404613F021
:104BD000E5FB23460A225649484613F0DFFB2346ED
:104BE0000A225349504613F0D9FBD4F8E40012F0DE
:104BF00077FA834616F00CFC4E49584613F074FDC4
:104C000058466FF0404113F088FD294658462DF074
:104C1000DDFA29465846FFF7C2FC2A4658461921B4
:104C200016F0CCFF44495846FDF73AFE23460A22C7
:104C30004249C4F8380113F0B1FB2A463B49D4F885
:104C4000380116F03FFC02223749D4F8380116F03B
:104C500039FC20223449D4F8380116F033FC384BA3
:104C60001B68C4F8F03011F091FD0121C4F8EC008C
:104C700011F0CEFE2946D4F8EC0011F0EBFED4F88A
:104C8000EC0011F0E1FDFEF7EDFE8346FEF7F0FECD
:104C90000546BBF1000F40D0D4F8EC1058462AF07E
:104CA0003FFEA5B3D4F8EC1028462AF039FEBBF13C
:104CB000000F2CD128462AF071FE3146D4F8EC00C2
:104CC00011F079FE0199D4F8EC0011F074FE394628
:104CD000D4F8EC0011F06FFE4146D4F8EC0011F06E
:104CE0006AFE4946D4F8EC0011F065FE5146D4F84E
:104CF000EC0011F060FED4F8EC00D4F8381111F09B
:104D00005AFE304609B0BDE8F04F11F0C5BE584616
:104D10002AF044FE002DCDD1CFE70028C2D1CCE748
:104D200009B0BDE8F08F00BF8C1000209810002063
:104D30006D46000864000020067204085B46000807
:104D4000301100202DE9F04F04468BB0002800F010
:104D5000AB82D0F8A450002D40F0A68218F0A0FF3E
:104D60004FF0030B12F0BCF9C4F8A40016F050FB8E
:104D70004FF488724FF4F071D4F8A40013F0E6FCFD
:104D80002A462946D4F8A40013F0A1FC2A46CC21D7
:104D9000D4F8A40016F028FFD4F8A4602FF038FF50
:104DA000C0F307238DF81000C0F307408DF81130D1
:104DB0002A468DF812003046049916F006FF0221AB
:104DC000D4F8A40012F00AFC23460A22E949D4F8D8
:104DD000A40013F0E3FA01F0BBFC1021D4F8A40006
:104DE00012F0B7F9D4F8A40012F07AF9C4F8A800C8
:104DF00016F00EFBB5224FF4A071D4F8A80013F002
:104E0000A5FCD4F8A80014F04FFE2A46FF21D4F8E0
:104E1000A80016F0E9FED848D4F8A8602FF0A3FE49
:104E2000C0F307238DF81400C0F307402A468DF81D
:104E300015308DF816003046059916F0C6FE2A4644
:104E40000A21D4F8A80016F042FF2A460221D4F81D
:104E5000A80016F0EDFEC948D4F8A8602FF083FE34
:104E6000C0F307238DF81800C0F307402A468DF8D9
:104E700019308DF81A003046069916F0C3FED4F8A2
:104E8000A8602A460C21304616F07CFE2A463046A1
:104E90000C2116F07EFE2A4630460C2116F064FEE8
:104EA0002A4630460C2116F066FE2A460821D4F820
:104EB000A80016F075FE0121D4F8A8002DF086F99F
:104EC0004FF48041D4F8A80012F043F91021D4F82F
:104ED000A80012F03EF9D4F8A8003AF089F9A849E0
:104EE00006463AF055FD2FF085FEC0F307238DF8F6
:104EF0001C002A468DF81D30C0F3074330468DF85C
:104F00001E30079916F0BFFE2A469E49304616F01D
:104F1000C9FED4F8A80012F0E3F8064616F078FAB5
:104F20009949304613F0E0FB304601212DF072F92B
:104F30002A462946304616F057FE2A4630460821B2
:104F400016F02EFE2A463046082116F030FE304676
:104F5000102112F0FEF83046022113F036FC8B4A85
:104F600030468B492DF06CFE8A493046FDF798FC9F
:104F7000894907463046FDF793FC8849804630460C
:104F8000FDF78EFC864981463046FDF789FC2A46AE
:104F9000824684493846012616F094FA0222824954
:104FA000384616F08FFA20227F49384616F08AFAE2
:104FB0002A467C49404616F085FA02227A49404644
:104FC00016F080FA20227849404616F07BFA2A46ED
:104FD0007449484616F076FA02227349484616F09C
:104FE00071FA20227049484616F06CFA2A466D493B
:104FF000504616F067FA02226B49504616F062FAE4
:1050000020226949504616F05DFA5F4A384611463B
:1050100013F09CFB5C4A4046114613F097FB5A4A3A
:105020004846114613F092FB574A5046114613F07A
:105030008DFB33462A4659463846CDF800B0CDE9B7
:1050400001562DF00FFE3346324659464046CDF804
:1050500000B0CDE901562DF005FE33462A465946EB
:105060004846CDF800B0CDE901662DF0FBFD334692
:10507000324659465046CDF800B0CDE901662DF0D4
:10508000F1FD2946384612F00DFB3146404612F03C
:1050900009FB0221484612F005FB5946504612F022
:1050A00001FB23460A224149384613F077F923468B
:1050B0000A223E49404613F071F923460A223B4931
:1050C000484613F06BF923460A223849504613F03C
:1050D00065F9D4F8A80035F093FC22222A49C4F8D7
:1050E000AC0013F033FB3248D4F8ACB02FF03BFDEA
:1050F000C0F307238DF82000C0F307402A468DF83F
:1051000021308DF822005846089916F05EFD2A4697
:10511000FF21D4F8AC0016F067FD2A460621D4F82A
:10512000AC0016F0D4FD2A463146D4F8AC0016F097
:105130007FFD1248D4F8ACB02FF015FDC0F3072363
:105140008DF82400C0F307402A468DF825308DF8ED
:1051500026005846099916F055FD23460A2215499E
:10516000D4F8AC0013F01AF9D4F8AC003AF040F8D7
:10517000834621E05153000818110B00C7E02D00B1
:10518000377404081C000908640000202000002077
:105190002C0000203C740408447404082F72040896
:1051A0004D740408981000208C10002079530008DA
:1051B000342B1C00BD5300083D493AF0E9FB58462A
:1051C00014F072FC2A463B49D4F8AC0016F07AF988
:1051D00002223949D4F8AC0016F074F9202236497D
:1051E000D4F8AC0016F06EF9344B1B68C4F8B43038
:1051F00011F0CCFA3146C4F8B00011F009FC294690
:10520000D4F8B00011F026FCD4F8B00011F01CFB6B
:10521000FEF728FC0646FEF72BFC0546002E40D084
:10522000D4F8B01030462AF07BFB45B3D4F8B01068
:1052300028462AF075FB16BB28462AF0AFFB3946F4
:10524000D4F8B00011F0B7FB4146D4F8B00011F02B
:10525000B2FB4946D4F8B00011F0ADFB5146D4F88A
:10526000B00011F0A8FBD4E92B1011F0A4FB144BF3
:105270001B78032B18D8DFE803F0080E1012304615
:105280002AF08CFB002DD7D1D9E738460BB0BDE80A
:10529000F04F11F001BC4046F8E74846F6E75046AB
:1052A000F4E70028C2D1CAE70BB0BDE8F08F00BF19
:1052B00006720408981000208C1000203011002085
:1052C000C80A002008B52FF031FF18B1BDE808402A
:1052D000FFF738BD08BD0000F8B50446A0B3D0F80C
:1052E000F40008B131F0EEFBFEF7BCFB0746FEF719
:1052F000BFFBD4F8B46005460EB9144B1E681FB14D
:10530000314638462AF00CFB1DB1314628462AF0BA
:1053100007FBD4F8B00020B111F052FA0023C4F812
:10532000B0300025D4F8A400C4F8B45018B116F079
:10533000A9FEC4F8A4502046C4E92A5502F0E0F8BA
:10534000BDE8F840FBF72EBDF8BD00BF30110020CE
:1053500038B505462FF0EAFE044658B128462FF02E
:10536000DDFED4F8A430834204D12046BDE83840A5
:10537000FFF7B2BF38BD000038B505462FF0D6FEA6
:105380000446B0B128462FF0CBFE0A2811D128469A
:105390002FF0C4FE12F088F9064B1870064B53F834
:1053A0002010206A3AF0F4FA2046BDE83840FFF7B2
:1053B00093BF38BDC80A00207C9F040838B5054655
:1053C0002FF0B4FE044648B128462FF0A9FE0A2863
:1053D00004D12046BDE83840FFF77EBF38BD00004D
:1053E00098220021014840F09FBE00BFCC0A002057
:1053F00008B5FBF7B1FD0248BDE80840FCF7E8B985
:105400005674040800487047342B530B000000000A
:1054100002460D4B0D48002110B543F60954E2FB3E
:10542000040183424FF004038B4106D204A3D3E965
:105430000023FBF7BDFA143810BD0120FCE700BFC4
:1054400000CA9A3B00000000FF91B2E30065CD1D49
:105450002DE9F34105462FF069FE044628462FF05A
:105460005DFE06465CB328462FF05AFE0A2826D178
:10547000304612F019F90228054620D8134B04F5DE
:105480009C78134F002653F8203084F854013B6079
:10549000B54258F8040F4FF0010113D111F02EFE60
:1054A0000136032EF4D1E36A4BB108213B68094A67
:1054B000684631F00BFC6946E06A3AF069FA02B0DE
:1054C000BDE8F08111F025FEEAE700BF38000020BA
:1054D0000C0000209872040873B506462FF026FED3
:1054E00000285BD00468002C58D00579032D55D8CE
:1054F00030462FF015FE0A281ED1D4F8C40000282B
:105500004CD011F00EFB80F001010646D4F8C40027
:10551000C9B211F09FFA0C23012103FB0543D3F814
:10552000FC0026B902B0BDE8704011F0E7BD02B042
:10553000BDE8704011F0EDBD11282FD1D4F8C400A2
:1055400060B311F0EEFA48B3304612F051FF132861
:1055500026D10C2303FB054393F80421013283F881
:1055600004210C230421134A03FB05450DEB010024
:1055700095F8043131F0AAFB01A9D5F800013AF001
:1055800007FA0D4B94F804211A7094F810215A7000
:1055900094F81C219A7094F82821DA7002B070BD3A
:1055A0001428FBD10C2303FB054393F80421013A93
:1055B000D5E700BF197404081200002038B504466E
:1055C0000D46002216F0DEFA29462046002216F08B
:1055D000E0FA29462046002216F0C6FA294620465F
:1055E0000022BDE8384016F0C6BA00002DE9F04FA1
:1055F00004468DB0002800F01283D0F8B850002D7A
:1056000040F00D8318F04CFB11F06AFDC4F8B800AF
:1056100015F0FEFE4FF488724FF4F071D4F8B80024
:1056200013F094F82A462946D4F8B80013F04FF83E
:105630002A46CC21D4F8B80016F0D6FAD4F8B860CF
:105640002FF0E6FAC0F307238DF80C00C0F30740F3
:105650008DF80D302A468DF80E003046039916F06D
:10566000B4FA0221D4F8B80011F0B8FF1021D4F830
:10567000B80011F06EFD01F06BF8D4F8B80011F02D
:105680002FFDC4F8BC0015F0C3FEB5224FF4A07185
:10569000D4F8BC0013F05AF8D4F8BC0014F004FAA3
:1056A0002A46FF21D4F8BC0016F09EFAE448D4F84C
:1056B000BC602FF058FAC0F307238DF81000C0F338
:1056C00007402A468DF811308DF8120030460499B3
:1056D00016F07BFA2A460A21D4F8BC0016F0F7FA35
:1056E0002A460221D4F8BC0016F0A2FAD548D4F814
:1056F000BC602FF038FAC0F307238DF81400C0F314
:1057000007402A468DF815308DF816003046059969
:1057100016F078FA0821D4F8BC00FFF74FFF2A46AC
:105720000621D4F8BC0016F03BFA0121D4F8BC00E5
:105730002CF04CFD1021D4F8BC0011F00AFD4FF400
:105740008041D4F8BC0011F004FDD4F8BC0039F05D
:105750004FFDBD4906463AF01BF92FF04BFAC0F356
:1057600007238DF818002A468DF81930C0F3074337
:1057700030468DF81A30069916F085FA2A462946E1
:10578000304616F096FAD4F8BC0011F0A9FC064693
:1057900015F03EFEAD49304612F0A6FF30466FF0E0
:1057A000404112F0BAFF304601212CF00FFD304687
:1057B0002946FFF703FF30462A46062116F0F0F986
:1057C0002A460621304616F0F2F9304639F010FD2F
:1057D0009F4907463AF0DCF82FF00CFAC0F3072394
:1057E0008DF81C002A468DF81D30C0F3074338465B
:1057F0008DF81E30079916F046FA304611F070FC0D
:10580000064615F005FE9149304612F06DFF6FF027
:105810004041304612F081FF294630462CF0D6FC3C
:105820002A460621304616F0BBF92A4608213046A2
:1058300016F0BDF9874B884A02211B68106884F86E
:105840005411834207D05068834200F073819268FC
:105850009A4202D10D4684F8545104F59C78DFF841
:10586000F8910027DFF804B24546DFF80CA2304675
:1058700035F0C6F81E2245F8040F482112F066FFE5
:1058800000225946286815F01DFE0222514628685C
:1058900015F018FE01225146286815F013FE082164
:1058A000286811F09BFE39462868013711F0FAFE8E
:1058B000286839F09DFC59F8043B684A0821E860E3
:1058C0000AA831F003FA0AA9E8683AF061F8E86832
:1058D00014F0EAF823460A226149286812F05EFDB6
:1058E000032FC4D1002594F85431012158F8040F36
:1058F000AB4240F0218111F001FC0135032DF2D1C2
:10590000D4F8BC0004F5947911F0EAFB054615F0D3
:105910007FFD4E492846DFF864A112F0E5FE2846D7
:105920006FF040414F4F12F0F8FE284601214FF032
:1059300000082CF04BFC28460021DFF83CB1FFF7B3
:105940003DFE00220621284616F02AF9284639F0A5
:105950004FFC454906463AF01BF82FF04BF9C0F3CF
:1059600007238DF8200000228DF82130C0F3074373
:1059700030468DF82230089916F085F9002230461D
:10598000114616F096F9284611F0AAFB064615F0C6
:105990003FFD2E493046254612F0A6FE6FF04041ED
:1059A000304612F0BAFE002130462CF00FFC0221E6
:1059B0003046FFF703FE00220621304616F0F7F8C6
:1059C000304635F01DF81E223821C5F8FC0012F0D3
:1059D000BDFE00222549D5F8FC0015F073FD02221A
:1059E0005946D5F8FC0015F06DFD20225946D5F832
:1059F000FC0015F067FDD5F8FC0039F0F9FBC5F89F
:105A000000019AF800300421194A0AA885F80431E7
:105A100031F05CF90AA9D5F8000139F0B9FFD5F8E1
:105A2000000114F041F83B460A22124987F804802D
:105A30003C60D5F8FC0012F0B1FC3B4611221FE09F
:105A400018110B00C7E02D007874040864000020D2
:105A5000807404080C0000203800002098720408AC
:105A600051540008141000208B7404089810002072
:105A700019740408D95400088C100020120000206A
:105A80006849D5F8FC0012F089FCB8F1030F56D133
:105A9000D4F8BC0011F024FB054615F0B9FC6249AE
:105AA000284612F021FE28466FF0404112F035FEE4
:105AB000284600212CF08AFB28460021FFF77EFDB6
:105AC0005A492846FCF7ECFE23460A225849C4F8F6
:105AD000380112F063FC00225649D4F8380115F061
:105AE000F1FC02225449D4F8380115F0EBFC2022D5
:105AF0005149D4F8380115F0E5FC504B1B68C4F847
:105B0000C83010F043FE0121C4F8C40010F080FF3B
:105B10000021D4F8C40010F09DFFD4F8C40010F0A8
:105B200093FEFDF79FFF0646FDF7A2FF05464EBB1D
:105B300078BB37E001258EE611F0EBFADDE6304662
:105B40000AF1010A39F054FB3D4949F8040F0C35BC
:105B500039F01EFFD9F80030083708F10108019329
:105B60002FF048F8C0F307238DF82400C0F3074056
:105B700000228DF825308DF826000999019816F03D
:105B800082F81DE7D4F8C410304629F0C9FE002D74
:105B90003FD0D4F8C410284629F0C2FECEBB284618
:105BA00029F0FCFED4F83C11D4F8C40010F003FF37
:105BB000D4F84011D4F8C40010F0FDFED4F844111C
:105BC000D4F8C40010F0F7FED4F8FC10D4F8C400E8
:105BD00010F0F1FED4F80811D4F8C40010F0EBFE78
:105BE000D4F81411D4F8C40010F0E5FED4F8201154
:105BF000D4F8C40010F0DFFED4F8C400D4F8381193
:105C000010F0D9FED4F8FC000DB0BDE8F04F10F054
:105C100043BF304629F0C2FE002DC0D1C2E70DB00F
:105C2000BDE8F08FD9540008640000200672040813
:105C3000DD5C0008981000208C100020301100203E
:105C400076740408F8B50446002843D0FDF70AFF2F
:105C50000646FDF70DFF054616B1304629F09EFEBB
:105C600015B1284629F09AFED4F8C8700FB91A4B1E
:105C70001F681EB13946304629F052FE1DB1394623
:105C8000284629F04DFED4F8C40020B110F098FD4C
:105C90000023C4F8C4300025D4F8B800C4F8C850B4
:105CA00018B116F0EFF9C4F8B850224604F13001EB
:105CB0000023C4E92F5582F80431C2E93F330C3286
:105CC0008A42F8D1C4E94B33C4E94D33BDE8F8400A
:105CD000FBF768B8F8BD00BF3011002010B52FF0F9
:105CE00025FA044630B100F019FF2046BDE8104007
:105CF000FFF7A8BF10BD00000A4B82B00F216FF064
:105D00000100D3F8F42042F00202C3F8F42000228C
:105D1000D3F8F43003F002030193019B02B001F0C9
:105D200077BE00BF00440258026882B0084B9A4216
:105D30000CD1084BD3F8D42042F01002C3F8D42081
:105D4000D3F8D43003F010030193019B02B07047E5
:105D5000001000520044025810B5B8B00446142296
:105D6000002103A840F0E0F9C022002108A840F07B
:105D7000DBF922681A4B9A4230D11022002308A87E
:105D8000CDE9082305F056FA08B1FEF705FC154CDD
:105D90004FF4405203A91448D4F8E03043F008030C
:105DA000C4F8E030D4F8E03003F008030193019B1D
:105DB0001223CDE903230023CDE905330423079300
:105DC00003F05AF9D4F8F43043F08003C4F8F43007
:105DD000D4F8F43003F080030293029B38B010BD76
:105DE000001C005800440258000C02582DE9F043F2
:105DF000BDB004461422002107A840F095F9C02246
:105E000000210CA840F090F922687A4B9A4240F0A9
:105E1000EE804FF0005200230CA8CDE90C238C2318
:105E20001022CDE916230223CDE9183324231A9337
:105E300005F000FA08B1FEF7AFFB6F4B0024032515
:105E40000226D3F8E4200E274FF4806807A942F019
:105E500008026A484FF0C009C3F8E420D3F8E420F0
:105E600002F008020092009AD3F8E02042F02002EB
:105E7000C3F8E020D3F8E02002F020020192019A5A
:105E8000D3F8E02042F00102C3F8E020D3F8E0208C
:105E900002F001020292029AD3F8E02042F00202DC
:105EA000C3F8E020D3F8E02002F002020392039A44
:105EB000D3F8E02042F04002C3F8E020D3F8E0201D
:105EC00002F040020492049AD3F8E02042F0040267
:105ED000C3F8E020D3F8E02002F004020592059A0E
:105EE000D3F8E02042F00802C3F8E020D3F8E03015
:105EF0000B9703F008030693069BCDE90786CDE9CF
:105F0000094503F0B9F84FF41E7307A93C480B97F5
:105F1000CDE90736CDE9094503F0AEF8092307A915
:105F200038480B93CDE90756CDE9094503F0A4F8AD
:105F30004FF4706307A933480B97CDE90736CDE9D5
:105F4000094503F099F807A92F480B97CDE9079663
:105F5000CDE9094503F090F807A92C480B97CDE946
:105F60000796CDE9094503F087F84FF4007307A9B8
:105F70002648CDE907360A23CDE909450B9303F0FE
:105F80007BF84FF4807307A91D48CDE907360D2330
:105F9000CDE909450B9303F06FF80C2307A91848C6
:105FA0000B93CDE90786CDE9094503F065F8082391
:105FB00007A917480B97CDE90736CDE9094503F046
:105FC0005BF8402003F0A8FE802003F0A5FE2246E7
:105FD0000521582001F01CFD582001F05DFD5920DD
:105FE0002246052101F014FD592001F055FD3DB078
