:020000040800F2
:1000000000000220D93D0008092100080B2100084A
:100010000D2100080F210008112100080000000038
:1000200000000000000000000000000051990008DE
:100030001321000800000000E1990008459A00081B
:100040002D3E00082D3E00082D3E00082D3E0008E4
:100050002D3E00082D3E00082D3E00082D3E0008D4
:100060002D3E00082D3E00082D3E00082D3E0008C4
:100070002D3E00082D3E00082D3E00082D3E0008B4
:100080002D3E00082D3E00082D3E00082D3E0008A4
:100090002D3E00082D3E00082D3E00082D3E000894
:1000A0002D3E0008152100082D3E00082D3E0008B9
:1000B0002D3E00082D3E00082D3E00082D3E000874
:1000C0002D3E00082D3E00082D3E00082D3E000864
:1000D0002D3E00082D3E00082D3E00082D3E000854
:1000E0002D3E00082D3E0008000000002D3E0008B7
:1000F0002D3E00082D3E00082D3E00082D3E000834
:100100002D3E00082D3E00082D3E00082D3E000823
:100110002D3E00082D3E00082D3E00082D3E000813
:100120002D3E00082D3E00082D3E00082D3E000803
:100130002D3E0008212100082D3E00082D3E00081C
:1001400000000000000000000000000000000000AF
:100150002D3E00082D3E00082D3E00082D3E0008D3
:100160002D3E00082D3E00082D3E00082D3E0008C3
:100170002D3E00082D3E00082D3E00080000000026
:100180002D3E00082D3E00082D3E00082D3E0008A3
:100190002D3E00082D3E00082D3E00082D3E000893
:1001A0002D210008392100082D3E00082D3E0008B1
:1001B0002D3E00082D3E00082D3E00082D3E000873
:1001C0002D3E00082D3E00082D3E00082D3E000863
:1001D0002D3E00082D3E00082D3E00082D3E000853
:1001E0002D3E00082D3E00082D3E00082D3E000843
:1001F0002D3E00082D3E00082D3E00082D3E000833
:100200002D3E00082D3E00082D3E00082D3E000822
:100210002D3E00082D3E00082D3E00082D3E000812
:100220002D3E00082D3E00082D3E00080000000075
:100230002D3E00082D3E0008000000002D3E000865
:100240002D3E00082D3E00082D3E00082D3E0008E2
:100250002D3E00082D3E00082D3E00082D3E0008D2
:100260002D3E00082D3E00082D3E00082D3E0008C2
:100270002D3E00082D3E00082D3E00080000000025
:100280002D3E00082D3E00082D3E00080000000015
:08029000000000002D3E0008F3
:1004000020524556563236303132325231000000D9
:1004100000000000000000000000000000000000DC
:100420000000000053544D3332483734332D5452BA
:100430004900000000000000000000000000000073
:080440000000000000000008AC
:1008000010B5054C237833B9044B13B10448AFF34A
:1008100000800123237010BD74010020000000003F
:10082000700A040808B5034B1BB103490348AFF332
:10083000008008BD0000000078010020700A040854
:1008400010F8012B11F8013B012A28BF9A42F7D07A
:10085000D01A7047034613F8012B002AFBD1181A4F
:100860000138704700000000000000000000000098
:1008700001F0FF01102A2BDB10F0070F08D010F851
:10088000013B013A8B422DD010F0070F42B3F6D155
:10089000F0B441EA012141EA014122F007047FF06E
:1008A00000070023F0E80256083C85EA010586EAC5
:1008B000010685FA47F5A3FA87F586FA47F6A5FA01
:1008C00087F68EB9EED1F0BC01F0FF0102F007020D
:1008D00032B110F8013B013A83EA010313B1F8D1B8
:1008E0000020704701387047002D06BF3546033899
:1008F000073815F0010F07D1013015F4807F02BFD2
:10090000013015F4C03F0130F0BC0138704700BF22
:100910007BB972B90029BEBF00204FF0004106E04C
:1009200008BF00281CBF6FF000414FF0FF3000F0FF
:10093000D3B9ADF1080C6DE904CE002909DB002B19
:100940001ADB00F04DF8DDF804E0DDE9022304B025
:100950007047404261EB4101002B1BDB00F040F887
:10096000DDF804E0DDE9022304B0404261EB41011F
:10097000524263EB43037047524263EB430300F080
:100980002FF8DDF804E0DDE9022304B0404261EB1A
:1009900041017047524263EB430300F021F8DDF858
:1009A00004E0DDE9022304B0524263EB43037047E5
:1009B00053B94AB9002908BF00281CBF4FF0FF31C6
:1009C0004FF0FF3000F088B9ADF1080C6DE904CEAE
:1009D00000F006F8DDF804E0DDE9022304B070471A
:1009E0002DE9F047089D8E4604468846002B4AD1E3
:1009F0008A42174662D9B2FA82F64EB1C6F1200396
:100A000001FA06F820FA03F3B74043EA0808B440B5
:100A10004FEA174E1FFA87FCB8FBFEF1230C0EFBC2
:100A2000118843EA084301FB0CF29A4209D9FB18EA
:100A300001F1FF3080F0EA809A4240F2E78002390B
:100A40003B449A1AA3B2B2FBFEF00EFB102243EA1B
:100A5000024300FB0CFC9C4509D9FB1800F1FF3256
:100A600080F0D6809C4540F2D3803B44023840EA77
:100A70000140A3EB0C0300211DB1F3400022C5E9A6
:100A80000032BDE8F0878B4205D90DB1C5E9000100
:100A900000210846F5E7B3FA83F1002946D17345F2
:100AA00002D3824200F20581841A6EEB0302012018
:100AB0009046002DE5D0C5E90048E2E7002A00F0A5
:100AC0009080B2FA82F6002E40F0A4808A1A030CBD
:100AD0004FEA174E80B2BCB20121B2FBFEFC0EFB06
:100AE0001C2243EA024304FB0CF29A4207D9FB188A
:100AF0000CF1FF3802D29A4200F2E080C4469B1A01
:100B0000B3FBFEF20EFB123340EA034302FB04F494
:100B10009C4207D9FB1802F1FF3002D29C4200F23E
:100B2000CA8002461B1B42EA0C40A5E7C1F1200621
:100B30008B4022FA06F71F430EFA01F420FA06F35F
:100B40002EFA06FE4FEA1749234300FA01F81FFA6E
:100B500087FCBEFBF9F01C0C09FB10EE44EA0E44C6
:100B600000FB0CFEA64502FA01F209D93C1900F17E
:100B7000FF3A80F09C80A64540F2998002383C44C0
:100B8000A4EB0E041FFA83FEB4FBF9F309FB134434
:100B90004EEA044403FB0CFCA44508D93C1903F1BC
:100BA000FF3E80F08280A4457FD9023B3C4443EA6B
:100BB0000040A4EB0C04A0FB02EC64457346E14644
:100BC00062D35FD05DB1B8EB030264EB090404FAB1
:100BD00006F622FA01F31E43CC40C5E90064002169
:100BE0004FE7B1FBF2FC010C41EA0E4180B240EA52
:100BF00001423B4638463C46B846BE462026B1FB3D
:100C0000F7F1A2EB080241EA0C4166E7014618E75A
:100C100010462CE7C6F120022EFA02F3B740B1408D
:100C200020FA02F24FEA174E0A43B3FBFEF8BCB2B9
:100C30000EFB1833110C41EA034108FB04F9B040E4
:100C400089454FEA104380B23ED9791808F1FF3C3C
:100C500001D289451FD8A1EB0901B1FBFEF909FBBF
:100C600004F80EFB191192B242EA0142424529D220
:100C7000BA1809F1FF31C4D24245C2D2A9F102012A
:100C80003A44BEE7F0459DD2BEEB02036CEB070C85
:100C90000138E14696E7A7EB09094944A8F1020C9F
:100CA000B1FBFEF909FB04F8DBE773467FE750462A
:100CB00066E70846FDE63B44023A33E7ACF1020C36
:100CC0003B441CE749469CE7A1EB0901C446B1FB44
:100CD000FEF909FB04F8C4E7704700BF7047000045
:100CE000034B0360034B0B6080231360704700BF0E
:100CF000900300209001002038B5094C094D21686F
:100D000009483EF027FE296808483EF023FE291BCB
:100D100007483EF01FFE0A20BDE838403EF02CBEDA
:100D20000000000878E30808200B0408390B0408C9
:100D3000520B040870B50A4E0A4C338824880133DC
:100D4000A4B203F01F039C4209D03588064CADB213
:100D5000338004F8250004EB85004170428070BDAB
:100D6000EC030020EA030020EE03002008B504F0A5
:100D7000D5FAB0FA80F0400908BD00000B4A0C4BD0
:100D800011881B8889B29BB299420CD013880949FB
:100D90009BB251F82330036001201388013303F024
:100DA0001F03138070470020704700BFEA03002034
:100DB000EC030020EE030020072808D81422054B7E
:100DC00002FB00335878003818BF0120704700201C
:100DD000704700BF70040020EFF3108272B6044B1E
:100DE00000211888198000B202B962B6704700BFAE
:100DF000E8030020034B93F86500003818BF01207A
:100E0000704700BF70040020F8B520B11A4A03688B
:100E1000136043685360A0220021184800243EF06C
:100E20003BFE174B174F1C80174B144D1C8003F0D3
:100E3000C3F806460134B98857F8080B1435FFF794
:100E400095FF082C05F8140C05F8130C45F8106CE8
:100E5000F0D110210D48FFF789FF044620210B48EF
:100E6000FFF784FF0A4B40EA44000A4A1870002347
:100E70001380094A1380F8BD800000207004002010
:100E8000EA03002044340408EC0300200004025864
:100E9000E6030020E4030020E80300202DE9F84FDA
:100EA00000260546474F484CB346DFF83481B988E1
:100EB0005FFA86F93868FFF759FF23786178834233
:100EC00018BF2070227818BF656091423AD06368DD
:100ED000B8F80000EB1A834234D362703AB30022B0
:100EE00049460120A56084F80CB02561FFF722FF78
:100EF000A368A5EB030A237B4BB9B8F802309A45E7
:100F000005D30122494604202273FFF713FFB8F8E6
:100F10000430CBB19A4517D32369B8F80620EB1AF1
:100F2000934211D3012249460520256107E0494635
:100F30000220FFF7FFFE237B33B901220320FFF7D6
:100F4000F9FE01E00029D3D1013608371434082E08
:100F5000ADD110211D48FFF709FF044620211B4891
:100F6000FFF704FF40EA4400194C2378C5B240EA79
:100F70008300184BC0B21B56ABB1174A11880B4403
:100F80001BB2032B0CDD0023052106201380134A1E
:100F9000138801331BB213800122FFF7CBFE02E05E
:100FA000D91C03DB13802570BDE8F88F00230521D1
:100FB00007201380094A1388013B1BB213804FF0AE
:100FC000FF32EAE7443404087004002000040258A9
:100FD000E603002034340408E4030020E803002082
:100FE0008000002000487047000404244FF47F3242
:100FF0000249034808B53EF0B6FD08BDC4340408F4
:1010000000040424014B1860704700BF1405002041
:10101000BFF34F8F094B0A490A4AC1F8683220339F
:101020009342FAD1BFF34F8FBFF36F8F064B1B680C
:101030001BB1064A127802B918477047000404240D
:1010400000ED00E000000824140500201005002039
:1010500001460648064B012210B404681A70636BFF
:10106000134363635DF8044B04F07CBBB4080020B9
:10107000100500200021054810B504F073FB044B57
:101080001B6813B1BDE81040184710BDB40800201C
:1010900014050020014B186816F08AB918050020C5
:1010A000034B1B780BB1FFF7B3BF16F081B900BF3C
:1010B0008800002013B5124C4FF488714FF4F07083
:1010C00016F018FB1221206016F00EFC0D49206866
:1010D00016F0F4F82468FFF785FF0123014600228B
:1010E000204600934FF47F3316F0FAF80648FFF7D6
:1010F00089FF002002B0BDE81040FFF7A9BF00BF84
:1011000018050020A110000895100008704710B5C0
:101110000C46FFF761FE2082FFF76CFEA07410BD45
:1011200038B500200C46124DFFF746FE98B9012055
:10113000FFF742FEA0B90220FFF73EFE90B9032060
:10114000FFF73AFE80B90420FFF736FE70B92A880F
:10115000E260A07438BD00231A4601202B80F7E717
:101160000123F9E70223F7E70323F5E70423F3E775
:101170001C05002073B50023154D0C46154E8B74CD
:101180002B888B6001A8FFF7F9FD90B19DF8043022
:101190009A1F012AF6D9012B0DD19DF80520072AA7
:1011A000F0D8B25C002AEDD00B492A600A60A26038
:1011B000A37402B070BD022BE4D19DF80530072B5B
:1011C000E0D8F35C002BDDD02B60A3600023EFE7B9
:1011D000240500208434040820050020014B1868F1
:1011E000704700BF30050020014B1868704700BFF2
:1011F0002C05002013B51D4C28F0AEF9012120600C
:1012000028F0ECF920681A4928F0EFF9194A6B46E2
:10121000194C1068516803C36846FFF7F5FD28F0C4
:101220009BF90421206028F0D9F914492068144C56
:1012300028F0DBF928F090F90221206028F0CEF99F
:1012400010492068104C28F0D0F928F085F90321C6
:10125000206028F0C3F920680C4928F0C6F90C4931
:10126000206828F0D8F902B010BD00BF3405002076
:101270000D110008880A0408300500200F1100082D
:101280002C050020751100082805002021110008F8
:101290008C34040808B502F08FFEBDE80840FFF763
:1012A000FDBD0000F8B506F061FC3E4CFFF724FDE3
:1012B0003D4A3E493B4801F05DF83D483EF0BAFBEF
:1012C0006368002B69D03B480EF0CAFB01463A48E0
:1012D0003EF040FBC82006F0E1FF38480FF069F807
:1012E000374B188801F012F8364B187033480FF05E
:1012F00065F8FFF77BFE344B1A6802F01F0303F515
:101300007F33BFF34F8F3149203BC1F86822203231
:10131000002BF9DCBFF34F8FBFF36F8F4FF4FA70E0
:101320002B4E06F0BBFF2B4D2BF0AEFE2A4FFFF7E6
:10133000C1FEFFF75FFF02F08DF80446006816F06B
:10134000C9F9FFF74BFF0146204602F023FD02F0EA
:1013500033FE044602F030FE001BB0F5FA7F14D3D2
:1013600002F02AFE4FF480510446304603F0E1FFBC
:101370002B7853B13968194A19483EF0EBFA00232B
:10138000032118482B7001F07FF8012031F01AFF7B
:10139000FFF780FF2FF0D8F9DCE7C82006F07EFFCA
:1013A0008EE700BF180B0020900000208C0000206A
:1013B0006F0B04081C0B0020810B0408B4490020AB
:1013C0008A000020500700209400002000ED00E07B
:1013D00000180258480500204C0500205005002048
:1013E0008F0B0408A80B040810B59CB04C220021F8
:1013F00009A83EF051FB2022002101A83EF04CFB41
:10140000022004F0CBF900230093234B9A6942F4A5
:1014100040429A619A6902F4404200921F4AD16A9E
:1014200041F00101D162D26A02F001020092009AF9
:101430009A699404FCD54FF4803301210520C02221
:101440000824CDE909130223CDE91233CDE916337F
:1014500018930023CDE9140209A81B93CDE9194381
:1014600004F0C0F908B172B6FEE73F22032304215D
:10147000CDE9012340234FF48062CDE903040DEB55
:101480000100CDE90533CDE9072304F0F5FC08B1EF
:1014900072B6FEE71CB010BD0048025800040058A8
:1014A0002DE9804897B010220021002409A80125C9
:1014B0003EF0F2FADFF88C8302F002FE48F21F736E
:1014C00009A8ADF82450CDE90A4340F201130C936A
:1014D00002F014FECB4B09A88DF825508DF8314051
:1014E000CDE90A8302F00AFE022309A88DF82E40F6
:1014F0008DF82530C44B8DF831500A9308238DF8B0
:1015000033508DF82C3002F0F9FD032309A88DF833
:1015100031408DF825304FF040438DF833400A9329
:1015200016238DF82C3002F0E9FD042002F0D6FDE0
:10153000B64B5A6912F4003211D1BFF34F8FBFF38B
:101540006F8FC3F85022BFF34F8FBFF36F8F5A696D
:1015500042F400325A61BFF34F8FBFF36F8FAB4A33
:10156000536913F4803323D1C2F88430BFF34F8F13
:10157000D2F8803043F6E074C3F3C900C3F34E33AE
:101580005B0103EA0406014646EA81750139C2F8A7
:101590006052F9D2203B13F1200FF2D1BFF34F8FED
:1015A000536943F480335361BFF34F8FBFF36F8FA1
:1015B00002F0C8FC0024FFF717FF1422002109A83D
:1015C0003EF06AFA924B01219248D3F8E0200126BE
:1015D0004FF48059904D42F004024FF0020B4FF04F
:1015E00004081027C3F8E020D3F8E02002F004023A
:1015F0000192019AD3F8E02042F02002C3F8E020E3
:10160000D3F8E02002F020020292029AD3F8E02000
:1016100042F08002C3F8E020D3F8E02002F080021C
:101620000392039AD3F8E02042F00102C3F8E020CD
:10163000D3F8E02002F001020492049AD3F8E020EB
:1016400042F00202C3F8E020D3F8E02002F00202E8
:101650000592059AD3F8E02042F04002C3F8E0205A
:10166000D3F8E02002F040020692069AD3F8E02078
:1016700042F01002C3F8E020D3F8E02002F010029C
:101680000792079AD3F8E02042F00802C3F8E0205E
:101690000022D3F8E03003F008030893089B03F01E
:1016A00043FE00224FF488515C4803F03DFE0022C7
:1016B0004FF480515A4803F037FE09A95548CDE947
:1016C0000966CDE90B4403F041FD3C2309A95548C7
:1016D0000B94CDE9093403F039FD4FF4885309A97F
:1016E0004E48CDE90936CDE90B4403F02FFD4FF408
:1016F000184309A947480B94CDE9093403F026FDA6
:10170000942309A948480B94CDE9093403F01EFD40
:1017100009A94348CDE90996CDE90B4403F016FD2C
:1017200021464FF0807002F06FFC404B4FF0400EAE
:1017300009A92846AC60EC61CDF83CB0C5E900349D
:101740004FF48073C5E905E34FF40063C5E9083938
:101750004FF400534FF00309AB620723C5E9038739
:10176000CDE909B3CDE90B83CDE90D9B05F052FC22
:1017700008B172B6FEE72E4C4FF6FF72C4E9026064
:1017800021462846C4E9006705F06CFC824620B17A
:1017900028483EF04FF972B6FEE7304602F012FCE0
:1017A0004FF6FF7221462846C4E900B7C4E9026A31
:1017B00005F058FC20B120483EF03CF972B6FEE737
:1017C00008234FF6FF722146C4E902302846C4E9D7
:1017D000009705F047FC20B118483EF02BF972B68F
:1017E000FEE722234FF6FF7221462846A660E360FB
:1017F000C4E9008705F036FC30B311483EF01AF911
:1018000072B6FEE7100001030000043000ED00E0B6
:1018100000440258000002585807002000080258EF
:101820000018025800040258000C025840410052AF
:1018300038050020AC0B0408C30B0408DA0B0408BD
:10184000F10B04080000023000F062F907464FEA8D
:101850005008404600F060F982234246394603FBB7
:1018600000F464239348B4FBF3F423463EF072F88B
:101870002146284605F015FC2146284605F011FCB6
:1018800020B18D483EF0D6F872B6FEE78B4C8C4BFB
:101890002360A3F11E53A3F57A23A3F24F63C4E997
:1018A0000360C4E90130C4E90500C4E9070020462B
:1018B00003F048FD014608B172B6FEE7204603F08A
:1018C00096FD014608B172B6FEE7204603F0B5FD6D
:1018D000034608B172B6FEE77A484FF4E132DFF80A
:1018E00014C20361C0E900C20C22C0E90233C0E99E
:1018F0000523C0E90733C0E9093305F0F7FF08B154
:1019000072B6FEE700216F4806F05DF8014608B1A7
:1019100072B6FEE76B4806F076F808B172B6FEE7DD
:10192000684806F035F808B172B6FEE7664C4FF429
:10193000E133664F2061C4E900730C23C4E902005F
:10194000C4E90530C4E90700C4E90900204605F0F0
:10195000CDFF014608B172B6FEE7204606F033F827
:10196000014608B172B6FEE7204606F04CF808B111
:1019700072B6FEE7204606F00BF808B172B6FEE735
:10198000534C544BE065C4E900300223C4E9130012
:10199000C4E90230C4E91103C4E91500204602F08D
:1019A000D9FB08B172B6FEE72046012102F010FC17
:1019B000044608B172B6FEE70146342209A840F297
:1019C0000E253EF069F84448444B4FF000522E215A
:1019D00040F216268460848680F83640C0E90034E0
:1019E0004FF08053C0E903230323C0E905330F23DD
:1019F000C0E9071340F21F13C0E9095340F227134F
:101A0000C0E90B6303F0CCFD08B172B6FEE74FF4FA
:101A1000887302204FF4806400224FF4F071149315
:101A20000B92ADF854208DF85620CDE90C30FF20F4
:101A3000CDE90E000520CDE910402948CDE9092166
:101A4000CDE9120109A9244803F05EFE064608B15B
:101A500072B6FEE702462146224803F065FC642088
:101A600002F0B0FA214601221E4803F05DFC4FF45B
:101A7000FA7002F0A7FA01224FF48071194803F0BE
:101A800053FCFA2002F09EFA0122174D09AC1146D0
:101A9000164803F049FC0FCD0FC495E8070084E811
:101AA0000700314609A806F0D1FB114B186006F07B
:101AB000C1FBFEE7080C0408F10B04085C090020D8
:101AC000001C0058200800208C0700200044004023
:101AD000B009002000100052B4080020001000508F
:101AE0000004042400080258900A04080000025868
:101AF00054070020001001400268034B9A4201D1B4
:101B000002F04EBA704700BF0000014072B6FEE717
:101B100000487047342B530B02460D4B0D480021F3
:101B200010B543F60954E2FB040183424FF004036D
:101B30008B4106D204A3D3E90023FEF739FF143802
:101B400010BD0120FCE700BF00CA9A3B0000000066
:101B5000FF91B2E30065CD1D0A4B82B00F216FF0FB
:101B60000100D3F8F42042F00202C3F8F42000226E
:101B7000D3F8F43003F002030193019B02B002F0AA
:101B80005FBA00BF00440258026882B0084B9A4214
:101B90000CD1084BD3F8D42042F01002C3F8D42063
:101BA000D3F8D43003F010030193019B02B07047C7
:101BB000001000520044025810B5B8B00446142278
:101BC000002103A83DF068FFC022002108A83DF0D5
:101BD00063FF22681A4B9A4230D11022002308A8D2
:101BE000CDE9082304F0CAFB08B1FFF78FFF154CBD
:101BF0004FF4405203A91448D4F8E03043F00803EE
:101C0000C4F8E030D4F8E03003F008030193019BFE
:101C10001223CDE903230023CDE9053304230793E1
:101C200003F094FAD4F8F43043F08003C4F8F430AD
:101C3000D4F8F43003F080030293029B38B010BD57
:101C4000001C005800440258000C02582DE9F043D3
:101C5000BDB004461422002107A83DF01DFFC0229C
:101C600000210CA83DF018FF22687A4B9A4240F000
:101C7000EE804FF0005200230CA8CDE90C238C23FA
:101C80001022CDE916230223CDE9183324231A9319
:101C900004F074FB08B1FFF739FF6F4B00240325F4
:101CA0000226D3F8E4200E274FF4806807A942F0FB
:101CB00008026A484FF0C009C3F8E420D3F8E420D2
:101CC00002F008020092009AD3F8E02042F02002CD
:101CD000C3F8E020D3F8E02002F020020192019A3C
:101CE000D3F8E02042F00102C3F8E020D3F8E0206E
:101CF00002F001020292029AD3F8E02042F00202BE
:101D0000C3F8E020D3F8E02002F002020392039A25
:101D1000D3F8E02042F04002C3F8E020D3F8E020FE
:101D200002F040020492049AD3F8E02042F0040248
:101D3000C3F8E020D3F8E02002F004020592059AEF
:101D4000D3F8E02042F00802C3F8E020D3F8E030F6
:101D50000B9703F008030693069BCDE90786CDE9B0
:101D6000094503F0F3F94FF41E7307A93C480B979C
:101D7000CDE90736CDE9094503F0E8F9092307A9BC
:101D800038480B93CDE90756CDE9094503F0DEF954
:101D90004FF4706307A933480B97CDE90736CDE9B7
:101DA000094503F0D3F907A92F480B97CDE907960A
:101DB000CDE9094503F0CAF907A92C480B97CDE9ED
:101DC0000796CDE9094503F0C1F94FF4007307A95F
:101DD0002648CDE907360A23CDE909450B9303F0E0
:101DE000B5F94FF4807307A91D48CDE907360D23D7
:101DF000CDE909450B9303F0A9F90C2307A918486D
:101E00000B93CDE90786CDE9094503F09FF9082337
:101E100007A917480B97CDE90736CDE9094503F027
:101E200095F9402003F02EFB802003F02BFB224687
:101E30000521582002F004F9582002F033F9592006
:101E40002246052102F0FCF8592002F02BF93DB0A2
:101E5000BDE8F083001000500044025800140258FE
:101E600000000258000402580018025800080258E6
:101E7000000C025810B51422BAB0044600210DEB34
:101E800002003DF009FEC02200210AA83DF004FE38
:101E90002368344A934232D1012200230AA8CDE9B3
:101EA0000A2304F06BFA08B1FFF730FE2E4B4FF413
:101EB00040412E48D3F8F02042F01002C3F8F02041
:101EC000D3F8F02002F010020192019AD3F8E0203A
:101ED00042F00202C3F8E020D3F8E03003F002033E
:101EE0000293029B0223CDE90513002305A9CDE946
:101EF00007330423099303F029F93AB010BD1C4AB3
:101F00009342FAD1022200230AA8CDE90A2304F061
:101F100035FA08B1FFF7FAFD134B05A91548D3F8B8
:101F2000E82042F40032C3F8E820D3F8E82002F4B5
:101F300000320392039AD3F8E02042F00802C3F87B
:101F4000E0206022D3F8E03003F008030493049B00
:101F50000223CDE905230023CDE9073307230993A5
:101F6000C9E700BF001001400044025800040258B5
:101F700000440040000C0258F0B5B7B00021142214
:101F800001A83DF089FD354B1968002963D1012274
:101F90000EA81A60A0223DF07FFD4FF08072002352
:101FA00006A8CDE9062306224523CDE9082302230E
:101FB0000422CDE90A3280220C9318930D9204F08A
:101FC000DDF908B1FFF7A2FD254B02270026032506
:101FD000D3F8D4200C2401A9224842F48052C3F83B
:101FE000D420D3F8D430059403F480530093009B9D
:101FF0004FF63F03CDE90365CDE9013703F0A6F8BD
:102000000D2301A918480594CDE90137CDE90365F1
:1020100003F09CF848F2331301A914480594CDE964
:102020000137CDE9036503F091F84FF6837301A9F9
:102030000F480594CDE90137CDE9036503F086F833
:102040004CF2037301A90B480594CDE90137CDE9A2
:10205000036503F07BF837B0F0BD00BF180A00201D
:102060000044025800140258000802580018025890
:1020700000100258000C02580F2810B504468AB010
:1020800002D901200AB010BD01460022192001F03A
:10209000D7FF192002F006F8164B694602A81C600B
:1020A000154B164CD3F8F02042F00102C3F8F02093
:1020B000D3F8F03003F001030193019B04F048F8DA
:1020C00004F034F80E4B4000236040F2E733E36045
:1020D0000C4BB0FBF3F00138002360602046236115
:1020E000A36005F02DF90028CBD1204604F0F2FFC3
:1020F000C8E700BFA4000020004402581C0A0020CA
:102100000000014040420F00FEE7FEE7FEE7FEE769
:10211000FEE77047014805F01FB800BF1C0A002009
:10212000014802F0F2BC00BFA40B0020014803F0FC
:102130008EBA00BFB4080020FFF7F8BF0120704737
:10214000024B16224FF0FF301A607047F4BF002098
:10215000014B16221A60FEE7F4BF002070B50D4651
:1021600014460E46731B9C4201DC204670BDAFF343
:10217000008006F8010BF5E770B50D4614460E46D3
:10218000731B9C4201DC204670BD16F8010BAFF3B7
:102190000080F5E74FF0FF3070474FF40053002008
:1021A0004B60704701207047002070470A4A034681
:1021B000116810B509B9094911601068084C09493E
:1021C0000344091B8B4283BF074B0C224FF0FF30A7
:1021D000136088BF1A6010BD680A002028C3002061
:1021E0000004000000000220F4BF00202E4AD2F8B4
:1021F000883043F47003C2F888302C4A136803F027
:102200000F03062B05D8136823F00F0343F00703D1
:102210001360274B1A6842F001021A6000221A610B
:10222000244A19680A4021491A600A68100705D52E
:102230000A6822F00F0242F007020A6000221E49DB
:102240009A61DA611A6299621C49D9621C49196360
:102250005A639963DA6319645A64196821F4802116
:1022600019601A66174B1B686FF30F03B3F1005F19
:1022700003D2154B0122C3F808210D4BD3F8D4200B
:10228000D2040FD4D3F8D42043F2D20142F48052C6
:10229000C3F8D4200D4A1160D3F8D42022F4805220
:1022A000C3F8D420704700BF00ED00E000200052CA
:1022B000004402587FEDF6EA000202020000FF012E
:1022C000800201010010005C0080005100400052BB
:1022D000044BDA6842F00202DA605A689204FCD5D4
:1022E000704700BF004802580020704708B50448F6
:1022F0003DF030FB0023034A1360034A137008BD0E
:10230000390C04086C0A00205007002038B5054637
:1023100009F080FB044618B910483DF08BFB0BE038
:102320000F492A4608F046FF014638B10D483DF0F6
:1023300011FB204609F024FC002038BDFF21204677
:1023400008F0F4FF08B90848E7E7084909F0E8F899
:1023500007483DF06FFB0120EFE700BF570C040872
:1023600038320808700C04088F0C0408DD240008BB
:10237000A70C04081FB50B6801A901936FF07F43F8
:102380000293136802AA039303AB08F0FFF905B0A8
:102390005DF804FB0A8908B5B0F8643093420AD9A5
:1023A000496801230BF03EFB014648B10548BDE8F2
:1023B00008403DF0CFBA0448BDE808403DF03ABBC4
:1023C00008BD00BFC90C0408EA0C04082DE9F0415F
:1023D0000E461D4614465AB923483DF02BFB3046A5
:1023E00009F0CEFB214B1C60214B1C70002507E03F
:1023F0004BB119461F483DF0ADFA204608F0CEFB20
:102400002846BDE8F08112898AB1B2F5007F616883
:10241000194BDFF87080194F15D218463DF0A3FB19
:10242000228985542389C8F8003001233B70214656
:102430003046FFF7AFFF3046218908F0B1FF204654
:1024400008F0ACFBD2E740F2FF1218463DF08BFBE0
:102450004FF4007380F8FF51C8F80030012308489A
:102460003B703DF0E7FAE2E70E0D04086C0A00202D
:10247000500700202F0D04085005002048050020BB
:10248000420D04084C05002038B5104D04460A469C
:102490002868C0B1B0F864308B420FD921460123BF
:1024A0000BF0C0FA014620B10948BDE838403DF0C4
:1024B00051BA2868BDE838400CF004B80548BDE8BA
:1024C00038403DF0B7BA0448F9E700BF6C0A002075
:1024D000C90C0408EA0C04085A0D040810B5264873
:1024E0009EB00C463DF0A6FA244B01222921244837
:1024F0001C60244B1A70FFF7C7FFFA2005F0CEFED0
:10250000214A224905A8D378019393780093537800
:1025100012783DF08BF805A8FEF79CF981B205A86A
:10252000FFF7B2FFFA2005F0B9FE194B194A05A8CA
:102530001B8819490293D3780193937800935378B9
:1025400012783DF073F805A8FEF784F981B205A86A
:10255000FFF79AFFFA2005F0A1FE20460F4908F088
:1025600097FF20460E4908F0ABFF20460D4908F0C2
:10257000BFFF00201EB010BD730D04086C0A0020C0
:10258000840D04085007002090000020AE0D0408C0
:102590008A0000208C000020CC0D0408CD23000808
:1025A000E9220008ED22000830B5044687B0002873
:1025B00056D0B0F85C30B0F85050AB4298BF002510
:1025C000D0F88C305BB16B1C1021264A68469BB258
:1025D0002EF0B2F96946D4F88C0036F0DDFFE36FD7
:1025E0005BB1214B1821214A684633F835302EF073
:1025F000A3F96946E06F36F0CFFFD4F880306BB1B5
:10260000194B1821194A684603EBC5035B882EF065
:1026100093F96946D4F8800036F0BEFFD4F88430D0
:102620006BB1114B1821114A684603EBC5039B8817
:102630002EF082F96946D4F8840036F0ADFFD4F864
:1026400088306BB1084B0821094A684603EBC50383
:102650009B792EF071F96946D4F8880036F09CFF1A
:1026600007B030BDF30D040800000020FB0D040886
:10267000FE0D040870B5044688B3806E08B12EF0D4
:102680005BF8FEF7ABFD0646FEF7AEFD216E054694
:1026900041B116B1304626F0B5FF1DB1216E284676
:1026A00026F0B0FF606E18B10DF06AFF002363667C
:1026B00000256068256618B113F056FBC4E9015582
:1026C0000023E360C4F88C30E366E3672367C4F853
:1026D00080306367C4F88430A367C4F8883070BD65
:1026E00010B52EF0FBF8144903460A683AB10024ED
:1026F000052A0C6004D15B6863B1FFF7BBFF10BD16
:10270000062AF8D0022A0ED15B683BB1BDE8104022
:10271000FFF7B0BF09483DF01DF9F0E70748BDE8F5
:1027200010403DF017B9012AEED0042AECD0032A5C
:10273000EAD0072AE8D0E2E720050020010E0408CD
:1027400038B504460D462DF009FB294620462DF0EC
:102750000BFB294620462DF0F5FA29462046BDE818
:1027600038402DF0F5BA38B505462CF019FB044673
:1027700028462CF00FFB0A2804D12046BDE838403B
:10278000FFF778BF38BD000070B515460E4631F032
:102790006DFF00220D49044612F06AFD25B10022AA
:1027A0000B49204612F064FD02220A49204612F02D
:1027B0005FFD204636F020FB0546314636F0ECFE44
:1027C000284611F047F8204670BD00BFBC0A002023
:1027D000A40A0020B00A002038B505462CF0E0FA23
:1027E000044628462CF0D6FA0346B4B1606EA0B178
:1027F0000A2B09D10EF06FF880F00101606EC9B2AA
:10280000BDE838400EF000B8112B06D128460FF075
:10281000C5FC0A2801D1606EECE738BD38B5054625
:102820002CF0BEFA044668B128462CF0B3FA0A2808
:1028300008D1B4F85000FEF751FA2046BDE8384000
:10284000FFF718BF38BD10B5044613F079F938B159
:1028500013F0B0F9411E2046BDE8104013F05BBBF9
:1028600010BD70B50D46044688B381B308460DF01F
:10287000D1FEE36C4BBB216B11B128460DF075FF07
:10288000616B11B128460DF070FFA16B11B12846A4
:102890000DF06BFFE16BD1B12846BDE870400DF043
:1028A00064BFB2B253F8221011B128460DF05DFF9B
:1028B0000136B4F85C10B2B2E36C9142F1D81868FA
:1028C0000028D8D00DF0C2FFD5E70026F1E770BD93
:1028D00038B504460D46002213F02AF82946204652
:1028E000002213F02CF829462046002213F012F89B
:1028F000294620460022BDE8384013F012B80000F7
:1029000038B50D4636F078FA0446294636F044FECE
:10291000204600220249BDE8384012F0A9BC00BFA1
:10292000980A0020F7B50E461D460192089F36F022
:1029300063FA0446314636F02FFE394620460FF042
:10294000A9FD01992046002213F04FF829462046A0
:10295000002213F060F80421204603B0BDE8F040E7
:1029600036F098BEF0B5054685B00846164631F0FB
:102970007DFE0446012105EB860529F0C5FA2046B7
:1029800020210FF0A0FD00222046062113F04AF876
:1029900020460021FFF79CFF00223321204612F041
:1029A000F9FF25482BF019FFC0F307238DF80C0021
:1029B000C0F307408DF80D3000228DF80E00204640
:1029C000039912F0D8FF02222046114613F006F8B0
:1029D0001A482BF002FFC0F307238DF808000222EB
:1029E0008DF80930C0F3074320468DF80A3002996C
:1029F00012F0DEFF204636F0FFF91149074636F0A7
:102A0000CBFD10482BF0E9FEC0F307238DF804003E
:102A100000228DF80530C0F3074338468DF80630A4
:102A2000019912F0E2FF384610F014FF2046EC66E0
:102A3000EF6705B0F0BD00BF342B1C00C7E02D00D0
:102A400039310408EEE6DD002DE9F04F04468BB085
:102A5000002800F028824568002D40F0248214F000
:102A600091FFA9460EF016FA606012F0A7FB4FF432
:102A700088724FF4F07160680FF03EFD2A462946D7
:102A800060680FF0FAFC2A467F21606812F082FF2E
:102A900066682BF0F7FEC0F307238DF80C00C0F337
:102AA00007408DF80D302A468DF80E003046039908
:102AB00012F061FF022160680EF06AFC23460A22D0
:102AC000D64960680FF040FB60680EF0E3F9A06043
:102AD00012F074FBB5224FF4A071A0680FF00CFD4A
:102AE000A06810F0B7FE2A46FF21A06812F052FF3E
:102AF000CB48A6682BF071FEC0F307238DF81000B9
:102B0000C0F307402A468DF811308DF81200304688
:102B1000049912F030FF2A460A21A06812F082FFC1
:102B20002A460221A06812F059FFBE48A6682BF081
:102B300054FEC0F307238DF81400C0F307402A4663
:102B40008DF815308DF816003046059912F030FFDB
:102B50000C21A068FFF7BCFE2A460821A06812F0ED
:102B6000F5FE0121A06829F0ABF9A06836F044F920
:102B7000AD49C4F88C0036F00FFDAA48D4F88C603B
:102B80002BF02BFEC0F307238DF81800C0F307408D
:102B90002A468DF819308DF81A003046069912F041
:102BA00024FF2A46A149D4F88C0012F02DFFA0681A
:102BB0000EF070F9064612F001FB9D493046DFF831
:102BC00084820FF067FC122130460FF07CFC29460E
:102BD000304629F075F92A460821304612F0BDFE2C
:102BE0000223904D05211A46304629F075F93046EA
:102BF00009F1010936F000F958F8041B074636F0D0
:102C0000CBFC28462BF0E9FDC0F307238DF81C0010
:102C100000228DF81D30C0F3074338468DF81E3072
:102C2000079912F0E2FE0121384629F06DF90022E1
:102C30000221384612F0EFFEB9F1040FD7D1A06897
:102C40000EF028F9054612F0B9FA79492846DFF85E
:102C5000F8B10FF01FFC2846012129F055F928464C
:102C6000002129F02DF90223284605211A4629F0D2
:102C700033F928460022082112F06FFE294600226F
:102C80002046FFF76FFE2946804601222046FFF7C7
:102C900069FE2946824602222046FFF763FE294646
:102CA000814603222046FFF75DFE2346002261494C
:102CB000019040460FF048FA234600225D495046F5
:102CC0000FF042FA234600225A4948460FF03CFAD8
:102CD00023460022574901980FF036FAA06831F0D8
:102CE000C5FC222252490546E0600FF005FC52481F
:102CF0002BF073FDC0F307238DF82000C0F30740CD
:102D00008DF8213000228DF822002846089912F013
:102D100032FE0022FF21284612F03CFE002206214E
:102D2000284612F07FFE00220121284612F056FEAE
:102D30003C482BF052FDC0F307238DF82400C0F36C
:102D400007408DF8253000228DF826002846099985
:102D500012F02EFE0A222346384928460FF0F4F9D5
:102D6000284636F049F80646354936F015FC304617
:102D700010F070FDDBF8003023660DF0E7FB012159
:102D800060660DF01FFD0021606E0DF03DFDFEF749
:102D900025FA0746FEF728FA06461FB1616E384647
:102DA00026F030FC1EB1616E304626F02BFC414609
:102DB000606E0DF0DAFC5146606E0DF0D6FC4946AF
:102DC000606E0DF0D2FC0199606E0DF0CEFC2946CC
:102DD000606E0DF0CAFC40460DF038FD2046FFF74E
:102DE000E3FB1FB1616E384626F00CFC1EB1616E2C
:102DF000304626F007FCDBF8003023660DF0A6FB1A
:102E0000012160660DF0DEFC0021606E0DF0FCFC1F
:102E1000E7B1616E384626F0F5FB17E0672700083A
:102E200018110B00C7E02D000F0E0408F4940808D9
:102E300064000020D9270008342B1C001D2800083E
:102E4000060E0408C4300808F80A00201EB1616E9E
:102E5000304626F0D7FB4146606E0DF086FC5146A9
:102E6000606E0DF082FC4946606E0DF07EFC0199AB
:102E7000606E0DF07AFC2946606E0DF076FC4046DF
:102E80000DF0E4FCA06E58B92246012107482DF050
:102E90001BFCA06620460BB0BDE8F04FFFF784BBDB
:102EA0002DF0FEFCF6E70BB0BDE8F08F41330008D3
:102EB000F8B505462BF074FF044628462BF068FF52
:102EC000064628462BF066FF24B3A0F10A02092A21
:102ED00020D840F28123D340DB071BD5B4F85C1027
:102EE00000239AB2914207D9E76C57F82370013357
:102EF000B742F6D1A4F85020112809D128460FF086
:102F00004DF90A2806D12046BDE8F840FFF79CBDE0
:102F10000A28F3D0F8BD000010B586B0E8B1836D83
:102F2000DBB1B0F85C00884217D9042A15D853F8F1
:102F3000213053F8224084B1013A032A03D8DFE854
:102F400002F00E13181D4B1C0F4A182168462DF075
:102F5000F3FC6946204636F01FFB06B010BD0B4B54
:102F600033F831300A4AF0E7084B03EBC1035B88C2
:102F7000F8E7064B03EBC1039B88F3E7034B054AD5
:102F800003EBC1039B79E0E70C0E0408000000206E
:102F9000120E0408FE0D04082DE9F04F0D4691B005
:102FA0000446002800F0DF80002900F0DC80016486
:102FB000084612F00FFF01212846D44F28F080FF69
:102FC000082128460BAEFFF783FC00220621284685
:102FD00012F0BCFC28460DF05DFF606412F0EEF8C4
:102FE000CB49606C0FF056FA1421606C0FF06BFA4D
:102FF0000022606C114612F0CDFC00220621606CAC
:1030000012F0ABFC0021606C28F05AFF0FCF0FC606
:103010003B68C0483360666C2BF0DFFBC0F30723CE
:103020008DF81400C0F30740BB498DF815303423E8
:103030008DF816003046059A00930123FFF772FCC5
:10304000B448666C2BF0C9FBC0F307238DF8180059
:10305000C0F30740B1498DF8193038238DF81A00B4
:103060003046069A482600930223FFF75BFCA948E6
:10307000676C2BF0B2FBC0F307238DF81C00C0F384
:103080000740A7498DF81D3002238DF81E003846F1
:10309000079A0096FFF746FC9E48676C2BF09DFB55
:1030A000C0F307238DF82000C0F307409D498DF839
:1030B000213002238DF822003846089A0027009616
:1030C000FFF730FC9348666C2BF087FBC0F30723B7
:1030D0008DF82400C0F3074093498DF8253028234C
:1030E0008DF826003046099A00930223FFF71AFC58
:1030F00028460DF0CFFEA06412F060F8844AA06C60
:1031000011460FF0F9F90022A06C114612F042FCB2
:1031100000220421A06C12F019FC0121A06C28F0FF
:10312000CFFE0C21A06C10F02CFC0321A06C10F041
:1031300010FCB4F85C0080002DF03EFC6065B4F833
:103140005C0080002DF038FCA065B4F85C008000C5
:103150002DF032FCA4F85070E0641FFA87F9B4F83F
:103160005C304B4502D811B0BDE8F08FBEB2656D42
:1031700014204FF0000B2DF01FFC45F82600A56D24
:1031800014202DF019FC45F826004FEA860AA06CA1
:103190000DF080FE054612F011F8102128460DF0C2
:1031A000B2FE5B4928460FF075F9182128460FF04A
:1031B0008AF900220621284612F0CFFB00220221C4
:1031C000284612F0D1FB00220621284612F0B0FB5F
:1031D00000220621284612F0B2FB0021284628F0E2
:1031E0006FFEE36C4FF48061284643F826500EF0E2
:1031F000CFF84FF4804128460EF0CAF8234600224B
:103200004A4928460EF0A0FF00224949284612F0FC
:103210002FF802224749284612F02AF8BBF1000F86
:103220001FFA8BF32846039314BF02230123029352
:103230000BAB53F82B8031F019FA064611F0BEFFA4
:1032400041461A2230460FF057F900220421304639
:1032500012F0E8FB02213046FFF73AFB002230462D
:10326000114612F097FB00223046114612F0AFFBD8
:10327000022130460DF047FE304635F0BDFD804658
:103280002D4936F089F9404621490FF003F9002213
:103290004046029912F0BFFB0421404636F0FAF98D
:1032A000404610F0D7FA0021304612F04CFC804620
:1032B000BBF1000F27D117482BF08FFAC0F307227C
:1032C0008DF82800C0F307408DF8292000228DF8E2
:1032D0002A0040460A9912F088FB626D4946204652
:1032E00052F80A2042F82B60A26D52F80A2042F8E8
:1032F0002B800BF1010B039AFFF70EFEBBF1050FBC
:103300008CD1013729E70D48D6E700BFAC0A040885
:1033100064000020E9F69F000F0E0408180E040850
:103320001B0E0408210E0408270E0408B12E000805
:10333000800A0020740A0020510B0408EEE6DD002C
:1033400070B52DF0CBFA0446E0B14368D3B1406EBE
:10335000C0B10DF0C0FAA8B1FDF73EFD002811D0B4
:10336000606ECCBF01264FF0FF3658B10DF031FA38
:1033700004F16803002253F8041F884240D0013250
:10338000042AF8D170BD03EBC502E900528832442B
:10339000561C07D042F20F708242A8BF02460B446F
:1033A0005A8047E00022FAE703EBC502E900928861
:1033B0003244501C07D042F20F708242A8BF02462E
:1033C0000B449A8036E00022FAE703EBC502012E97
:1033D0004FEAC501927909D1462A0DD0522A08BF79
:1033E000422218BF46220B449A7123E0462A05D098
:1033F000422A08BF5222F4E75222F4E74222F2E7BF
:10340000B4F85050B4F85C30AB42BBD9022A104B30
:10341000CAD0032AD9D0012AB5D033F8352042F2D8
:103420000F7132448A42A8BF0A46012AB8BF01225E
:1034300023F8352000262046FFF7B6F8B2B2013651
:1034400029462046FFF768FD052EF7D19AE700BF11
:1034500000000020D04B2DE9F0431D789BB0002DDB
:1034600040F03B820124CD481C702CF0FFFACC4880
:103470002BF0B3F9C0F307238DF86400C0F30740C5
:103480008DF865308DF866001999C4482CF07EFCE3
:10349000FF21C2482CF088FC2946C048FFF750F9AC
:1034A0002946BE482CF0AEFCBE482CF0DFFABE48E0
:1034B0002BF093F9C0F307238DF86000C0F30740A9
:1034C0008DF861308DF862001899B6482CF05EFCDA
:1034D000FF21B4482CF068FC0A21B2482CF03EFCD5
:1034E0000A21B0482CF040FC0621AE482CF02AFC02
:1034F0000621AC482CF02CFCAC482CF0B7FAAA48BA
:103500002BF06BF9C0F307238DF85C00C0F3074084
:103510008DF85D308DF85E001799A4482CF036FCCC
:10352000FF21A2482CF040FC0A21A0482CF016FCF8
:103530000A219E482CF018FC06219C482CF002FC25
:1035400006219A482CF004FC99482CF08FFA9948EF
:103550002BF043F9C0F307238DF85800C0F3074060
:103560008DF859308DF85A00169991482CF00EFCC0
:10357000FF218F482CF018FC8F482BF02EF9C0F358
:1035800007238DF85400C0F307408DF855308DF8AF
:103590005600159986482CF021FC214684482CF0D1
:1035A00031FC0A2182482CF0D3FC08218048FFF727
:1035B000C7F882482CF05AFA0A2180482CF0C8FC3F
:1035C0007F482BF00AF9C0F307238DF85000C0F3B1
:1035D00007408DF851308DF85200149977482CF03F
:1035E000D5FBFF2175482CF0DFFB73482BF0F5F875
:1035F000C0F307238DF84C00C0F307408DF84D3021
:103600008DF84E0013996D482CF0E8FB21466B486D
:103610002CF0F8FB6B482BF0E0F8C0F307238DF893
:103620004800C0F307408DF849308DF84A001299E0
:1036300062482CF06DFC0A216048FFF781F862486F
:103640002CF014FA61482BF0C8F8C0F307238DF86A
:103650004400C0F307408DF845308DF846001199BD
:1036600059482CF0E7FB032157482CF0DDFB0221E1
:1036700055482CF0F3FB56482CF0F8F955482BF040
:10368000ACF8C0F307238DF84000C0F307408DF875
:1036900041308DF8420010994D482CF077FB4B4893
:1036A0002BF09BF8C0F307238DF83C00C0F30740D4
:1036B0008DF83D308DF83E000F9945482CF08EFB7B
:1036C000214643482CF09EFB43482BF086F8C0F37C
:1036D00007238DF83800C0F307408DF839308DF896
:1036E0003A000E993A482CF013FC3C482CF0BEF9F5
:1036F00040F2E73139482CF02BFC36482BF06DF8BE
:10370000C0F307238DF83400C0F307408DF835303F
:103710008DF836000D9931482CF038FBFF212F48E9
:103720002CF042FB24482BF058F8C0F307238DF807
:103730003000C0F307408DF831308DF832000C991D
:1037400026482CF04BFB214624482CF05BFB0A2139
:1037500022482CF003FB0A2120482CF005FB042111
:103760001E482CF0EFFA04211C482CF0F1FA1A48FC
:103770002BF033F8C0F307238DF82C00C0F307407B
:103780008DF82D308DF82E000B9914482CF0C0FBCD
:1037900013482CF06BF925E0700A0020EC0A002099
:1037A000110C0700E00A002017100A00D40A0020BC
:1037B000C80A002018110B00342B1C00BC0A002082
:1037C00022180E00EEE6DD00B00A0020C7E02D0052
:1037D000A40A002030240F00E9F69F00980A002078
:1037E0008C0A0020D6482AF0F8FFC0F307238DF892
:1037F0002800C0F307408DF829308DF82A000A9977
:10380000D0482CF0C3FAD0482AF0E7FFC0F30723D2
:103810008DF82400C0F307408DF825308DF8260080
:103820000999C8482CF0DAFAC8482AF0D6FFC0F344
:1038300007238DF82000C0F307408DF821308DF864
:1038400022000899BF482CF063FBC1482CF00EF908
:103850000A21BF482CF07CFB2946BD482CF0A4FA75
:10386000BC482CF003F9BC482AF0B7FFC0F307238B
:103870008DF81C00C0F307408DF81D308DF81E0038
:103880000799B4482CF082FAFF21B2482CF08CFA48
:10389000B2482AF0A2FFC0F307238DF81800C0F346
:1038A00007408DF819308DF81A000699A9482CF0B8
:1038B000C1FA2146A7482CF0B7FA2946A5482CF0B2
:1038C000CDFA0A21A3482CF043FB2146A1482CF055
:1038D00045FA21469F482CF047FA942101203BF0FD
:1038E000CBFD0446002800F0348213F083FC00284E
:1038F00000F0338213F08EFC064613F07BFC0028A8
:1039000000F02E8213F096FC07460020A7F1540821
:103910000DF0C0FA00229249206011F0A9FC10219C
:1039200020680DF0F0FA3A46314620680EF0E4FDCA
:1039300020680DF0AFFAA06111F040FC1021A069E1
:103940000DF0E1FA24220021A0690EF096FDA7F106
:1039500048023146A0690EF0CFFD0621A069FEF7AE
:10396000B7FF0022A069114612F014F80021A069E7
:1039700028F0A6FA00220621A06911F0EEFFA06946
:103980000DF088FA81460022764911F071FC42461A
:103990004846A6F18A010EF0AFFD102148460DF011
:1039A000B2FAA0690DF076FA054600226D4911F0D1
:1039B0005FFC424628464FF0100878210EF09CFD2F
:1039C000284610210DF09FFA49462046A4F85C8055
:1039D000FFF7E2FA2846012128F072FA00220821B6
:1039E000284611F0B3FF284635F006FA5E498146B5
:1039F00035F0D2FD5D482AF0F0FEC0F307238DF8C4
:103A0000040000228DF80530C0F3074348468DF8C6
:103A10000630019911F0E9FF28465549FEF770FF7D
:103A200028465449FEF76CFF53492846FEF768FFC5
:103A3000284635F0E1F95149054635F0ADFD5048CD
:103A40002AF0CBFEC0F307238DF8080000228DF882
:103A50000930C0F3074328468DF80A30029911F067
:103A6000C4FF20680DF016FA606111F0A7FB414613
:103A700060690DF048FA0022606911460EF0FDFC05
:103A80002422314660690EF037FD3E4865692AF010
:103A9000A4FEC0F307238DF80C00C0F307400022FA
:103AA0008DF80D308DF80E002846039911F063FF54
:103AB0000022FF21606911F06DFF06216069FEF7A9
:103AC00007FF606935F098F905462F4935F064FD28
:103AD00000222E49284611F097FF2D482AF07DFE3E
:103AE000C0F307238DF8100000228DF81130C0F3C9
:103AF000074328468DF81230049911F076FF06220C
:103B0000082128460EF0B9FC606935F075F92149A5
:103B1000206235F041FD00221F49206A11F0A8FB08
:103B200000221E49206A11F06FFF02236FF0F90294
:103B30000321206A0EF02CFD606935F05DF92FE05D
:103B400010102A008C0A00204D4DFF00D3D3FF0037
:103B5000800A0020740A002030240F00C7E02D00E6
:103B6000EC0A0020C80A00202B0E0408E9F69F008A
:103B7000320E04083B0E0408460E04084F0E0408DB
:103B8000B5A38A0017100A006B0E0408A85F080886
:103B90006AB3D700760E0408980A0020CC320808D1
:103BA0007149E06235F0F8FC00227049E06A11F0DA
:103BB0005FFB00226E49E06A11F026FF02236FF0DE
:103BC00095020321E06A0EF0E3FC606935F014F918
:103BD0006849A06235F0E0FC00226449A06A11F057
:103BE00047FB00226249A06A11F00EFF02236FF02A
:103BF00054020321A06A0EF0CBFC606935F0FCF89A
:103C00005D49606235F0C8FC00225849606A11F0D5
:103C10002FFB00225649606A11F0F6FE02236FF076
:103C200005020321606A0EF0B3FC20680DF032F942
:103C3000E06111F0C3FA4146E0690DF064F9A7F1C3
:103C400024020021E0690EF018FC24223146E069CC
:103C50000EF052FC4948E5692AF0BFFDC0F3072386
:103C60008DF81400C0F3074000228DF815308DF850
:103C700016002846059911F07EFE0022FF21E0691A
:103C800011F088FE0621E069FEF722FE01223C4980
:103C9000E069FEF779FD002235492063A06A11F042
:103CA000B3FE19225C21206B0EF026FC00220621B7
:103CB000206B0EF0E2FB00223249E069FEF764FD62
:103CC00000222B496063A06A11F09EFE19225C213C
:103CD000606B0EF011FC00226A21606B0EF0CDFBD0
:103CE00000222949E069FEF74FFD00222049A06328
:103CF000A06A11F089FE19225C21A06B0EF0FCFB7A
:103D00000022A6F1C601A06B0EF0B7FB00221F49EE
:103D1000E069FEF739FD00221549E063A06A11F061
:103D200073FE19225C21E06B0EF0E6FB0022A6F187
:103D30006201E06B0EF0A1FB6069FEF784FDE069B3
:103D4000FEF781FD2246012111482CF0BDFCC4F88C
:103D5000900020461BB0BDE8F0834FF4F076CCE530
:103D60004FF48877D1E500BF840E0408980A00203C
:103D7000CC3208088A0E0408910E040817100A00B5
:103D8000980E04089E0E0408A30E0408A80E04084A
:103D9000E126000870B50D460446D0B10D4E3368DB
:103DA0002BB90CF0D3FB012130600CF00BFD366811
:103DB0001DB13146284625F025FCFDF715FA10B156
:103DC000314625F01FFC31462046BDE87040FEF725
:103DD00048BD70BDF80A0020DFF838D0FEF778FA49
:103DE000FEF704FA0C480D490D4A002302E0D458AE
:103DF000C4500433C4188C42F9D30A4A0A4C002335
:103E000001E013600432A242FBD33BF07DFEFDF7DC
:103E100047FB7047000002200000002074010020D2
:103E200004E208087401002024C30020FEE730B536
:103E300070B1CC6864B18A6852B10B6943B10D6846
:103E400049688560C1608361C0E90424002030BDF9
:103E50004FF0FF30FBE773B500234568044601933C
:103E6000A5B9836803B198472023002623606369BE
:103E700001AA122128469847002809DB019B03F07C
:103E80001F03AB4206D1256001236360002609E0D1
:103E90006FF004060135202DE9D123681F2B04D8CB
:103EA000002EF1D0304602B070BD6FF00206F9E787
:103EB00037B500254369044601AA01210068019530
:103EC0009847A84203DA6FF0040003B030BD63697D
:103ED00001AA0121206898470028F4DB019B5B07B9
:103EE0002CD5636901AA2946206898470028EADB97
:103EF000019BDD040ED403F40452B2F5045F01D13A
:103F00000220E2E7980401D50320DEE7D90513D4A7
:103F10000520DAE7636901AA1F2120689847002875
:103F2000D1DB019BDA040BD503F01C03182BE7D07F
:103F3000082BE9D0142BEBD10420C6E70120C4E7FD
:103F40000620C2E710B5032000F068F801F0F2FE89
:103F50000F49104A8B69C3F30323D35C03F01F039B
:103F6000D8408B6903F00F03D35C0B4A03F01F03A7
:103F700020FA03F31360094B18600F20FEF77CF85A
:103F8000044618B9FDF7E8FD204610BD0124FBE703
:103F900000440258B4340408980000209C0000201B
:103FA000034A044B11681B780B441360704700BF31
:103FB000FC0A0020A0000020014B1868704700BFD9
:103FC000FC0A002038B50446FFF7F6FF0546631CDF
:103FD0001EBF044B1B78E418FFF7EEFF431BA34200
:103FE000FAD338BDA0000020014B1868000C7047C0
:103FF0000010005C034A536823F4600303435360DA
:10400000704700BF00040058034A536823EA0003C6
:104010000B435360704700BF000400580749030278
:10402000CA6803F4E06322F4E0621204120C134342
:1040300043F0BF6343F40033CB60704700ED00E012
:10404000164B30B5DC68C4F30224C4F10703251D08
:10405000042B28BF0423062D4FF0FF358CBF033CF3
:10406000002405FA03F3002805FA04F521EA030306
:1040700022EA050203FA04F343EA02034FEA0313B8
:10408000DBB206DB00F1604000F5614080F80033F0
:1040900030BD00F00F00024A1354F9E700ED00E0D4
:1040A00014ED00E0002807DB0123410900F01F00A8
:1040B000024A834042F82130704700BF00E100E02F
:1040C000BFF35F8F044B5A6A22F480325A62002297
:1040D000C3F89420704700BF00ED00E0064B40F0AD
:1040E0000100C3F894005A6A42F480325A62BFF366
:1040F0004F8FBFF36F8F704700ED00E04378144A95
:10410000C2F89830D2F8A03023F00103C2F8A030F2
:104110004368C2F89C30C37A017B1B0643EA0173F3
:1041200001780B43817A43EAC143417B43EA8143EF
:10413000817B43EA4143C17B43EA0143417A43EA3D
:104140000123017A43EA4103C2F8A030704700BF5F
:1041500000ED00E010B50446002836D090F861303C
:1041600003F0FF021BB980F86020FDF70DFD02236C
:10417000E069626884F8613023680243A0691968C5
:1041800021F4E02121F040010A431A60596BA26832
:1041900021F48371024321F001010A43E1685A636B
:1041A0001A6C6FF30F020A431A64596BD4E90402C4
:1041B00021F44011520542EA005200200A435A639A
:1041C0000123606684F8613010BD0120FCE7000027
:1041D00070B590F8603002460220012B32D082F890
:1041E00061001C20012300FB012082F86030836BFA
:1041F000D0E90B451B0543EA0543C56B406B2343E0
:1042000043EA4553A4F10905012D96BF00F07F4014
:1042100043EA006303431068A9B9446A012D1949B0
:1042200001EA040141EA0301936A4162836103D810
:10423000536B23F07F4383620123002082F86130B7
:1042400082F8600070BD0B2C05BF1C240E4E0F4E73
:1042500004FB012404BF246C43EA8443C469012D98
:1042600024EA060443EA0403C3614FF01C0303FB82
:1042700001218B6A0361DFD84B6B23F07F4303621C
:10428000DAE700BFF0FFCC000F003FFF0F0033FF65
:1042900010B502680C688B68106823434C6920F0E5
:1042A0007F4023438C6920F47B0023434C6A20F435
:1042B000FE402343CC6A20F07C002343034308796B
:1042C00043EAC063087B43EAC053487B43EA805318
:1042D000887B43EA4053C87B43EA0053887C43EA27
:1042E0000043087F43EA0033487F43EAC023C87F86
:1042F00043EA402391F8280043EA0013087CB0FA0F
:1043000080F0400943EAC043487CB0FA80F040099D
:1043100043EA4043887FB0FA80F0400943EA8023B3
:1043200091F82000B0FA80F0400943EA0023C86BFE
:104330001360536823F07C5323F4EF2323F4FF63CB
:1043400023F0070343EA4063486B034391F83800C6
:1043500043EA006391F8300043EA804391F831006A
:1043600043EA404391F83200B0FA80F0400943EA52
:1043700000435360D368486C23F4877323F0010330
:10438000034391F8400043EA0023886CD360136F25
:1043900023F0F2031B041B0C43EA0043086D0343A4
:1043A00091F8540043EA400391F84C00B0FA80F0D1
:1043B000400943EAC0131367D2F8900091F85630D1
:1043C00020F00300034391F8550043EA4003886D51
:1043D000C2F89030D2F8003D23F072030343C86D59
:1043E000C2F8003DD2F8303D23F07B03034391F83F
:1043F000610043EA001391F8620091F8601043EA0B
:10440000C003B1FA81F1490943EA8113C2F8303D92
:1044100010BD00000368086803F580531A6822F491
:10442000F04222F00202024310B51A600A7B58687B
:104430000C79D20320F4504042EA04328C6820F018
:104440000100224302435A600A6A487BD3F80041C4
:1044500042EA0042104820400243C3F800214A7F4C
:10446000087D1203D3F8044142EA001208690243AE
:104470000A4820400243C3F80421D3F808010C7F06
:104480008A6920F0004142EAC47221F47C110A4397
:10449000C3F8082110BD00BF00C0FEFFEFEFC0FF52
:1044A0002DE9F74F846A019200EB84068D68B369A9
:1044B000DA68002A60DBF26A002A5DD1D1F8008058
:1044C00018F0040F2CD0DF6818F0080F4A6A6FF359
:1044D0000F0742EA07020768DA60DA6842F48032BE
:1044E000DA603A6E42F480123A6619D09A681FFA7E
:1044F00082FECA6A4EEA02429A60DA6842F40032E8
:10450000DA60DA6822F4402E0A6B4EEA0202DA60C0
:104510007A6E42F480127A663A6D42F080623A65B1
:1045200018F0100F09D09F688A696FF30D073A439E
:104530009A60DA6842F08062DA6018F014081FD0DE
:10454000DA6842F08042DA60BFF35F8F671CDA6896
:10455000032F42F0004288BFE71EDA6000EB8703BA
:104560009B69DA68002A80F28880B269BFF35F8FA6
:10457000D36823F00043D360022003B0BDE8F08F7E
:1045800027462A68DFF840E21A609A6822F47F5CC6
:104590006A682CF03F0C4CEA02029A60AA68002A72
:1045A0006ED015685D609D6805EA0E0C55684CEA92
:1045B00005459D60D1F800C0DD681CF0100F66D085
:1045C00025F4F00E0D6A4EEAC545DD60DD684FEA60
:1045D000954ECD694FEA8E4E4EEA0505DD60DD68E9
:1045E00045F48025DD601CF0040F06D09D6825F49D
:1045F000404C8D6A4CEA05059D60DD6845F000552C
:10460000DD60DD6825F08045DD60BFF35F8FDD682C
:1046100045F00045DD600D68AD0706D5DD6825F085
:10462000607CCD684CEA0505DD600025DFF898E187
:10463000DFF89891D2F808A0BAF1000F43D1019A9F
:10464000002A00F0BC809A6842F000429A60DA6862
:1046500042F08052DA6000EB8703C26BDA62876255
:10466000EFF31082012383F31088036C01332B4492
:10467000036482F3108800207FE74FF0010880E791
:104680005A609A6802EA0E029A602A4692E725F476
:10469000FF4E4D681CF0010F2EF07F0E4EEA05050F
:1046A000DD6006D0DD6825F4403E4D694EEA050523
:1046B000DD601CF0200F96D0DD6825F0406E0D699E
:1046C0004EEA05058EE707F1010CDA68BCF1030F2D
:1046D00022F0805288BFA7F1030CDA6000EB8C0750
:1046E000BB69DA6822F00052DA60DA68002A17DA69
:1046F00008F1010200212A44B56991423FF43CAF20
:10470000BFF35F8FEB68013123F00043EB60631C64
:10471000032B88BFE31E00EB8304A5691C46ECE76E
:10472000FA6A002AE4D1DAF800201A609F68DAF801
:1047300004206FF30D071743DAF808209F602AB3AF
:1047400017685F609F6807EA0E0A57684AEA0747DA
:104750009F60D1F800B0DF681BF0100F1DD007EA92
:10476000090ACF694AEA0707DF60DF6847F4802754
:10477000DF600135BFF35F8FDF6847F00047DF6020
:10478000DF6827F08047DF60674653E75A609A6822
:1047900002EA0E029A605246DBE727F4FF4A4F68AE
:1047A0001BF0010F2AF07F0A4AEA0707DF60E0D01A
:1047B000DF6827F4403A4F694AEA0707D8E79A6862
:1047C00022F0004242E700BFFFFF00C00000FCFFF4
:1047D0002DE9F7430023856E0446C76E019305F16A
:1047E00012034FF001484FF0414950F8236037B1B0
:1047F0003369E3B901A803F0CBFC019BABB9E36ECD
:10480000BB420FD0BFF35F8FE91C236822691820D9
:1048100001F0030103F5805300FB0122C3F82821B6
:10482000C4E91A5703B0BDE8F08333613360A36D68
:1048300063B1C6F80C906B1C013F032B88BFEB1EC5
:1048400003F112021D4654F82260D0E7C6F80C802E
:10485000F1E7D0F88430102B4FF0010310B5044677
:1048600037D1202283650423C0F88420C366FFF774
:10487000AFFF2268002002F58053D3F8041141F005
:104880000101C3F80411D3F8081141F00101C3F884
:104890000811D3F8601141F48171C3F86011D2F8A6
:1048A000001D41F00101C2F8001D116841F0020134
:1048B0001160116841F001011160D3F8342142F414
:1048C000504242F0C102C3F834214023C4F884307E
:1048D00010BD1846FCE7D0F884200346402A10B5E6
:1048E00038D12022C0F8842050F8442B02F58051A2
:1048F000D1F8344124F4504424F0C104C1F83441C7
:10490000D1F8044124F00104C1F80441D1F8084170
:1049100024F00104C1F8084103F15404116821F0A6
:1049200001011160D2F8001D41F00101C2F8001D23
:10493000116821F00201116050F8041FCA68A042FA
:1049400022F08042CA60F7D1002010229865C3F897
:10495000842010BD0120FCE710B5044639B9D0F819
:10496000883043F00103C4F88830012010BDD0F82E
:104970008420402AF9D14B6B0122C363FFF790FDDD
:1049800020B1D4F8883043F00203ECE7BFF34F8F37
:10499000A26A0020531C032B88BFD31E2268A36287
:1049A000063354F8231002F58053C3F82011DDE7D5
:1049B0002DE9F04F044685B08A4649B9D0F88830D1
:1049C00043F00103C0F88830012005B0BDE8F08F46
:1049D000D0F88430402BF7D1D0F85C904FF000082D
:1049E00000F1800109F112034646C34650F82350F6
:1049F0007C3050F8103CC3F104030193EB68002BAA
:104A000005DB019B9E4202D0B8F1000F11D0E36E8E
:104A10001E44E66616B12046FFF7DAFEC4F85C9045
:104A2000B8F1000FD0D0E36F0020CAF80030E06783
:104A3000CBE7EB685B0003D56B68A3672B68636704
:104A4000EB689F0001D4E36F03B3EB68EF689A0053
:104A5000C7F30E0748BFC4E918BB636EFF1AEB68C3
:104A6000DB0003D5EB684FF001082367BBB22A696E
:104A7000CDE9020103F0AEFB236E01332366636EC2
:104A8000DDE902013B446366C5F810B009F101039A
:104A90000136032B88BFA9F1030303F112029946E3
:104AA00054F82250AAE72DE9F047054601274FF0B8
:104AB00018094FF0000AD0E9106406B117B90020B8
:104AC000BDE8F08705EB8408013ED8F82C0028B932
:104AD000631C032B00D9E31E1C46EEE7EB6809FBC1
:104AE0000433DB68002B0ADB03F0A2FB631CC8F86D
:104AF0002CA0032B88BFE31EC5E91063ECE7234617
:104B00000027E9E770477047704703684FF0B042ED
:104B10002DE9F041D3F8B07003F580530446D3F883
:104B20006051D3F83481D2F8A8606A0608D518F02D
:104B3000400F05D048F24002C3F8602103F02AF983
:104B4000EB070CD518F0010F09D0236848F20102D9
:104B5000204603F58053C3F8602103F021F968046F
:104B600024D518F4804F21D0D4F8883015F4805F14
:104B700043F00803C4F88830236803F58053D3F862
:104B8000602155D022F46F6222F00D02D204D20CC3
:104B9000C4F88C20D3F8342122F44042C3F83421E5
:104BA000E023C4F88430204603F000F917F4C04F26
:104BB00013D0D4F88830204643F01003C4F888306E
:104BC0002368D3F8B830C4F89030E023C4F88430B8
:104BD00003F0ECF80023C4F89030F9060CD52368F4
:104BE0002046D3F8C03003F06003C4F89430FFF7D8
:104BF00089FF0023C4F89430BA060CD523682046F8
:104C0000D3F8D03003F00F03C4F89830FFF77BFFE0
:104C10000023C4F89830730208D54FF0B0434FF426
:104C200080022046C3F8A820FFF76EFFBDE8F081A0
:104C300002F4CD42C4F88C204FF4CD42C3F8602179
:104C4000B1E770B51E4603680546D3F80002C007F9
:104C500001D5012070BDD3F8004224F0787444EAF5
:104C6000415121F4F81141EA024242F00D02C3F829
:104C70000022FFF7A1F904462A68D2F8000210F0DA
:104C8000010004D1D2F804329BB23360E2E7FFF7AF
:104C900093F9001BB0F57A7FEED9DAE738B505460F
:104CA0000068D0F80042E40701D5012038BDD0F8F3
:104CB00000429BB224F0787444EA415121F4F81187
:104CC00041EA02420C4922F00C02C1F8043242F0DF
:104CD0000502C1F80022FFF76FF904462B68D3F8EC
:104CE000000210F00100E1D0FFF766F9001BB0F5FB
:104CF0007A7FF3D9D9E700BF00800240002900F095
:104D0000C180036800201A6802F00C02CA621A68A7
:104D1000C2F3001281F828201A6802F060024A6289
:104D20001A6882F48072C2F3002281F820201A6887
:104D3000C2F34022CA771A6882F48062C2F38022EA
:104D40008A771A68C2F3C0224A771A68C2F300321F
:104D50000A771A6802F400528A611A6802F48042E3
:104D60004A611A68C2F300428A741A6882F40032F7
:104D7000C2F340424A741A6882F40022C2F3C0426D
:104D80000A741A68C2F30052CA731A68C2F3405216
:104D90008A731A68C2F380524A731A68C2F3C05207
:104DA0000A731A6802F0E0628A601A68C2F3C0628D
:104DB0000A711A6802F0E0420A605A68C2F30D02F2
:104DC0004A635A6882F48032C2F3004281F832208A
:104DD0005A68C2F3404281F831205A68C2F38042D7
:104DE00081F830205A68C2F3006281F838205A688E
:104DF000C2F34462CA63DA68C2F3002281F8402039
:104E0000DA6802F00F024A641A6FC2F3400281F8B6
:104E100054201A6F82F08002C2F3C01281F84C2035
:104E20001A6F02F070020A651A6F120C8A64D3F8C6
:104E3000902002F0010281F85620D3F89020C2F3AE
:104E4000400281F85520D3F8002D02F072028A65E5
:104E5000D3F8302D02F02302CA65D3F8302DC2F307
:104E6000C00281F86220D3F8302DC2F3001281F81D
:104E70006120D3F8303D83F04003C3F3801381F801
:104E8000603070470120704708B539B1D0F88430E0
:104E9000102B03D1FFF7FCF9002008BD0120FCE72F
:104EA00038B503680546D3F8004201F00BF9114B01
:104EB00024F47064984205D844F400742B68C3F855
:104EC000004238BD0C4B984202D244F44074F5E7DE
:104ED0000A4B9842F2D90A4B984202D844F48074A3
:104EE000ECE7084B984294BF44F4806444F4A06417
:104EF000E4E700BFBF0E160200879303FFE0F5054D
:104F00007FD1F0087FB2E60EF0B50446A5B00028C8
:104F100000F0AF80D0F8843023B92023C0F884306B
:104F200003F03EF8814BD3F8F42042F00202C3F8BC
:104F3000F420D3F8F430207A03F002030193019BAC
:104F4000002840F08680FFF755F8794B5B682368AE
:104F500003F580531A6842F001021A60FFF72CF83B
:104F60000646236803F580531D6815F0010573D1CB
:104F700020460127FFF794FF01F0A4F86D4B4FF492
:104F80008041266814958DF830708DF854508DF856
:104F900064501A951D958DF86C508DF84C70ADF8D5
:104FA0008C708DF88E501F95ADF880508DF8825022
:104FB0001695ADF85C508DF85E700D958DF83E50ED
:104FC0001C958DF87870B0FBF3F04FF4C363013893
:104FD00018934FF04053C6F8DC0002200B934FF4B7
:104FE0000053CDE910134FF480330BA91293202303
:104FF000CDE92103504B20460E9340F20113ADF84A
:105000003C30FFF745F94FF4001302A920468DF814
:105010000C70069308934FF4067302950A93049755
:10502000ADF814508DF81C50ADF82450FFF7F2F98C
:1050300006F580536069D3F8002110F0030122F4D3
:10504000E01242F40022C3F8002115D0C4F88870A1
:105050000CE04FF4000076E7FEF7AEFF801BB0F5E2
:10506000FA7F7FF67EAF0423C4F88830E023C4F8CB
:105070008430012025B0F0BDD3F8082104F11405D7
:105080006FF34E0242EA4002E068C3F8082100F1E3
:1050900060070246116051609160D16045F8042FAD
:1050A0001832BA42F6D1A162032221690025C3F861
:1050B0002C2101F16007C3F814010A46C3F820014E
:1050C00004F14400156055609560D560C2E904554F
:1050D00040F8042F1832BA42F4D10322A56500200B
:1050E000C4E91755C4E91A55C3F83021C3F81C1197
:1050F0004831C3F8281163689A88C6F800231B68F2
:10510000C6F804330D4BD6F80C271343C6F80C37FA
:10511000D6F8103743F0426343F44043C6F81037E3
:105120001023C4F88850C4F88430A3E70044025820
:105130000004005840420F00000001016000020C12
:10514000D0F888007047D0F88C0070472DE9F74FF1
:105150000023DFF8C4914FF0B0440A6832FA03F537
:1051600002D103B0BDE8F08F012505FA03F818EA73
:10517000020200F0BB804E6803274FEA430E06F0A0
:10518000030507FA0EFC6F1E6FEA0C0C012F34D8D2
:10519000876807EA0C0ACF6807FA0EF747EA0A079A
:1051A0008760476827EA0808C6F300179F4047EA68
:1051B00008074760C768022D07EA0C088F6807FADE
:1051C0000EF747EA0807C76019D14FEAD30803F082
:1051D000070A4FF00F0B00EB88084FEA8A0AD8F84D
:1051E00020700BFA0AFB27EA0B0B0F6907FA0AF784
:1051F00047EA0B07C8F8207001E0032DDAD10768F1
:1052000005FA0EF516F4403F07EA0C0745EA0705D4
:1052100005606BD0D9F8F45023F0030703F0030CBA
:105220004FF00F0E45F0020507F1B0474FEA8C0C26
:10523000C9F8F45007F58067D9F8F4500EFA0CFE5F
:1052400005F002050195019DBD6825EA0E0E314D60
:10525000A8424DD005F58065A8424BD005F5806584
:10526000A84249D005F58065A84247D005F580657C
:10527000A84245D005F58065A84243D005F5806574
:10528000A84241D005F58065A8423FD005F580656C
:10529000A8423DD005F58065A84214BF0A2509251E
:1052A00005FA0CF516F4801F45EA0E05BD606FEA9D
:1052B000020725680CBF3D40154316F4001F25600A
:1052C00065680CBF3D40154316F4003F6560D4F897
:1052D00084500CBF3D401543F603C4F88450D4F805
:1052E000805054BF3D401543C4F88050013334E72B
:1052F0000025D5E70125D3E70225D1E70325CFE730
:105300000425CDE70525CBE70625C9E70725C7E72F
:105310000825C5E7000002580044025803691942F5
:1053200014BF0120002070470AB181617047090451
:10533000FBE7436901EA030221EA030141EA024172
:105340008161704710B5044600284ED090F8413076
:1053500003F0FF021BB980F84020FCF72DFC24234A
:1053600084F8413023681A6822F001021A606268EA
:1053700022F070621A619A6822F400429A60D4E9BD
:105380000221012906D142F400429A605A6822F4AF
:10539000006207E042F4044202299A60F6D15A689A
:1053A00042F400625A6000205A6842F0007242F4EF
:1053B00000425A60DA6822F40042DA60D4E904213B
:1053C0000A43A16942EA0122DA60D4E907210A43CB
:1053D0001A601A6842F001021A602023606484F89F
:1053E0004130206384F8420010BD0120FCE710B575
:1053F00090F841200346202AD4B21CD190F84020D6
:10540000012A18D0242280F841200268106820F078
:1054100001001060106820F4805010601068014393
:1054200000201160116841F00101116083F84140D2
:1054300083F8400010BD0220FCE710B590F8412031
:105440000346202AD4B21BD190F84020012A17D05D
:10545000242280F841200268106820F001001060CA
:10546000106820F4706040EA01210020116011688A
:1054700041F00101116083F8414083F8400010BD04
:105480000220FCE7094B82B0D3F8F42042F002027C
:10549000C3F8F420D3F8F430054A03F00203019373
:1054A000019B53680343536002B0704700440258A5
:1054B00000040058D201006884328318F0B5C76830
:1054C0005D684C68C7F30B4705F470450E682744C8
:1054D0005D6006F1010CC568A41BC5F30B4565446E
:1054E00045EA07455D60C768CD68C7F30A072F44E2
:1054F0009D6805F470459D608D68D0F80CC001353D
:10550000CCF30A0C6544D1F810C045EA07458F6911
:10551000BCF1070F9D601D6925F007051D61C3F8EB
:1055200010C091F8305045EA076591F8317045EAAE
:10553000072591F8327045EA07459D615D6925F0C0
:10554000FF055D614D695D61DD6925F4E06525F06C
:105550000705DD61D1E9075745EA070588BF01273F
:10556000DD614D6A9D629CBF0C4D15F80C70DD6AC3
:105570007C4305F0E0250734DD628D6AC96A7D430E
:1055800044EA0544DC621C6B6FF30A041C63196374
:10559000835843F001038350F0BD00BFD4300808A6
:1055A00038B5044600284ED090F8A13003F0FF0231
:1055B0001BB980F8A020FCF749FB022384F8A13036
:1055C00023689A6922F070429A619969D4E90120AE
:1055D0000243E0680243206902430A439A61D4E926
:1055E000051242EA01429A60D4E9071242EA0142F6
:1055F000DA60D4E9091242EA01421A61D4E90B12D5
:1056000042EA01425A61DA6A94F8350002F07F42B8
:1056100094F83610DA62DD6A94F834202A4342EABC
:105620000022002042EA0142DA625A6B42F006028E
:105630005A639A6942F001029A610123C4F8A400F6
:1056400084F8A13038BD0120FCE77047704703683B
:1056500070B59E6B04465D6B720714D5690712D551
:105660005A6B22F004025A630422DA63D0F8A430A1
:1056700043F00103C0F8A430002380F8A12080F893
:10568000A030FFF7E2FFB20716D5AB0714D52368A9
:1056900020465A6B22F002025A630222DA63D4F8DF
:1056A000A4301343C4F8A430042384F8A1300023A9
:1056B00084F8A030FFF7C9FFF00710D5E9070ED531
:1056C000236820465A6B22F001025A630122DA63F2
:1056D000002384F8A12084F8A030FBF7CBFC32072C
:1056E00011D52B070FD5236820465A6B22F00802EC
:1056F0005A630822DA63012384F8A130002384F876
:10570000A030FFF7A3FF70BD2DE9F04190F8A03065
:1057100006460F469446012B4FF002001FD034245A
:105720004FF001080D4686F8A10004FB026486F8DC
:10573000A08038340FCD0FC40FCD0FC40FCD0FC4D0
:105740002B683046624639462360FFF7B3FE336864
:105750000020C3F8248086F8A18086F8A000BDE868
:10576000F081000090F8A02003460220012A12D008
:105770001A6883F8A100506B20F0010050630648BE
:1057800001640020516B41F001015163012283F853
:10579000A00083F8A12070470010005038B5104CCD
:1057A000E36813F0040FE36805D103F00703181A48
:1057B00018BF012038BD23F007031843E060FEF74F
:1057C000FBFB054663689B0401D50020F2E7FEF76A
:1057D000F3FB401BB0F57A7FF4D90120EAE700BF64
:1057E00000480258F8B50446002874D00368D8076A
:1057F0005ED42368990700F1AD802368DA0627D5C7
:105800009C4A1369916A03F03803082B07D0182BC0
:1058100040F0038101F00303012B40F0FE80136888
:10582000DB0502D5E369802B55D1FEF7DDFB41F2A4
:105830000303216A98428F4B00F2E8805A682029BE
:1058400022F0F8420CBF42F0804242EA81625A6084
:105850002368190700F1238123689A0600F1448127
:1058600023685D071ED5844D2B6843F480732B603D
:10587000FEF7A2FB06462B68DA0540F15A81A368C1
:105880007C4D012B40F05C812B6F43F001032B67B3
:1058900041F28837FEF790FB764E0546336F9B0743
:1058A00040F17481616A002940F0778100202BE08B
:1058B000704A1369916A03F03803102B05D0182B36
:1058C0000BD101F00303022B07D113689A0390D583
:1058D0006368002B8DD1012016E06368654DB3F538
:1058E000803F12D12B6843F480332B60FEF764FBBA
:1058F000604E054633689B033FF57BAFFEF75CFBCC
:10590000401B6428F6D90320F8BDA3B92B6823F403
:1059100080332B602B6823F480232B60FEF74CFB35
:1059200006462B689F037FF564AFFEF745FB801B9F
:105930006428F6D9E7E7B3F5A02F2B6803D143F429
:1059400080232B60CEE723F480332B602B6823F475
:105950008023CAE74749E2680B69886A13F0380375
:1059600003D0182B2AD1800728D10B685B0701D5FB
:10597000002AB0D03F4D2B6823F0190313432B604E
:10598000FEF71AFB06462B685F0711D5FEF72CFBC6
:1059900041F20303226998426B6822D823F47C33D6
:1059A000402A0CBF43F4003343EA02336B6024E720
:1059B000FEF702FB801B0228E5D9A4E72D4D2B68DA
:1059C000A2B123F0190313432B60FEF7F5FA064644
:1059D0002B685807DAD4FEF7EFFA801B0228F7D9B4
:1059E00091E723F0FE4343EA0263DFE723F001037C
:1059F0002B60FEF7E1FA06462B6859077FF5FDAEEE
:105A0000FEF7DAFA801B0228F6D97CE7DA6822F082
:105A10007C5242EA0162DA601AE7E369154D6BB322
:105A20002B6843F080032B60FEF7C6FA06462B680E
:105A3000DF0511D5FEF7D8FA41F20303226A984236
:105A400010D86B68202A23F0F8430CBF43F0804342
:105A500043EA82636B60FBE6FEF7AEFA801B022826
:105A6000E5D950E7EB6823F07C5343EA0263EB602F
:105A7000EEE600BF00440258004802582B6823F0AD
:105A800080032B60FEF798FA06462B68D8057FF551
:105A9000DFAEFEF791FA801B0228F6D933E763697F
:105AA000A34D83B16B6F43F001036B67FEF784FA7C
:105AB00006466B6F9B073FF5CFAEFEF77DFA801B66
:105AC0000228F6D91FE76B6F23F001036B67FEF71F
:105AD00073FA06466B6F9F077FF5BEAEFEF76CFA52
:105AE000801B0228F6D90EE7A369914D83B12B687C
:105AF00043F480532B60FEF75FFA06462B68980448
:105B00003FF5AEAEFEF758FA801B0228F6D9FAE64A
:105B10002B6823F480532B60FEF74EFA06462B6861
:105B200099047FF59DAEFEF747FA801B0228F6D94F
:105B3000E9E6FEF741FA801B64287FF69CAEE2E6B8
:105B4000B3B92B6F41F2883723F001032B672B6F1A
:105B500023F004032B67FEF72FFA06462B6F9807F6
:105B60007FF5A0AEFEF728FA801BB842F6D9CAE648
:105B7000052B2B6F03D143F004032B6784E623F03E
:105B800001032B672B6F23F0040380E6FEF714FA62
:105B9000401BB8427FF682AEB5E6654D2B6903F037
:105BA0003803182B78D02B68022923F080732B60E0
:105BB00065D1FEF701FA06462B68990159D4AB6A04
:105BC000A26A23F47C7323F003031343E26A43EADB
:105BD0000213AB62636BA26B013B013A5B021204DE
:105BE0009BB202F4FE021343226B013AC2F3080295
:105BF0001343E26B013A120602F0FE4213432B6399
:105C0000EB6A23F00103EB626B6BA26C6FF3CF03C3
:105C100043EAC2036B63EB6A226C23F00C03134369
:105C2000EB62EB6A626C23F002031343EB62EB6AF4
:105C300043F48033EB62EB6A43F40033EB62EB6ACC
:105C400043F48023EB62EB6A43F00103EB622B68C1
:105C500043F080732B60FEF7AFF9354D04462B6897
:105C60009A013FF523AEFEF7A7F9001B0228F6D9EB
:105C700049E6FEF7A1F9801B02289DD943E6FEF70D
:105C80009BF904462B689B017FF510AEFEF794F953
:105C9000001B0228F6D936E60129AA6A2B6B3FF4CD
:105CA0001AAE02F00301A06A81427FF414AEC2F37F
:105CB0000512E16A8A427FF40EAE226BC3F308013B
:105CC000013A91427FF407AE626BC3F34621013A79
:105CD00091427FF400AEA26BC3F30641013A9142B8
:105CE0007FF4F9ADE26BC3F30663013A93427FF4AC
:105CF000F2AD6B6BA26CC3F3CC039A423FF4D6AD0A
:105D00000B4DEB6A23F00103EB62FEF755F90646F3
:105D1000FEF752F9B042FBD06B6BA26C6FF3CF036E
:105D200043EAC2036B63EB6A43F00103EB62BDE538
:105D300000440258494B1A6902F03802102A30B563
:105D400000F08880182A0CD0002A40F085801A685C
:105D5000434812F0200F03D01B68C3F3C103D8409F
:105D600030BD996A9D6ADC6A15F47C7FC5F3051025
:105D70005A6BF5D0C2F3CC0204F0010401F0030128
:105D800007EE900A6243B7EE006A0129B8EEE77A9F
:105D900006EE902AFAEEE96A4ED002293ED000299A
:105DA0004AD11A68920627D519682D4AC1F3C10154
:105DB0001B6BCA40C3F3080307EE902AF8EEE75ABC
:105DC000C5EE877A07EE103AB8EEC77A37EE267A34
:105DD00037EE067A67EE877A204B1B6BC3F34623B8
:105DE000013307EE103AF8EEC76A87EEA67AFCEEAA
:105DF000C77A17EE900AB3E71B6BC3F3080307EEED
:105E0000903AF8EEE77A77EEA67A77EE867A9FED0B
:105E1000156AC6EE076A67EEA67ADDE71B6BC3F369
:105E2000080307EE903AF8EEE77A77EEA67A77EE77
:105E3000867A9FED0D6AECE71B6BC3F3080307EE50
:105E4000903AF8EEE77A77EEA67A77EE867A9FEDCB
:105E5000076ADEE7064883E7064881E70044025800
:105E60000090D0030024744C20BCBE4B0024744A24
:105E700040787D0100093D002DE9F0410D460446C2
:105E800010B90120BDE8F081884A136803F00F03C0
:105E90008B42C0F0938023685F0700F19B801E0750
:105EA0000BD583496069CA6902F07002904204D937
:105EB000CA6922F070020243CA61D8060BD57C4938
:105EC000A069CA6902F4E062904204D9CA6922F466
:105ED000E0620243CA6199060BD57549E0690A6A16
:105EE00002F07002904204D90A6A22F07002024362
:105EF0000A629A070BD56E49E0688A6902F00F02C0
:105F0000904204D98A6922F00F0202438A61DF07B6
:105F10006ED423689E0700F1A18064490A6802F0EC
:105F20000F02AA4200F2A880580700F1B1801907B9
:105F30000BD55F496069CA6902F07002904204D2D1
:105F4000CA6922F070020243CA61DA060BD55849C9
:105F5000A069CA6902F4E062904204D2CA6922F4DC
:105F6000E0620243CA619B060BD5514AE169136A9C
:105F700003F07003994204D2136A23F070030B43B9
:105F80001362FFF7D7FE4A494A4A8B69C3F30323DA
:105F9000D35C03F01F03D8408B6903F00F03D35C7D
:105FA000454A03F01F0320FA03F31360434B1860C4
:105FB000434BBDE8F0411868FCF75EB8136823F066
:105FC0000F030B431360136803F00F038B427FF43E
:105FD00058AF60E7364920698A6902F07002904242
:105FE0007FF65DAF8A6922F0700202438A6156E74C
